{"abi":[{"type":"constructor","inputs":[{"name":"_core","type":"address","internalType":"address"},{"name":"_name","type":"string","internalType":"string"},{"name":"_symbol","type":"string","internalType":"string"}],"stateMutability":"nonpayable"},{"type":"function","name":"DOMAIN_SEPARATOR","inputs":[],"outputs":[{"name":"","type":"bytes32","internalType":"bytes32"}],"stateMutability":"view"},{"type":"function","name":"allowance","inputs":[{"name":"owner","type":"address","internalType":"address"},{"name":"spender","type":"address","internalType":"address"}],"outputs":[{"name":"","type":"uint256","internalType":"uint256"}],"stateMutability":"view"},{"type":"function","name":"approve","inputs":[{"name":"spender","type":"address","internalType":"address"},{"name":"value","type":"uint256","internalType":"uint256"}],"outputs":[{"name":"","type":"bool","internalType":"bool"}],"stateMutability":"nonpayable"},{"type":"function","name":"balanceOf","inputs":[{"name":"account","type":"address","internalType":"address"}],"outputs":[{"name":"","type":"uint256","internalType":"uint256"}],"stateMutability":"view"},{"type":"function","name":"burn","inputs":[{"name":"_value","type":"uint256","internalType":"uint256"}],"outputs":[],"stateMutability":"nonpayable"},{"type":"function","name":"burnFrom","inputs":[{"name":"_account","type":"address","internalType":"address"},{"name":"_value","type":"uint256","internalType":"uint256"}],"outputs":[],"stateMutability":"nonpayable"},{"type":"function","name":"core","inputs":[],"outputs":[{"name":"","type":"address","internalType":"contract InfiniFiCore"}],"stateMutability":"view"},{"type":"function","name":"decimals","inputs":[],"outputs":[{"name":"","type":"uint8","internalType":"uint8"}],"stateMutability":"view"},{"type":"function","name":"eip712Domain","inputs":[],"outputs":[{"name":"fields","type":"bytes1","internalType":"bytes1"},{"name":"name","type":"string","internalType":"string"},{"name":"version","type":"string","internalType":"string"},{"name":"chainId","type":"uint256","internalType":"uint256"},{"name":"verifyingContract","type":"address","internalType":"address"},{"name":"salt","type":"bytes32","internalType":"bytes32"},{"name":"extensions","type":"uint256[]","internalType":"uint256[]"}],"stateMutability":"view"},{"type":"function","name":"emergencyAction","inputs":[{"name":"calls","type":"tuple[]","internalType":"struct CoreControlled.Call[]","components":[{"name":"target","type":"address","internalType":"address"},{"name":"value","type":"uint256","internalType":"uint256"},{"name":"callData","type":"bytes","internalType":"bytes"}]}],"outputs":[{"name":"returnData","type":"bytes[]","internalType":"bytes[]"}],"stateMutability":"payable"},{"type":"function","name":"mint","inputs":[{"name":"_to","type":"address","internalType":"address"},{"name":"_amount","type":"uint256","internalType":"uint256"}],"outputs":[],"stateMutability":"nonpayable"},{"type":"function","name":"name","inputs":[],"outputs":[{"name":"","type":"string","internalType":"string"}],"stateMutability":"view"},{"type":"function","name":"nonces","inputs":[{"name":"owner","type":"address","internalType":"address"}],"outputs":[{"name":"","type":"uint256","internalType":"uint256"}],"stateMutability":"view"},{"type":"function","name":"pause","inputs":[],"outputs":[],"stateMutability":"nonpayable"},{"type":"function","name":"paused","inputs":[],"outputs":[{"name":"","type":"bool","internalType":"bool"}],"stateMutability":"view"},{"type":"function","name":"permit","inputs":[{"name":"owner","type":"address","internalType":"address"},{"name":"spender","type":"address","internalType":"address"},{"name":"value","type":"uint256","internalType":"uint256"},{"name":"deadline","type":"uint256","internalType":"uint256"},{"name":"v","type":"uint8","internalType":"uint8"},{"name":"r","type":"bytes32","internalType":"bytes32"},{"name":"s","type":"bytes32","internalType":"bytes32"}],"outputs":[],"stateMutability":"nonpayable"},{"type":"function","name":"restrictTransferUntilNextEpoch","inputs":[{"name":"_user","type":"address","internalType":"address"}],"outputs":[],"stateMutability":"nonpayable"},{"type":"function","name":"setCore","inputs":[{"name":"newCore","type":"address","internalType":"address"}],"outputs":[],"stateMutability":"nonpayable"},{"type":"function","name":"symbol","inputs":[],"outputs":[{"name":"","type":"string","internalType":"string"}],"stateMutability":"view"},{"type":"function","name":"totalSupply","inputs":[],"outputs":[{"name":"","type":"uint256","internalType":"uint256"}],"stateMutability":"view"},{"type":"function","name":"transfer","inputs":[{"name":"to","type":"address","internalType":"address"},{"name":"value","type":"uint256","internalType":"uint256"}],"outputs":[{"name":"","type":"bool","internalType":"bool"}],"stateMutability":"nonpayable"},{"type":"function","name":"transferFrom","inputs":[{"name":"from","type":"address","internalType":"address"},{"name":"to","type":"address","internalType":"address"},{"name":"value","type":"uint256","internalType":"uint256"}],"outputs":[{"name":"","type":"bool","internalType":"bool"}],"stateMutability":"nonpayable"},{"type":"function","name":"transferRestrictions","inputs":[{"name":"","type":"address","internalType":"address"}],"outputs":[{"name":"","type":"uint256","internalType":"uint256"}],"stateMutability":"view"},{"type":"function","name":"unpause","inputs":[],"outputs":[],"stateMutability":"nonpayable"},{"type":"event","name":"Approval","inputs":[{"name":"owner","type":"address","indexed":true,"internalType":"address"},{"name":"spender","type":"address","indexed":true,"internalType":"address"},{"name":"value","type":"uint256","indexed":false,"internalType":"uint256"}],"anonymous":false},{"type":"event","name":"CoreUpdate","inputs":[{"name":"oldCore","type":"address","indexed":true,"internalType":"address"},{"name":"newCore","type":"address","indexed":true,"internalType":"address"}],"anonymous":false},{"type":"event","name":"EIP712DomainChanged","inputs":[],"anonymous":false},{"type":"event","name":"Paused","inputs":[{"name":"account","type":"address","indexed":false,"internalType":"address"}],"anonymous":false},{"type":"event","name":"Transfer","inputs":[{"name":"from","type":"address","indexed":true,"internalType":"address"},{"name":"to","type":"address","indexed":true,"internalType":"address"},{"name":"value","type":"uint256","indexed":false,"internalType":"uint256"}],"anonymous":false},{"type":"event","name":"Unpaused","inputs":[{"name":"account","type":"address","indexed":false,"internalType":"address"}],"anonymous":false},{"type":"error","name":"ECDSAInvalidSignature","inputs":[]},{"type":"error","name":"ECDSAInvalidSignatureLength","inputs":[{"name":"length","type":"uint256","internalType":"uint256"}]},{"type":"error","name":"ECDSAInvalidSignatureS","inputs":[{"name":"s","type":"bytes32","internalType":"bytes32"}]},{"type":"error","name":"ERC20InsufficientAllowance","inputs":[{"name":"spender","type":"address","internalType":"address"},{"name":"allowance","type":"uint256","internalType":"uint256"},{"name":"needed","type":"uint256","internalType":"uint256"}]},{"type":"error","name":"ERC20InsufficientBalance","inputs":[{"name":"sender","type":"address","internalType":"address"},{"name":"balance","type":"uint256","internalType":"uint256"},{"name":"needed","type":"uint256","internalType":"uint256"}]},{"type":"error","name":"ERC20InvalidApprover","inputs":[{"name":"approver","type":"address","internalType":"address"}]},{"type":"error","name":"ERC20InvalidReceiver","inputs":[{"name":"receiver","type":"address","internalType":"address"}]},{"type":"error","name":"ERC20InvalidSender","inputs":[{"name":"sender","type":"address","internalType":"address"}]},{"type":"error","name":"ERC20InvalidSpender","inputs":[{"name":"spender","type":"address","internalType":"address"}]},{"type":"error","name":"ERC2612ExpiredSignature","inputs":[{"name":"deadline","type":"uint256","internalType":"uint256"}]},{"type":"error","name":"ERC2612InvalidSigner","inputs":[{"name":"signer","type":"address","internalType":"address"},{"name":"owner","type":"address","internalType":"address"}]},{"type":"error","name":"EnforcedPause","inputs":[]},{"type":"error","name":"ExpectedPause","inputs":[]},{"type":"error","name":"InvalidAccountNonce","inputs":[{"name":"account","type":"address","internalType":"address"},{"name":"currentNonce","type":"uint256","internalType":"uint256"}]},{"type":"error","name":"InvalidShortString","inputs":[]},{"type":"error","name":"StringTooLong","inputs":[{"name":"str","type":"string","internalType":"string"}]},{"type":"error","name":"TransferRestrictedUntil","inputs":[{"name":"user","type":"address","internalType":"address"},{"name":"timestamp","type":"uint256","internalType":"uint256"}]},{"type":"error","name":"UnderlyingCallReverted","inputs":[{"name":"returnData","type":"bytes","internalType":"bytes"}]}],"bytecode":{"object":"0x610160604052348015610010575f5ffd5b5060405161233338038061233383398101604081905261002f91610257565b6040805180820190915260018152603160f81b60208201525f80546001600160a81b0319166101006001600160a01b038716021790558290819081846004610077838261035d565b506005610084828261035d565b5061009491508390506006610142565b610120526100a3816007610142565b61014052815160208084019190912060e052815190820120610100524660a05261012f60e05161010051604080517f8b73c3c69bb8fe3d512ecc4cf759cc79239f7b179b0ffacaa9a75d522b39400f60208201529081019290925260608201524660808201523060a08201525f9060c00160405160208183030381529060405280519060200120905090565b60805250503060c0525061046f92505050565b5f60208351101561015d5761015683610174565b905061016e565b81610168848261035d565b5060ff90505b92915050565b5f5f829050601f815111156101a7578260405163305a27a960e01b815260040161019e9190610417565b60405180910390fd5b80516101b28261044c565b179392505050565b634e487b7160e01b5f52604160045260245ffd5b5f82601f8301126101dd575f5ffd5b81516001600160401b038111156101f6576101f66101ba565b604051601f8201601f19908116603f011681016001600160401b0381118282101715610224576102246101ba565b60405281815283820160200185101561023b575f5ffd5b8160208501602083015e5f918101602001919091529392505050565b5f5f5f60608486031215610269575f5ffd5b83516001600160a01b038116811461027f575f5ffd5b60208501519093506001600160401b0381111561029a575f5ffd5b6102a6868287016101ce565b604086015190935090506001600160401b038111156102c3575f5ffd5b6102cf868287016101ce565b9150509250925092565b600181811c908216806102ed57607f821691505b60208210810361030b57634e487b7160e01b5f52602260045260245ffd5b50919050565b601f82111561035857805f5260205f20601f840160051c810160208510156103365750805b601f840160051c820191505b81811015610355575f8155600101610342565b50505b505050565b81516001600160401b03811115610376576103766101ba565b61038a8161038484546102d9565b84610311565b6020601f8211600181146103bc575f83156103a55750848201515b5f19600385901b1c1916600184901b178455610355565b5f84815260208120601f198516915b828110156103eb57878501518255602094850194600190920191016103cb565b508482101561040857868401515f19600387901b60f8161c191681555b50505050600190811b01905550565b602081525f82518060208401528060208501604085015e5f604082850101526040601f19601f83011684010191505092915050565b8051602080830151919081101561030b575f1960209190910360031b1b16919050565b60805160a05160c05160e051610100516101205161014051611e736104c05f395f61145701525f61142a01525f61127901525f61125101525f6111ac01525f6111d601525f6112000152611e735ff3fe608060405260043610610183575f3560e01c80637df3927e116100d1578063a9059cbb1161007c578063d505accf11610057578063d505accf1461041f578063dd62ed3e1461043e578063f2f4eb2614610482575f5ffd5b8063a9059cbb146103b6578063acc468b2146103d5578063af4c8de114610400575f5ffd5b80638456cb59116100ac5780638456cb591461036757806384b0196e1461037b57806395d89b41146103a2575f5ffd5b80637df3927e146103095780637ecebe00146103295780638000963014610348575f5ffd5b80633f4ba83a116101315780635c975abb1161010c5780635c975abb146102a057806370a08231146102b657806379cc6790146102ea575f5ffd5b80633f4ba83a1461024c57806340c10f191461026257806342966c6814610281575f5ffd5b806323b872dd1161016157806323b872dd146101fe578063313ce5671461021d5780633644e51514610238575f5ffd5b806306fdde0314610187578063095ea7b3146101b157806318160ddd146101e0575b5f5ffd5b348015610192575f5ffd5b5061019b6104b6565b6040516101a89190611a2f565b60405180910390f35b3480156101bc575f5ffd5b506101d06101cb366004611a63565b610546565b60405190151581526020016101a8565b3480156101eb575f5ffd5b506003545b6040519081526020016101a8565b348015610209575f5ffd5b506101d0610218366004611a8b565b61055f565b348015610228575f5ffd5b50604051601281526020016101a8565b348015610243575f5ffd5b506101f0610582565b348015610257575f5ffd5b50610260610590565b005b34801561026d575f5ffd5b5061026061027c366004611a63565b610670565b34801561028c575f5ffd5b5061026061029b366004611ac5565b61074f565b3480156102ab575f5ffd5b505f5460ff166101d0565b3480156102c1575f5ffd5b506101f06102d0366004611adc565b6001600160a01b03165f9081526001602052604090205490565b3480156102f5575f5ffd5b50610260610304366004611a63565b61082d565b61031c610317366004611af5565b610912565b6040516101a89190611b66565b348015610334575f5ffd5b506101f0610343366004611adc565b610b94565b348015610353575f5ffd5b50610260610362366004611adc565b610bb1565b348015610372575f5ffd5b50610260610c8a565b348015610386575f5ffd5b5061038f610d62565b6040516101a89796959493929190611bc9565b3480156103ad575f5ffd5b5061019b610da4565b3480156103c1575f5ffd5b506101d06103d0366004611a63565b610db3565b3480156103e0575f5ffd5b506101f06103ef366004611adc565b60096020525f908152604090205481565b34801561040b575f5ffd5b5061026061041a366004611adc565b610dc0565b34801561042a575f5ffd5b50610260610439366004611c5f565b610f85565b348015610449575f5ffd5b506101f0610458366004611ccc565b6001600160a01b039182165f90815260026020908152604080832093909416825291909152205490565b34801561048d575f5ffd5b505f5461010090046001600160a01b03166040516001600160a01b0390911681526020016101a8565b6060600480546104c590611cfd565b80601f01602080910402602001604051908101604052809291908181526020018280546104f190611cfd565b801561053c5780601f106105135761010080835404028352916020019161053c565b820191905f5260205f20905b81548152906001019060200180831161051f57829003601f168201915b5050505050905090565b5f336105538185856110bb565b60019150505b92915050565b5f3361056c8582856110c8565b610577858585611143565b506001949350505050565b5f61058b6111a0565b905090565b5f54604051632474521560e21b81527fe7276a2a84d8de556657ec9cf93a55a7d66f096e529d0582ed08e9e2208b92b5600482018190523360248301529161010090046001600160a01b0316906391d1485490604401602060405180830381865afa158015610601573d5f5f3e3d5ffd5b505050506040513d601f19601f820116820180604052508101906106259190611d35565b6106655760405162461bcd60e51b815260206004820152600c60248201526b15539055551213d49256915160a21b60448201526064015b60405180910390fd5b61066d6112c9565b50565b5f54604051632474521560e21b81527fc46edb8291bbe8016e3c83529d0eb01c2733d265fc4594ac6299b3ef72721546600482018190523360248301529161010090046001600160a01b0316906391d1485490604401602060405180830381865afa1580156106e1573d5f5f3e3d5ffd5b505050506040513d601f19601f820116820180604052508101906107059190611d35565b6107405760405162461bcd60e51b815260206004820152600c60248201526b15539055551213d49256915160a21b604482015260640161065c565b61074a838361131a565b505050565b5f54604051632474521560e21b81527fc46edb8291bbe8016e3c83529d0eb01c2733d265fc4594ac6299b3ef72721546600482018190523360248301529161010090046001600160a01b0316906391d1485490604401602060405180830381865afa1580156107c0573d5f5f3e3d5ffd5b505050506040513d601f19601f820116820180604052508101906107e49190611d35565b61081f5760405162461bcd60e51b815260206004820152600c60248201526b15539055551213d49256915160a21b604482015260640161065c565b610829338361134e565b5050565b5f54604051632474521560e21b81527fc46edb8291bbe8016e3c83529d0eb01c2733d265fc4594ac6299b3ef72721546600482018190523360248301529161010090046001600160a01b0316906391d1485490604401602060405180830381865afa15801561089e573d5f5f3e3d5ffd5b505050506040513d601f19601f820116820180604052508101906108c29190611d35565b6108fd5760405162461bcd60e51b815260206004820152600c60248201526b15539055551213d49256915160a21b604482015260640161065c565b6109088333846110c8565b61074a838361134e565b5f54604051632474521560e21b81527f1a6838efa4183e08fe3607359d1259272af9d4716f65e1a7b5921f78fd5a3c6a6004820181905233602483015260609290916101009091046001600160a01b0316906391d1485490604401602060405180830381865afa158015610988573d5f5f3e3d5ffd5b505050506040513d601f19601f820116820180604052508101906109ac9190611d35565b6109e75760405162461bcd60e51b815260206004820152600c60248201526b15539055551213d49256915160a21b604482015260640161065c565b8267ffffffffffffffff811115610a0057610a00611d54565b604051908082528060200260200182016040528015610a3357816020015b6060815260200190600190039081610a1e5790505b5091505f5b83811015610b8c575f858583818110610a5357610a53611d68565b9050602002810190610a659190611d7c565b610a73906020810190611adc565b90505f868684818110610a8857610a88611d68565b9050602002810190610a9a9190611d7c565b602001359050365f888886818110610ab457610ab4611d68565b9050602002810190610ac69190611d7c565b610ad4906040810190611d9a565b915091505f5f856001600160a01b0316858585604051610af5929190611de4565b5f6040518083038185875af1925050503d805f8114610b2f576040519150601f19603f3d011682016040523d82523d5f602084013e610b34565b606091505b5091509150818190610b5a57604051634ad176bb60e01b815260040161065c9190611a2f565b5080898881518110610b6e57610b6e611d68565b60200260200101819052505050505050508080600101915050610a38565b505092915050565b6001600160a01b0381165f90815260086020526040812054610559565b5f54604051632474521560e21b81527f1a6838efa4183e08fe3607359d1259272af9d4716f65e1a7b5921f78fd5a3c6a600482018190523360248301529161010090046001600160a01b0316906391d1485490604401602060405180830381865afa158015610c22573d5f5f3e3d5ffd5b505050506040513d601f19601f82011682018060405250810190610c469190611d35565b610c815760405162461bcd60e51b815260206004820152600c60248201526b15539055551213d49256915160a21b604482015260640161065c565b61082982611382565b5f54604051632474521560e21b81527ffcb9fcbfa83b897fb2d5cf4b58962164105c1e71489a37ef3ae0db3fdce576f6600482018190523360248301529161010090046001600160a01b0316906391d1485490604401602060405180830381865afa158015610cfb573d5f5f3e3d5ffd5b505050506040513d601f19601f82011682018060405250810190610d1f9190611d35565b610d5a5760405162461bcd60e51b815260206004820152600c60248201526b15539055551213d49256915160a21b604482015260640161065c565b61066d6113e7565b5f6060805f5f5f6060610d73611423565b610d7b611450565b604080515f80825260208201909252600f60f81b9b939a50919850469750309650945092509050565b6060600580546104c590611cfd565b5f33610553818585611143565b5f54604051632474521560e21b81527fcbb2ad763b83373ffb4a14f6dcd2511a7417366beed4ab3780925f276ba43836600482018190523360248301529161010090046001600160a01b0316906391d1485490604401602060405180830381865afa158015610e31573d5f5f3e3d5ffd5b505050506040513d601f19601f82011682018060405250810190610e559190611d35565b610e905760405162461bcd60e51b815260206004820152600c60248201526b15539055551213d49256915160a21b604482015260640161065c565b60405163342a7b0160e01b815242600482015273__$c2db40bc88d1695fb95efa117e02d420e9$__906372b8648990829063342a7b0190602401602060405180830381865af4158015610ee5573d5f5f3e3d5ffd5b505050506040513d601f19601f82011682018060405250810190610f099190611df3565b6040518263ffffffff1660e01b8152600401610f2791815260200190565b602060405180830381865af4158015610f42573d5f5f3e3d5ffd5b505050506040513d601f19601f82011682018060405250810190610f669190611df3565b6001600160a01b039092165f9081526009602052604090209190915550565b83421115610fa95760405163313c898160e11b81526004810185905260240161065c565b5f7f6e71edae12b1b97f4d1f60370fef10105fa2faae0126114a169c64845d6126c9888888610ff48c6001600160a01b03165f90815260086020526040902080546001810190915590565b6040805160208101969096526001600160a01b0394851690860152929091166060840152608083015260a082015260c0810186905260e0016040516020818303038152906040528051906020012090505f61104e8261147d565b90505f61105d828787876114a9565b9050896001600160a01b0316816001600160a01b0316146110a4576040516325c0072360e11b81526001600160a01b0380831660048301528b16602482015260440161065c565b6110af8a8a8a6110bb565b50505050505050505050565b61074a83838360016114d5565b6001600160a01b038381165f908152600260209081526040808320938616835292905220545f19811461113d578181101561112f57604051637dc7a0d960e11b81526001600160a01b0384166004820152602481018290526044810183905260640161065c565b61113d84848484035f6114d5565b50505050565b6001600160a01b03831661116c57604051634b637e8f60e11b81525f600482015260240161065c565b6001600160a01b0382166111955760405163ec442f0560e01b81525f600482015260240161065c565b61074a8383836115a7565b5f306001600160a01b037f0000000000000000000000000000000000000000000000000000000000000000161480156111f857507f000000000000000000000000000000000000000000000000000000000000000046145b1561122257507f000000000000000000000000000000000000000000000000000000000000000090565b61058b604080517f8b73c3c69bb8fe3d512ecc4cf759cc79239f7b179b0ffacaa9a75d522b39400f60208201527f0000000000000000000000000000000000000000000000000000000000000000918101919091527f000000000000000000000000000000000000000000000000000000000000000060608201524660808201523060a08201525f9060c00160405160208183030381529060405280519060200120905090565b6112d1611607565b5f805460ff191690557f5db9ee0a495bf2e6ff9c91a7834c1ba4fdd244a5e8aa4e537bd38aeae4b073aa335b6040516001600160a01b03909116815260200160405180910390a1565b6001600160a01b0382166113435760405163ec442f0560e01b81525f600482015260240161065c565b6108295f83836115a7565b6001600160a01b03821661137757604051634b637e8f60e11b81525f600482015260240161065c565b610829825f836115a7565b5f80546001600160a01b0383811661010081810274ffffffffffffffffffffffffffffffffffffffff0019851617855560405193049190911692909183917f9209b7c8c06dcfd261686a663e7c55989337b18d59da5433c6f2835fb697092091a35050565b6113ef61162b565b5f805460ff191660011790557f62e78cea01bee320cd4e420270b5ea74000d11b0c9f74754ebdbfc544b05a2586112fd3390565b606061058b7f0000000000000000000000000000000000000000000000000000000000000000600661164e565b606061058b7f0000000000000000000000000000000000000000000000000000000000000000600761164e565b5f6105596114896111a0565b8360405161190160f01b8152600281019290925260228201526042902090565b5f5f5f5f6114b9888888886116f7565b9250925092506114c982826117bf565b50909695505050505050565b6001600160a01b0384166114fe5760405163e602df0560e01b81525f600482015260240161065c565b6001600160a01b03831661152757604051634a1406b160e11b81525f600482015260240161065c565b6001600160a01b038085165f908152600260209081526040808320938716835292905220829055801561113d57826001600160a01b0316846001600160a01b03167f8c5be1e5ebec7d5bd14f71427d1e84f3dd0314c0f7b2291e5b200ac8c7c3b9258460405161159991815260200190565b60405180910390a350505050565b6001600160a01b0383165f9081526009602052604090205480156115fc578381428111156115f957604051634acd01fb60e11b81526001600160a01b039092166004830152602482015260440161065c565b50505b61113d848484611877565b5f5460ff1661162957604051638dfc202b60e01b815260040160405180910390fd5b565b5f5460ff16156116295760405163d93c066560e01b815260040160405180910390fd5b606060ff8314611668576116618361199d565b9050610559565b81805461167490611cfd565b80601f01602080910402602001604051908101604052809291908181526020018280546116a090611cfd565b80156116eb5780601f106116c2576101008083540402835291602001916116eb565b820191905f5260205f20905b8154815290600101906020018083116116ce57829003601f168201915b50505050509050610559565b5f80807f7fffffffffffffffffffffffffffffff5d576e7357a4501ddfe92f46681b20a084111561173057505f915060039050826117b5565b604080515f808252602082018084528a905260ff891692820192909252606081018790526080810186905260019060a0016020604051602081039080840390855afa158015611781573d5f5f3e3d5ffd5b5050604051601f1901519150506001600160a01b0381166117ac57505f9250600191508290506117b5565b92505f91508190505b9450945094915050565b5f8260038111156117d2576117d2611e0a565b036117db575050565b60018260038111156117ef576117ef611e0a565b0361180d5760405163f645eedf60e01b815260040160405180910390fd5b600282600381111561182157611821611e0a565b036118425760405163fce698f760e01b81526004810182905260240161065c565b600382600381111561185657611856611e0a565b03610829576040516335e2f38360e21b81526004810182905260240161065c565b6001600160a01b0383166118a1578060035f8282546118969190611e1e565b909155506119119050565b6001600160a01b0383165f90815260016020526040902054818110156118f35760405163391434e360e21b81526001600160a01b0385166004820152602481018290526044810183905260640161065c565b6001600160a01b0384165f9081526001602052604090209082900390555b6001600160a01b03821661192d5760038054829003905561194b565b6001600160a01b0382165f9081526001602052604090208054820190555b816001600160a01b0316836001600160a01b03167fddf252ad1be2c89b69c2b068fc378daa952ba7f163c4a11628f55a4df523b3ef8360405161199091815260200190565b60405180910390a3505050565b60605f6119a9836119da565b6040805160208082528183019092529192505f91906020820181803683375050509182525060208101929092525090565b5f60ff8216601f81111561055957604051632cd44ac360e21b815260040160405180910390fd5b5f81518084528060208401602086015e5f602082860101526020601f19601f83011685010191505092915050565b602081525f611a416020830184611a01565b9392505050565b80356001600160a01b0381168114611a5e575f5ffd5b919050565b5f5f60408385031215611a74575f5ffd5b611a7d83611a48565b946020939093013593505050565b5f5f5f60608486031215611a9d575f5ffd5b611aa684611a48565b9250611ab460208501611a48565b929592945050506040919091013590565b5f60208284031215611ad5575f5ffd5b5035919050565b5f60208284031215611aec575f5ffd5b611a4182611a48565b5f5f60208385031215611b06575f5ffd5b823567ffffffffffffffff811115611b1c575f5ffd5b8301601f81018513611b2c575f5ffd5b803567ffffffffffffffff811115611b42575f5ffd5b8560208260051b8401011115611b56575f5ffd5b6020919091019590945092505050565b5f602082016020835280845180835260408501915060408160051b8601019250602086015f5b82811015611bbd57603f19878603018452611ba8858351611a01565b94506020938401939190910190600101611b8c565b50929695505050505050565b60ff60f81b8816815260e060208201525f611be760e0830189611a01565b8281036040840152611bf98189611a01565b606084018890526001600160a01b038716608085015260a0840186905283810360c0850152845180825260208087019350909101905f5b81811015611c4e578351835260209384019390920191600101611c30565b50909b9a5050505050505050505050565b5f5f5f5f5f5f5f60e0888a031215611c75575f5ffd5b611c7e88611a48565b9650611c8c60208901611a48565b95506040880135945060608801359350608088013560ff81168114611caf575f5ffd5b9699959850939692959460a0840135945060c09093013592915050565b5f5f60408385031215611cdd575f5ffd5b611ce683611a48565b9150611cf460208401611a48565b90509250929050565b600181811c90821680611d1157607f821691505b602082108103611d2f57634e487b7160e01b5f52602260045260245ffd5b50919050565b5f60208284031215611d45575f5ffd5b81518015158114611a41575f5ffd5b634e487b7160e01b5f52604160045260245ffd5b634e487b7160e01b5f52603260045260245ffd5b5f8235605e19833603018112611d90575f5ffd5b9190910192915050565b5f5f8335601e19843603018112611daf575f5ffd5b83018035915067ffffffffffffffff821115611dc9575f5ffd5b602001915036819003821315611ddd575f5ffd5b9250929050565b818382375f9101908152919050565b5f60208284031215611e03575f5ffd5b5051919050565b634e487b7160e01b5f52602160045260245ffd5b8082018082111561055957634e487b7160e01b5f52601160045260245ffdfea2646970667358221220dcb93b4665b5ef8d96528de667c5c051b3377b4fe73f660e8f105e59171fee0864736f6c634300081c0033","linkReferences":{"src/libraries/EpochLib.sol":{"EpochLib":[{"start":4965,"length":20}]}}},"methodIdentifiers":{"DOMAIN_SEPARATOR()":"3644e515","allowance(address,address)":"dd62ed3e","approve(address,uint256)":"095ea7b3","balanceOf(address)":"70a08231","burn(uint256)":"42966c68","burnFrom(address,uint256)":"79cc6790","core()":"f2f4eb26","decimals()":"313ce567","eip712Domain()":"84b0196e","emergencyAction((address,uint256,bytes)[])":"7df3927e","mint(address,uint256)":"40c10f19","name()":"06fdde03","nonces(address)":"7ecebe00","pause()":"8456cb59","paused()":"5c975abb","permit(address,address,uint256,uint256,uint8,bytes32,bytes32)":"d505accf","restrictTransferUntilNextEpoch(address)":"af4c8de1","setCore(address)":"80009630","symbol()":"95d89b41","totalSupply()":"18160ddd","transfer(address,uint256)":"a9059cbb","transferFrom(address,address,uint256)":"23b872dd","transferRestrictions(address)":"acc468b2","unpause()":"3f4ba83a"},"id":107}