{"abi":[{"type":"constructor","inputs":[{"name":"_core","type":"address","internalType":"address"},{"name":"_price","type":"uint256","internalType":"uint256"}],"stateMutability":"nonpayable"},{"type":"function","name":"core","inputs":[],"outputs":[{"name":"","type":"address","internalType":"contract InfiniFiCore"}],"stateMutability":"view"},{"type":"function","name":"emergencyAction","inputs":[{"name":"calls","type":"tuple[]","internalType":"struct CoreControlled.Call[]","components":[{"name":"target","type":"address","internalType":"address"},{"name":"value","type":"uint256","internalType":"uint256"},{"name":"callData","type":"bytes","internalType":"bytes"}]}],"outputs":[{"name":"returnData","type":"bytes[]","internalType":"bytes[]"}],"stateMutability":"payable"},{"type":"function","name":"pause","inputs":[],"outputs":[],"stateMutability":"nonpayable"},{"type":"function","name":"paused","inputs":[],"outputs":[{"name":"","type":"bool","internalType":"bool"}],"stateMutability":"view"},{"type":"function","name":"price","inputs":[],"outputs":[{"name":"","type":"uint256","internalType":"uint256"}],"stateMutability":"view"},{"type":"function","name":"setCore","inputs":[{"name":"newCore","type":"address","internalType":"address"}],"outputs":[],"stateMutability":"nonpayable"},{"type":"function","name":"setPrice","inputs":[{"name":"_price","type":"uint256","internalType":"uint256"}],"outputs":[],"stateMutability":"nonpayable"},{"type":"function","name":"unpause","inputs":[],"outputs":[],"stateMutability":"nonpayable"},{"type":"event","name":"CoreUpdate","inputs":[{"name":"oldCore","type":"address","indexed":true,"internalType":"address"},{"name":"newCore","type":"address","indexed":true,"internalType":"address"}],"anonymous":false},{"type":"event","name":"Paused","inputs":[{"name":"account","type":"address","indexed":false,"internalType":"address"}],"anonymous":false},{"type":"event","name":"PriceSet","inputs":[{"name":"timestamp","type":"uint256","indexed":true,"internalType":"uint256"},{"name":"price","type":"uint256","indexed":false,"internalType":"uint256"}],"anonymous":false},{"type":"event","name":"Unpaused","inputs":[{"name":"account","type":"address","indexed":false,"internalType":"address"}],"anonymous":false},{"type":"error","name":"EnforcedPause","inputs":[]},{"type":"error","name":"ExpectedPause","inputs":[]},{"type":"error","name":"UnderlyingCallReverted","inputs":[{"name":"returnData","type":"bytes","internalType":"bytes"}]}],"bytecode":{"object":"0x6080604052348015600e575f5ffd5b50604051610bc5380380610bc5833981016040819052602b916057565b5f80546001600160a01b03909316610100026001600160a81b031990931692909217909155600155608c565b5f5f604083850312156067575f5ffd5b82516001600160a01b0381168114607c575f5ffd5b6020939093015192949293505050565b610b2c806100995f395ff3fe608060405260043610610079575f3560e01c80638456cb591161004c5780638456cb59146100f857806391b7f5ed1461010c578063a035b1fe1461012b578063f2f4eb261461014e575f5ffd5b80633f4ba83a1461007d5780635c975abb146100935780637df3927e146100b957806380009630146100d9575b5f5ffd5b348015610088575f5ffd5b50610091610182565b005b34801561009e575f5ffd5b505f5460ff1660405190151581526020015b60405180910390f35b6100cc6100c73660046108e0565b610262565b6040516100b0919061097f565b3480156100e4575f5ffd5b506100916100f33660046109e2565b6104e4565b348015610103575f5ffd5b506100916105c1565b348015610117575f5ffd5b50610091610126366004610a0f565b610699565b348015610136575f5ffd5b5061014060015481565b6040519081526020016100b0565b348015610159575f5ffd5b505f5461010090046001600160a01b03166040516001600160a01b0390911681526020016100b0565b5f54604051632474521560e21b81527fe7276a2a84d8de556657ec9cf93a55a7d66f096e529d0582ed08e9e2208b92b5600482018190523360248301529161010090046001600160a01b0316906391d1485490604401602060405180830381865afa1580156101f3573d5f5f3e3d5ffd5b505050506040513d601f19601f820116820180604052508101906102179190610a26565b6102575760405162461bcd60e51b815260206004820152600c60248201526b15539055551213d49256915160a21b60448201526064015b60405180910390fd5b61025f6107a7565b50565b5f54604051632474521560e21b81527f1a6838efa4183e08fe3607359d1259272af9d4716f65e1a7b5921f78fd5a3c6a6004820181905233602483015260609290916101009091046001600160a01b0316906391d1485490604401602060405180830381865afa1580156102d8573d5f5f3e3d5ffd5b505050506040513d601f19601f820116820180604052508101906102fc9190610a26565b6103375760405162461bcd60e51b815260206004820152600c60248201526b15539055551213d49256915160a21b604482015260640161024e565b8267ffffffffffffffff81111561035057610350610a45565b60405190808252806020026020018201604052801561038357816020015b606081526020019060019003908161036e5790505b5091505f5b838110156104dc575f8585838181106103a3576103a3610a59565b90506020028101906103b59190610a6d565b6103c39060208101906109e2565b90505f8686848181106103d8576103d8610a59565b90506020028101906103ea9190610a6d565b602001359050365f88888681811061040457610404610a59565b90506020028101906104169190610a6d565b610424906040810190610a8b565b915091505f5f856001600160a01b0316858585604051610445929190610ad5565b5f6040518083038185875af1925050503d805f811461047f576040519150601f19603f3d011682016040523d82523d5f602084013e610484565b606091505b50915091508181906104aa57604051634ad176bb60e01b815260040161024e9190610ae4565b50808988815181106104be576104be610a59565b60200260200101819052505050505050508080600101915050610388565b505092915050565b5f54604051632474521560e21b81527f1a6838efa4183e08fe3607359d1259272af9d4716f65e1a7b5921f78fd5a3c6a600482018190523360248301529161010090046001600160a01b0316906391d1485490604401602060405180830381865afa158015610555573d5f5f3e3d5ffd5b505050506040513d601f19601f820116820180604052508101906105799190610a26565b6105b45760405162461bcd60e51b815260206004820152600c60248201526b15539055551213d49256915160a21b604482015260640161024e565b6105bd826107f8565b5050565b5f54604051632474521560e21b81527ffcb9fcbfa83b897fb2d5cf4b58962164105c1e71489a37ef3ae0db3fdce576f6600482018190523360248301529161010090046001600160a01b0316906391d1485490604401602060405180830381865afa158015610632573d5f5f3e3d5ffd5b505050506040513d601f19601f820116820180604052508101906106569190610a26565b6106915760405162461bcd60e51b815260206004820152600c60248201526b15539055551213d49256915160a21b604482015260640161024e565b61025f61085d565b5f54604051632474521560e21b81527f942451c9be4228ec3c497ec9d1a5b3a6cc100bc2c661ab6870fff0b4eccfe6f5600482018190523360248301529161010090046001600160a01b0316906391d1485490604401602060405180830381865afa15801561070a573d5f5f3e3d5ffd5b505050506040513d601f19601f8201168201806040525081019061072e9190610a26565b6107695760405162461bcd60e51b815260206004820152600c60248201526b15539055551213d49256915160a21b604482015260640161024e565b600182905560405182815242907fa0f1665b7b659537b52deec61ea64d134a3bccda74c7f4e79f2246e7a8187a8a9060200160405180910390a25050565b6107af610899565b5f805460ff191690557f5db9ee0a495bf2e6ff9c91a7834c1ba4fdd244a5e8aa4e537bd38aeae4b073aa335b6040516001600160a01b03909116815260200160405180910390a1565b5f80546001600160a01b0383811661010081810274ffffffffffffffffffffffffffffffffffffffff0019851617855560405193049190911692909183917f9209b7c8c06dcfd261686a663e7c55989337b18d59da5433c6f2835fb697092091a35050565b6108656108bd565b5f805460ff191660011790557f62e78cea01bee320cd4e420270b5ea74000d11b0c9f74754ebdbfc544b05a2586107db3390565b5f5460ff166108bb57604051638dfc202b60e01b815260040160405180910390fd5b565b5f5460ff16156108bb5760405163d93c066560e01b815260040160405180910390fd5b5f5f602083850312156108f1575f5ffd5b823567ffffffffffffffff811115610907575f5ffd5b8301601f81018513610917575f5ffd5b803567ffffffffffffffff81111561092d575f5ffd5b8560208260051b8401011115610941575f5ffd5b6020919091019590945092505050565b5f81518084528060208401602086015e5f602082860101526020601f19601f83011685010191505092915050565b5f602082016020835280845180835260408501915060408160051b8601019250602086015f5b828110156109d657603f198786030184526109c1858351610951565b945060209384019391909101906001016109a5565b50929695505050505050565b5f602082840312156109f2575f5ffd5b81356001600160a01b0381168114610a08575f5ffd5b9392505050565b5f60208284031215610a1f575f5ffd5b5035919050565b5f60208284031215610a36575f5ffd5b81518015158114610a08575f5ffd5b634e487b7160e01b5f52604160045260245ffd5b634e487b7160e01b5f52603260045260245ffd5b5f8235605e19833603018112610a81575f5ffd5b9190910192915050565b5f5f8335601e19843603018112610aa0575f5ffd5b83018035915067ffffffffffffffff821115610aba575f5ffd5b602001915036819003821315610ace575f5ffd5b9250929050565b818382375f9101908152919050565b602081525f610a08602083018461095156fea2646970667358221220cfdc14d2e333a73f59d4d99a4e378200cfd8ac62e6fd8112cce921db0a2a66c964736f6c634300081c0033","linkReferences":{}},"methodIdentifiers":{"core()":"f2f4eb26","emergencyAction((address,uint256,bytes)[])":"7df3927e","pause()":"8456cb59","paused()":"5c975abb","price()":"a035b1fe","setCore(address)":"80009630","setPrice(uint256)":"91b7f5ed","unpause()":"3f4ba83a"},"id":74}