{"abi":[{"type":"constructor","inputs":[{"name":"name","type":"string","internalType":"string"},{"name":"symbol","type":"string","internalType":"string"}],"stateMutability":"nonpayable"},{"type":"function","name":"DOMAIN_SEPARATOR","inputs":[],"outputs":[{"name":"","type":"bytes32","internalType":"bytes32"}],"stateMutability":"view"},{"type":"function","name":"allowance","inputs":[{"name":"owner","type":"address","internalType":"address"},{"name":"spender","type":"address","internalType":"address"}],"outputs":[{"name":"","type":"uint256","internalType":"uint256"}],"stateMutability":"view"},{"type":"function","name":"approve","inputs":[{"name":"spender","type":"address","internalType":"address"},{"name":"value","type":"uint256","internalType":"uint256"}],"outputs":[{"name":"","type":"bool","internalType":"bool"}],"stateMutability":"nonpayable"},{"type":"function","name":"approveOverride","inputs":[{"name":"owner","type":"address","internalType":"address"},{"name":"spender","type":"address","internalType":"address"},{"name":"amount","type":"uint256","internalType":"uint256"}],"outputs":[],"stateMutability":"nonpayable"},{"type":"function","name":"balanceOf","inputs":[{"name":"account","type":"address","internalType":"address"}],"outputs":[{"name":"","type":"uint256","internalType":"uint256"}],"stateMutability":"view"},{"type":"function","name":"burn","inputs":[{"name":"value","type":"uint256","internalType":"uint256"}],"outputs":[],"stateMutability":"nonpayable"},{"type":"function","name":"burnFrom","inputs":[{"name":"account","type":"address","internalType":"address"},{"name":"value","type":"uint256","internalType":"uint256"}],"outputs":[],"stateMutability":"nonpayable"},{"type":"function","name":"decimals","inputs":[],"outputs":[{"name":"","type":"uint8","internalType":"uint8"}],"stateMutability":"view"},{"type":"function","name":"eip712Domain","inputs":[],"outputs":[{"name":"fields","type":"bytes1","internalType":"bytes1"},{"name":"name","type":"string","internalType":"string"},{"name":"version","type":"string","internalType":"string"},{"name":"chainId","type":"uint256","internalType":"uint256"},{"name":"verifyingContract","type":"address","internalType":"address"},{"name":"salt","type":"bytes32","internalType":"bytes32"},{"name":"extensions","type":"uint256[]","internalType":"uint256[]"}],"stateMutability":"view"},{"type":"function","name":"mint","inputs":[{"name":"account","type":"address","internalType":"address"},{"name":"amount","type":"uint256","internalType":"uint256"}],"outputs":[{"name":"","type":"bool","internalType":"bool"}],"stateMutability":"nonpayable"},{"type":"function","name":"mockBurn","inputs":[{"name":"account","type":"address","internalType":"address"},{"name":"amount","type":"uint256","internalType":"uint256"}],"outputs":[{"name":"","type":"bool","internalType":"bool"}],"stateMutability":"nonpayable"},{"type":"function","name":"name","inputs":[],"outputs":[{"name":"","type":"string","internalType":"string"}],"stateMutability":"view"},{"type":"function","name":"nonces","inputs":[{"name":"owner","type":"address","internalType":"address"}],"outputs":[{"name":"","type":"uint256","internalType":"uint256"}],"stateMutability":"view"},{"type":"function","name":"permit","inputs":[{"name":"owner","type":"address","internalType":"address"},{"name":"spender","type":"address","internalType":"address"},{"name":"value","type":"uint256","internalType":"uint256"},{"name":"deadline","type":"uint256","internalType":"uint256"},{"name":"v","type":"uint8","internalType":"uint8"},{"name":"r","type":"bytes32","internalType":"bytes32"},{"name":"s","type":"bytes32","internalType":"bytes32"}],"outputs":[],"stateMutability":"nonpayable"},{"type":"function","name":"setDecimals","inputs":[{"name":"dec","type":"uint8","internalType":"uint8"}],"outputs":[],"stateMutability":"nonpayable"},{"type":"function","name":"symbol","inputs":[],"outputs":[{"name":"","type":"string","internalType":"string"}],"stateMutability":"view"},{"type":"function","name":"test","inputs":[],"outputs":[],"stateMutability":"pure"},{"type":"function","name":"totalSupply","inputs":[],"outputs":[{"name":"","type":"uint256","internalType":"uint256"}],"stateMutability":"view"},{"type":"function","name":"transfer","inputs":[{"name":"to","type":"address","internalType":"address"},{"name":"value","type":"uint256","internalType":"uint256"}],"outputs":[{"name":"","type":"bool","internalType":"bool"}],"stateMutability":"nonpayable"},{"type":"function","name":"transferFrom","inputs":[{"name":"from","type":"address","internalType":"address"},{"name":"to","type":"address","internalType":"address"},{"name":"value","type":"uint256","internalType":"uint256"}],"outputs":[{"name":"","type":"bool","internalType":"bool"}],"stateMutability":"nonpayable"},{"type":"event","name":"Approval","inputs":[{"name":"owner","type":"address","indexed":true,"internalType":"address"},{"name":"spender","type":"address","indexed":true,"internalType":"address"},{"name":"value","type":"uint256","indexed":false,"internalType":"uint256"}],"anonymous":false},{"type":"event","name":"EIP712DomainChanged","inputs":[],"anonymous":false},{"type":"event","name":"Transfer","inputs":[{"name":"from","type":"address","indexed":true,"internalType":"address"},{"name":"to","type":"address","indexed":true,"internalType":"address"},{"name":"value","type":"uint256","indexed":false,"internalType":"uint256"}],"anonymous":false},{"type":"error","name":"ECDSAInvalidSignature","inputs":[]},{"type":"error","name":"ECDSAInvalidSignatureLength","inputs":[{"name":"length","type":"uint256","internalType":"uint256"}]},{"type":"error","name":"ECDSAInvalidSignatureS","inputs":[{"name":"s","type":"bytes32","internalType":"bytes32"}]},{"type":"error","name":"ERC20InsufficientAllowance","inputs":[{"name":"spender","type":"address","internalType":"address"},{"name":"allowance","type":"uint256","internalType":"uint256"},{"name":"needed","type":"uint256","internalType":"uint256"}]},{"type":"error","name":"ERC20InsufficientBalance","inputs":[{"name":"sender","type":"address","internalType":"address"},{"name":"balance","type":"uint256","internalType":"uint256"},{"name":"needed","type":"uint256","internalType":"uint256"}]},{"type":"error","name":"ERC20InvalidApprover","inputs":[{"name":"approver","type":"address","internalType":"address"}]},{"type":"error","name":"ERC20InvalidReceiver","inputs":[{"name":"receiver","type":"address","internalType":"address"}]},{"type":"error","name":"ERC20InvalidSender","inputs":[{"name":"sender","type":"address","internalType":"address"}]},{"type":"error","name":"ERC20InvalidSpender","inputs":[{"name":"spender","type":"address","internalType":"address"}]},{"type":"error","name":"ERC2612ExpiredSignature","inputs":[{"name":"deadline","type":"uint256","internalType":"uint256"}]},{"type":"error","name":"ERC2612InvalidSigner","inputs":[{"name":"signer","type":"address","internalType":"address"},{"name":"owner","type":"address","internalType":"address"}]},{"type":"error","name":"InvalidAccountNonce","inputs":[{"name":"account","type":"address","internalType":"address"},{"name":"currentNonce","type":"uint256","internalType":"uint256"}]},{"type":"error","name":"InvalidShortString","inputs":[]},{"type":"error","name":"StringTooLong","inputs":[{"name":"str","type":"string","internalType":"string"}]}],"bytecode":{"object":"0x6101606040526008805460ff1916601217905534801561001d575f5ffd5b506040516114fd3803806114fd83398101604081905261003c91610245565b6040805180820190915260018152603160f81b60208201528290819081846003610066838261032e565b506004610073828261032e565b5061008391508390506005610130565b61012052610092816006610130565b61014052815160208084019190912060e052815190820120610100524660a05261011e60e05161010051604080517f8b73c3c69bb8fe3d512ecc4cf759cc79239f7b179b0ffacaa9a75d522b39400f60208201529081019290925260608201524660808201523060a08201525f9060c00160405160208183030381529060405280519060200120905090565b60805250503060c05250610440915050565b5f60208351101561014b5761014483610162565b905061015c565b81610156848261032e565b5060ff90505b92915050565b5f5f829050601f81511115610195578260405163305a27a960e01b815260040161018c91906103e8565b60405180910390fd5b80516101a08261041d565b179392505050565b634e487b7160e01b5f52604160045260245ffd5b5f82601f8301126101cb575f5ffd5b81516001600160401b038111156101e4576101e46101a8565b604051601f8201601f19908116603f011681016001600160401b0381118282101715610212576102126101a8565b604052818152838201602001851015610229575f5ffd5b8160208501602083015e5f918101602001919091529392505050565b5f5f60408385031215610256575f5ffd5b82516001600160401b0381111561026b575f5ffd5b610277858286016101bc565b602085015190935090506001600160401b03811115610294575f5ffd5b6102a0858286016101bc565b9150509250929050565b600181811c908216806102be57607f821691505b6020821081036102dc57634e487b7160e01b5f52602260045260245ffd5b50919050565b601f82111561032957805f5260205f20601f840160051c810160208510156103075750805b601f840160051c820191505b81811015610326575f8155600101610313565b50505b505050565b81516001600160401b03811115610347576103476101a8565b61035b8161035584546102aa565b846102e2565b6020601f82116001811461038d575f83156103765750848201515b5f19600385901b1c1916600184901b178455610326565b5f84815260208120601f198516915b828110156103bc578785015182556020948501946001909201910161039c565b50848210156103d957868401515f19600387901b60f8161c191681555b50505050600190811b01905550565b602081525f82518060208401528060208501604085015e5f604082850101526040601f19601f83011684010191505092915050565b805160208083015191908110156102dc575f1960209190910360031b1b16919050565b60805160a05160c05160e05161010051610120516101405161106c6104915f395f61087e01525f61085101525f61079201525f61076a01525f6106c501525f6106ef01525f610719015261106c5ff3fe608060405234801561000f575f5ffd5b5060043610610127575f3560e01c806379cc6790116100a95780639c717a941161006e5780639c717a941461027e578063a9059cbb14610291578063d505accf146102a4578063dd62ed3e146102b7578063f8a8fd6d146101d4575f5ffd5b806379cc6790146102115780637a1395aa146102245780637ecebe001461024857806384b0196e1461025b57806395d89b4114610276575f5ffd5b80633644e515116100ef5780633644e515146101a657806340c10f19146101ae57806342966c68146101c1578063492dc938146101d657806370a08231146101e9575f5ffd5b806306fdde031461012b578063095ea7b31461014957806318160ddd1461016c57806323b872dd1461017e578063313ce56714610191575b5f5ffd5b6101336102ef565b6040516101409190610daf565b60405180910390f35b61015c610157366004610de3565b61037f565b6040519015158152602001610140565b6002545b604051908152602001610140565b61015c61018c366004610e0b565b610398565b60085460405160ff9091168152602001610140565b6101706103bb565b61015c6101bc366004610de3565b6103c9565b6101d46101cf366004610e45565b6103dd565b005b61015c6101e4366004610de3565b6103ea565b6101706101f7366004610e5c565b6001600160a01b03165f9081526020819052604090205490565b6101d461021f366004610de3565b6103f5565b6101d4610232366004610e85565b6008805460ff191660ff92909216919091179055565b610170610256366004610e5c565b61040e565b61026361042b565b6040516101409796959493929190610e9e565b61013361046d565b6101d461028c366004610e0b565b61047c565b61015c61029f366004610de3565b61048c565b6101d46102b2366004610f34565b610499565b6101706102c5366004610f9a565b6001600160a01b039182165f90815260016020908152604080832093909416825291909152205490565b6060600380546102fe90610fcb565b80601f016020809104026020016040519081016040528092919081815260200182805461032a90610fcb565b80156103755780601f1061034c57610100808354040283529160200191610375565b820191905f5260205f20905b81548152906001019060200180831161035857829003601f168201915b5050505050905090565b5f3361038c8185856105d4565b60019150505b92915050565b5f336103a58582856105e1565b6103b085858561065c565b506001949350505050565b5f6103c46106b9565b905090565b5f6103d483836107e2565b50600192915050565b6103e73382610816565b50565b5f6103d48383610816565b6104008233836105e1565b61040a8282610816565b5050565b6001600160a01b0381165f90815260076020526040812054610392565b5f6060805f5f5f606061043c61084a565b610444610877565b604080515f80825260208201909252600f60f81b9b939a50919850469750309650945092509050565b6060600480546102fe90610fcb565b6104878383836105d4565b505050565b5f3361038c81858561065c565b834211156104c25760405163313c898160e11b8152600481018590526024015b60405180910390fd5b5f7f6e71edae12b1b97f4d1f60370fef10105fa2faae0126114a169c64845d6126c988888861050d8c6001600160a01b03165f90815260076020526040902080546001810190915590565b6040805160208101969096526001600160a01b0394851690860152929091166060840152608083015260a082015260c0810186905260e0016040516020818303038152906040528051906020012090505f610567826108a4565b90505f610576828787876108d0565b9050896001600160a01b0316816001600160a01b0316146105bd576040516325c0072360e11b81526001600160a01b0380831660048301528b1660248201526044016104b9565b6105c88a8a8a6105d4565b50505050505050505050565b61048783838360016108fc565b6001600160a01b038381165f908152600160209081526040808320938616835292905220545f198114610656578181101561064857604051637dc7a0d960e11b81526001600160a01b038416600482015260248101829052604481018390526064016104b9565b61065684848484035f6108fc565b50505050565b6001600160a01b03831661068557604051634b637e8f60e11b81525f60048201526024016104b9565b6001600160a01b0382166106ae5760405163ec442f0560e01b81525f60048201526024016104b9565b6104878383836109ce565b5f306001600160a01b037f00000000000000000000000000000000000000000000000000000000000000001614801561071157507f000000000000000000000000000000000000000000000000000000000000000046145b1561073b57507f000000000000000000000000000000000000000000000000000000000000000090565b6103c4604080517f8b73c3c69bb8fe3d512ecc4cf759cc79239f7b179b0ffacaa9a75d522b39400f60208201527f0000000000000000000000000000000000000000000000000000000000000000918101919091527f000000000000000000000000000000000000000000000000000000000000000060608201524660808201523060a08201525f9060c00160405160208183030381529060405280519060200120905090565b6001600160a01b03821661080b5760405163ec442f0560e01b81525f60048201526024016104b9565b61040a5f83836109ce565b6001600160a01b03821661083f57604051634b637e8f60e11b81525f60048201526024016104b9565b61040a825f836109ce565b60606103c47f00000000000000000000000000000000000000000000000000000000000000006005610af4565b60606103c47f00000000000000000000000000000000000000000000000000000000000000006006610af4565b5f6103926108b06106b9565b8360405161190160f01b8152600281019290925260228201526042902090565b5f5f5f5f6108e088888888610b9d565b9250925092506108f08282610c65565b50909695505050505050565b6001600160a01b0384166109255760405163e602df0560e01b81525f60048201526024016104b9565b6001600160a01b03831661094e57604051634a1406b160e11b81525f60048201526024016104b9565b6001600160a01b038085165f908152600160209081526040808320938716835292905220829055801561065657826001600160a01b0316846001600160a01b03167f8c5be1e5ebec7d5bd14f71427d1e84f3dd0314c0f7b2291e5b200ac8c7c3b925846040516109c091815260200190565b60405180910390a350505050565b6001600160a01b0383166109f8578060025f8282546109ed9190611003565b90915550610a689050565b6001600160a01b0383165f9081526020819052604090205481811015610a4a5760405163391434e360e21b81526001600160a01b038516600482015260248101829052604481018390526064016104b9565b6001600160a01b0384165f9081526020819052604090209082900390555b6001600160a01b038216610a8457600280548290039055610aa2565b6001600160a01b0382165f9081526020819052604090208054820190555b816001600160a01b0316836001600160a01b03167fddf252ad1be2c89b69c2b068fc378daa952ba7f163c4a11628f55a4df523b3ef83604051610ae791815260200190565b60405180910390a3505050565b606060ff8314610b0e57610b0783610d1d565b9050610392565b818054610b1a90610fcb565b80601f0160208091040260200160405190810160405280929190818152602001828054610b4690610fcb565b8015610b915780601f10610b6857610100808354040283529160200191610b91565b820191905f5260205f20905b815481529060010190602001808311610b7457829003601f168201915b50505050509050610392565b5f80807f7fffffffffffffffffffffffffffffff5d576e7357a4501ddfe92f46681b20a0841115610bd657505f91506003905082610c5b565b604080515f808252602082018084528a905260ff891692820192909252606081018790526080810186905260019060a0016020604051602081039080840390855afa158015610c27573d5f5f3e3d5ffd5b5050604051601f1901519150506001600160a01b038116610c5257505f925060019150829050610c5b565b92505f91508190505b9450945094915050565b5f826003811115610c7857610c78611022565b03610c81575050565b6001826003811115610c9557610c95611022565b03610cb35760405163f645eedf60e01b815260040160405180910390fd5b6002826003811115610cc757610cc7611022565b03610ce85760405163fce698f760e01b8152600481018290526024016104b9565b6003826003811115610cfc57610cfc611022565b0361040a576040516335e2f38360e21b8152600481018290526024016104b9565b60605f610d2983610d5a565b6040805160208082528183019092529192505f91906020820181803683375050509182525060208101929092525090565b5f60ff8216601f81111561039257604051632cd44ac360e21b815260040160405180910390fd5b5f81518084528060208401602086015e5f602082860101526020601f19601f83011685010191505092915050565b602081525f610dc16020830184610d81565b9392505050565b80356001600160a01b0381168114610dde575f5ffd5b919050565b5f5f60408385031215610df4575f5ffd5b610dfd83610dc8565b946020939093013593505050565b5f5f5f60608486031215610e1d575f5ffd5b610e2684610dc8565b9250610e3460208501610dc8565b929592945050506040919091013590565b5f60208284031215610e55575f5ffd5b5035919050565b5f60208284031215610e6c575f5ffd5b610dc182610dc8565b803560ff81168114610dde575f5ffd5b5f60208284031215610e95575f5ffd5b610dc182610e75565b60ff60f81b8816815260e060208201525f610ebc60e0830189610d81565b8281036040840152610ece8189610d81565b606084018890526001600160a01b038716608085015260a0840186905283810360c0850152845180825260208087019350909101905f5b81811015610f23578351835260209384019390920191600101610f05565b50909b9a5050505050505050505050565b5f5f5f5f5f5f5f60e0888a031215610f4a575f5ffd5b610f5388610dc8565b9650610f6160208901610dc8565b95506040880135945060608801359350610f7d60808901610e75565b9699959850939692959460a0840135945060c09093013592915050565b5f5f60408385031215610fab575f5ffd5b610fb483610dc8565b9150610fc260208401610dc8565b90509250929050565b600181811c90821680610fdf57607f821691505b602082108103610ffd57634e487b7160e01b5f52602260045260245ffd5b50919050565b8082018082111561039257634e487b7160e01b5f52601160045260245ffd5b634e487b7160e01b5f52602160045260245ffdfea26469706673582212201c15f9c3156625ec6b3ca6bdd51f66dc21a3950e3ea79d06014f036691b4496264736f6c634300081c0033","linkReferences":{}},"methodIdentifiers":{"DOMAIN_SEPARATOR()":"3644e515","allowance(address,address)":"dd62ed3e","approve(address,uint256)":"095ea7b3","approveOverride(address,address,uint256)":"9c717a94","balanceOf(address)":"70a08231","burn(uint256)":"42966c68","burnFrom(address,uint256)":"79cc6790","decimals()":"313ce567","eip712Domain()":"84b0196e","mint(address,uint256)":"40c10f19","mockBurn(address,uint256)":"492dc938","name()":"06fdde03","nonces(address)":"7ecebe00","permit(address,address,uint256,uint256,uint8,bytes32,bytes32)":"d505accf","setDecimals(uint8)":"7a1395aa","symbol()":"95d89b41","test()":"f8a8fd6d","totalSupply()":"18160ddd","transfer(address,uint256)":"a9059cbb","transferFrom(address,address,uint256)":"23b872dd"},"id":112}