{"abi":[{"type":"constructor","inputs":[{"name":"_assetToken","type":"address","internalType":"address"}],"stateMutability":"nonpayable"},{"type":"function","name":"assetToken","inputs":[],"outputs":[{"name":"","type":"address","internalType":"address"}],"stateMutability":"view"},{"type":"function","name":"withdraw","inputs":[{"name":"amount","type":"uint256","internalType":"uint256"}],"outputs":[],"stateMutability":"nonpayable"}],"bytecode":{"object":"0x6080604052348015600e575f5ffd5b506040516101e93803806101e9833981016040819052602b91604e565b5f80546001600160a01b0319166001600160a01b03929092169190911790556079565b5f60208284031215605d575f5ffd5b81516001600160a01b03811681146072575f5ffd5b9392505050565b610163806100865f395ff3fe608060405234801561000f575f5ffd5b5060043610610034575f3560e01c80631083f761146100385780632e1a7d4d14610066575b5f5ffd5b5f5461004a906001600160a01b031681565b6040516001600160a01b03909116815260200160405180910390f35b6100796100743660046100f0565b61007b565b005b5f5460405163a9059cbb60e01b8152336004820152602481018390526001600160a01b039091169063a9059cbb906044016020604051808303815f875af11580156100c8573d5f5f3e3d5ffd5b505050506040513d601f19601f820116820180604052508101906100ec9190610107565b5050565b5f60208284031215610100575f5ffd5b5035919050565b5f60208284031215610117575f5ffd5b81518015158114610126575f5ffd5b939250505056fea2646970667358221220e23e3eed228f87c4fb643cfad36f083b1e788ac4d8adecdb3ddc4c78e6e5136264736f6c634300081c0033","linkReferences":{}},"methodIdentifiers":{"assetToken()":"1083f761","withdraw(uint256)":"2e1a7d4d"},"id":113}