{"abi":[{"type":"constructor","inputs":[{"name":"_core","type":"address","internalType":"address"},{"name":"_assetToken","type":"address","internalType":"address"}],"stateMutability":"nonpayable"},{"type":"function","name":"_maturity","inputs":[],"outputs":[{"name":"","type":"uint256","internalType":"uint256"}],"stateMutability":"view"},{"type":"function","name":"assetToken","inputs":[],"outputs":[{"name":"","type":"address","internalType":"address"}],"stateMutability":"view"},{"type":"function","name":"assets","inputs":[],"outputs":[{"name":"","type":"uint256","internalType":"uint256"}],"stateMutability":"view"},{"type":"function","name":"cap","inputs":[],"outputs":[{"name":"","type":"uint256","internalType":"uint256"}],"stateMutability":"view"},{"type":"function","name":"core","inputs":[],"outputs":[{"name":"","type":"address","internalType":"contract InfiniFiCore"}],"stateMutability":"view"},{"type":"function","name":"deposit","inputs":[],"outputs":[],"stateMutability":"nonpayable"},{"type":"function","name":"emergencyAction","inputs":[{"name":"calls","type":"tuple[]","internalType":"struct CoreControlled.Call[]","components":[{"name":"target","type":"address","internalType":"address"},{"name":"value","type":"uint256","internalType":"uint256"},{"name":"callData","type":"bytes","internalType":"bytes"}]}],"outputs":[{"name":"returnData","type":"bytes[]","internalType":"bytes[]"}],"stateMutability":"payable"},{"type":"function","name":"liquidity","inputs":[],"outputs":[{"name":"","type":"uint256","internalType":"uint256"}],"stateMutability":"view"},{"type":"function","name":"liquidityPercentage","inputs":[],"outputs":[{"name":"","type":"uint256","internalType":"uint256"}],"stateMutability":"view"},{"type":"function","name":"maturity","inputs":[],"outputs":[{"name":"","type":"uint256","internalType":"uint256"}],"stateMutability":"view"},{"type":"function","name":"maxDeposit","inputs":[],"outputs":[{"name":"","type":"uint256","internalType":"uint256"}],"stateMutability":"view"},{"type":"function","name":"maxSlippage","inputs":[],"outputs":[{"name":"","type":"uint256","internalType":"uint256"}],"stateMutability":"view"},{"type":"function","name":"mockLoss","inputs":[{"name":"amount","type":"uint256","internalType":"uint256"}],"outputs":[],"stateMutability":"nonpayable"},{"type":"function","name":"mockProfit","inputs":[{"name":"amount","type":"uint256","internalType":"uint256"}],"outputs":[],"stateMutability":"nonpayable"},{"type":"function","name":"mockSetMaturity","inputs":[{"name":"__maturity","type":"uint256","internalType":"uint256"}],"outputs":[],"stateMutability":"nonpayable"},{"type":"function","name":"pause","inputs":[],"outputs":[],"stateMutability":"nonpayable"},{"type":"function","name":"paused","inputs":[],"outputs":[{"name":"","type":"bool","internalType":"bool"}],"stateMutability":"view"},{"type":"function","name":"setCap","inputs":[{"name":"_newCap","type":"uint256","internalType":"uint256"}],"outputs":[],"stateMutability":"nonpayable"},{"type":"function","name":"setCore","inputs":[{"name":"newCore","type":"address","internalType":"address"}],"outputs":[],"stateMutability":"nonpayable"},{"type":"function","name":"setLiquidityPercentage","inputs":[{"name":"_liquidityPercentage","type":"uint256","internalType":"uint256"}],"outputs":[],"stateMutability":"nonpayable"},{"type":"function","name":"setMaxSlippage","inputs":[{"name":"_maxSlippage","type":"uint256","internalType":"uint256"}],"outputs":[],"stateMutability":"nonpayable"},{"type":"function","name":"test","inputs":[],"outputs":[],"stateMutability":"pure"},{"type":"function","name":"unpause","inputs":[],"outputs":[],"stateMutability":"nonpayable"},{"type":"function","name":"withdraw","inputs":[{"name":"amount","type":"uint256","internalType":"uint256"},{"name":"to","type":"address","internalType":"address"}],"outputs":[],"stateMutability":"nonpayable"},{"type":"event","name":"AssetsUpdated","inputs":[{"name":"timestamp","type":"uint256","indexed":false,"internalType":"uint256"},{"name":"assetsBefore","type":"uint256","indexed":false,"internalType":"uint256"},{"name":"assetsAfter","type":"uint256","indexed":false,"internalType":"uint256"}],"anonymous":false},{"type":"event","name":"CapUpdated","inputs":[{"name":"newCap","type":"uint256","indexed":false,"internalType":"uint256"}],"anonymous":false},{"type":"event","name":"CoreUpdate","inputs":[{"name":"oldCore","type":"address","indexed":true,"internalType":"address"},{"name":"newCore","type":"address","indexed":true,"internalType":"address"}],"anonymous":false},{"type":"event","name":"MaxSlippageUpdated","inputs":[{"name":"newMaxSlippage","type":"uint256","indexed":false,"internalType":"uint256"}],"anonymous":false},{"type":"event","name":"Paused","inputs":[{"name":"account","type":"address","indexed":false,"internalType":"address"}],"anonymous":false},{"type":"event","name":"Unpaused","inputs":[{"name":"account","type":"address","indexed":false,"internalType":"address"}],"anonymous":false},{"type":"error","name":"CapExceeded","inputs":[{"name":"newAmount","type":"uint256","internalType":"uint256"},{"name":"cap","type":"uint256","internalType":"uint256"}]},{"type":"error","name":"EnforcedPause","inputs":[]},{"type":"error","name":"ExpectedPause","inputs":[]},{"type":"error","name":"SlippageTooHigh","inputs":[{"name":"minAssetsOut","type":"uint256","internalType":"uint256"},{"name":"assetsReceived","type":"uint256","internalType":"uint256"}]},{"type":"error","name":"UnderlyingCallReverted","inputs":[{"name":"returnData","type":"bytes","internalType":"bytes"}]}],"bytecode":{"object":"0x60a0604052670de0b6b3a76400006003555f60045534801561001f575f5ffd5b50604051611aba380380611aba83398101604081905261003e91610101565b5f80546001600160a01b03808516610100026001600160a81b03199092169190911790915581166080525f19600155670de0b5cad2bef0006002556040518190610087906100d9565b6001600160a01b039091168152602001604051809103905ff0801580156100b0573d5f5f3e3d5ffd5b50600580546001600160a01b0319166001600160a01b0392909216919091179055506101329050565b6101e9806118d183390190565b80516001600160a01b03811681146100fc575f5ffd5b919050565b5f5f60408385031215610112575f5ffd5b61011b836100e6565b9150610129602084016100e6565b90509250929050565b60805161175d6101745f395f81816101e00152818161096201528181610e2b01528181610f8701528181611121015281816111f401526113e4015261175d5ff3fe608060405260043610610182575f3560e01c806371a97305116100d1578063c018fadf1161007c578063ea65f8ec11610057578063ea65f8ec146103e0578063f2f4eb26146103ff578063f8a8fd6d14610420575f5ffd5b8063c018fadf14610398578063d0e30db0146103ad578063e90a4bad146103c1575f5ffd5b80638456cb59116100ac5780638456cb59146103505780638c04166f14610364578063b2ca5eb214610379575f5ffd5b806371a97305146102fd5780637df3927e146103115780638000963014610331575f5ffd5b8063355274ea1161013157806347786d371161010c57806347786d37146102a95780635c975abb146102c85780636083e59a146102e9575f5ffd5b8063355274ea146102615780633f4ba83a1461027657806343f68a491461028a575f5ffd5b80631a37225a116101615780631a37225a1461021a5780631a68650214610239578063204f83f91461024d575f5ffd5b8062f714ce14610186578063048b87ba146101a75780631083f761146101cf575b5f5ffd5b348015610191575f5ffd5b506101a56101a036600461146d565b61042b565b005b3480156101b2575f5ffd5b506101bc60035481565b6040519081526020015b60405180910390f35b3480156101da575f5ffd5b506102027f000000000000000000000000000000000000000000000000000000000000000081565b6040516001600160a01b0390911681526020016101c6565b348015610225575f5ffd5b506101a5610234366004611497565b600355565b348015610244575f5ffd5b506101bc6105c5565b348015610258575f5ffd5b506101bc6105f3565b34801561026c575f5ffd5b506101bc60015481565b348015610281575f5ffd5b506101a5610609565b348015610295575f5ffd5b506101a56102a4366004611497565b6106e4565b3480156102b4575f5ffd5b506101a56102c3366004611497565b6107f1565b3480156102d3575f5ffd5b505f5460ff1660405190151581526020016101c6565b3480156102f4575f5ffd5b506101bc6108f6565b348015610308575f5ffd5b506101bc61093e565b61032461031f3660046114ae565b6109cb565b6040516101c6919061154d565b34801561033c575f5ffd5b506101a561034b3660046115b0565b610c4d565b34801561035b575f5ffd5b506101a5610d2a565b34801561036f575f5ffd5b506101bc60025481565b348015610384575f5ffd5b506101a5610393366004611497565b610e02565b3480156103a3575f5ffd5b506101bc60045481565b3480156103b8575f5ffd5b506101a5610e98565b3480156103cc575f5ffd5b506101a56103db366004611497565b600455565b3480156103eb575f5ffd5b506101a56103fa366004611497565b6110f8565b34801561040a575f5ffd5b505f5461010090046001600160a01b0316610202565b3480156101a5575f5ffd5b5f54604051632474521560e21b81527f5f33620cda06d02d58df96005b92bc83bd059a566e48e016372f3fbdc974e371600482018190523360248301529161010090046001600160a01b0316906391d1485490604401602060405180830381865afa15801561049c573d5f5f3e3d5ffd5b505050506040513d601f19601f820116820180604052508101906104c091906115c9565b6105005760405162461bcd60e51b815260206004820152600c60248201526b15539055551213d49256915160a21b60448201526064015b60405180910390fd5b610508611154565b5f61051161093e565b905061051d8484611177565b5f61052661093e565b90505f6105338284611603565b90505f61054b600254836112ac90919063ffffffff16565b905080878181101561057957604051633b5d56ed60e11b8152600481019290925260248201526044016104f7565b505060408051428152602081018690529081018490527f35a901c4413e585f9121eb5cf07e67760bd4ac498dd031249e5cd2cd225f74e49060600160405180910390a150505050505050565b5f670de0b6b3a76400006003546105da61093e565b6105e49190611616565b6105ee919061162d565b905090565b5f6004545f14610604575060045490565b504290565b5f54604051632474521560e21b81527fe7276a2a84d8de556657ec9cf93a55a7d66f096e529d0582ed08e9e2208b92b5600482018190523360248301529161010090046001600160a01b0316906391d1485490604401602060405180830381865afa15801561067a573d5f5f3e3d5ffd5b505050506040513d601f19601f8201168201806040525081019061069e91906115c9565b6106d95760405162461bcd60e51b815260206004820152600c60248201526b15539055551213d49256915160a21b60448201526064016104f7565b6106e16112c9565b50565b5f54604051632474521560e21b81527f3947e2f542c6c46c543fa4f79cbd1e27fea37ed249bc3caf992570d19123642e600482018190523360248301529161010090046001600160a01b0316906391d1485490604401602060405180830381865afa158015610755573d5f5f3e3d5ffd5b505050506040513d601f19601f8201168201806040525081019061077991906115c9565b6107b45760405162461bcd60e51b815260206004820152600c60248201526b15539055551213d49256915160a21b60448201526064016104f7565b60028290556040518281527f9c922f6d0c990b250e9dd0a427a5c8da7f44b960f697fecb31cbbd8ba79ec8c2906020015b60405180910390a15050565b5f54604051632474521560e21b81527f3947e2f542c6c46c543fa4f79cbd1e27fea37ed249bc3caf992570d19123642e600482018190523360248301529161010090046001600160a01b0316906391d1485490604401602060405180830381865afa158015610862573d5f5f3e3d5ffd5b505050506040513d601f19601f8201168201806040525081019061088691906115c9565b6108c15760405162461bcd60e51b815260206004820152600c60248201526b15539055551213d49256915160a21b60448201526064016104f7565b60018290556040518281527f3c8eb7c49d332f4c1e4d92a27cda93c31cc9452f7a408e0c6109fcddbc9946ea906020016107e5565b5f5f61090061093e565b90506001548110610912575f91505090565b6001545f19905f90610925908490611603565b90508082106109345780610936565b815b935050505090565b6005546040516370a0823160e01b81526001600160a01b0391821660048201525f917f000000000000000000000000000000000000000000000000000000000000000016906370a0823190602401602060405180830381865afa1580156109a7573d5f5f3e3d5ffd5b505050506040513d601f19601f820116820180604052508101906105ee919061164c565b5f54604051632474521560e21b81527f1a6838efa4183e08fe3607359d1259272af9d4716f65e1a7b5921f78fd5a3c6a6004820181905233602483015260609290916101009091046001600160a01b0316906391d1485490604401602060405180830381865afa158015610a41573d5f5f3e3d5ffd5b505050506040513d601f19601f82011682018060405250810190610a6591906115c9565b610aa05760405162461bcd60e51b815260206004820152600c60248201526b15539055551213d49256915160a21b60448201526064016104f7565b8267ffffffffffffffff811115610ab957610ab9611663565b604051908082528060200260200182016040528015610aec57816020015b6060815260200190600190039081610ad75790505b5091505f5b83811015610c45575f858583818110610b0c57610b0c611677565b9050602002810190610b1e919061168b565b610b2c9060208101906115b0565b90505f868684818110610b4157610b41611677565b9050602002810190610b53919061168b565b602001359050365f888886818110610b6d57610b6d611677565b9050602002810190610b7f919061168b565b610b8d9060408101906116a9565b915091505f5f856001600160a01b0316858585604051610bae9291906116f3565b5f6040518083038185875af1925050503d805f8114610be8576040519150601f19603f3d011682016040523d82523d5f602084013e610bed565b606091505b5091509150818190610c1357604051634ad176bb60e01b81526004016104f79190611702565b5080898881518110610c2757610c27611677565b60200260200101819052505050505050508080600101915050610af1565b505092915050565b5f54604051632474521560e21b81527f1a6838efa4183e08fe3607359d1259272af9d4716f65e1a7b5921f78fd5a3c6a600482018190523360248301529161010090046001600160a01b0316906391d1485490604401602060405180830381865afa158015610cbe573d5f5f3e3d5ffd5b505050506040513d601f19601f82011682018060405250810190610ce291906115c9565b610d1d5760405162461bcd60e51b815260206004820152600c60248201526b15539055551213d49256915160a21b60448201526064016104f7565b610d268261131a565b5050565b5f54604051632474521560e21b81527ffcb9fcbfa83b897fb2d5cf4b58962164105c1e71489a37ef3ae0db3fdce576f6600482018190523360248301529161010090046001600160a01b0316906391d1485490604401602060405180830381865afa158015610d9b573d5f5f3e3d5ffd5b505050506040513d601f19601f82011682018060405250810190610dbf91906115c9565b610dfa5760405162461bcd60e51b815260206004820152600c60248201526b15539055551213d49256915160a21b60448201526064016104f7565b6106e161137f565b600554604051630925b92760e31b81526001600160a01b039182166004820152602481018390527f00000000000000000000000000000000000000000000000000000000000000009091169063492dc938906044015b6020604051808303815f875af1158015610e74573d5f5f3e3d5ffd5b505050506040513d601f19601f82011682018060405250810190610d2691906115c9565b5f54604051632474521560e21b81527f5f33620cda06d02d58df96005b92bc83bd059a566e48e016372f3fbdc974e371600482018190523360248301529161010090046001600160a01b0316906391d1485490604401602060405180830381865afa158015610f09573d5f5f3e3d5ffd5b505050506040513d601f19601f82011682018060405250810190610f2d91906115c9565b610f685760405162461bcd60e51b815260206004820152600c60248201526b15539055551213d49256915160a21b60448201526064016104f7565b610f70611154565b6040516370a0823160e01b81523060048201525f907f00000000000000000000000000000000000000000000000000000000000000006001600160a01b0316906370a0823190602401602060405180830381865afa158015610fd4573d5f5f3e3d5ffd5b505050506040513d601f19601f82011682018060405250810190610ff8919061164c565b90505f61100361093e565b6001549091506110138383611714565b1115611048576110238282611714565b60015460405163f480e28560e01b8152600481019290925260248201526044016104f7565b611051826113bb565b5f61105a61093e565b90505f6110678383611603565b90505f61107f600254866112ac90919063ffffffff16565b90508082818110156110ad57604051633b5d56ed60e11b8152600481019290925260248201526044016104f7565b505060408051428152602081018690529081018490527f35a901c4413e585f9121eb5cf07e67760bd4ac498dd031249e5cd2cd225f74e49060600160405180910390a1505050505050565b6005546040516340c10f1960e01b81526001600160a01b039182166004820152602481018390527f0000000000000000000000000000000000000000000000000000000000000000909116906340c10f1990604401610e58565b565b5f5460ff16156111525760405163d93c066560e01b815260040160405180910390fd5b600554604051632e1a7d4d60e01b8152600481018490526001600160a01b0390911690632e1a7d4d906024015f604051808303815f87803b1580156111ba575f5ffd5b505af11580156111cc573d5f5f3e3d5ffd5b505060405163a9059cbb60e01b81526001600160a01b038481166004830152602482018690527f000000000000000000000000000000000000000000000000000000000000000016925063a9059cbb91506044016020604051808303815f875af115801561123c573d5f5f3e3d5ffd5b505050506040513d601f19601f8201168201806040525081019061126091906115c9565b610d265760405162461bcd60e51b815260206004820152601960248201527f4d6f636b4661726d3a207472616e73666572206661696c65640000000000000060448201526064016104f7565b5f6112c08383670de0b6b3a7640000611415565b90505b92915050565b6112d1611430565b5f805460ff191690557f5db9ee0a495bf2e6ff9c91a7834c1ba4fdd244a5e8aa4e537bd38aeae4b073aa335b6040516001600160a01b03909116815260200160405180910390a1565b5f80546001600160a01b0383811661010081810274ffffffffffffffffffffffffffffffffffffffff0019851617855560405193049190911692909183917f9209b7c8c06dcfd261686a663e7c55989337b18d59da5433c6f2835fb697092091a35050565b611387611154565b5f805460ff191660011790557f62e78cea01bee320cd4e420270b5ea74000d11b0c9f74754ebdbfc544b05a2586112fd3390565b60055460405163a9059cbb60e01b81526001600160a01b039182166004820152602481018390527f00000000000000000000000000000000000000000000000000000000000000009091169063a9059cbb90604401610e58565b5f825f190484118302158202611429575f5ffd5b5091020490565b5f5460ff1661115257604051638dfc202b60e01b815260040160405180910390fd5b80356001600160a01b0381168114611468575f5ffd5b919050565b5f5f6040838503121561147e575f5ffd5b8235915061148e60208401611452565b90509250929050565b5f602082840312156114a7575f5ffd5b5035919050565b5f5f602083850312156114bf575f5ffd5b823567ffffffffffffffff8111156114d5575f5ffd5b8301601f810185136114e5575f5ffd5b803567ffffffffffffffff8111156114fb575f5ffd5b8560208260051b840101111561150f575f5ffd5b6020919091019590945092505050565b5f81518084528060208401602086015e5f602082860101526020601f19601f83011685010191505092915050565b5f602082016020835280845180835260408501915060408160051b8601019250602086015f5b828110156115a457603f1987860301845261158f85835161151f565b94506020938401939190910190600101611573565b50929695505050505050565b5f602082840312156115c0575f5ffd5b6112c082611452565b5f602082840312156115d9575f5ffd5b815180151581146115e8575f5ffd5b9392505050565b634e487b7160e01b5f52601160045260245ffd5b818103818111156112c3576112c36115ef565b80820281158282048414176112c3576112c36115ef565b5f8261164757634e487b7160e01b5f52601260045260245ffd5b500490565b5f6020828403121561165c575f5ffd5b5051919050565b634e487b7160e01b5f52604160045260245ffd5b634e487b7160e01b5f52603260045260245ffd5b5f8235605e1983360301811261169f575f5ffd5b9190910192915050565b5f5f8335601e198436030181126116be575f5ffd5b83018035915067ffffffffffffffff8211156116d8575f5ffd5b6020019150368190038213156116ec575f5ffd5b9250929050565b818382375f9101908152919050565b602081525f6112c0602083018461151f565b808201808211156112c3576112c36115ef56fea26469706673582212201e6b4489265f90985e9ed2d535697b53c72da16c9ad96137daf3a22650391d2364736f6c634300081c00336080604052348015600e575f5ffd5b506040516101e93803806101e9833981016040819052602b91604e565b5f80546001600160a01b0319166001600160a01b03929092169190911790556079565b5f60208284031215605d575f5ffd5b81516001600160a01b03811681146072575f5ffd5b9392505050565b610163806100865f395ff3fe608060405234801561000f575f5ffd5b5060043610610034575f3560e01c80631083f761146100385780632e1a7d4d14610066575b5f5ffd5b5f5461004a906001600160a01b031681565b6040516001600160a01b03909116815260200160405180910390f35b6100796100743660046100f0565b61007b565b005b5f5460405163a9059cbb60e01b8152336004820152602481018390526001600160a01b039091169063a9059cbb906044016020604051808303815f875af11580156100c8573d5f5f3e3d5ffd5b505050506040513d601f19601f820116820180604052508101906100ec9190610107565b5050565b5f60208284031215610100575f5ffd5b5035919050565b5f60208284031215610117575f5ffd5b81518015158114610126575f5ffd5b939250505056fea2646970667358221220e23e3eed228f87c4fb643cfad36f083b1e788ac4d8adecdb3ddc4c78e6e5136264736f6c634300081c0033","linkReferences":{}},"methodIdentifiers":{"_maturity()":"c018fadf","assetToken()":"1083f761","assets()":"71a97305","cap()":"355274ea","core()":"f2f4eb26","deposit()":"d0e30db0","emergencyAction((address,uint256,bytes)[])":"7df3927e","liquidity()":"1a686502","liquidityPercentage()":"048b87ba","maturity()":"204f83f9","maxDeposit()":"6083e59a","maxSlippage()":"8c04166f","mockLoss(uint256)":"b2ca5eb2","mockProfit(uint256)":"ea65f8ec","mockSetMaturity(uint256)":"e90a4bad","pause()":"8456cb59","paused()":"5c975abb","setCap(uint256)":"47786d37","setCore(address)":"80009630","setLiquidityPercentage(uint256)":"1a37225a","setMaxSlippage(uint256)":"43f68a49","test()":"f8a8fd6d","unpause()":"3f4ba83a","withdraw(uint256,address)":"00f714ce"},"id":113}