{"abi":[{"type":"constructor","inputs":[{"name":"_core","type":"address","internalType":"address"},{"name":"_assetToken","type":"address","internalType":"address"},{"name":"_receiptToken","type":"address","internalType":"address"},{"name":"_accounting","type":"address","internalType":"address"}],"stateMutability":"nonpayable"},{"type":"function","name":"MAX_QUEUE_LENGTH","inputs":[],"outputs":[{"name":"","type":"uint256","internalType":"uint256"}],"stateMutability":"view"},{"type":"function","name":"accounting","inputs":[],"outputs":[{"name":"","type":"address","internalType":"address"}],"stateMutability":"view"},{"type":"function","name":"assetToken","inputs":[],"outputs":[{"name":"","type":"address","internalType":"address"}],"stateMutability":"view"},{"type":"function","name":"assets","inputs":[],"outputs":[{"name":"","type":"uint256","internalType":"uint256"}],"stateMutability":"view"},{"type":"function","name":"beforeRedeemHook","inputs":[],"outputs":[{"name":"","type":"address","internalType":"address"}],"stateMutability":"view"},{"type":"function","name":"cap","inputs":[],"outputs":[{"name":"","type":"uint256","internalType":"uint256"}],"stateMutability":"view"},{"type":"function","name":"claimRedemption","inputs":[{"name":"_recipient","type":"address","internalType":"address"}],"outputs":[],"stateMutability":"nonpayable"},{"type":"function","name":"core","inputs":[],"outputs":[{"name":"","type":"address","internalType":"contract InfiniFiCore"}],"stateMutability":"view"},{"type":"function","name":"deposit","inputs":[],"outputs":[],"stateMutability":"nonpayable"},{"type":"function","name":"emergencyAction","inputs":[{"name":"calls","type":"tuple[]","internalType":"struct CoreControlled.Call[]","components":[{"name":"target","type":"address","internalType":"address"},{"name":"value","type":"uint256","internalType":"uint256"},{"name":"callData","type":"bytes","internalType":"bytes"}]}],"outputs":[{"name":"returnData","type":"bytes[]","internalType":"bytes[]"}],"stateMutability":"payable"},{"type":"function","name":"liquidity","inputs":[],"outputs":[{"name":"","type":"uint256","internalType":"uint256"}],"stateMutability":"view"},{"type":"function","name":"maxDeposit","inputs":[],"outputs":[{"name":"","type":"uint256","internalType":"uint256"}],"stateMutability":"view"},{"type":"function","name":"maxSlippage","inputs":[],"outputs":[{"name":"","type":"uint256","internalType":"uint256"}],"stateMutability":"view"},{"type":"function","name":"minRedemptionAmount","inputs":[],"outputs":[{"name":"","type":"uint256","internalType":"uint256"}],"stateMutability":"view"},{"type":"function","name":"pause","inputs":[],"outputs":[],"stateMutability":"nonpayable"},{"type":"function","name":"paused","inputs":[],"outputs":[{"name":"","type":"bool","internalType":"bool"}],"stateMutability":"view"},{"type":"function","name":"queue","inputs":[],"outputs":[{"name":"_begin","type":"uint128","internalType":"uint128"},{"name":"_end","type":"uint128","internalType":"uint128"}],"stateMutability":"view"},{"type":"function","name":"queueLength","inputs":[],"outputs":[{"name":"","type":"uint256","internalType":"uint256"}],"stateMutability":"view"},{"type":"function","name":"receiptToAsset","inputs":[{"name":"_receiptAmount","type":"uint256","internalType":"uint256"}],"outputs":[{"name":"","type":"uint256","internalType":"uint256"}],"stateMutability":"view"},{"type":"function","name":"receiptToken","inputs":[],"outputs":[{"name":"","type":"address","internalType":"address"}],"stateMutability":"view"},{"type":"function","name":"redeem","inputs":[{"name":"_to","type":"address","internalType":"address"},{"name":"_receiptAmountIn","type":"uint256","internalType":"uint256"}],"outputs":[{"name":"","type":"uint256","internalType":"uint256"}],"stateMutability":"nonpayable"},{"type":"function","name":"setBeforeRedeemHook","inputs":[{"name":"_beforeRedeemHook","type":"address","internalType":"address"}],"outputs":[],"stateMutability":"nonpayable"},{"type":"function","name":"setCap","inputs":[{"name":"_newCap","type":"uint256","internalType":"uint256"}],"outputs":[],"stateMutability":"nonpayable"},{"type":"function","name":"setCore","inputs":[{"name":"newCore","type":"address","internalType":"address"}],"outputs":[],"stateMutability":"nonpayable"},{"type":"function","name":"setMaxSlippage","inputs":[{"name":"_maxSlippage","type":"uint256","internalType":"uint256"}],"outputs":[],"stateMutability":"nonpayable"},{"type":"function","name":"setMinRedemptionAmount","inputs":[{"name":"_minRedemptionAmount","type":"uint256","internalType":"uint256"}],"outputs":[],"stateMutability":"nonpayable"},{"type":"function","name":"totalEnqueuedRedemptions","inputs":[],"outputs":[{"name":"","type":"uint256","internalType":"uint256"}],"stateMutability":"view"},{"type":"function","name":"totalPendingClaims","inputs":[],"outputs":[{"name":"","type":"uint256","internalType":"uint256"}],"stateMutability":"view"},{"type":"function","name":"unpause","inputs":[],"outputs":[],"stateMutability":"nonpayable"},{"type":"function","name":"userPendingClaims","inputs":[{"name":"recipient","type":"address","internalType":"address"}],"outputs":[{"name":"assetAmount","type":"uint256","internalType":"uint256"}],"stateMutability":"view"},{"type":"function","name":"withdraw","inputs":[{"name":"amount","type":"uint256","internalType":"uint256"},{"name":"to","type":"address","internalType":"address"}],"outputs":[],"stateMutability":"nonpayable"},{"type":"event","name":"AssetsUpdated","inputs":[{"name":"timestamp","type":"uint256","indexed":false,"internalType":"uint256"},{"name":"assetsBefore","type":"uint256","indexed":false,"internalType":"uint256"},{"name":"assetsAfter","type":"uint256","indexed":false,"internalType":"uint256"}],"anonymous":false},{"type":"event","name":"BeforeRedeemHookChanged","inputs":[{"name":"timestamp","type":"uint256","indexed":true,"internalType":"uint256"},{"name":"hook","type":"address","indexed":false,"internalType":"address"}],"anonymous":false},{"type":"event","name":"CapUpdated","inputs":[{"name":"newCap","type":"uint256","indexed":false,"internalType":"uint256"}],"anonymous":false},{"type":"event","name":"CoreUpdate","inputs":[{"name":"oldCore","type":"address","indexed":true,"internalType":"address"},{"name":"newCore","type":"address","indexed":true,"internalType":"address"}],"anonymous":false},{"type":"event","name":"MaxSlippageUpdated","inputs":[{"name":"newMaxSlippage","type":"uint256","indexed":false,"internalType":"uint256"}],"anonymous":false},{"type":"event","name":"MinRedemptionAmountUpdated","inputs":[{"name":"timestamp","type":"uint256","indexed":true,"internalType":"uint256"},{"name":"amount","type":"uint256","indexed":false,"internalType":"uint256"}],"anonymous":false},{"type":"event","name":"Paused","inputs":[{"name":"account","type":"address","indexed":false,"internalType":"address"}],"anonymous":false},{"type":"event","name":"Redeem","inputs":[{"name":"timestamp","type":"uint256","indexed":true,"internalType":"uint256"},{"name":"to","type":"address","indexed":true,"internalType":"address"},{"name":"asset","type":"address","indexed":false,"internalType":"address"},{"name":"amountIn","type":"uint256","indexed":false,"internalType":"uint256"},{"name":"amountOut","type":"uint256","indexed":false,"internalType":"uint256"}],"anonymous":false},{"type":"event","name":"RedemptionClaimed","inputs":[{"name":"timestamp","type":"uint256","indexed":true,"internalType":"uint256"},{"name":"recipient","type":"address","indexed":false,"internalType":"address"},{"name":"amount","type":"uint256","indexed":false,"internalType":"uint256"}],"anonymous":false},{"type":"event","name":"RedemptionFunded","inputs":[{"name":"timestamp","type":"uint256","indexed":true,"internalType":"uint256"},{"name":"recipient","type":"address","indexed":false,"internalType":"address"},{"name":"amount","type":"uint256","indexed":false,"internalType":"uint256"}],"anonymous":false},{"type":"event","name":"RedemptionPartiallyFunded","inputs":[{"name":"timestamp","type":"uint256","indexed":true,"internalType":"uint256"},{"name":"recipient","type":"address","indexed":false,"internalType":"address"},{"name":"amount","type":"uint256","indexed":false,"internalType":"uint256"}],"anonymous":false},{"type":"event","name":"RedemptionQueued","inputs":[{"name":"timestamp","type":"uint256","indexed":true,"internalType":"uint256"},{"name":"recipient","type":"address","indexed":false,"internalType":"address"},{"name":"amount","type":"uint256","indexed":false,"internalType":"uint256"}],"anonymous":false},{"type":"event","name":"Unpaused","inputs":[{"name":"account","type":"address","indexed":false,"internalType":"address"}],"anonymous":false},{"type":"error","name":"CapExceeded","inputs":[{"name":"newAmount","type":"uint256","internalType":"uint256"},{"name":"cap","type":"uint256","internalType":"uint256"}]},{"type":"error","name":"EnforcedPause","inputs":[]},{"type":"error","name":"EnqueueAmountTooLarge","inputs":[]},{"type":"error","name":"EnqueueAmountZero","inputs":[]},{"type":"error","name":"ExpectedPause","inputs":[]},{"type":"error","name":"FundingAmountZero","inputs":[]},{"type":"error","name":"NoPendingClaims","inputs":[{"name":"_recipient","type":"address","internalType":"address"}]},{"type":"error","name":"QueueIsEmpty","inputs":[]},{"type":"error","name":"QueueIsFull","inputs":[]},{"type":"error","name":"QueueTooLong","inputs":[]},{"type":"error","name":"RedeemAmountTooLow","inputs":[{"name":"_amountIn","type":"uint256","internalType":"uint256"},{"name":"_minRedemptionAmount","type":"uint256","internalType":"uint256"}]},{"type":"error","name":"SafeERC20FailedOperation","inputs":[{"name":"token","type":"address","internalType":"address"}]},{"type":"error","name":"SlippageTooHigh","inputs":[{"name":"minAssetsOut","type":"uint256","internalType":"uint256"},{"name":"assetsReceived","type":"uint256","internalType":"uint256"}]},{"type":"error","name":"UnderlyingCallReverted","inputs":[{"name":"returnData","type":"bytes","internalType":"bytes"}]}],"bytecode":{"object":"0x60e06040526001600855348015610014575f5ffd5b5060405161279f38038061279f83398101604081905261003391610092565b5f80546001600160a81b0319166101006001600160a01b03968716021790559183166080525f19600155670de0b5cad2bef000600255821660a0521660c0526100e3565b80516001600160a01b038116811461008d575f5ffd5b919050565b5f5f5f5f608085870312156100a5575f5ffd5b6100ae85610077565b93506100bc60208601610077565b92506100ca60408601610077565b91506100d860608601610077565b905092959194509250565b60805160a05160c0516126296101765f395f8181610437015281816118c2015261196f01525f818161054e01528181610872015281816109ae01528181610a73015281816119420152611d6701525f8181610205015281816108de0152818161091501528181610a1a01528181610afe01528181611002015281816116fa01528181611858015261189601526126295ff3fe6080604052600436106101cf575f3560e01c80637df3927e116100fd578063ab91c7b011610092578063e10d29ee11610062578063e10d29ee146104f3578063ec78e8321461053d578063f2f4eb2614610570578063f308cf6514610591575f5ffd5b8063ab91c7b01461048d578063c0598b0d146104a1578063ce25b2c6146104c0578063d0e30db0146104df575f5ffd5b80638c04166f116100cd5780638c04166f146104115780639624e83e146104265780639f027e7314610459578063a66d69d71461046e575f5ffd5b80637df3927e1461039357806380009630146103b357806380dcff13146103d25780638456cb59146103fd575f5ffd5b806343f68a49116101735780636083e59a116101435780636083e59a146103415780636e73ba5b1461035557806370bf23811461036a57806371a973051461037f575f5ffd5b806343f68a49146102c3578063464f2e99146102e257806347786d37146103015780635c975abb14610320575f5ffd5b80631e9a6950116101ae5780631e9a695014610266578063355274ea146102855780633f3b03ca1461029a5780633f4ba83a146102af575f5ffd5b8062f714ce146101d35780631083f761146101f45780631a68650214610244575b5f5ffd5b3480156101de575f5ffd5b506101f26101ed366004612336565b6105b0565b005b3480156101ff575f5ffd5b506102277f000000000000000000000000000000000000000000000000000000000000000081565b6040516001600160a01b0390911681526020015b60405180910390f35b34801561024f575f5ffd5b5061025861069c565b60405190815260200161023b565b348015610271575f5ffd5b50610258610280366004612360565b6106aa565b348015610290575f5ffd5b5061025860015481565b3480156102a5575f5ffd5b5061025860075481565b3480156102ba575f5ffd5b506101f2610b71565b3480156102ce575f5ffd5b506101f26102dd366004612388565b610c4c565b3480156102ed575f5ffd5b506101f26102fc366004612388565b610d59565b34801561030c575f5ffd5b506101f261031b366004612388565b610e94565b34801561032b575f5ffd5b505f5460ff16604051901515815260200161023b565b34801561034c575f5ffd5b50610258610f99565b348015610360575f5ffd5b5061025861271081565b348015610375575f5ffd5b5061025860065481565b34801561038a575f5ffd5b50610258610fe1565b6103a66103a136600461239f565b611081565b60405161023b919061243e565b3480156103be575f5ffd5b506101f26103cd3660046124a1565b611303565b3480156103dd575f5ffd5b506102586103ec3660046124a1565b60056020525f908152604090205481565b348015610408575f5ffd5b506101f26113e0565b34801561041c575f5ffd5b5061025860025481565b348015610431575f5ffd5b506102277f000000000000000000000000000000000000000000000000000000000000000081565b348015610464575f5ffd5b5061025860085481565b348015610479575f5ffd5b506101f26104883660046124a1565b6114b8565b348015610498575f5ffd5b506102586115e5565b3480156104ac575f5ffd5b506101f26104bb3660046124a1565b611609565b3480156104cb575f5ffd5b50600954610227906001600160a01b031681565b3480156104ea575f5ffd5b506101f2611721565b3480156104fe575f5ffd5b5060035461051d906001600160801b0380821691600160801b90041682565b604080516001600160801b0393841681529290911660208301520161023b565b348015610548575f5ffd5b506102277f000000000000000000000000000000000000000000000000000000000000000081565b34801561057b575f5ffd5b505f5461010090046001600160a01b0316610227565b34801561059c575f5ffd5b506102586105ab366004612388565b611809565b5f54604051632474521560e21b81527f5f33620cda06d02d58df96005b92bc83bd059a566e48e016372f3fbdc974e371600482018190523360248301529161010090046001600160a01b0316906391d1485490604401602060405180830381865afa158015610621573d5f5f3e3d5ffd5b505050506040513d601f19601f8201168201806040525081019061064591906124ba565b6106855760405162461bcd60e51b815260206004820152600c60248201526b15539055551213d49256915160a21b60448201526064015b60405180910390fd5b61068d611826565b610697838361184b565b505050565b5f6106a5610fe1565b905090565b5f6106b3611826565b5f54604051632474521560e21b81527f276ea66e969b021a947c47a128f4d53c55387336443ef7a5391a75f0d2e48d25600482018190523360248301529161010090046001600160a01b0316906391d1485490604401602060405180830381865afa158015610724573d5f5f3e3d5ffd5b505050506040513d601f19601f8201168201806040525081019061074891906124ba565b6107835760405162461bcd60e51b815260206004820152600c60248201526b15539055551213d49256915160a21b604482015260640161067c565b6008548390808210156107b25760405163012c88eb60e61b81526004810192909252602482015260440161067c565b50505f6107bd61187f565b90505f6107ca85836119eb565b6009549091506001600160a01b0316801561084457604051631aba948360e21b81526001600160a01b0388811660048301526024820188905260448201849052821690636aea520c906064015f604051808303815f87803b15801561082d575f5ffd5b505af115801561083f573d5f5f3e3d5ffd5b505050505b5f61084d61069c565b90508083116109845760405163079cc67960e41b8152336004820152602481018890527f00000000000000000000000000000000000000000000000000000000000000006001600160a01b0316906379cc6790906044015f604051808303815f87803b1580156108bb575f5ffd5b505af11580156108cd573d5f5f3e3d5ffd5b506109079250506001600160a01b037f000000000000000000000000000000000000000000000000000000000000000016905089856119ff565b604080516001600160a01b037f000000000000000000000000000000000000000000000000000000000000000081168252602082018a90529181018590529089169042907f9908c9a9b44e8e318fc2d72841d07742290c2e6604a6c8931a6234855adc56e69060600160405180910390a382955050505050610b6a565b5f61098f8286611a66565b60405163079cc67960e41b8152336004820152602481018290529091507f00000000000000000000000000000000000000000000000000000000000000006001600160a01b0316906379cc6790906044015f604051808303815f87803b1580156109f7575f5ffd5b505af1158015610a09573d5f5f3e3d5ffd5b50610a439250506001600160a01b037f00000000000000000000000000000000000000000000000000000000000000001690508a846119ff565b5f610a4e828a6124ed565b6040516323b872dd60e01b8152336004820152306024820152604481018290529091507f00000000000000000000000000000000000000000000000000000000000000006001600160a01b0316906323b872dd906064016020604051808303815f875af1158015610ac1573d5f5f3e3d5ffd5b505050506040513d601f19601f82011682018060405250810190610ae591906124ba565b50610af08a82611a71565b604080516001600160a01b037f00000000000000000000000000000000000000000000000000000000000000008116825260208201859052918101859052908b169042907f9908c9a9b44e8e318fc2d72841d07742290c2e6604a6c8931a6234855adc56e69060600160405180910390a350909550505050505b5092915050565b5f54604051632474521560e21b81527fe7276a2a84d8de556657ec9cf93a55a7d66f096e529d0582ed08e9e2208b92b5600482018190523360248301529161010090046001600160a01b0316906391d1485490604401602060405180830381865afa158015610be2573d5f5f3e3d5ffd5b505050506040513d601f19601f82011682018060405250810190610c0691906124ba565b610c415760405162461bcd60e51b815260206004820152600c60248201526b15539055551213d49256915160a21b604482015260640161067c565b610c49611b85565b50565b5f54604051632474521560e21b81527f3947e2f542c6c46c543fa4f79cbd1e27fea37ed249bc3caf992570d19123642e600482018190523360248301529161010090046001600160a01b0316906391d1485490604401602060405180830381865afa158015610cbd573d5f5f3e3d5ffd5b505050506040513d601f19601f82011682018060405250810190610ce191906124ba565b610d1c5760405162461bcd60e51b815260206004820152600c60248201526b15539055551213d49256915160a21b604482015260640161067c565b60028290556040518281527f9c922f6d0c990b250e9dd0a427a5c8da7f44b960f697fecb31cbbd8ba79ec8c2906020015b60405180910390a15050565b5f54604051632474521560e21b81527f3947e2f542c6c46c543fa4f79cbd1e27fea37ed249bc3caf992570d19123642e600482018190523360248301529161010090046001600160a01b0316906391d1485490604401602060405180830381865afa158015610dca573d5f5f3e3d5ffd5b505050506040513d601f19601f82011682018060405250810190610dee91906124ba565b610e295760405162461bcd60e51b815260206004820152600c60248201526b15539055551213d49256915160a21b604482015260640161067c565b81600181610e535760405163012c88eb60e61b81526004810192909252602482015260440161067c565b5050600882905560405182815242907f5730a5318498413436bed4cccc1a2bbb8bde2936e2548cc2af2148cce27b8fdf906020015b60405180910390a25050565b5f54604051632474521560e21b81527f3947e2f542c6c46c543fa4f79cbd1e27fea37ed249bc3caf992570d19123642e600482018190523360248301529161010090046001600160a01b0316906391d1485490604401602060405180830381865afa158015610f05573d5f5f3e3d5ffd5b505050506040513d601f19601f82011682018060405250810190610f2991906124ba565b610f645760405162461bcd60e51b815260206004820152600c60248201526b15539055551213d49256915160a21b604482015260640161067c565b60018290556040518281527f3c8eb7c49d332f4c1e4d92a27cda93c31cc9452f7a408e0c6109fcddbc9946ea90602001610d4d565b5f5f610fa3610fe1565b90506001548110610fb5575f91505090565b6001545f19905f90610fc89084906124ed565b9050808210610fd75780610fd9565b815b935050505090565b6040516370a0823160e01b81523060048201525f9081906001600160a01b037f000000000000000000000000000000000000000000000000000000000000000016906370a0823190602401602060405180830381865afa158015611047573d5f5f3e3d5ffd5b505050506040513d601f19601f8201168201806040525081019061106b9190612500565b90506006548161107b91906124ed565b91505090565b5f54604051632474521560e21b81527f1a6838efa4183e08fe3607359d1259272af9d4716f65e1a7b5921f78fd5a3c6a6004820181905233602483015260609290916101009091046001600160a01b0316906391d1485490604401602060405180830381865afa1580156110f7573d5f5f3e3d5ffd5b505050506040513d601f19601f8201168201806040525081019061111b91906124ba565b6111565760405162461bcd60e51b815260206004820152600c60248201526b15539055551213d49256915160a21b604482015260640161067c565b8267ffffffffffffffff81111561116f5761116f612517565b6040519080825280602002602001820160405280156111a257816020015b606081526020019060019003908161118d5790505b5091505f5b838110156112fb575f8585838181106111c2576111c261252b565b90506020028101906111d4919061253f565b6111e29060208101906124a1565b90505f8686848181106111f7576111f761252b565b9050602002810190611209919061253f565b602001359050365f8888868181106112235761122361252b565b9050602002810190611235919061253f565b61124390604081019061255d565b915091505f5f856001600160a01b03168585856040516112649291906125a0565b5f6040518083038185875af1925050503d805f811461129e576040519150601f19603f3d011682016040523d82523d5f602084013e6112a3565b606091505b50915091508181906112c957604051634ad176bb60e01b815260040161067c91906125af565b50808988815181106112dd576112dd61252b565b602002602001018190525050505050505080806001019150506111a7565b505092915050565b5f54604051632474521560e21b81527f1a6838efa4183e08fe3607359d1259272af9d4716f65e1a7b5921f78fd5a3c6a600482018190523360248301529161010090046001600160a01b0316906391d1485490604401602060405180830381865afa158015611374573d5f5f3e3d5ffd5b505050506040513d601f19601f8201168201806040525081019061139891906124ba565b6113d35760405162461bcd60e51b815260206004820152600c60248201526b15539055551213d49256915160a21b604482015260640161067c565b6113dc82611bd6565b5050565b5f54604051632474521560e21b81527ffcb9fcbfa83b897fb2d5cf4b58962164105c1e71489a37ef3ae0db3fdce576f6600482018190523360248301529161010090046001600160a01b0316906391d1485490604401602060405180830381865afa158015611451573d5f5f3e3d5ffd5b505050506040513d601f19601f8201168201806040525081019061147591906124ba565b6114b05760405162461bcd60e51b815260206004820152600c60248201526b15539055551213d49256915160a21b604482015260640161067c565b610c49611c3b565b5f54604051632474521560e21b81527f1a6838efa4183e08fe3607359d1259272af9d4716f65e1a7b5921f78fd5a3c6a600482018190523360248301529161010090046001600160a01b0316906391d1485490604401602060405180830381865afa158015611529573d5f5f3e3d5ffd5b505050506040513d601f19601f8201168201806040525081019061154d91906124ba565b6115885760405162461bcd60e51b815260206004820152600c60248201526b15539055551213d49256915160a21b604482015260640161067c565b6009805473ffffffffffffffffffffffffffffffffffffffff19166001600160a01b03841690811790915560405190815242907fd09cf9dd2451581ddd83b8cd3d72c0e0f8cddd023f2447bad6e1b7e8a6301d7f90602001610e88565b5f6106a56003546001600160801b03808216600160801b9092048116919091031690565b611611611826565b5f54604051632474521560e21b81527f276ea66e969b021a947c47a128f4d53c55387336443ef7a5391a75f0d2e48d25600482018190523360248301529161010090046001600160a01b0316906391d1485490604401602060405180830381865afa158015611682573d5f5f3e3d5ffd5b505050506040513d601f19601f820116820180604052508101906116a691906124ba565b6116e15760405162461bcd60e51b815260206004820152600c60248201526b15539055551213d49256915160a21b604482015260640161067c565b5f6116eb83611c77565b90506106976001600160a01b037f00000000000000000000000000000000000000000000000000000000000000001684836119ff565b5f54604051632474521560e21b81527f5f33620cda06d02d58df96005b92bc83bd059a566e48e016372f3fbdc974e371600482018190523360248301529161010090046001600160a01b0316906391d1485490604401602060405180830381865afa158015611792573d5f5f3e3d5ffd5b505050506040513d601f19601f820116820180604052508101906117b691906124ba565b6117f15760405162461bcd60e51b815260206004820152600c60248201526b15539055551213d49256915160a21b604482015260640161067c565b6117f9611826565b610c4961180461069c565b611d36565b5f5f61181361187f565b905061181f83826119eb565b9392505050565b5f5460ff16156118495760405163d93c066560e01b815260040160405180910390fd5b565b6113dc6001600160a01b037f00000000000000000000000000000000000000000000000000000000000000001682846119ff565b6040516315d5220f60e31b81526001600160a01b037f0000000000000000000000000000000000000000000000000000000000000000811660048301525f9182917f0000000000000000000000000000000000000000000000000000000000000000169063aea9107890602401602060405180830381865afa158015611907573d5f5f3e3d5ffd5b505050506040513d601f19601f8201168201806040525081019061192b9190612500565b6040516315d5220f60e31b81526001600160a01b037f0000000000000000000000000000000000000000000000000000000000000000811660048301529192505f917f0000000000000000000000000000000000000000000000000000000000000000169063aea9107890602401602060405180830381865afa1580156119b4573d5f5f3e3d5ffd5b505050506040513d601f19601f820116820180604052508101906119d89190612500565b90506119e48183611dcb565b9250505090565b5f6119f68383611ddf565b90505b92915050565b604080516001600160a01b038416602482015260448082018490528251808303909101815260649091019091526020810180517bffffffffffffffffffffffffffffffffffffffffffffffffffffffff1663a9059cbb60e01b179052610697908490611df3565b5f6119f68383611e65565b612710611a976003546001600160801b03808216600160801b9092048116919091031690565b10611ab55760405163b6e8f80d60e01b815260040160405180910390fd5b5f8111611ad55760405163d6226cfb60e01b815260040160405180910390fd5b6001600160601b03811115611afd57604051630558a46360e21b815260040160405180910390fd5b8060075f828254611b0e91906125c1565b9091555050604080518082019091526001600160601b03821681526001600160a01b0383166020820152611b4490600390611e79565b604080516001600160a01b03841681526020810183905242917fd032280a1d5c18c45b8e4f7cf1d3e43673ae01f28ad98c8f8ab8b088d252a25c9101610e88565b611b8d611f0f565b5f805460ff191690557f5db9ee0a495bf2e6ff9c91a7834c1ba4fdd244a5e8aa4e537bd38aeae4b073aa335b6040516001600160a01b03909116815260200160405180910390a1565b5f80546001600160a01b0383811661010081810274ffffffffffffffffffffffffffffffffffffffff0019851617855560405193049190911692909183917f9209b7c8c06dcfd261686a663e7c55989337b18d59da5433c6f2835fb697092091a35050565b611c43611826565b5f805460ff191660011790557f62e78cea01bee320cd4e420270b5ea74000d11b0c9f74754ebdbfc544b05a258611bb93390565b6001600160a01b0381165f908152600560205260408120548281611cba576040516319f2674560e31b81526001600160a01b03909116600482015260240161067c565b506001600160a01b0383165f90815260056020526040812081905560068054839290611ce79084906124ed565b9091555050604080516001600160a01b03851681526020810183905242917fa15008b6e695cc35d35421608ccb0ed390dab78c54707b1be30293cb76296c81910160405180910390a292915050565b8015610c49575f611d4e82611d4961187f565b611f31565b604051630852cd8d60e31b8152600481018290529092507f00000000000000000000000000000000000000000000000000000000000000006001600160a01b031691506342966c68906024015f604051808303815f87803b158015611db1575f5ffd5b505af1158015611dc3573d5f5f3e3d5ffd5b505050505050565b5f6119f683670de0b6b3a764000084612118565b5f6119f68383670de0b6b3a7640000612118565b5f5f60205f8451602086015f885af180611e12576040513d5f823e3d81fd5b50505f513d91508115611e29578060011415611e36565b6001600160a01b0384163b155b15611e5f57604051635274afe760e01b81526001600160a01b038516600482015260240161067c565b50505050565b5f6119f683670de0b6b3a764000084612133565b81546001600160801b03600160801b820481169181166001830190911603611eb45760405163a3d0cff360e01b815260040160405180910390fd5b6001600160801b038082165f908152600180860160209081526040909220855192909501516001600160a01b0316600160601b026001600160601b03909216919091179093558354919092018216600160801b029116179055565b5f5460ff1661184957604051638dfc202b60e01b815260040160405180910390fd5b5f5f5f8411611f5357604051630a5a2ce960e31b815260040160405180910390fd5b6007546006548590825b5f83118015611f8157506003546001600160801b03808216600160801b9092041614155b156120f1575f611f916003612156565b80519091505f90611fab906001600160601b03168a611ddf565b82519091506001600160601b03168582111561203d57859150611fce828b611e65565b90505f81845f0151611fe091906125d4565b9050611fed6003826121e9565b602080850151604080516001600160a01b03909216825291810189905242917f65860bd1fef471f7c4b2de05576592a3073b86dc626031beb2d81ae343ba84f6910160405180910390a250612093565b612047600361225d565b50602080840151604080516001600160a01b03909216825291810184905242917fb7e6617ade0f97e294ed70934adbf1b40613042dc2bb5aecabb208cc84042872910160405180910390a25b6020808401516001600160a01b03165f90815260059091526040812080548492906120bf9084906125c1565b909155506120cf905082876124ed565b95506120db82866125c1565b94506120e781856124ed565b9350505050611f5d565b600682905560078190555f61210682866124ed565b939650929450505050505b9250929050565b5f825f19048411830215820261212c575f5ffd5b5091020490565b5f825f190484118302158202612147575f5ffd5b50910281810615159190040190565b604080518082019091525f808252602082015281546001600160801b03808216600160801b909204160361219d576040516363c3654960e01b815260040160405180910390fd5b5080546001600160801b03165f908152600190910160209081526040918290208251808401909352546001600160601b0381168352600160601b90046001600160a01b03169082015290565b81546001600160801b03808216600160801b909204160361221d576040516363c3654960e01b815260040160405180910390fd5b81546001600160801b03165f9081526001909201602052604090912080546bffffffffffffffffffffffff19166001600160601b03909216919091179055565b604080518082019091525f808252602082015281546001600160801b0380821691600160801b90041681036122a5576040516363c3654960e01b815260040160405180910390fd5b6001600160801b038181165f818152600186810160208181526040808520815180830190925280546001600160601b0381168352600160601b90046001600160a01b0316828401529585529190529190925585546fffffffffffffffffffffffffffffffff191691909301909116179092555090565b80356001600160a01b0381168114612331575f5ffd5b919050565b5f5f60408385031215612347575f5ffd5b823591506123576020840161231b565b90509250929050565b5f5f60408385031215612371575f5ffd5b61237a8361231b565b946020939093013593505050565b5f60208284031215612398575f5ffd5b5035919050565b5f5f602083850312156123b0575f5ffd5b823567ffffffffffffffff8111156123c6575f5ffd5b8301601f810185136123d6575f5ffd5b803567ffffffffffffffff8111156123ec575f5ffd5b8560208260051b8401011115612400575f5ffd5b6020919091019590945092505050565b5f81518084528060208401602086015e5f602082860101526020601f19601f83011685010191505092915050565b5f602082016020835280845180835260408501915060408160051b8601019250602086015f5b8281101561249557603f19878603018452612480858351612410565b94506020938401939190910190600101612464565b50929695505050505050565b5f602082840312156124b1575f5ffd5b6119f68261231b565b5f602082840312156124ca575f5ffd5b8151801515811461181f575f5ffd5b634e487b7160e01b5f52601160045260245ffd5b818103818111156119f9576119f96124d9565b5f60208284031215612510575f5ffd5b5051919050565b634e487b7160e01b5f52604160045260245ffd5b634e487b7160e01b5f52603260045260245ffd5b5f8235605e19833603018112612553575f5ffd5b9190910192915050565b5f5f8335601e19843603018112612572575f5ffd5b83018035915067ffffffffffffffff82111561258c575f5ffd5b602001915036819003821315612111575f5ffd5b818382375f9101908152919050565b602081525f6119f66020830184612410565b808201808211156119f9576119f96124d9565b6001600160601b0382811682821603908111156119f9576119f96124d956fea2646970667358221220d01302c4056907a2e339e7836515612ed33482056e58b8b9440d0ee5cc62f44964736f6c634300081c0033","linkReferences":{}},"methodIdentifiers":{"MAX_QUEUE_LENGTH()":"6e73ba5b","accounting()":"9624e83e","assetToken()":"1083f761","assets()":"71a97305","beforeRedeemHook()":"ce25b2c6","cap()":"355274ea","claimRedemption(address)":"c0598b0d","core()":"f2f4eb26","deposit()":"d0e30db0","emergencyAction((address,uint256,bytes)[])":"7df3927e","liquidity()":"1a686502","maxDeposit()":"6083e59a","maxSlippage()":"8c04166f","minRedemptionAmount()":"9f027e73","pause()":"8456cb59","paused()":"5c975abb","queue()":"e10d29ee","queueLength()":"ab91c7b0","receiptToAsset(uint256)":"f308cf65","receiptToken()":"ec78e832","redeem(address,uint256)":"1e9a6950","setBeforeRedeemHook(address)":"a66d69d7","setCap(uint256)":"47786d37","setCore(address)":"80009630","setMaxSlippage(uint256)":"43f68a49","setMinRedemptionAmount(uint256)":"464f2e99","totalEnqueuedRedemptions()":"3f3b03ca","totalPendingClaims()":"70bf2381","unpause()":"3f4ba83a","userPendingClaims(address)":"80dcff13","withdraw(uint256,address)":"00f714ce"},"id":76}