{"abi":[{"type":"constructor","inputs":[{"name":"_core","type":"address","internalType":"address"},{"name":"_assetToken","type":"address","internalType":"address"},{"name":"_vault","type":"address","internalType":"address"}],"stateMutability":"nonpayable"},{"type":"function","name":"assetToken","inputs":[],"outputs":[{"name":"","type":"address","internalType":"address"}],"stateMutability":"view"},{"type":"function","name":"assets","inputs":[],"outputs":[{"name":"","type":"uint256","internalType":"uint256"}],"stateMutability":"view"},{"type":"function","name":"cap","inputs":[],"outputs":[{"name":"","type":"uint256","internalType":"uint256"}],"stateMutability":"view"},{"type":"function","name":"core","inputs":[],"outputs":[{"name":"","type":"address","internalType":"contract InfiniFiCore"}],"stateMutability":"view"},{"type":"function","name":"deposit","inputs":[],"outputs":[],"stateMutability":"nonpayable"},{"type":"function","name":"emergencyAction","inputs":[{"name":"calls","type":"tuple[]","internalType":"struct CoreControlled.Call[]","components":[{"name":"target","type":"address","internalType":"address"},{"name":"value","type":"uint256","internalType":"uint256"},{"name":"callData","type":"bytes","internalType":"bytes"}]}],"outputs":[{"name":"returnData","type":"bytes[]","internalType":"bytes[]"}],"stateMutability":"payable"},{"type":"function","name":"liquidity","inputs":[],"outputs":[{"name":"","type":"uint256","internalType":"uint256"}],"stateMutability":"view"},{"type":"function","name":"maxDeposit","inputs":[],"outputs":[{"name":"","type":"uint256","internalType":"uint256"}],"stateMutability":"view"},{"type":"function","name":"maxSlippage","inputs":[],"outputs":[{"name":"","type":"uint256","internalType":"uint256"}],"stateMutability":"view"},{"type":"function","name":"pause","inputs":[],"outputs":[],"stateMutability":"nonpayable"},{"type":"function","name":"paused","inputs":[],"outputs":[{"name":"","type":"bool","internalType":"bool"}],"stateMutability":"view"},{"type":"function","name":"setCap","inputs":[{"name":"_newCap","type":"uint256","internalType":"uint256"}],"outputs":[],"stateMutability":"nonpayable"},{"type":"function","name":"setCore","inputs":[{"name":"newCore","type":"address","internalType":"address"}],"outputs":[],"stateMutability":"nonpayable"},{"type":"function","name":"setMaxSlippage","inputs":[{"name":"_maxSlippage","type":"uint256","internalType":"uint256"}],"outputs":[],"stateMutability":"nonpayable"},{"type":"function","name":"unpause","inputs":[],"outputs":[],"stateMutability":"nonpayable"},{"type":"function","name":"vault","inputs":[],"outputs":[{"name":"","type":"address","internalType":"address"}],"stateMutability":"view"},{"type":"function","name":"withdraw","inputs":[{"name":"amount","type":"uint256","internalType":"uint256"},{"name":"to","type":"address","internalType":"address"}],"outputs":[],"stateMutability":"nonpayable"},{"type":"event","name":"AssetsUpdated","inputs":[{"name":"timestamp","type":"uint256","indexed":false,"internalType":"uint256"},{"name":"assetsBefore","type":"uint256","indexed":false,"internalType":"uint256"},{"name":"assetsAfter","type":"uint256","indexed":false,"internalType":"uint256"}],"anonymous":false},{"type":"event","name":"CapUpdated","inputs":[{"name":"newCap","type":"uint256","indexed":false,"internalType":"uint256"}],"anonymous":false},{"type":"event","name":"CoreUpdate","inputs":[{"name":"oldCore","type":"address","indexed":true,"internalType":"address"},{"name":"newCore","type":"address","indexed":true,"internalType":"address"}],"anonymous":false},{"type":"event","name":"MaxSlippageUpdated","inputs":[{"name":"newMaxSlippage","type":"uint256","indexed":false,"internalType":"uint256"}],"anonymous":false},{"type":"event","name":"Paused","inputs":[{"name":"account","type":"address","indexed":false,"internalType":"address"}],"anonymous":false},{"type":"event","name":"Unpaused","inputs":[{"name":"account","type":"address","indexed":false,"internalType":"address"}],"anonymous":false},{"type":"error","name":"AssetMismatch","inputs":[{"name":"_assetToken","type":"address","internalType":"address"},{"name":"_vaultAsset","type":"address","internalType":"address"}]},{"type":"error","name":"CapExceeded","inputs":[{"name":"newAmount","type":"uint256","internalType":"uint256"},{"name":"cap","type":"uint256","internalType":"uint256"}]},{"type":"error","name":"EnforcedPause","inputs":[]},{"type":"error","name":"ExpectedPause","inputs":[]},{"type":"error","name":"SafeERC20FailedOperation","inputs":[{"name":"token","type":"address","internalType":"address"}]},{"type":"error","name":"SlippageTooHigh","inputs":[{"name":"minAssetsOut","type":"uint256","internalType":"uint256"},{"name":"assetsReceived","type":"uint256","internalType":"uint256"}]},{"type":"error","name":"UnderlyingCallReverted","inputs":[{"name":"returnData","type":"bytes","internalType":"bytes"}]}],"bytecode":{"object":"0x60c060405234801561000f575f5ffd5b506040516119ae3803806119ae83398101604081905261002e91610199565b5f80546001600160a01b03808616610100026001600160a81b03199092169190911790915580831660808190525f19600155670de0b5cad2bef00060025590821660a0819052604080516338d52e0f60e01b815290516338d52e0f916004808201926020929091908290030181865afa1580156100ad573d5f5f3e3d5ffd5b505050506040513d601f19601f820116820180604052508101906100d191906101d9565b6001600160a01b0316148260a0516001600160a01b03166338d52e0f6040518163ffffffff1660e01b8152600401602060405180830381865afa15801561011a573d5f5f3e3d5ffd5b505050506040513d601f19601f8201168201806040525081019061013e91906101d9565b909161017457604051634e83a9b960e01b81526001600160a01b0392831660048201529116602482015260440160405180910390fd5b50505050506101f9565b80516001600160a01b0381168114610194575f5ffd5b919050565b5f5f5f606084860312156101ab575f5ffd5b6101b48461017e565b92506101c26020850161017e565b91506101d06040850161017e565b90509250925092565b5f602082840312156101e9575f5ffd5b6101f28261017e565b9392505050565b60805160a0516117556102595f395f81816102ee015281816104c10152818161083c01528181610894015281816109160152818161107501528181611222015261126301525f818161012f01528181610eb3015261120001526117555ff3fe6080604052600436106100f9575f3560e01c80636083e59a116100925780638456cb59116100625780638456cb591461027f5780638c04166f14610293578063d0e30db0146102a8578063f2f4eb26146102bc578063fbfa77cf146102dd575f5ffd5b80636083e59a1461021857806371a973051461022c5780637df3927e146102405780638000963014610260575f5ffd5b80633f4ba83a116100cd5780633f4ba83a146101a557806343f68a49146101b957806347786d37146101d85780635c975abb146101f7575f5ffd5b8062f714ce146100fd5780631083f7611461011e5780631a6865021461016e578063355274ea14610190575b5f5ffd5b348015610108575f5ffd5b5061011c61011736600461149b565b610310565b005b348015610129575f5ffd5b506101517f000000000000000000000000000000000000000000000000000000000000000081565b6040516001600160a01b0390911681526020015b60405180910390f35b348015610179575f5ffd5b506101826104aa565b604051908152602001610165565b34801561019b575f5ffd5b5061018260015481565b3480156101b0575f5ffd5b5061011c610538565b3480156101c4575f5ffd5b5061011c6101d33660046114c5565b610613565b3480156101e3575f5ffd5b5061011c6101f23660046114c5565b610720565b348015610202575f5ffd5b505f5460ff166040519015158152602001610165565b348015610223575f5ffd5b50610182610825565b348015610237575f5ffd5b50610182610873565b61025361024e3660046114dc565b61098d565b604051610165919061157b565b34801561026b575f5ffd5b5061011c61027a3660046115de565b610c0f565b34801561028a575f5ffd5b5061011c610cec565b34801561029e575f5ffd5b5061018260025481565b3480156102b3575f5ffd5b5061011c610dc4565b3480156102c7575f5ffd5b505f5461010090046001600160a01b0316610151565b3480156102e8575f5ffd5b506101517f000000000000000000000000000000000000000000000000000000000000000081565b5f54604051632474521560e21b81527f5f33620cda06d02d58df96005b92bc83bd059a566e48e016372f3fbdc974e371600482018190523360248301529161010090046001600160a01b0316906391d1485490604401602060405180830381865afa158015610381573d5f5f3e3d5ffd5b505050506040513d601f19601f820116820180604052508101906103a591906115f7565b6103e55760405162461bcd60e51b815260206004820152600c60248201526b15539055551213d49256915160a21b60448201526064015b60405180910390fd5b6103ed611024565b5f6103f6610873565b90506104028484611049565b5f61040b610873565b90505f6104188284611631565b90505f610430600254836110e490919063ffffffff16565b905080878181101561045e57604051633b5d56ed60e11b8152600481019290925260248201526044016103dc565b505060408051428152602081018690529081018490527f35a901c4413e585f9121eb5cf07e67760bd4ac498dd031249e5cd2cd225f74e49060600160405180910390a150505050505050565b60405163ce96cb7760e01b81523060048201525f907f00000000000000000000000000000000000000000000000000000000000000006001600160a01b03169063ce96cb77906024015b602060405180830381865afa15801561050f573d5f5f3e3d5ffd5b505050506040513d601f19601f820116820180604052508101906105339190611644565b905090565b5f54604051632474521560e21b81527fe7276a2a84d8de556657ec9cf93a55a7d66f096e529d0582ed08e9e2208b92b5600482018190523360248301529161010090046001600160a01b0316906391d1485490604401602060405180830381865afa1580156105a9573d5f5f3e3d5ffd5b505050506040513d601f19601f820116820180604052508101906105cd91906115f7565b6106085760405162461bcd60e51b815260206004820152600c60248201526b15539055551213d49256915160a21b60448201526064016103dc565b610610611101565b50565b5f54604051632474521560e21b81527f3947e2f542c6c46c543fa4f79cbd1e27fea37ed249bc3caf992570d19123642e600482018190523360248301529161010090046001600160a01b0316906391d1485490604401602060405180830381865afa158015610684573d5f5f3e3d5ffd5b505050506040513d601f19601f820116820180604052508101906106a891906115f7565b6106e35760405162461bcd60e51b815260206004820152600c60248201526b15539055551213d49256915160a21b60448201526064016103dc565b60028290556040518281527f9c922f6d0c990b250e9dd0a427a5c8da7f44b960f697fecb31cbbd8ba79ec8c2906020015b60405180910390a15050565b5f54604051632474521560e21b81527f3947e2f542c6c46c543fa4f79cbd1e27fea37ed249bc3caf992570d19123642e600482018190523360248301529161010090046001600160a01b0316906391d1485490604401602060405180830381865afa158015610791573d5f5f3e3d5ffd5b505050506040513d601f19601f820116820180604052508101906107b591906115f7565b6107f05760405162461bcd60e51b815260206004820152600c60248201526b15539055551213d49256915160a21b60448201526064016103dc565b60018290556040518281527f3c8eb7c49d332f4c1e4d92a27cda93c31cc9452f7a408e0c6109fcddbc9946ea90602001610714565b60405163402d267d60e01b81523060048201525f907f00000000000000000000000000000000000000000000000000000000000000006001600160a01b03169063402d267d906024016104f4565b6040516370a0823160e01b81523060048201525f9081906001600160a01b037f000000000000000000000000000000000000000000000000000000000000000016906370a0823190602401602060405180830381865afa1580156108d9573d5f5f3e3d5ffd5b505050506040513d601f19601f820116820180604052508101906108fd9190611644565b6040516303d1689d60e11b8152600481018290529091507f00000000000000000000000000000000000000000000000000000000000000006001600160a01b0316906307a2d13a90602401602060405180830381865afa158015610963573d5f5f3e3d5ffd5b505050506040513d601f19601f820116820180604052508101906109879190611644565b91505090565b5f54604051632474521560e21b81527f1a6838efa4183e08fe3607359d1259272af9d4716f65e1a7b5921f78fd5a3c6a6004820181905233602483015260609290916101009091046001600160a01b0316906391d1485490604401602060405180830381865afa158015610a03573d5f5f3e3d5ffd5b505050506040513d601f19601f82011682018060405250810190610a2791906115f7565b610a625760405162461bcd60e51b815260206004820152600c60248201526b15539055551213d49256915160a21b60448201526064016103dc565b8267ffffffffffffffff811115610a7b57610a7b61165b565b604051908082528060200260200182016040528015610aae57816020015b6060815260200190600190039081610a995790505b5091505f5b83811015610c07575f858583818110610ace57610ace61166f565b9050602002810190610ae09190611683565b610aee9060208101906115de565b90505f868684818110610b0357610b0361166f565b9050602002810190610b159190611683565b602001359050365f888886818110610b2f57610b2f61166f565b9050602002810190610b419190611683565b610b4f9060408101906116a1565b915091505f5f856001600160a01b0316858585604051610b709291906116eb565b5f6040518083038185875af1925050503d805f8114610baa576040519150601f19603f3d011682016040523d82523d5f602084013e610baf565b606091505b5091509150818190610bd557604051634ad176bb60e01b81526004016103dc91906116fa565b5080898881518110610be957610be961166f565b60200260200101819052505050505050508080600101915050610ab3565b505092915050565b5f54604051632474521560e21b81527f1a6838efa4183e08fe3607359d1259272af9d4716f65e1a7b5921f78fd5a3c6a600482018190523360248301529161010090046001600160a01b0316906391d1485490604401602060405180830381865afa158015610c80573d5f5f3e3d5ffd5b505050506040513d601f19601f82011682018060405250810190610ca491906115f7565b610cdf5760405162461bcd60e51b815260206004820152600c60248201526b15539055551213d49256915160a21b60448201526064016103dc565b610ce882611152565b5050565b5f54604051632474521560e21b81527ffcb9fcbfa83b897fb2d5cf4b58962164105c1e71489a37ef3ae0db3fdce576f6600482018190523360248301529161010090046001600160a01b0316906391d1485490604401602060405180830381865afa158015610d5d573d5f5f3e3d5ffd5b505050506040513d601f19601f82011682018060405250810190610d8191906115f7565b610dbc5760405162461bcd60e51b815260206004820152600c60248201526b15539055551213d49256915160a21b60448201526064016103dc565b6106106111b7565b5f54604051632474521560e21b81527f5f33620cda06d02d58df96005b92bc83bd059a566e48e016372f3fbdc974e371600482018190523360248301529161010090046001600160a01b0316906391d1485490604401602060405180830381865afa158015610e35573d5f5f3e3d5ffd5b505050506040513d601f19601f82011682018060405250810190610e5991906115f7565b610e945760405162461bcd60e51b815260206004820152600c60248201526b15539055551213d49256915160a21b60448201526064016103dc565b610e9c611024565b6040516370a0823160e01b81523060048201525f907f00000000000000000000000000000000000000000000000000000000000000006001600160a01b0316906370a0823190602401602060405180830381865afa158015610f00573d5f5f3e3d5ffd5b505050506040513d601f19601f82011682018060405250810190610f249190611644565b90505f610f2f610873565b600154909150610f3f838361170c565b1115610f7457610f4f828261170c565b60015460405163f480e28560e01b8152600481019290925260248201526044016103dc565b610f7d826111f3565b5f610f86610873565b90505f610f938383611631565b90505f610fab600254866110e490919063ffffffff16565b9050808281811015610fd957604051633b5d56ed60e11b8152600481019290925260248201526044016103dc565b505060408051428152602081018690529081018490527f35a901c4413e585f9121eb5cf07e67760bd4ac498dd031249e5cd2cd225f74e49060600160405180910390a1505050505050565b5f5460ff16156110475760405163d93c066560e01b815260040160405180910390fd5b565b604051632d182be560e21b8152600481018390526001600160a01b0382811660248301523060448301527f0000000000000000000000000000000000000000000000000000000000000000169063b460af94906064016020604051808303815f875af11580156110bb573d5f5f3e3d5ffd5b505050506040513d601f19601f820116820180604052508101906110df9190611644565b505050565b5f6110f88383670de0b6b3a76400006112d5565b90505b92915050565b6111096112f0565b5f805460ff191690557f5db9ee0a495bf2e6ff9c91a7834c1ba4fdd244a5e8aa4e537bd38aeae4b073aa335b6040516001600160a01b03909116815260200160405180910390a1565b5f80546001600160a01b0383811661010081810274ffffffffffffffffffffffffffffffffffffffff0019851617855560405193049190911692909183917f9209b7c8c06dcfd261686a663e7c55989337b18d59da5433c6f2835fb697092091a35050565b6111bf611024565b5f805460ff191660011790557f62e78cea01bee320cd4e420270b5ea74000d11b0c9f74754ebdbfc544b05a2586111353390565b6112476001600160a01b037f0000000000000000000000000000000000000000000000000000000000000000167f000000000000000000000000000000000000000000000000000000000000000083611312565b604051636e553f6560e01b8152600481018290523060248201527f00000000000000000000000000000000000000000000000000000000000000006001600160a01b031690636e553f65906044016020604051808303815f875af11580156112b1573d5f5f3e3d5ffd5b505050506040513d601f19601f82011682018060405250810190610ce89190611644565b5f825f1904841183021582026112e9575f5ffd5b5091020490565b5f5460ff1661104757604051638dfc202b60e01b815260040160405180910390fd5b604080516001600160a01b038416602482015260448082018490528251808303909101815260649091019091526020810180516001600160e01b031663095ea7b360e01b17905261136384826113cb565b6113c557604080516001600160a01b03851660248201525f6044808301919091528251808303909101815260649091019091526020810180516001600160e01b031663095ea7b360e01b1790526113bb908590611414565b6113c58482611414565b50505050565b5f5f5f5f60205f8651602088015f8a5af192503d91505f51905082801561140a575081156113fc578060011461140a565b5f866001600160a01b03163b115b9695505050505050565b5f5f60205f8451602086015f885af180611433576040513d5f823e3d81fd5b50505f513d9150811561144a578060011415611457565b6001600160a01b0384163b155b156113c557604051635274afe760e01b81526001600160a01b03851660048201526024016103dc565b80356001600160a01b0381168114611496575f5ffd5b919050565b5f5f604083850312156114ac575f5ffd5b823591506114bc60208401611480565b90509250929050565b5f602082840312156114d5575f5ffd5b5035919050565b5f5f602083850312156114ed575f5ffd5b823567ffffffffffffffff811115611503575f5ffd5b8301601f81018513611513575f5ffd5b803567ffffffffffffffff811115611529575f5ffd5b8560208260051b840101111561153d575f5ffd5b6020919091019590945092505050565b5f81518084528060208401602086015e5f602082860101526020601f19601f83011685010191505092915050565b5f602082016020835280845180835260408501915060408160051b8601019250602086015f5b828110156115d257603f198786030184526115bd85835161154d565b945060209384019391909101906001016115a1565b50929695505050505050565b5f602082840312156115ee575f5ffd5b6110f882611480565b5f60208284031215611607575f5ffd5b81518015158114611616575f5ffd5b9392505050565b634e487b7160e01b5f52601160045260245ffd5b818103818111156110fb576110fb61161d565b5f60208284031215611654575f5ffd5b5051919050565b634e487b7160e01b5f52604160045260245ffd5b634e487b7160e01b5f52603260045260245ffd5b5f8235605e19833603018112611697575f5ffd5b9190910192915050565b5f5f8335601e198436030181126116b6575f5ffd5b83018035915067ffffffffffffffff8211156116d0575f5ffd5b6020019150368190038213156116e4575f5ffd5b9250929050565b818382375f9101908152919050565b602081525f6110f8602083018461154d565b808201808211156110fb576110fb61161d56fea2646970667358221220f5b28b11a38c4b7bba118de646a4fcfb333775bf365575f07aa47a10f9cd67e364736f6c634300081c0033","linkReferences":{}},"methodIdentifiers":{"assetToken()":"1083f761","assets()":"71a97305","cap()":"355274ea","core()":"f2f4eb26","deposit()":"d0e30db0","emergencyAction((address,uint256,bytes)[])":"7df3927e","liquidity()":"1a686502","maxDeposit()":"6083e59a","maxSlippage()":"8c04166f","pause()":"8456cb59","paused()":"5c975abb","setCap(uint256)":"47786d37","setCore(address)":"80009630","setMaxSlippage(uint256)":"43f68a49","unpause()":"3f4ba83a","vault()":"fbfa77cf","withdraw(uint256,address)":"00f714ce"},"id":84}