{"abi":[{"type":"constructor","inputs":[{"name":"_core","type":"address","internalType":"address"},{"name":"_name","type":"string","internalType":"string"},{"name":"_symbol","type":"string","internalType":"string"}],"stateMutability":"nonpayable"},{"type":"function","name":"DOMAIN_SEPARATOR","inputs":[],"outputs":[{"name":"","type":"bytes32","internalType":"bytes32"}],"stateMutability":"view"},{"type":"function","name":"allowance","inputs":[{"name":"owner","type":"address","internalType":"address"},{"name":"spender","type":"address","internalType":"address"}],"outputs":[{"name":"","type":"uint256","internalType":"uint256"}],"stateMutability":"view"},{"type":"function","name":"approve","inputs":[{"name":"spender","type":"address","internalType":"address"},{"name":"value","type":"uint256","internalType":"uint256"}],"outputs":[{"name":"","type":"bool","internalType":"bool"}],"stateMutability":"nonpayable"},{"type":"function","name":"balanceOf","inputs":[{"name":"account","type":"address","internalType":"address"}],"outputs":[{"name":"","type":"uint256","internalType":"uint256"}],"stateMutability":"view"},{"type":"function","name":"burn","inputs":[{"name":"_value","type":"uint256","internalType":"uint256"}],"outputs":[],"stateMutability":"nonpayable"},{"type":"function","name":"burnFrom","inputs":[{"name":"_account","type":"address","internalType":"address"},{"name":"_value","type":"uint256","internalType":"uint256"}],"outputs":[],"stateMutability":"nonpayable"},{"type":"function","name":"core","inputs":[],"outputs":[{"name":"","type":"address","internalType":"contract InfiniFiCore"}],"stateMutability":"view"},{"type":"function","name":"decimals","inputs":[],"outputs":[{"name":"","type":"uint8","internalType":"uint8"}],"stateMutability":"view"},{"type":"function","name":"eip712Domain","inputs":[],"outputs":[{"name":"fields","type":"bytes1","internalType":"bytes1"},{"name":"name","type":"string","internalType":"string"},{"name":"version","type":"string","internalType":"string"},{"name":"chainId","type":"uint256","internalType":"uint256"},{"name":"verifyingContract","type":"address","internalType":"address"},{"name":"salt","type":"bytes32","internalType":"bytes32"},{"name":"extensions","type":"uint256[]","internalType":"uint256[]"}],"stateMutability":"view"},{"type":"function","name":"emergencyAction","inputs":[{"name":"calls","type":"tuple[]","internalType":"struct CoreControlled.Call[]","components":[{"name":"target","type":"address","internalType":"address"},{"name":"value","type":"uint256","internalType":"uint256"},{"name":"callData","type":"bytes","internalType":"bytes"}]}],"outputs":[{"name":"returnData","type":"bytes[]","internalType":"bytes[]"}],"stateMutability":"payable"},{"type":"function","name":"mint","inputs":[{"name":"_to","type":"address","internalType":"address"},{"name":"_amount","type":"uint256","internalType":"uint256"}],"outputs":[],"stateMutability":"nonpayable"},{"type":"function","name":"name","inputs":[],"outputs":[{"name":"","type":"string","internalType":"string"}],"stateMutability":"view"},{"type":"function","name":"nonces","inputs":[{"name":"owner","type":"address","internalType":"address"}],"outputs":[{"name":"","type":"uint256","internalType":"uint256"}],"stateMutability":"view"},{"type":"function","name":"pause","inputs":[],"outputs":[],"stateMutability":"nonpayable"},{"type":"function","name":"paused","inputs":[],"outputs":[{"name":"","type":"bool","internalType":"bool"}],"stateMutability":"view"},{"type":"function","name":"permit","inputs":[{"name":"owner","type":"address","internalType":"address"},{"name":"spender","type":"address","internalType":"address"},{"name":"value","type":"uint256","internalType":"uint256"},{"name":"deadline","type":"uint256","internalType":"uint256"},{"name":"v","type":"uint8","internalType":"uint8"},{"name":"r","type":"bytes32","internalType":"bytes32"},{"name":"s","type":"bytes32","internalType":"bytes32"}],"outputs":[],"stateMutability":"nonpayable"},{"type":"function","name":"setCore","inputs":[{"name":"newCore","type":"address","internalType":"address"}],"outputs":[],"stateMutability":"nonpayable"},{"type":"function","name":"symbol","inputs":[],"outputs":[{"name":"","type":"string","internalType":"string"}],"stateMutability":"view"},{"type":"function","name":"totalSupply","inputs":[],"outputs":[{"name":"","type":"uint256","internalType":"uint256"}],"stateMutability":"view"},{"type":"function","name":"transfer","inputs":[{"name":"to","type":"address","internalType":"address"},{"name":"value","type":"uint256","internalType":"uint256"}],"outputs":[{"name":"","type":"bool","internalType":"bool"}],"stateMutability":"nonpayable"},{"type":"function","name":"transferFrom","inputs":[{"name":"from","type":"address","internalType":"address"},{"name":"to","type":"address","internalType":"address"},{"name":"value","type":"uint256","internalType":"uint256"}],"outputs":[{"name":"","type":"bool","internalType":"bool"}],"stateMutability":"nonpayable"},{"type":"function","name":"unpause","inputs":[],"outputs":[],"stateMutability":"nonpayable"},{"type":"event","name":"Approval","inputs":[{"name":"owner","type":"address","indexed":true,"internalType":"address"},{"name":"spender","type":"address","indexed":true,"internalType":"address"},{"name":"value","type":"uint256","indexed":false,"internalType":"uint256"}],"anonymous":false},{"type":"event","name":"CoreUpdate","inputs":[{"name":"oldCore","type":"address","indexed":true,"internalType":"address"},{"name":"newCore","type":"address","indexed":true,"internalType":"address"}],"anonymous":false},{"type":"event","name":"EIP712DomainChanged","inputs":[],"anonymous":false},{"type":"event","name":"Paused","inputs":[{"name":"account","type":"address","indexed":false,"internalType":"address"}],"anonymous":false},{"type":"event","name":"Transfer","inputs":[{"name":"from","type":"address","indexed":true,"internalType":"address"},{"name":"to","type":"address","indexed":true,"internalType":"address"},{"name":"value","type":"uint256","indexed":false,"internalType":"uint256"}],"anonymous":false},{"type":"event","name":"Unpaused","inputs":[{"name":"account","type":"address","indexed":false,"internalType":"address"}],"anonymous":false},{"type":"error","name":"ECDSAInvalidSignature","inputs":[]},{"type":"error","name":"ECDSAInvalidSignatureLength","inputs":[{"name":"length","type":"uint256","internalType":"uint256"}]},{"type":"error","name":"ECDSAInvalidSignatureS","inputs":[{"name":"s","type":"bytes32","internalType":"bytes32"}]},{"type":"error","name":"ERC20InsufficientAllowance","inputs":[{"name":"spender","type":"address","internalType":"address"},{"name":"allowance","type":"uint256","internalType":"uint256"},{"name":"needed","type":"uint256","internalType":"uint256"}]},{"type":"error","name":"ERC20InsufficientBalance","inputs":[{"name":"sender","type":"address","internalType":"address"},{"name":"balance","type":"uint256","internalType":"uint256"},{"name":"needed","type":"uint256","internalType":"uint256"}]},{"type":"error","name":"ERC20InvalidApprover","inputs":[{"name":"approver","type":"address","internalType":"address"}]},{"type":"error","name":"ERC20InvalidReceiver","inputs":[{"name":"receiver","type":"address","internalType":"address"}]},{"type":"error","name":"ERC20InvalidSender","inputs":[{"name":"sender","type":"address","internalType":"address"}]},{"type":"error","name":"ERC20InvalidSpender","inputs":[{"name":"spender","type":"address","internalType":"address"}]},{"type":"error","name":"ERC2612ExpiredSignature","inputs":[{"name":"deadline","type":"uint256","internalType":"uint256"}]},{"type":"error","name":"ERC2612InvalidSigner","inputs":[{"name":"signer","type":"address","internalType":"address"},{"name":"owner","type":"address","internalType":"address"}]},{"type":"error","name":"EnforcedPause","inputs":[]},{"type":"error","name":"ExpectedPause","inputs":[]},{"type":"error","name":"InvalidAccountNonce","inputs":[{"name":"account","type":"address","internalType":"address"},{"name":"currentNonce","type":"uint256","internalType":"uint256"}]},{"type":"error","name":"InvalidShortString","inputs":[]},{"type":"error","name":"StringTooLong","inputs":[{"name":"str","type":"string","internalType":"string"}]},{"type":"error","name":"UnderlyingCallReverted","inputs":[{"name":"returnData","type":"bytes","internalType":"bytes"}]}],"bytecode":{"object":"0x610160604052348015610010575f5ffd5b5060405161207938038061207983398101604081905261002f91610257565b6040805180820190915260018152603160f81b60208201525f80546001600160a81b0319166101006001600160a01b038716021790558290819081846004610077838261035d565b506005610084828261035d565b5061009491508390506006610142565b610120526100a3816007610142565b61014052815160208084019190912060e052815190820120610100524660a05261012f60e05161010051604080517f8b73c3c69bb8fe3d512ecc4cf759cc79239f7b179b0ffacaa9a75d522b39400f60208201529081019290925260608201524660808201523060a08201525f9060c00160405160208183030381529060405280519060200120905090565b60805250503060c0525061046f92505050565b5f60208351101561015d5761015683610174565b905061016e565b81610168848261035d565b5060ff90505b92915050565b5f5f829050601f815111156101a7578260405163305a27a960e01b815260040161019e9190610417565b60405180910390fd5b80516101b28261044c565b179392505050565b634e487b7160e01b5f52604160045260245ffd5b5f82601f8301126101dd575f5ffd5b81516001600160401b038111156101f6576101f66101ba565b604051601f8201601f19908116603f011681016001600160401b0381118282101715610224576102246101ba565b60405281815283820160200185101561023b575f5ffd5b8160208501602083015e5f918101602001919091529392505050565b5f5f5f60608486031215610269575f5ffd5b83516001600160a01b038116811461027f575f5ffd5b60208501519093506001600160401b0381111561029a575f5ffd5b6102a6868287016101ce565b604086015190935090506001600160401b038111156102c3575f5ffd5b6102cf868287016101ce565b9150509250925092565b600181811c908216806102ed57607f821691505b60208210810361030b57634e487b7160e01b5f52602260045260245ffd5b50919050565b601f82111561035857805f5260205f20601f840160051c810160208510156103365750805b601f840160051c820191505b81811015610355575f8155600101610342565b50505b505050565b81516001600160401b03811115610376576103766101ba565b61038a8161038484546102d9565b84610311565b6020601f8211600181146103bc575f83156103a55750848201515b5f19600385901b1c1916600184901b178455610355565b5f84815260208120601f198516915b828110156103eb57878501518255602094850194600190920191016103cb565b508482101561040857868401515f19600387901b60f8161c191681555b50505050600190811b01905550565b602081525f82518060208401528060208501604085015e5f604082850101526040601f19601f83011684010191505092915050565b8051602080830151919081101561030b575f1960209190910360031b1b16919050565b60805160a05160c05160e051610100516101205161014051611bb96104c05f395f61121401525f6111e701525f61103601525f61100e01525f610f6901525f610f9301525f610fbd0152611bb95ff3fe60806040526004361061014f575f3560e01c806379cc6790116100b757806384b0196e1161007c578063d505accf11610057578063d505accf146103a1578063dd62ed3e146103c0578063f2f4eb2614610404575f5ffd5b806384b0196e1461034757806395d89b411461036e578063a9059cbb14610382575f5ffd5b806379cc6790146102b65780637df3927e146102d55780637ecebe00146102f557806380009630146103145780638456cb5914610333575f5ffd5b80633644e5151161011757806342966c68116100f257806342966c681461024d5780635c975abb1461026c57806370a0823114610282575f5ffd5b80633644e515146102045780633f4ba83a1461021857806340c10f191461022e575f5ffd5b806306fdde0314610153578063095ea7b31461017d57806318160ddd146101ac57806323b872dd146101ca578063313ce567146101e9575b5f5ffd5b34801561015e575f5ffd5b50610167610438565b604051610174919061178c565b60405180910390f35b348015610188575f5ffd5b5061019c6101973660046117c0565b6104c8565b6040519015158152602001610174565b3480156101b7575f5ffd5b506003545b604051908152602001610174565b3480156101d5575f5ffd5b5061019c6101e43660046117e8565b6104e1565b3480156101f4575f5ffd5b5060405160128152602001610174565b34801561020f575f5ffd5b506101bc610504565b348015610223575f5ffd5b5061022c610512565b005b348015610239575f5ffd5b5061022c6102483660046117c0565b6105f2565b348015610258575f5ffd5b5061022c610267366004611822565b6106d1565b348015610277575f5ffd5b505f5460ff1661019c565b34801561028d575f5ffd5b506101bc61029c366004611839565b6001600160a01b03165f9081526001602052604090205490565b3480156102c1575f5ffd5b5061022c6102d03660046117c0565b6107af565b6102e86102e3366004611852565b610894565b60405161017491906118c3565b348015610300575f5ffd5b506101bc61030f366004611839565b610b16565b34801561031f575f5ffd5b5061022c61032e366004611839565b610b33565b34801561033e575f5ffd5b5061022c610c0c565b348015610352575f5ffd5b5061035b610ce4565b6040516101749796959493929190611926565b348015610379575f5ffd5b50610167610d26565b34801561038d575f5ffd5b5061019c61039c3660046117c0565b610d35565b3480156103ac575f5ffd5b5061022c6103bb3660046119bc565b610d42565b3480156103cb575f5ffd5b506101bc6103da366004611a29565b6001600160a01b039182165f90815260026020908152604080832093909416825291909152205490565b34801561040f575f5ffd5b505f5461010090046001600160a01b03166040516001600160a01b039091168152602001610174565b60606004805461044790611a5a565b80601f016020809104026020016040519081016040528092919081815260200182805461047390611a5a565b80156104be5780601f10610495576101008083540402835291602001916104be565b820191905f5260205f20905b8154815290600101906020018083116104a157829003601f168201915b5050505050905090565b5f336104d5818585610e78565b60019150505b92915050565b5f336104ee858285610e85565b6104f9858585610f00565b506001949350505050565b5f61050d610f5d565b905090565b5f54604051632474521560e21b81527fe7276a2a84d8de556657ec9cf93a55a7d66f096e529d0582ed08e9e2208b92b5600482018190523360248301529161010090046001600160a01b0316906391d1485490604401602060405180830381865afa158015610583573d5f5f3e3d5ffd5b505050506040513d601f19601f820116820180604052508101906105a79190611a92565b6105e75760405162461bcd60e51b815260206004820152600c60248201526b15539055551213d49256915160a21b60448201526064015b60405180910390fd5b6105ef611086565b50565b5f54604051632474521560e21b81527f615a688d53344290b742a2e72e4f187e5b88227c01f9d77ce2406d32f8bd0eda600482018190523360248301529161010090046001600160a01b0316906391d1485490604401602060405180830381865afa158015610663573d5f5f3e3d5ffd5b505050506040513d601f19601f820116820180604052508101906106879190611a92565b6106c25760405162461bcd60e51b815260206004820152600c60248201526b15539055551213d49256915160a21b60448201526064016105de565b6106cc83836110d7565b505050565b5f54604051632474521560e21b81527fc843f0b739b89f713c29d5349e88538222378b9e38ad958b090593af5e3d0fd9600482018190523360248301529161010090046001600160a01b0316906391d1485490604401602060405180830381865afa158015610742573d5f5f3e3d5ffd5b505050506040513d601f19601f820116820180604052508101906107669190611a92565b6107a15760405162461bcd60e51b815260206004820152600c60248201526b15539055551213d49256915160a21b60448201526064016105de565b6107ab338361110b565b5050565b5f54604051632474521560e21b81527fc843f0b739b89f713c29d5349e88538222378b9e38ad958b090593af5e3d0fd9600482018190523360248301529161010090046001600160a01b0316906391d1485490604401602060405180830381865afa158015610820573d5f5f3e3d5ffd5b505050506040513d601f19601f820116820180604052508101906108449190611a92565b61087f5760405162461bcd60e51b815260206004820152600c60248201526b15539055551213d49256915160a21b60448201526064016105de565b61088a833384610e85565b6106cc838361110b565b5f54604051632474521560e21b81527f1a6838efa4183e08fe3607359d1259272af9d4716f65e1a7b5921f78fd5a3c6a6004820181905233602483015260609290916101009091046001600160a01b0316906391d1485490604401602060405180830381865afa15801561090a573d5f5f3e3d5ffd5b505050506040513d601f19601f8201168201806040525081019061092e9190611a92565b6109695760405162461bcd60e51b815260206004820152600c60248201526b15539055551213d49256915160a21b60448201526064016105de565b8267ffffffffffffffff81111561098257610982611ab1565b6040519080825280602002602001820160405280156109b557816020015b60608152602001906001900390816109a05790505b5091505f5b83811015610b0e575f8585838181106109d5576109d5611ac5565b90506020028101906109e79190611ad9565b6109f5906020810190611839565b90505f868684818110610a0a57610a0a611ac5565b9050602002810190610a1c9190611ad9565b602001359050365f888886818110610a3657610a36611ac5565b9050602002810190610a489190611ad9565b610a56906040810190611af7565b915091505f5f856001600160a01b0316858585604051610a77929190611b41565b5f6040518083038185875af1925050503d805f8114610ab1576040519150601f19603f3d011682016040523d82523d5f602084013e610ab6565b606091505b5091509150818190610adc57604051634ad176bb60e01b81526004016105de919061178c565b5080898881518110610af057610af0611ac5565b602002602001018190525050505050505080806001019150506109ba565b505092915050565b6001600160a01b0381165f908152600860205260408120546104db565b5f54604051632474521560e21b81527f1a6838efa4183e08fe3607359d1259272af9d4716f65e1a7b5921f78fd5a3c6a600482018190523360248301529161010090046001600160a01b0316906391d1485490604401602060405180830381865afa158015610ba4573d5f5f3e3d5ffd5b505050506040513d601f19601f82011682018060405250810190610bc89190611a92565b610c035760405162461bcd60e51b815260206004820152600c60248201526b15539055551213d49256915160a21b60448201526064016105de565b6107ab8261113f565b5f54604051632474521560e21b81527ffcb9fcbfa83b897fb2d5cf4b58962164105c1e71489a37ef3ae0db3fdce576f6600482018190523360248301529161010090046001600160a01b0316906391d1485490604401602060405180830381865afa158015610c7d573d5f5f3e3d5ffd5b505050506040513d601f19601f82011682018060405250810190610ca19190611a92565b610cdc5760405162461bcd60e51b815260206004820152600c60248201526b15539055551213d49256915160a21b60448201526064016105de565b6105ef6111a4565b5f6060805f5f5f6060610cf56111e0565b610cfd61120d565b604080515f80825260208201909252600f60f81b9b939a50919850469750309650945092509050565b60606005805461044790611a5a565b5f336104d5818585610f00565b83421115610d665760405163313c898160e11b8152600481018590526024016105de565b5f7f6e71edae12b1b97f4d1f60370fef10105fa2faae0126114a169c64845d6126c9888888610db18c6001600160a01b03165f90815260086020526040902080546001810190915590565b6040805160208101969096526001600160a01b0394851690860152929091166060840152608083015260a082015260c0810186905260e0016040516020818303038152906040528051906020012090505f610e0b8261123a565b90505f610e1a82878787611266565b9050896001600160a01b0316816001600160a01b031614610e61576040516325c0072360e11b81526001600160a01b0380831660048301528b1660248201526044016105de565b610e6c8a8a8a610e78565b50505050505050505050565b6106cc8383836001611292565b6001600160a01b038381165f908152600260209081526040808320938616835292905220545f198114610efa5781811015610eec57604051637dc7a0d960e11b81526001600160a01b038416600482015260248101829052604481018390526064016105de565b610efa84848484035f611292565b50505050565b6001600160a01b038316610f2957604051634b637e8f60e11b81525f60048201526024016105de565b6001600160a01b038216610f525760405163ec442f0560e01b81525f60048201526024016105de565b6106cc838383611364565b5f306001600160a01b037f000000000000000000000000000000000000000000000000000000000000000016148015610fb557507f000000000000000000000000000000000000000000000000000000000000000046145b15610fdf57507f000000000000000000000000000000000000000000000000000000000000000090565b61050d604080517f8b73c3c69bb8fe3d512ecc4cf759cc79239f7b179b0ffacaa9a75d522b39400f60208201527f0000000000000000000000000000000000000000000000000000000000000000918101919091527f000000000000000000000000000000000000000000000000000000000000000060608201524660808201523060a08201525f9060c00160405160208183030381529060405280519060200120905090565b61108e61148a565b5f805460ff191690557f5db9ee0a495bf2e6ff9c91a7834c1ba4fdd244a5e8aa4e537bd38aeae4b073aa335b6040516001600160a01b03909116815260200160405180910390a1565b6001600160a01b0382166111005760405163ec442f0560e01b81525f60048201526024016105de565b6107ab5f8383611364565b6001600160a01b03821661113457604051634b637e8f60e11b81525f60048201526024016105de565b6107ab825f83611364565b5f80546001600160a01b0383811661010081810274ffffffffffffffffffffffffffffffffffffffff0019851617855560405193049190911692909183917f9209b7c8c06dcfd261686a663e7c55989337b18d59da5433c6f2835fb697092091a35050565b6111ac6114ae565b5f805460ff191660011790557f62e78cea01bee320cd4e420270b5ea74000d11b0c9f74754ebdbfc544b05a2586110ba3390565b606061050d7f000000000000000000000000000000000000000000000000000000000000000060066114d1565b606061050d7f000000000000000000000000000000000000000000000000000000000000000060076114d1565b5f6104db611246610f5d565b8360405161190160f01b8152600281019290925260228201526042902090565b5f5f5f5f6112768888888861157a565b9250925092506112868282611642565b50909695505050505050565b6001600160a01b0384166112bb5760405163e602df0560e01b81525f60048201526024016105de565b6001600160a01b0383166112e457604051634a1406b160e11b81525f60048201526024016105de565b6001600160a01b038085165f9081526002602090815260408083209387168352929052208290558015610efa57826001600160a01b0316846001600160a01b03167f8c5be1e5ebec7d5bd14f71427d1e84f3dd0314c0f7b2291e5b200ac8c7c3b9258460405161135691815260200190565b60405180910390a350505050565b6001600160a01b03831661138e578060035f8282546113839190611b50565b909155506113fe9050565b6001600160a01b0383165f90815260016020526040902054818110156113e05760405163391434e360e21b81526001600160a01b038516600482015260248101829052604481018390526064016105de565b6001600160a01b0384165f9081526001602052604090209082900390555b6001600160a01b03821661141a57600380548290039055611438565b6001600160a01b0382165f9081526001602052604090208054820190555b816001600160a01b0316836001600160a01b03167fddf252ad1be2c89b69c2b068fc378daa952ba7f163c4a11628f55a4df523b3ef8360405161147d91815260200190565b60405180910390a3505050565b5f5460ff166114ac57604051638dfc202b60e01b815260040160405180910390fd5b565b5f5460ff16156114ac5760405163d93c066560e01b815260040160405180910390fd5b606060ff83146114eb576114e4836116fa565b90506104db565b8180546114f790611a5a565b80601f016020809104026020016040519081016040528092919081815260200182805461152390611a5a565b801561156e5780601f106115455761010080835404028352916020019161156e565b820191905f5260205f20905b81548152906001019060200180831161155157829003601f168201915b505050505090506104db565b5f80807f7fffffffffffffffffffffffffffffff5d576e7357a4501ddfe92f46681b20a08411156115b357505f91506003905082611638565b604080515f808252602082018084528a905260ff891692820192909252606081018790526080810186905260019060a0016020604051602081039080840390855afa158015611604573d5f5f3e3d5ffd5b5050604051601f1901519150506001600160a01b03811661162f57505f925060019150829050611638565b92505f91508190505b9450945094915050565b5f82600381111561165557611655611b6f565b0361165e575050565b600182600381111561167257611672611b6f565b036116905760405163f645eedf60e01b815260040160405180910390fd5b60028260038111156116a4576116a4611b6f565b036116c55760405163fce698f760e01b8152600481018290526024016105de565b60038260038111156116d9576116d9611b6f565b036107ab576040516335e2f38360e21b8152600481018290526024016105de565b60605f61170683611737565b6040805160208082528183019092529192505f91906020820181803683375050509182525060208101929092525090565b5f60ff8216601f8111156104db57604051632cd44ac360e21b815260040160405180910390fd5b5f81518084528060208401602086015e5f602082860101526020601f19601f83011685010191505092915050565b602081525f61179e602083018461175e565b9392505050565b80356001600160a01b03811681146117bb575f5ffd5b919050565b5f5f604083850312156117d1575f5ffd5b6117da836117a5565b946020939093013593505050565b5f5f5f606084860312156117fa575f5ffd5b611803846117a5565b9250611811602085016117a5565b929592945050506040919091013590565b5f60208284031215611832575f5ffd5b5035919050565b5f60208284031215611849575f5ffd5b61179e826117a5565b5f5f60208385031215611863575f5ffd5b823567ffffffffffffffff811115611879575f5ffd5b8301601f81018513611889575f5ffd5b803567ffffffffffffffff81111561189f575f5ffd5b8560208260051b84010111156118b3575f5ffd5b6020919091019590945092505050565b5f602082016020835280845180835260408501915060408160051b8601019250602086015f5b8281101561191a57603f1987860301845261190585835161175e565b945060209384019391909101906001016118e9565b50929695505050505050565b60ff60f81b8816815260e060208201525f61194460e083018961175e565b8281036040840152611956818961175e565b606084018890526001600160a01b038716608085015260a0840186905283810360c0850152845180825260208087019350909101905f5b818110156119ab57835183526020938401939092019160010161198d565b50909b9a5050505050505050505050565b5f5f5f5f5f5f5f60e0888a0312156119d2575f5ffd5b6119db886117a5565b96506119e9602089016117a5565b95506040880135945060608801359350608088013560ff81168114611a0c575f5ffd5b9699959850939692959460a0840135945060c09093013592915050565b5f5f60408385031215611a3a575f5ffd5b611a43836117a5565b9150611a51602084016117a5565b90509250929050565b600181811c90821680611a6e57607f821691505b602082108103611a8c57634e487b7160e01b5f52602260045260245ffd5b50919050565b5f60208284031215611aa2575f5ffd5b8151801515811461179e575f5ffd5b634e487b7160e01b5f52604160045260245ffd5b634e487b7160e01b5f52603260045260245ffd5b5f8235605e19833603018112611aed575f5ffd5b9190910192915050565b5f5f8335601e19843603018112611b0c575f5ffd5b83018035915067ffffffffffffffff821115611b26575f5ffd5b602001915036819003821315611b3a575f5ffd5b9250929050565b818382375f9101908152919050565b808201808211156104db57634e487b7160e01b5f52601160045260245ffd5b634e487b7160e01b5f52602160045260245ffdfea26469706673582212205c1a7b1f420331a3a7d5b261db2bd71e593521a547c102f8688fbeef16eebe2564736f6c634300081c0033","linkReferences":{}},"methodIdentifiers":{"DOMAIN_SEPARATOR()":"3644e515","allowance(address,address)":"dd62ed3e","approve(address,uint256)":"095ea7b3","balanceOf(address)":"70a08231","burn(uint256)":"42966c68","burnFrom(address,uint256)":"79cc6790","core()":"f2f4eb26","decimals()":"313ce567","eip712Domain()":"84b0196e","emergencyAction((address,uint256,bytes)[])":"7df3927e","mint(address,uint256)":"40c10f19","name()":"06fdde03","nonces(address)":"7ecebe00","pause()":"8456cb59","paused()":"5c975abb","permit(address,address,uint256,uint256,uint8,bytes32,bytes32)":"d505accf","setCore(address)":"80009630","symbol()":"95d89b41","totalSupply()":"18160ddd","transfer(address,uint256)":"a9059cbb","transferFrom(address,address,uint256)":"23b872dd","unpause()":"3f4ba83a"},"id":108}