{"abi":[{"type":"constructor","inputs":[{"name":"_core","type":"address","internalType":"address"},{"name":"_assetToken","type":"address","internalType":"address"},{"name":"_receiptToken","type":"address","internalType":"address"},{"name":"_accounting","type":"address","internalType":"address"}],"stateMutability":"nonpayable"},{"type":"function","name":"accounting","inputs":[],"outputs":[{"name":"","type":"address","internalType":"address"}],"stateMutability":"view"},{"type":"function","name":"afterMintHook","inputs":[],"outputs":[{"name":"","type":"address","internalType":"address"}],"stateMutability":"view"},{"type":"function","name":"assetToReceipt","inputs":[{"name":"_assetAmount","type":"uint256","internalType":"uint256"}],"outputs":[{"name":"","type":"uint256","internalType":"uint256"}],"stateMutability":"view"},{"type":"function","name":"assetToken","inputs":[],"outputs":[{"name":"","type":"address","internalType":"address"}],"stateMutability":"view"},{"type":"function","name":"assets","inputs":[],"outputs":[{"name":"","type":"uint256","internalType":"uint256"}],"stateMutability":"view"},{"type":"function","name":"cap","inputs":[],"outputs":[{"name":"","type":"uint256","internalType":"uint256"}],"stateMutability":"view"},{"type":"function","name":"core","inputs":[],"outputs":[{"name":"","type":"address","internalType":"contract InfiniFiCore"}],"stateMutability":"view"},{"type":"function","name":"deposit","inputs":[],"outputs":[],"stateMutability":"nonpayable"},{"type":"function","name":"emergencyAction","inputs":[{"name":"calls","type":"tuple[]","internalType":"struct CoreControlled.Call[]","components":[{"name":"target","type":"address","internalType":"address"},{"name":"value","type":"uint256","internalType":"uint256"},{"name":"callData","type":"bytes","internalType":"bytes"}]}],"outputs":[{"name":"returnData","type":"bytes[]","internalType":"bytes[]"}],"stateMutability":"payable"},{"type":"function","name":"liquidity","inputs":[],"outputs":[{"name":"","type":"uint256","internalType":"uint256"}],"stateMutability":"view"},{"type":"function","name":"maxDeposit","inputs":[],"outputs":[{"name":"","type":"uint256","internalType":"uint256"}],"stateMutability":"view"},{"type":"function","name":"maxSlippage","inputs":[],"outputs":[{"name":"","type":"uint256","internalType":"uint256"}],"stateMutability":"view"},{"type":"function","name":"minMintAmount","inputs":[],"outputs":[{"name":"","type":"uint256","internalType":"uint256"}],"stateMutability":"view"},{"type":"function","name":"mint","inputs":[{"name":"_to","type":"address","internalType":"address"},{"name":"_assetAmountIn","type":"uint256","internalType":"uint256"}],"outputs":[{"name":"","type":"uint256","internalType":"uint256"}],"stateMutability":"nonpayable"},{"type":"function","name":"pause","inputs":[],"outputs":[],"stateMutability":"nonpayable"},{"type":"function","name":"paused","inputs":[],"outputs":[{"name":"","type":"bool","internalType":"bool"}],"stateMutability":"view"},{"type":"function","name":"receiptToken","inputs":[],"outputs":[{"name":"","type":"address","internalType":"address"}],"stateMutability":"view"},{"type":"function","name":"setAfterMintHook","inputs":[{"name":"_afterMintHook","type":"address","internalType":"address"}],"outputs":[],"stateMutability":"nonpayable"},{"type":"function","name":"setCap","inputs":[{"name":"_newCap","type":"uint256","internalType":"uint256"}],"outputs":[],"stateMutability":"nonpayable"},{"type":"function","name":"setCore","inputs":[{"name":"newCore","type":"address","internalType":"address"}],"outputs":[],"stateMutability":"nonpayable"},{"type":"function","name":"setMaxSlippage","inputs":[{"name":"_maxSlippage","type":"uint256","internalType":"uint256"}],"outputs":[],"stateMutability":"nonpayable"},{"type":"function","name":"setMinMintAmount","inputs":[{"name":"_minMintAmount","type":"uint256","internalType":"uint256"}],"outputs":[],"stateMutability":"nonpayable"},{"type":"function","name":"unpause","inputs":[],"outputs":[],"stateMutability":"nonpayable"},{"type":"function","name":"withdraw","inputs":[{"name":"amount","type":"uint256","internalType":"uint256"},{"name":"to","type":"address","internalType":"address"}],"outputs":[],"stateMutability":"nonpayable"},{"type":"event","name":"AfterMintHookChanged","inputs":[{"name":"timestamp","type":"uint256","indexed":true,"internalType":"uint256"},{"name":"hook","type":"address","indexed":false,"internalType":"address"}],"anonymous":false},{"type":"event","name":"AssetsUpdated","inputs":[{"name":"timestamp","type":"uint256","indexed":false,"internalType":"uint256"},{"name":"assetsBefore","type":"uint256","indexed":false,"internalType":"uint256"},{"name":"assetsAfter","type":"uint256","indexed":false,"internalType":"uint256"}],"anonymous":false},{"type":"event","name":"CapUpdated","inputs":[{"name":"newCap","type":"uint256","indexed":false,"internalType":"uint256"}],"anonymous":false},{"type":"event","name":"CoreUpdate","inputs":[{"name":"oldCore","type":"address","indexed":true,"internalType":"address"},{"name":"newCore","type":"address","indexed":true,"internalType":"address"}],"anonymous":false},{"type":"event","name":"MaxSlippageUpdated","inputs":[{"name":"newMaxSlippage","type":"uint256","indexed":false,"internalType":"uint256"}],"anonymous":false},{"type":"event","name":"MinMintAmountUpdated","inputs":[{"name":"timestamp","type":"uint256","indexed":true,"internalType":"uint256"},{"name":"amount","type":"uint256","indexed":false,"internalType":"uint256"}],"anonymous":false},{"type":"event","name":"Mint","inputs":[{"name":"timestamp","type":"uint256","indexed":true,"internalType":"uint256"},{"name":"to","type":"address","indexed":true,"internalType":"address"},{"name":"asset","type":"address","indexed":false,"internalType":"address"},{"name":"amountIn","type":"uint256","indexed":false,"internalType":"uint256"},{"name":"amountOut","type":"uint256","indexed":false,"internalType":"uint256"}],"anonymous":false},{"type":"event","name":"Paused","inputs":[{"name":"account","type":"address","indexed":false,"internalType":"address"}],"anonymous":false},{"type":"event","name":"Unpaused","inputs":[{"name":"account","type":"address","indexed":false,"internalType":"address"}],"anonymous":false},{"type":"error","name":"CapExceeded","inputs":[{"name":"newAmount","type":"uint256","internalType":"uint256"},{"name":"cap","type":"uint256","internalType":"uint256"}]},{"type":"error","name":"EnforcedPause","inputs":[]},{"type":"error","name":"ExpectedPause","inputs":[]},{"type":"error","name":"MintAmountTooLow","inputs":[{"name":"_amountIn","type":"uint256","internalType":"uint256"},{"name":"_minMintAmount","type":"uint256","internalType":"uint256"}]},{"type":"error","name":"SafeERC20FailedOperation","inputs":[{"name":"token","type":"address","internalType":"address"}]},{"type":"error","name":"SlippageTooHigh","inputs":[{"name":"minAssetsOut","type":"uint256","internalType":"uint256"},{"name":"assetsReceived","type":"uint256","internalType":"uint256"}]},{"type":"error","name":"UnderlyingCallReverted","inputs":[{"name":"returnData","type":"bytes","internalType":"bytes"}]}],"bytecode":{"object":"0x60e06040526001600355348015610014575f5ffd5b50604051611ba9380380611ba983398101604081905261003391610092565b5f80546001600160a81b0319166101006001600160a01b03968716021790559183166080525f19600155670de0b5cad2bef000600255821660a0521660c0526100e3565b80516001600160a01b038116811461008d575f5ffd5b919050565b5f5f5f5f608085870312156100a5575f5ffd5b6100ae85610077565b93506100bc60208601610077565b92506100ca60408601610077565b91506100d860608601610077565b905092959194509250565b60805160a05160c051611a5d61014c5f395f81816103bf01528181610e2c0152610ed901525f818161042501528181610a950152610eac01525f81816101e0015281816106a001528181610a4701528181610b6b01528181610e0001526114e90152611a5d5ff3fe608060405260043610610182575f3560e01c80635c975abb116100d15780638c04166f1161007c578063ea63da9411610057578063ea63da94146103f5578063ec78e83214610414578063f2f4eb2614610447575f5ffd5b80638c04166f146103995780639624e83e146103ae578063d0e30db0146103e1575f5ffd5b80637df3927e116100ac5780637df3927e1461034657806380009630146103665780638456cb5914610385575f5ffd5b80635c975abb146103115780636083e59a1461033257806371a9730514610239575f5ffd5b8063355274ea1161013157806343f68a491161010c57806343f68a49146102b457806347786d37146102d35780634907c383146102f2575f5ffd5b8063355274ea1461026c5780633f4ba83a1461028157806340c10f1914610295575f5ffd5b80631422d280116101615780631422d2801461021a5780631a686502146102395780631d85d7961461024d575f5ffd5b8062f714ce1461018657806301e9d757146101a75780631083f761146101cf575b5f5ffd5b348015610191575f5ffd5b506101a56101a0366004611796565b610468565b005b3480156101b2575f5ffd5b506101bc60035481565b6040519081526020015b60405180910390f35b3480156101da575f5ffd5b506102027f000000000000000000000000000000000000000000000000000000000000000081565b6040516001600160a01b0390911681526020016101c6565b348015610225575f5ffd5b506101a56102343660046117c0565b610554565b348015610244575f5ffd5b506101bc610689565b348015610258575f5ffd5b506101a56102673660046117d9565b610716565b348015610277575f5ffd5b506101bc60015481565b34801561028c575f5ffd5b506101a5610849565b3480156102a0575f5ffd5b506101bc6102af3660046117f0565b610924565b3480156102bf575f5ffd5b506101a56102ce3660046117d9565b610bd7565b3480156102de575f5ffd5b506101a56102ed3660046117d9565b610ce4565b3480156102fd575f5ffd5b506101bc61030c3660046117d9565b610de9565b34801561031c575f5ffd5b505f5460ff1660405190151581526020016101c6565b34801561033d575f5ffd5b506101bc610f64565b610359610354366004611818565b610fac565b6040516101c691906118b7565b348015610371575f5ffd5b506101a56103803660046117c0565b61122e565b348015610390575f5ffd5b506101a561130b565b3480156103a4575f5ffd5b506101bc60025481565b3480156103b9575f5ffd5b506102027f000000000000000000000000000000000000000000000000000000000000000081565b3480156103ec575f5ffd5b506101a56113e3565b348015610400575f5ffd5b50600454610202906001600160a01b031681565b34801561041f575f5ffd5b506102027f000000000000000000000000000000000000000000000000000000000000000081565b348015610452575f5ffd5b505f5461010090046001600160a01b0316610202565b5f54604051632474521560e21b81527f5f33620cda06d02d58df96005b92bc83bd059a566e48e016372f3fbdc974e371600482018190523360248301529161010090046001600160a01b0316906391d1485490604401602060405180830381865afa1580156104d9573d5f5f3e3d5ffd5b505050506040513d601f19601f820116820180604052508101906104fd919061191a565b61053d5760405162461bcd60e51b815260206004820152600c60248201526b15539055551213d49256915160a21b60448201526064015b60405180910390fd5b6105456114b7565b61054f83836114dc565b505050565b5f54604051632474521560e21b81527f1a6838efa4183e08fe3607359d1259272af9d4716f65e1a7b5921f78fd5a3c6a600482018190523360248301529161010090046001600160a01b0316906391d1485490604401602060405180830381865afa1580156105c5573d5f5f3e3d5ffd5b505050506040513d601f19601f820116820180604052508101906105e9919061191a565b6106245760405162461bcd60e51b815260206004820152600c60248201526b15539055551213d49256915160a21b6044820152606401610534565b6004805473ffffffffffffffffffffffffffffffffffffffff19166001600160a01b03841690811790915560405190815242907ff3d574ee4f1e8db5e0ac3080dbc8fa3791ec8458a22d347567159d7a06eef9ea906020015b60405180910390a25050565b6040516370a0823160e01b81523060048201525f907f00000000000000000000000000000000000000000000000000000000000000006001600160a01b0316906370a0823190602401602060405180830381865afa1580156106ed573d5f5f3e3d5ffd5b505050506040513d601f19601f820116820180604052508101906107119190611940565b905090565b5f54604051632474521560e21b81527f3947e2f542c6c46c543fa4f79cbd1e27fea37ed249bc3caf992570d19123642e600482018190523360248301529161010090046001600160a01b0316906391d1485490604401602060405180830381865afa158015610787573d5f5f3e3d5ffd5b505050506040513d601f19601f820116820180604052508101906107ab919061191a565b6107e65760405162461bcd60e51b815260206004820152600c60248201526b15539055551213d49256915160a21b6044820152606401610534565b81600181610810576040516306f338cd60e11b815260048101929092526024820152604401610534565b5050600382905560405182815242907fa9d547bad523b2016561d73c8b6f0de927b53e678d07b339173ea7b469ec89699060200161067d565b5f54604051632474521560e21b81527fe7276a2a84d8de556657ec9cf93a55a7d66f096e529d0582ed08e9e2208b92b5600482018190523360248301529161010090046001600160a01b0316906391d1485490604401602060405180830381865afa1580156108ba573d5f5f3e3d5ffd5b505050506040513d601f19601f820116820180604052508101906108de919061191a565b6109195760405162461bcd60e51b815260206004820152600c60248201526b15539055551213d49256915160a21b6044820152606401610534565b610921611510565b50565b5f61092d6114b7565b5f54604051632474521560e21b81527f276ea66e969b021a947c47a128f4d53c55387336443ef7a5391a75f0d2e48d25600482018190523360248301529161010090046001600160a01b0316906391d1485490604401602060405180830381865afa15801561099e573d5f5f3e3d5ffd5b505050506040513d601f19601f820116820180604052508101906109c2919061191a565b6109fd5760405162461bcd60e51b815260206004820152600c60248201526b15539055551213d49256915160a21b6044820152606401610534565b600354839080821015610a2c576040516306f338cd60e11b815260048101929092526024820152604401610534565b50505f610a3884610de9565b9050610a6f6001600160a01b037f000000000000000000000000000000000000000000000000000000000000000016333087611561565b6040516340c10f1960e01b81526001600160a01b038681166004830152602482018390527f000000000000000000000000000000000000000000000000000000000000000016906340c10f19906044015f604051808303815f87803b158015610ad6575f5ffd5b505af1158015610ae8573d5f5f3e3d5ffd5b50506004546001600160a01b03169150508015610b5d5760405163228bea5360e21b81526001600160a01b03878116600483015260248201879052821690638a2fa94c906044015f604051808303815f87803b158015610b46575f5ffd5b505af1158015610b58573d5f5f3e3d5ffd5b505050505b604080516001600160a01b037f000000000000000000000000000000000000000000000000000000000000000081168252602082018890529181018490529087169042907fc2fc799dc7fd36a0d34e9acaeda628420c2fbeed9b65d9639dee2a43c27c2c609060600160405180910390a350949350505050565b5f54604051632474521560e21b81527f3947e2f542c6c46c543fa4f79cbd1e27fea37ed249bc3caf992570d19123642e600482018190523360248301529161010090046001600160a01b0316906391d1485490604401602060405180830381865afa158015610c48573d5f5f3e3d5ffd5b505050506040513d601f19601f82011682018060405250810190610c6c919061191a565b610ca75760405162461bcd60e51b815260206004820152600c60248201526b15539055551213d49256915160a21b6044820152606401610534565b60028290556040518281527f9c922f6d0c990b250e9dd0a427a5c8da7f44b960f697fecb31cbbd8ba79ec8c2906020015b60405180910390a15050565b5f54604051632474521560e21b81527f3947e2f542c6c46c543fa4f79cbd1e27fea37ed249bc3caf992570d19123642e600482018190523360248301529161010090046001600160a01b0316906391d1485490604401602060405180830381865afa158015610d55573d5f5f3e3d5ffd5b505050506040513d601f19601f82011682018060405250810190610d79919061191a565b610db45760405162461bcd60e51b815260206004820152600c60248201526b15539055551213d49256915160a21b6044820152606401610534565b60018290556040518281527f3c8eb7c49d332f4c1e4d92a27cda93c31cc9452f7a408e0c6109fcddbc9946ea90602001610cd8565b6040516315d5220f60e31b81526001600160a01b037f0000000000000000000000000000000000000000000000000000000000000000811660048301525f9182917f0000000000000000000000000000000000000000000000000000000000000000169063aea9107890602401602060405180830381865afa158015610e71573d5f5f3e3d5ffd5b505050506040513d601f19601f82011682018060405250810190610e959190611940565b6040516315d5220f60e31b81526001600160a01b037f0000000000000000000000000000000000000000000000000000000000000000811660048301529192505f917f0000000000000000000000000000000000000000000000000000000000000000169063aea9107890602401602060405180830381865afa158015610f1e573d5f5f3e3d5ffd5b505050506040513d601f19601f82011682018060405250810190610f429190611940565b90505f610f4f82846115e3565b9050610f5b85826115e3565b95945050505050565b5f5f610f6e610689565b90506001548110610f80575f91505090565b6001545f19905f90610f93908490611957565b9050808210610fa25780610fa4565b815b935050505090565b5f54604051632474521560e21b81527f1a6838efa4183e08fe3607359d1259272af9d4716f65e1a7b5921f78fd5a3c6a6004820181905233602483015260609290916101009091046001600160a01b0316906391d1485490604401602060405180830381865afa158015611022573d5f5f3e3d5ffd5b505050506040513d601f19601f82011682018060405250810190611046919061191a565b6110815760405162461bcd60e51b815260206004820152600c60248201526b15539055551213d49256915160a21b6044820152606401610534565b8267ffffffffffffffff81111561109a5761109a611976565b6040519080825280602002602001820160405280156110cd57816020015b60608152602001906001900390816110b85790505b5091505f5b83811015611226575f8585838181106110ed576110ed61198a565b90506020028101906110ff919061199e565b61110d9060208101906117c0565b90505f8686848181106111225761112261198a565b9050602002810190611134919061199e565b602001359050365f88888681811061114e5761114e61198a565b9050602002810190611160919061199e565b61116e9060408101906119bc565b915091505f5f856001600160a01b031685858560405161118f929190611a06565b5f6040518083038185875af1925050503d805f81146111c9576040519150601f19603f3d011682016040523d82523d5f602084013e6111ce565b606091505b50915091508181906111f457604051634ad176bb60e01b81526004016105349190611a15565b50808988815181106112085761120861198a565b602002602001018190525050505050505080806001019150506110d2565b505092915050565b5f54604051632474521560e21b81527f1a6838efa4183e08fe3607359d1259272af9d4716f65e1a7b5921f78fd5a3c6a600482018190523360248301529161010090046001600160a01b0316906391d1485490604401602060405180830381865afa15801561129f573d5f5f3e3d5ffd5b505050506040513d601f19601f820116820180604052508101906112c3919061191a565b6112fe5760405162461bcd60e51b815260206004820152600c60248201526b15539055551213d49256915160a21b6044820152606401610534565b61130782611600565b5050565b5f54604051632474521560e21b81527ffcb9fcbfa83b897fb2d5cf4b58962164105c1e71489a37ef3ae0db3fdce576f6600482018190523360248301529161010090046001600160a01b0316906391d1485490604401602060405180830381865afa15801561137c573d5f5f3e3d5ffd5b505050506040513d601f19601f820116820180604052508101906113a0919061191a565b6113db5760405162461bcd60e51b815260206004820152600c60248201526b15539055551213d49256915160a21b6044820152606401610534565b610921611665565b5f54604051632474521560e21b81527f5f33620cda06d02d58df96005b92bc83bd059a566e48e016372f3fbdc974e371600482018190523360248301529161010090046001600160a01b0316906391d1485490604401602060405180830381865afa158015611454573d5f5f3e3d5ffd5b505050506040513d601f19601f82011682018060405250810190611478919061191a565b6114b35760405162461bcd60e51b815260206004820152600c60248201526b15539055551213d49256915160a21b6044820152606401610534565b6109215b5f5460ff16156114da5760405163d93c066560e01b815260040160405180910390fd5b565b6113076001600160a01b037f00000000000000000000000000000000000000000000000000000000000000001682846116a1565b6115186116d2565b5f805460ff191690557f5db9ee0a495bf2e6ff9c91a7834c1ba4fdd244a5e8aa4e537bd38aeae4b073aa335b6040516001600160a01b03909116815260200160405180910390a1565b6040516001600160a01b0384811660248301528381166044830152606482018390526115dd9186918216906323b872dd906084015b604051602081830303815290604052915060e01b6020820180517bffffffffffffffffffffffffffffffffffffffffffffffffffffffff83818316178352505050506116f4565b50505050565b5f6115f783670de0b6b3a764000084611760565b90505b92915050565b5f80546001600160a01b0383811661010081810274ffffffffffffffffffffffffffffffffffffffff0019851617855560405193049190911692909183917f9209b7c8c06dcfd261686a663e7c55989337b18d59da5433c6f2835fb697092091a35050565b61166d6114b7565b5f805460ff191660011790557f62e78cea01bee320cd4e420270b5ea74000d11b0c9f74754ebdbfc544b05a2586115443390565b6040516001600160a01b0383811660248301526044820183905261054f91859182169063a9059cbb90606401611596565b5f5460ff166114da57604051638dfc202b60e01b815260040160405180910390fd5b5f5f60205f8451602086015f885af180611713576040513d5f823e3d81fd5b50505f513d9150811561172a578060011415611737565b6001600160a01b0384163b155b156115dd57604051635274afe760e01b81526001600160a01b0385166004820152602401610534565b5f825f190484118302158202611774575f5ffd5b5091020490565b80356001600160a01b0381168114611791575f5ffd5b919050565b5f5f604083850312156117a7575f5ffd5b823591506117b76020840161177b565b90509250929050565b5f602082840312156117d0575f5ffd5b6115f78261177b565b5f602082840312156117e9575f5ffd5b5035919050565b5f5f60408385031215611801575f5ffd5b61180a8361177b565b946020939093013593505050565b5f5f60208385031215611829575f5ffd5b823567ffffffffffffffff81111561183f575f5ffd5b8301601f8101851361184f575f5ffd5b803567ffffffffffffffff811115611865575f5ffd5b8560208260051b8401011115611879575f5ffd5b6020919091019590945092505050565b5f81518084528060208401602086015e5f602082860101526020601f19601f83011685010191505092915050565b5f602082016020835280845180835260408501915060408160051b8601019250602086015f5b8281101561190e57603f198786030184526118f9858351611889565b945060209384019391909101906001016118dd565b50929695505050505050565b5f6020828403121561192a575f5ffd5b81518015158114611939575f5ffd5b9392505050565b5f60208284031215611950575f5ffd5b5051919050565b818103818111156115fa57634e487b7160e01b5f52601160045260245ffd5b634e487b7160e01b5f52604160045260245ffd5b634e487b7160e01b5f52603260045260245ffd5b5f8235605e198336030181126119b2575f5ffd5b9190910192915050565b5f5f8335601e198436030181126119d1575f5ffd5b83018035915067ffffffffffffffff8211156119eb575f5ffd5b6020019150368190038213156119ff575f5ffd5b9250929050565b818382375f9101908152919050565b602081525f6115f7602083018461188956fea2646970667358221220926eba59114ed3a5c565d29a375d79913e30438e7842ecdbd145504155ceb4ba64736f6c634300081c0033","linkReferences":{}},"methodIdentifiers":{"accounting()":"9624e83e","afterMintHook()":"ea63da94","assetToReceipt(uint256)":"4907c383","assetToken()":"1083f761","assets()":"71a97305","cap()":"355274ea","core()":"f2f4eb26","deposit()":"d0e30db0","emergencyAction((address,uint256,bytes)[])":"7df3927e","liquidity()":"1a686502","maxDeposit()":"6083e59a","maxSlippage()":"8c04166f","minMintAmount()":"01e9d757","mint(address,uint256)":"40c10f19","pause()":"8456cb59","paused()":"5c975abb","receiptToken()":"ec78e832","setAfterMintHook(address)":"1422d280","setCap(uint256)":"47786d37","setCore(address)":"80009630","setMaxSlippage(uint256)":"43f68a49","setMinMintAmount(uint256)":"1d85d796","unpause()":"3f4ba83a","withdraw(uint256,address)":"00f714ce"},"id":75}