{"abi":[{"type":"constructor","inputs":[{"name":"_core","type":"address","internalType":"address"},{"name":"_receiptToken","type":"address","internalType":"address"}],"stateMutability":"nonpayable"},{"type":"function","name":"applyLosses","inputs":[{"name":"_amount","type":"uint256","internalType":"uint256"}],"outputs":[],"stateMutability":"nonpayable"},{"type":"function","name":"balanceOf","inputs":[{"name":"_user","type":"address","internalType":"address"},{"name":"_startUnwindingTimestamp","type":"uint256","internalType":"uint256"}],"outputs":[{"name":"","type":"uint256","internalType":"uint256"}],"stateMutability":"view"},{"type":"function","name":"cancelUnwinding","inputs":[{"name":"_user","type":"address","internalType":"address"},{"name":"_startUnwindingTimestamp","type":"uint256","internalType":"uint256"},{"name":"_newUnwindingEpochs","type":"uint32","internalType":"uint32"}],"outputs":[],"stateMutability":"nonpayable"},{"type":"function","name":"core","inputs":[],"outputs":[{"name":"","type":"address","internalType":"contract InfiniFiCore"}],"stateMutability":"view"},{"type":"function","name":"depositRewards","inputs":[{"name":"_amount","type":"uint256","internalType":"uint256"}],"outputs":[],"stateMutability":"nonpayable"},{"type":"function","name":"emergencyAction","inputs":[{"name":"calls","type":"tuple[]","internalType":"struct CoreControlled.Call[]","components":[{"name":"target","type":"address","internalType":"address"},{"name":"value","type":"uint256","internalType":"uint256"},{"name":"callData","type":"bytes","internalType":"bytes"}]}],"outputs":[{"name":"returnData","type":"bytes[]","internalType":"bytes[]"}],"stateMutability":"payable"},{"type":"function","name":"globalPoints","inputs":[{"name":"epoch","type":"uint32","internalType":"uint32"}],"outputs":[{"name":"epoch","type":"uint32","internalType":"uint32"},{"name":"totalRewardWeight","type":"uint256","internalType":"uint256"},{"name":"totalRewardWeightDecrease","type":"uint256","internalType":"uint256"},{"name":"rewardShares","type":"uint256","internalType":"uint256"}],"stateMutability":"view"},{"type":"function","name":"lastGlobalPointEpoch","inputs":[],"outputs":[{"name":"","type":"uint32","internalType":"uint32"}],"stateMutability":"view"},{"type":"function","name":"pause","inputs":[],"outputs":[],"stateMutability":"nonpayable"},{"type":"function","name":"paused","inputs":[],"outputs":[{"name":"","type":"bool","internalType":"bool"}],"stateMutability":"view"},{"type":"function","name":"positions","inputs":[{"name":"id","type":"bytes32","internalType":"bytes32"}],"outputs":[{"name":"shares","type":"uint256","internalType":"uint256"},{"name":"fromEpoch","type":"uint32","internalType":"uint32"},{"name":"toEpoch","type":"uint32","internalType":"uint32"},{"name":"fromRewardWeight","type":"uint256","internalType":"uint256"},{"name":"rewardWeightDecrease","type":"uint256","internalType":"uint256"}],"stateMutability":"view"},{"type":"function","name":"receiptToken","inputs":[],"outputs":[{"name":"","type":"address","internalType":"address"}],"stateMutability":"view"},{"type":"function","name":"rewardWeightBiasIncreases","inputs":[{"name":"epoch","type":"uint32","internalType":"uint32"}],"outputs":[{"name":"increase","type":"uint256","internalType":"uint256"}],"stateMutability":"view"},{"type":"function","name":"rewardWeightDecreases","inputs":[{"name":"epoch","type":"uint32","internalType":"uint32"}],"outputs":[{"name":"decrease","type":"uint256","internalType":"uint256"}],"stateMutability":"view"},{"type":"function","name":"rewardWeightIncreases","inputs":[{"name":"epoch","type":"uint32","internalType":"uint32"}],"outputs":[{"name":"increase","type":"uint256","internalType":"uint256"}],"stateMutability":"view"},{"type":"function","name":"setCore","inputs":[{"name":"newCore","type":"address","internalType":"address"}],"outputs":[],"stateMutability":"nonpayable"},{"type":"function","name":"slashIndex","inputs":[],"outputs":[{"name":"","type":"uint256","internalType":"uint256"}],"stateMutability":"view"},{"type":"function","name":"startUnwinding","inputs":[{"name":"_user","type":"address","internalType":"address"},{"name":"_receiptTokens","type":"uint256","internalType":"uint256"},{"name":"_unwindingEpochs","type":"uint32","internalType":"uint32"},{"name":"_rewardWeight","type":"uint256","internalType":"uint256"}],"outputs":[],"stateMutability":"nonpayable"},{"type":"function","name":"totalReceiptTokens","inputs":[],"outputs":[{"name":"","type":"uint256","internalType":"uint256"}],"stateMutability":"view"},{"type":"function","name":"totalRewardWeight","inputs":[],"outputs":[{"name":"","type":"uint256","internalType":"uint256"}],"stateMutability":"view"},{"type":"function","name":"totalShares","inputs":[],"outputs":[{"name":"","type":"uint256","internalType":"uint256"}],"stateMutability":"view"},{"type":"function","name":"unpause","inputs":[],"outputs":[],"stateMutability":"nonpayable"},{"type":"function","name":"withdraw","inputs":[{"name":"_startUnwindingTimestamp","type":"uint256","internalType":"uint256"},{"name":"_owner","type":"address","internalType":"address"}],"outputs":[],"stateMutability":"nonpayable"},{"type":"event","name":"CoreUpdate","inputs":[{"name":"oldCore","type":"address","indexed":true,"internalType":"address"},{"name":"newCore","type":"address","indexed":true,"internalType":"address"}],"anonymous":false},{"type":"event","name":"GlobalPointUpdated","inputs":[{"name":"timestamp","type":"uint256","indexed":true,"internalType":"uint256"},{"name":"","type":"tuple","indexed":false,"internalType":"struct GlobalPoint","components":[{"name":"epoch","type":"uint32","internalType":"uint32"},{"name":"totalRewardWeight","type":"uint256","internalType":"uint256"},{"name":"totalRewardWeightDecrease","type":"uint256","internalType":"uint256"},{"name":"rewardShares","type":"uint256","internalType":"uint256"}]}],"anonymous":false},{"type":"event","name":"Paused","inputs":[{"name":"account","type":"address","indexed":false,"internalType":"address"}],"anonymous":false},{"type":"event","name":"Unpaused","inputs":[{"name":"account","type":"address","indexed":false,"internalType":"address"}],"anonymous":false},{"type":"event","name":"UnwindingCanceled","inputs":[{"name":"timestamp","type":"uint256","indexed":true,"internalType":"uint256"},{"name":"user","type":"address","indexed":false,"internalType":"address"},{"name":"startUnwindingTimestamp","type":"uint256","indexed":false,"internalType":"uint256"},{"name":"newUnwindingEpochs","type":"uint32","indexed":false,"internalType":"uint32"}],"anonymous":false},{"type":"event","name":"UnwindingStarted","inputs":[{"name":"timestamp","type":"uint256","indexed":true,"internalType":"uint256"},{"name":"user","type":"address","indexed":false,"internalType":"address"},{"name":"receiptTokens","type":"uint256","indexed":false,"internalType":"uint256"},{"name":"unwindingEpochs","type":"uint32","indexed":false,"internalType":"uint32"},{"name":"rewardWeight","type":"uint256","indexed":false,"internalType":"uint256"}],"anonymous":false},{"type":"event","name":"Withdrawal","inputs":[{"name":"timestamp","type":"uint256","indexed":true,"internalType":"uint256"},{"name":"startUnwindingTimestamp","type":"uint256","indexed":false,"internalType":"uint256"},{"name":"owner","type":"address","indexed":false,"internalType":"address"}],"anonymous":false},{"type":"error","name":"EnforcedPause","inputs":[]},{"type":"error","name":"ExpectedPause","inputs":[]},{"type":"error","name":"InvalidUnwindingEpochs","inputs":[{"name":"value","type":"uint32","internalType":"uint32"}]},{"type":"error","name":"TransferFailed","inputs":[]},{"type":"error","name":"UnderlyingCallReverted","inputs":[{"name":"returnData","type":"bytes","internalType":"bytes"}]},{"type":"error","name":"UserNotUnwinding","inputs":[]},{"type":"error","name":"UserUnwindingInprogress","inputs":[]},{"type":"error","name":"UserUnwindingNotStarted","inputs":[]}],"bytecode":{"object":"0x60a0604052670de0b6b3a764000060035534801561001b575f5ffd5b5060405161281b38038061281b83398101604081905261003a91610164565b5f80546001600160a01b03848116610100026001600160a81b03199092169190911782558216608052604051635487c57760e01b815242600482015273__$c2db40bc88d1695fb95efa117e02d420e9$__90635487c57790602401602060405180830381865af41580156100b0573d5f5f3e3d5ffd5b505050506040513d601f19601f820116820180604052508101906100d49190610195565b6005805463ffffffff92831663ffffffff199182168117909255604080516080810182528381525f6020808301828152838501838152606085018481529784526006909252939091209151825496169590931694909417845551600184015551600283015551600390910155506101ac915050565b80516001600160a01b038116811461015f575f5ffd5b919050565b5f5f60408385031215610175575f5ffd5b61017e83610149565b915061018c60208401610149565b90509250929050565b5f602082840312156101a5575f5ffd5b5051919050565b6080516126426101d95f395f81816104950152818161082d0152818161101c015261123001526126425ff3fe608060405260043610610167575f3560e01c80637df3927e116100d1578063d64b84b51161007c578063f2f4eb2611610057578063f2f4eb26146104cf578063f6720a82146104f0578063f9484e8f1461050f575f5ffd5b8063d64b84b51461045b578063deb6bb2a1461046f578063ec78e83214610484575f5ffd5b80638bdf67f2116100ac5780638bdf67f2146103a35780638fe25b38146103c2578063b8d600fa146103ed575f5ffd5b80637df3927e1461035057806380009630146103705780638456cb591461038f575f5ffd5b80633a98ef3911610131578063514ea4bf1161010c578063514ea4bf146102815780635c975abb1461030457806368e5675814610325575f5ffd5b80633a98ef391461022d5780633f4ba83a146102425780634645909d14610256575f5ffd5b8062f714ce1461016b578062fdd58e1461018c57806325c95a68146101be57806326522777146101dd578063391c792b146101fc575b5f5ffd5b348015610176575f5ffd5b5061018a61018536600461220f565b610524565b005b348015610197575f5ffd5b506101ab6101a6366004612239565b610902565b6040519081526020015b60405180910390f35b3480156101c9575f5ffd5b5061018a6101d8366004612274565b610c1e565b3480156101e8575f5ffd5b5061018a6101f73660046122ad565b611154565b348015610207575f5ffd5b506005546102189063ffffffff1681565b60405163ffffffff90911681526020016101b5565b348015610238575f5ffd5b506101ab60015481565b34801561024d575f5ffd5b5061018a6112be565b348015610261575f5ffd5b506101ab6102703660046122c4565b60086020525f908152604090205481565b34801561028c575f5ffd5b506102d361029b3660046122ad565b60046020525f90815260409020805460018201546002830154600390930154919263ffffffff80831693640100000000909304169185565b6040805195865263ffffffff948516602087015292909316918401919091526060830152608082015260a0016101b5565b34801561030f575f5ffd5b505f5460ff1660405190151581526020016101b5565b348015610330575f5ffd5b506101ab61033f3660046122c4565b60076020525f908152604090205481565b61036361035e3660046122dd565b611399565b6040516101b5919061237c565b34801561037b575f5ffd5b5061018a61038a3660046123df565b61161b565b34801561039a575f5ffd5b5061018a6116f4565b3480156103ae575f5ffd5b5061018a6103bd3660046122ad565b6117cc565b3480156103cd575f5ffd5b506101ab6103dc3660046122c4565b60096020525f908152604090205481565b3480156103f8575f5ffd5b506104346104073660046122c4565b60066020525f9081526040902080546001820154600283015460039093015463ffffffff90921692909184565b6040805163ffffffff909516855260208501939093529183015260608201526080016101b5565b348015610466575f5ffd5b506101ab6118f8565b34801561047a575f5ffd5b506101ab60025481565b34801561048f575f5ffd5b506104b77f000000000000000000000000000000000000000000000000000000000000000081565b6040516001600160a01b0390911681526020016101b5565b3480156104da575f5ffd5b505f5461010090046001600160a01b03166104b7565b3480156104fb575f5ffd5b5061018a61050a3660046123f8565b611923565b34801561051a575f5ffd5b506101ab60035481565b5f54604051632474521560e21b81525f5160206125ed5f395f51905f52600482018190523360248301529161010090046001600160a01b0316906391d1485490604401602060405180830381865afa158015610582573d5f5f3e3d5ffd5b505050506040513d601f19601f820116820180604052508101906105a69190612439565b6105e65760405162461bcd60e51b815260206004820152600c60248201526b15539055551213d49256915160a21b60448201526064015b60405180910390fd5b604051635487c57760e01b81524260048201525f9073__$c2db40bc88d1695fb95efa117e02d420e9$__90635487c57790602401602060405180830381865af4158015610635573d5f5f3e3d5ffd5b505050506040513d601f19601f820116820180604052508101906106599190612458565b604080516001600160a01b038616602080830191909152818301889052825180830384018152606083018085528151918301919091205f818152600490935291849020610100840190945283548152600184015463ffffffff80821660808601526401000000009091041660a08401819052600285015460c085015260039094015460e0909301929092529293509061070557604051630d4e553160e31b815260040160405180910390fd5b806040015163ffffffff168363ffffffff1610156107365760405163032148cf60e01b815260040160405180910390fd5b5f6107418688610902565b90505f82608001518360200151846040015161075d9190612483565b63ffffffff1661076d919061249f565b836060015161077c91906124b6565b5f85815260046020526040812081815560018101805467ffffffffffffffff19169055600281018290556003018190559091506107b7611db2565b905081816020018181516107cb91906124b6565b9052506107d781611f73565b8351600180545f906107ea9084906124b6565b925050819055508260025f82825461080291906124b6565b909155505060405163a9059cbb60e01b81526001600160a01b038981166004830152602482018590527f0000000000000000000000000000000000000000000000000000000000000000169063a9059cbb906044016020604051808303815f875af1158015610873573d5f5f3e3d5ffd5b505050506040513d601f19601f820116820180604052508101906108979190612439565b6108b4576040516312171d8360e31b815260040160405180910390fd5b604080518a81526001600160a01b038a16602082015242917f46a2a72a853814053fe4418767a186f8a7028b2a21ce0261c931bab916b0ed6d910160405180910390a2505050505050505050565b604080516001600160a01b038416602080830191909152818301849052825180830384018152606083018085528151918301919091205f9081526004909252838220610100840190945283548152600184015463ffffffff808216608086018190526401000000009092041660a0850152600285015460c085015260039094015460e09093019290925291820361099c575f915050610c18565b6109c960405180608001604052805f63ffffffff1681526020015f81526020015f81526020015f81525090565b60608201518251604051635487c57760e01b81524260048201525f9073__$c2db40bc88d1695fb95efa117e02d420e9$__90635487c57790602401602060405180830381865af4158015610a1f573d5f5f3e3d5ffd5b505050506040513d601f19601f82011682018060405250810190610a439190612458565b90505f60018660200151610a579190612483565b90505b818163ffffffff1611610c065763ffffffff8082165f9081526006602090815260409182902082516080810184528154909416808552600182015492850192909252600281015492840192909252600390910154606083015215610abc578095505b60018760200151610acd9190612483565b63ffffffff168263ffffffff161115610b025760208601516060870151610af5918790612030565b610aff90856124c9565b93505b63ffffffff82165f9081526008602052604090819020549087018051610b299083906124b6565b90525063ffffffff82165f9081526009602052604090819020549087018051610b539083906124c9565b90525063ffffffff82165f908152600760209081526040909120549087018051610b7e9083906124c9565b9052506040860151602087018051610b979083906124b6565b905250610ba58260016124dc565b63ffffffff90811687525f60608801526020880151811690831610801590610bdc5750866040015163ffffffff168263ffffffff16105b15610bf3576080870151610bf090866124b6565b94505b5080610bfe816124f8565b915050610a5a565b50610c108261204b565b955050505050505b92915050565b5f54604051632474521560e21b81525f5160206125ed5f395f51905f52600482018190523360248301529161010090046001600160a01b0316906391d1485490604401602060405180830381865afa158015610c7c573d5f5f3e3d5ffd5b505050506040513d601f19601f82011682018060405250810190610ca09190612439565b610cdb5760405162461bcd60e51b815260206004820152600c60248201526b15539055551213d49256915160a21b60448201526064016105dd565b604051635487c57760e01b81524260048201525f9073__$c2db40bc88d1695fb95efa117e02d420e9$__90635487c57790602401602060405180830381865af4158015610d2a573d5f5f3e3d5ffd5b505050506040513d601f19601f82011682018060405250810190610d4e9190612458565b604080516001600160a01b038816602080830191909152818301889052825180830384018152606083018085528151918301919091205f818152600490935291849020610100840190945283548152600184015463ffffffff80821660808601526401000000009091041660a08401819052600285015460c085015260039094015460e0909301929092529293509015801590610dfa5750806040015163ffffffff168363ffffffff16105b610e1757604051630d4e553160e31b815260040160405180910390fd5b806020015163ffffffff168363ffffffff161015610e48576040516344cd777d60e11b815260040160405180910390fd5b5f610e538888610902565b90505f826020015185610e669190612483565b63ffffffff1690505f836080015182610e7f919061249f565b8460600151610e8e91906124b6565b90505f610e99611db2565b9050846020015163ffffffff168763ffffffff1603610ee657608085015163ffffffff88165f9081526009602052604081208054909190610edb9084906124b6565b90915550610f009050565b846080015181604001818151610efc91906124b6565b9052505b8181602001818151610f1291906124b6565b905250610f1e81611f73565b608085015160408087015163ffffffff165f90815260086020529081208054909190610f4b9084906124b6565b90915550505f8681526004602052604081208181556001808201805467ffffffffffffffff1916905560028201839055600390910182905586518154909290610f959084906124b6565b925050819055508360025f828254610fad91906124b6565b90915550505060408401515f90610fc5908890612483565b90508063ffffffff168963ffffffff1610158990610fff5760405163aa822e2f60e01b815263ffffffff90911660048201526024016105dd565b5060405163095ea7b360e01b8152336004820152602481018590527f00000000000000000000000000000000000000000000000000000000000000006001600160a01b03169063095ea7b3906044016020604051808303815f875af115801561106a573d5f5f3e3d5ffd5b505050506040513d601f19601f8201168201806040525081019061108e9190612439565b50604051633b50953b60e21b81526004810185905263ffffffff8a1660248201526001600160a01b038c166044820152339063ed4254ec906064015f604051808303815f87803b1580156110e0575f5ffd5b505af11580156110f2573d5f5f3e3d5ffd5b5050604080516001600160a01b038f168152602081018e905263ffffffff8d168183015290514293507f9ef5875a83fb1c157359cec088134a028da205f9ccc87f8d5f470571bf2eceac92509081900360600190a25050505050505050505050565b5f54604051632474521560e21b81525f5160206125ed5f395f51905f52600482018190523360248301529161010090046001600160a01b0316906391d1485490604401602060405180830381865afa1580156111b2573d5f5f3e3d5ffd5b505050506040513d601f19601f820116820180604052508101906111d69190612439565b6112115760405162461bcd60e51b815260206004820152600c60248201526b15539055551213d49256915160a21b60448201526064016105dd565b81156112ba57600254604051630852cd8d60e31b8152600481018490527f00000000000000000000000000000000000000000000000000000000000000006001600160a01b0316906342966c68906024015f604051808303815f87803b158015611279575f5ffd5b505af115801561128b573d5f5f3e3d5ffd5b505050506112a8838261129e91906124b6565b6003549083612030565b6003556112b583826124b6565b600255505b5050565b5f54604051632474521560e21b81527fe7276a2a84d8de556657ec9cf93a55a7d66f096e529d0582ed08e9e2208b92b5600482018190523360248301529161010090046001600160a01b0316906391d1485490604401602060405180830381865afa15801561132f573d5f5f3e3d5ffd5b505050506040513d601f19601f820116820180604052508101906113539190612439565b61138e5760405162461bcd60e51b815260206004820152600c60248201526b15539055551213d49256915160a21b60448201526064016105dd565b61139661206b565b50565b5f54604051632474521560e21b81527f1a6838efa4183e08fe3607359d1259272af9d4716f65e1a7b5921f78fd5a3c6a6004820181905233602483015260609290916101009091046001600160a01b0316906391d1485490604401602060405180830381865afa15801561140f573d5f5f3e3d5ffd5b505050506040513d601f19601f820116820180604052508101906114339190612439565b61146e5760405162461bcd60e51b815260206004820152600c60248201526b15539055551213d49256915160a21b60448201526064016105dd565b8267ffffffffffffffff8111156114875761148761251c565b6040519080825280602002602001820160405280156114ba57816020015b60608152602001906001900390816114a55790505b5091505f5b83811015611613575f8585838181106114da576114da612530565b90506020028101906114ec9190612544565b6114fa9060208101906123df565b90505f86868481811061150f5761150f612530565b90506020028101906115219190612544565b602001359050365f88888681811061153b5761153b612530565b905060200281019061154d9190612544565b61155b906040810190612562565b915091505f5f856001600160a01b031685858560405161157c9291906125ac565b5f6040518083038185875af1925050503d805f81146115b6576040519150601f19603f3d011682016040523d82523d5f602084013e6115bb565b606091505b50915091508181906115e157604051634ad176bb60e01b81526004016105dd91906125bb565b50808988815181106115f5576115f5612530565b602002602001018190525050505050505080806001019150506114bf565b505092915050565b5f54604051632474521560e21b81527f1a6838efa4183e08fe3607359d1259272af9d4716f65e1a7b5921f78fd5a3c6a600482018190523360248301529161010090046001600160a01b0316906391d1485490604401602060405180830381865afa15801561168c573d5f5f3e3d5ffd5b505050506040513d601f19601f820116820180604052508101906116b09190612439565b6116eb5760405162461bcd60e51b815260206004820152600c60248201526b15539055551213d49256915160a21b60448201526064016105dd565b6112ba826120bc565b5f54604051632474521560e21b81527ffcb9fcbfa83b897fb2d5cf4b58962164105c1e71489a37ef3ae0db3fdce576f6600482018190523360248301529161010090046001600160a01b0316906391d1485490604401602060405180830381865afa158015611765573d5f5f3e3d5ffd5b505050506040513d601f19601f820116820180604052508101906117899190612439565b6117c45760405162461bcd60e51b815260206004820152600c60248201526b15539055551213d49256915160a21b60448201526064016105dd565b611396612121565b5f54604051632474521560e21b81525f5160206125ed5f395f51905f52600482018190523360248301529161010090046001600160a01b0316906391d1485490604401602060405180830381865afa15801561182a573d5f5f3e3d5ffd5b505050506040513d601f19601f8201168201806040525081019061184e9190612439565b6118895760405162461bcd60e51b815260206004820152600c60248201526b15539055551213d49256915160a21b60448201526064016105dd565b81156112ba575f611898611db2565b90505f6118a48461215d565b905080826060018181516118b891906124c9565b9052506118c482611f73565b8060015f8282546118d591906124c9565b925050819055508360025f8282546118ed91906124c9565b909155505050505050565b5f5f611902611db2565b905061191d600354826020015161218590919063ffffffff16565b91505090565b5f54604051632474521560e21b81525f5160206125ed5f395f51905f52600482018190523360248301529161010090046001600160a01b0316906391d1485490604401602060405180830381865afa158015611981573d5f5f3e3d5ffd5b505050506040513d601f19601f820116820180604052508101906119a59190612439565b6119e05760405162461bcd60e51b815260206004820152600c60248201526b15539055551213d49256915160a21b60448201526064016105dd565b604080516001600160a01b0387166020808301919091524282840152825180830384018152606090920183528151918101919091205f81815260049092529190206001015463ffffffff1615611a495760405163032148cf60e01b815260040160405180910390fd5b5f611a5f6003548561219990919063ffffffff16565b90505f611a776003548861219990919063ffffffff16565b90505f611a8482846124b6565b90505f611a9763ffffffff8916836125cd565b90505f611aaa63ffffffff8a168361249f565b611ab490846124b6565b9050611ac081866124b6565b60405163342a7b0160e01b81524260048201529095505f9073__$c2db40bc88d1695fb95efa117e02d420e9$__9063342a7b0190602401602060405180830381865af4158015611b12573d5f5f3e3d5ffd5b505050506040513d601f19601f82011682018060405250810190611b369190612458565b90505f611b438b836124dc565b90505f611b4f8d61215d565b90506040518060a001604052808281526020018463ffffffff1681526020018363ffffffff1681526020018981526020018681525060045f8b81526020019081526020015f205f820151815f01556020820151816001015f6101000a81548163ffffffff021916908363ffffffff16021790555060408201518160010160046101000a81548163ffffffff021916908363ffffffff16021790555060608201518160020155608082015181600301559050508060015f828254611c1291906124c9565b92505081905550508b60025f828254611c2b91906124c9565b909155505f9050611c3a611db2565b9050611c4581611f73565b604051635487c57760e01b815242600482015288906007905f9073__$c2db40bc88d1695fb95efa117e02d420e9$__90635487c57790602401602060405180830381865af4158015611c99573d5f5f3e3d5ffd5b505050506040513d601f19601f82011682018060405250810190611cbd9190612458565b63ffffffff1663ffffffff1681526020019081526020015f205f828254611ce491906124c9565b909155505063ffffffff83165f9081526009602052604081208054879290611d0d9084906124c9565b909155505063ffffffff82165f9081526008602052604081208054879290611d369084906124c9565b92505081905550427f898a174703345948bd8be8a22a0b81b1254483d955a1815cd000eec8271afc068f8f8f8f604051611d9a94939291906001600160a01b03949094168452602084019290925263ffffffff166040830152606082015260800190565b60405180910390a25050505050505050505050505050565b611ddf60405180608001604052805f63ffffffff1681526020015f81526020015f81526020015f81525090565b60055463ffffffff9081165f908152600660209081526040808320815160808101835281549095168552600181015492850192909252600282015484820152600390910154606084015251635487c57760e01b815242600482015273__$c2db40bc88d1695fb95efa117e02d420e9$__90635487c57790602401602060405180830381865af4158015611e74573d5f5f3e3d5ffd5b505050506040513d601f19601f82011682018060405250810190611e989190612458565b82519091505b8163ffffffff168163ffffffff161015611f6b5763ffffffff81165f9081526008602052604090819020549084018051611ed99083906124b6565b90525063ffffffff81165f9081526009602052604090819020549084018051611f039083906124c9565b90525063ffffffff81165f908152600760209081526040909120549084018051611f2e9083906124c9565b9052506040830151602084018051611f479083906124b6565b905250611f558160016124dc565b63ffffffff1683525f6060840152600101611e9e565b509092915050565b805163ffffffff9081165f9081526006602090815260409182902084518154941663ffffffff1994851681178255918501516001820155828501516002820155606085015160039091015560058054909316179091555142907f2f9521bf01e31b4444c832d395a011fb4fe6513f9a18cd4ad7c9f2dd76adea3290612025908490815163ffffffff16815260208083015190820152604080830151908201526060918201519181019190915260800190565b60405180910390a250565b5f825f190484118302158202612044575f5ffd5b5091020490565b5f815f0361205a57505f919050565b600254600154610c18918491612030565b6120736121ad565b5f805460ff191690557f5db9ee0a495bf2e6ff9c91a7834c1ba4fdd244a5e8aa4e537bd38aeae4b073aa335b6040516001600160a01b03909116815260200160405180910390a1565b5f80546001600160a01b0383811661010081810274ffffffffffffffffffffffffffffffffffffffff0019851617855560405193049190911692909183917f9209b7c8c06dcfd261686a663e7c55989337b18d59da5433c6f2835fb697092091a35050565b6121296121d1565b5f805460ff191660011790557f62e78cea01bee320cd4e420270b5ea74000d11b0c9f74754ebdbfc544b05a25861209f3390565b6002545f90801561217c5760015461217790849083612030565b61217e565b825b9392505050565b5f61217e8383670de0b6b3a7640000612030565b5f61217e83670de0b6b3a764000084612030565b5f5460ff166121cf57604051638dfc202b60e01b815260040160405180910390fd5b565b5f5460ff16156121cf5760405163d93c066560e01b815260040160405180910390fd5b80356001600160a01b038116811461220a575f5ffd5b919050565b5f5f60408385031215612220575f5ffd5b82359150612230602084016121f4565b90509250929050565b5f5f6040838503121561224a575f5ffd5b612253836121f4565b946020939093013593505050565b803563ffffffff8116811461220a575f5ffd5b5f5f5f60608486031215612286575f5ffd5b61228f846121f4565b9250602084013591506122a460408501612261565b90509250925092565b5f602082840312156122bd575f5ffd5b5035919050565b5f602082840312156122d4575f5ffd5b61217e82612261565b5f5f602083850312156122ee575f5ffd5b823567ffffffffffffffff811115612304575f5ffd5b8301601f81018513612314575f5ffd5b803567ffffffffffffffff81111561232a575f5ffd5b8560208260051b840101111561233e575f5ffd5b6020919091019590945092505050565b5f81518084528060208401602086015e5f602082860101526020601f19601f83011685010191505092915050565b5f602082016020835280845180835260408501915060408160051b8601019250602086015f5b828110156123d357603f198786030184526123be85835161234e565b945060209384019391909101906001016123a2565b50929695505050505050565b5f602082840312156123ef575f5ffd5b61217e826121f4565b5f5f5f5f6080858703121561240b575f5ffd5b612414856121f4565b93506020850135925061242960408601612261565b9396929550929360600135925050565b5f60208284031215612449575f5ffd5b8151801515811461217e575f5ffd5b5f60208284031215612468575f5ffd5b5051919050565b634e487b7160e01b5f52601160045260245ffd5b63ffffffff8281168282160390811115610c1857610c1861246f565b8082028115828204841417610c1857610c1861246f565b81810381811115610c1857610c1861246f565b80820180821115610c1857610c1861246f565b63ffffffff8181168382160190811115610c1857610c1861246f565b5f63ffffffff821663ffffffff81036125135761251361246f565b60010192915050565b634e487b7160e01b5f52604160045260245ffd5b634e487b7160e01b5f52603260045260245ffd5b5f8235605e19833603018112612558575f5ffd5b9190910192915050565b5f5f8335601e19843603018112612577575f5ffd5b83018035915067ffffffffffffffff821115612591575f5ffd5b6020019150368190038213156125a5575f5ffd5b9250929050565b818382375f9101908152919050565b602081525f61217e602083018461234e565b5f826125e757634e487b7160e01b5f52601260045260245ffd5b50049056fec46edb8291bbe8016e3c83529d0eb01c2733d265fc4594ac6299b3ef72721546a2646970667358221220583fdabeeb1469d25d5eb737849b77333e965bc0f95dd042b3ac5fb986bd297864736f6c634300081c0033","linkReferences":{"src/libraries/EpochLib.sol":{"EpochLib":[{"start":120,"length":20},{"start":2006,"length":20},{"start":3008,"length":20},{"start":3787,"length":20},{"start":7347,"length":20},{"start":7738,"length":20},{"start":8213,"length":20}]}}},"methodIdentifiers":{"applyLosses(uint256)":"26522777","balanceOf(address,uint256)":"00fdd58e","cancelUnwinding(address,uint256,uint32)":"25c95a68","core()":"f2f4eb26","depositRewards(uint256)":"8bdf67f2","emergencyAction((address,uint256,bytes)[])":"7df3927e","globalPoints(uint32)":"b8d600fa","lastGlobalPointEpoch()":"391c792b","pause()":"8456cb59","paused()":"5c975abb","positions(bytes32)":"514ea4bf","receiptToken()":"ec78e832","rewardWeightBiasIncreases(uint32)":"68e56758","rewardWeightDecreases(uint32)":"8fe25b38","rewardWeightIncreases(uint32)":"4645909d","setCore(address)":"80009630","slashIndex()":"f9484e8f","startUnwinding(address,uint256,uint32,uint256)":"f6720a82","totalReceiptTokens()":"deb6bb2a","totalRewardWeight()":"d64b84b5","totalShares()":"3a98ef39","unpause()":"3f4ba83a","withdraw(uint256,address)":"00f714ce"},"id":106}