{"abi":[{"type":"constructor","inputs":[{"name":"_core","type":"address","internalType":"address"},{"name":"_minDelay","type":"uint256","internalType":"uint256"}],"stateMutability":"nonpayable"},{"type":"receive","stateMutability":"payable"},{"type":"function","name":"CANCELLER_ROLE","inputs":[],"outputs":[{"name":"","type":"bytes32","internalType":"bytes32"}],"stateMutability":"view"},{"type":"function","name":"DEFAULT_ADMIN_ROLE","inputs":[],"outputs":[{"name":"","type":"bytes32","internalType":"bytes32"}],"stateMutability":"view"},{"type":"function","name":"EXECUTOR_ROLE","inputs":[],"outputs":[{"name":"","type":"bytes32","internalType":"bytes32"}],"stateMutability":"view"},{"type":"function","name":"PROPOSER_ROLE","inputs":[],"outputs":[{"name":"","type":"bytes32","internalType":"bytes32"}],"stateMutability":"view"},{"type":"function","name":"cancel","inputs":[{"name":"id","type":"bytes32","internalType":"bytes32"}],"outputs":[],"stateMutability":"nonpayable"},{"type":"function","name":"core","inputs":[],"outputs":[{"name":"","type":"address","internalType":"contract InfiniFiCore"}],"stateMutability":"view"},{"type":"function","name":"emergencyAction","inputs":[{"name":"","type":"tuple[]","internalType":"struct CoreControlled.Call[]","components":[{"name":"target","type":"address","internalType":"address"},{"name":"value","type":"uint256","internalType":"uint256"},{"name":"callData","type":"bytes","internalType":"bytes"}]}],"outputs":[{"name":"","type":"bytes[]","internalType":"bytes[]"}],"stateMutability":"payable"},{"type":"function","name":"execute","inputs":[{"name":"target","type":"address","internalType":"address"},{"name":"value","type":"uint256","internalType":"uint256"},{"name":"payload","type":"bytes","internalType":"bytes"},{"name":"predecessor","type":"bytes32","internalType":"bytes32"},{"name":"salt","type":"bytes32","internalType":"bytes32"}],"outputs":[],"stateMutability":"payable"},{"type":"function","name":"executeBatch","inputs":[{"name":"targets","type":"address[]","internalType":"address[]"},{"name":"values","type":"uint256[]","internalType":"uint256[]"},{"name":"payloads","type":"bytes[]","internalType":"bytes[]"},{"name":"predecessor","type":"bytes32","internalType":"bytes32"},{"name":"salt","type":"bytes32","internalType":"bytes32"}],"outputs":[],"stateMutability":"payable"},{"type":"function","name":"getMinDelay","inputs":[],"outputs":[{"name":"","type":"uint256","internalType":"uint256"}],"stateMutability":"view"},{"type":"function","name":"getOperationState","inputs":[{"name":"id","type":"bytes32","internalType":"bytes32"}],"outputs":[{"name":"","type":"uint8","internalType":"enum TimelockController.OperationState"}],"stateMutability":"view"},{"type":"function","name":"getRoleAdmin","inputs":[{"name":"role","type":"bytes32","internalType":"bytes32"}],"outputs":[{"name":"","type":"bytes32","internalType":"bytes32"}],"stateMutability":"view"},{"type":"function","name":"getTimestamp","inputs":[{"name":"id","type":"bytes32","internalType":"bytes32"}],"outputs":[{"name":"","type":"uint256","internalType":"uint256"}],"stateMutability":"view"},{"type":"function","name":"grantRole","inputs":[{"name":"role","type":"bytes32","internalType":"bytes32"},{"name":"account","type":"address","internalType":"address"}],"outputs":[],"stateMutability":"nonpayable"},{"type":"function","name":"hasRole","inputs":[{"name":"role","type":"bytes32","internalType":"bytes32"},{"name":"account","type":"address","internalType":"address"}],"outputs":[{"name":"","type":"bool","internalType":"bool"}],"stateMutability":"view"},{"type":"function","name":"hashOperation","inputs":[{"name":"target","type":"address","internalType":"address"},{"name":"value","type":"uint256","internalType":"uint256"},{"name":"data","type":"bytes","internalType":"bytes"},{"name":"predecessor","type":"bytes32","internalType":"bytes32"},{"name":"salt","type":"bytes32","internalType":"bytes32"}],"outputs":[{"name":"","type":"bytes32","internalType":"bytes32"}],"stateMutability":"pure"},{"type":"function","name":"hashOperationBatch","inputs":[{"name":"targets","type":"address[]","internalType":"address[]"},{"name":"values","type":"uint256[]","internalType":"uint256[]"},{"name":"payloads","type":"bytes[]","internalType":"bytes[]"},{"name":"predecessor","type":"bytes32","internalType":"bytes32"},{"name":"salt","type":"bytes32","internalType":"bytes32"}],"outputs":[{"name":"","type":"bytes32","internalType":"bytes32"}],"stateMutability":"pure"},{"type":"function","name":"isOperation","inputs":[{"name":"id","type":"bytes32","internalType":"bytes32"}],"outputs":[{"name":"","type":"bool","internalType":"bool"}],"stateMutability":"view"},{"type":"function","name":"isOperationDone","inputs":[{"name":"id","type":"bytes32","internalType":"bytes32"}],"outputs":[{"name":"","type":"bool","internalType":"bool"}],"stateMutability":"view"},{"type":"function","name":"isOperationPending","inputs":[{"name":"id","type":"bytes32","internalType":"bytes32"}],"outputs":[{"name":"","type":"bool","internalType":"bool"}],"stateMutability":"view"},{"type":"function","name":"isOperationReady","inputs":[{"name":"id","type":"bytes32","internalType":"bytes32"}],"outputs":[{"name":"","type":"bool","internalType":"bool"}],"stateMutability":"view"},{"type":"function","name":"onERC1155BatchReceived","inputs":[{"name":"","type":"address","internalType":"address"},{"name":"","type":"address","internalType":"address"},{"name":"","type":"uint256[]","internalType":"uint256[]"},{"name":"","type":"uint256[]","internalType":"uint256[]"},{"name":"","type":"bytes","internalType":"bytes"}],"outputs":[{"name":"","type":"bytes4","internalType":"bytes4"}],"stateMutability":"nonpayable"},{"type":"function","name":"onERC1155Received","inputs":[{"name":"","type":"address","internalType":"address"},{"name":"","type":"address","internalType":"address"},{"name":"","type":"uint256","internalType":"uint256"},{"name":"","type":"uint256","internalType":"uint256"},{"name":"","type":"bytes","internalType":"bytes"}],"outputs":[{"name":"","type":"bytes4","internalType":"bytes4"}],"stateMutability":"nonpayable"},{"type":"function","name":"onERC721Received","inputs":[{"name":"","type":"address","internalType":"address"},{"name":"","type":"address","internalType":"address"},{"name":"","type":"uint256","internalType":"uint256"},{"name":"","type":"bytes","internalType":"bytes"}],"outputs":[{"name":"","type":"bytes4","internalType":"bytes4"}],"stateMutability":"nonpayable"},{"type":"function","name":"pause","inputs":[],"outputs":[],"stateMutability":"nonpayable"},{"type":"function","name":"paused","inputs":[],"outputs":[{"name":"","type":"bool","internalType":"bool"}],"stateMutability":"view"},{"type":"function","name":"renounceRole","inputs":[{"name":"role","type":"bytes32","internalType":"bytes32"},{"name":"callerConfirmation","type":"address","internalType":"address"}],"outputs":[],"stateMutability":"nonpayable"},{"type":"function","name":"revokeRole","inputs":[{"name":"role","type":"bytes32","internalType":"bytes32"},{"name":"account","type":"address","internalType":"address"}],"outputs":[],"stateMutability":"nonpayable"},{"type":"function","name":"schedule","inputs":[{"name":"target","type":"address","internalType":"address"},{"name":"value","type":"uint256","internalType":"uint256"},{"name":"data","type":"bytes","internalType":"bytes"},{"name":"predecessor","type":"bytes32","internalType":"bytes32"},{"name":"salt","type":"bytes32","internalType":"bytes32"},{"name":"delay","type":"uint256","internalType":"uint256"}],"outputs":[],"stateMutability":"nonpayable"},{"type":"function","name":"scheduleBatch","inputs":[{"name":"targets","type":"address[]","internalType":"address[]"},{"name":"values","type":"uint256[]","internalType":"uint256[]"},{"name":"payloads","type":"bytes[]","internalType":"bytes[]"},{"name":"predecessor","type":"bytes32","internalType":"bytes32"},{"name":"salt","type":"bytes32","internalType":"bytes32"},{"name":"delay","type":"uint256","internalType":"uint256"}],"outputs":[],"stateMutability":"nonpayable"},{"type":"function","name":"setCore","inputs":[{"name":"newCore","type":"address","internalType":"address"}],"outputs":[],"stateMutability":"nonpayable"},{"type":"function","name":"supportsInterface","inputs":[{"name":"interfaceId","type":"bytes4","internalType":"bytes4"}],"outputs":[{"name":"","type":"bool","internalType":"bool"}],"stateMutability":"view"},{"type":"function","name":"unpause","inputs":[],"outputs":[],"stateMutability":"nonpayable"},{"type":"function","name":"updateDelay","inputs":[{"name":"newDelay","type":"uint256","internalType":"uint256"}],"outputs":[],"stateMutability":"nonpayable"},{"type":"event","name":"CallExecuted","inputs":[{"name":"id","type":"bytes32","indexed":true,"internalType":"bytes32"},{"name":"index","type":"uint256","indexed":true,"internalType":"uint256"},{"name":"target","type":"address","indexed":false,"internalType":"address"},{"name":"value","type":"uint256","indexed":false,"internalType":"uint256"},{"name":"data","type":"bytes","indexed":false,"internalType":"bytes"}],"anonymous":false},{"type":"event","name":"CallSalt","inputs":[{"name":"id","type":"bytes32","indexed":true,"internalType":"bytes32"},{"name":"salt","type":"bytes32","indexed":false,"internalType":"bytes32"}],"anonymous":false},{"type":"event","name":"CallScheduled","inputs":[{"name":"id","type":"bytes32","indexed":true,"internalType":"bytes32"},{"name":"index","type":"uint256","indexed":true,"internalType":"uint256"},{"name":"target","type":"address","indexed":false,"internalType":"address"},{"name":"value","type":"uint256","indexed":false,"internalType":"uint256"},{"name":"data","type":"bytes","indexed":false,"internalType":"bytes"},{"name":"predecessor","type":"bytes32","indexed":false,"internalType":"bytes32"},{"name":"delay","type":"uint256","indexed":false,"internalType":"uint256"}],"anonymous":false},{"type":"event","name":"Cancelled","inputs":[{"name":"id","type":"bytes32","indexed":true,"internalType":"bytes32"}],"anonymous":false},{"type":"event","name":"CoreUpdate","inputs":[{"name":"oldCore","type":"address","indexed":true,"internalType":"address"},{"name":"newCore","type":"address","indexed":true,"internalType":"address"}],"anonymous":false},{"type":"event","name":"MinDelayChange","inputs":[{"name":"oldDuration","type":"uint256","indexed":false,"internalType":"uint256"},{"name":"newDuration","type":"uint256","indexed":false,"internalType":"uint256"}],"anonymous":false},{"type":"event","name":"Paused","inputs":[{"name":"account","type":"address","indexed":false,"internalType":"address"}],"anonymous":false},{"type":"event","name":"RoleAdminChanged","inputs":[{"name":"role","type":"bytes32","indexed":true,"internalType":"bytes32"},{"name":"previousAdminRole","type":"bytes32","indexed":true,"internalType":"bytes32"},{"name":"newAdminRole","type":"bytes32","indexed":true,"internalType":"bytes32"}],"anonymous":false},{"type":"event","name":"RoleGranted","inputs":[{"name":"role","type":"bytes32","indexed":true,"internalType":"bytes32"},{"name":"account","type":"address","indexed":true,"internalType":"address"},{"name":"sender","type":"address","indexed":true,"internalType":"address"}],"anonymous":false},{"type":"event","name":"RoleRevoked","inputs":[{"name":"role","type":"bytes32","indexed":true,"internalType":"bytes32"},{"name":"account","type":"address","indexed":true,"internalType":"address"},{"name":"sender","type":"address","indexed":true,"internalType":"address"}],"anonymous":false},{"type":"event","name":"Unpaused","inputs":[{"name":"account","type":"address","indexed":false,"internalType":"address"}],"anonymous":false},{"type":"error","name":"AccessControlBadConfirmation","inputs":[]},{"type":"error","name":"AccessControlUnauthorizedAccount","inputs":[{"name":"account","type":"address","internalType":"address"},{"name":"neededRole","type":"bytes32","internalType":"bytes32"}]},{"type":"error","name":"EnforcedPause","inputs":[]},{"type":"error","name":"ExpectedPause","inputs":[]},{"type":"error","name":"FailedCall","inputs":[]},{"type":"error","name":"TimelockInsufficientDelay","inputs":[{"name":"delay","type":"uint256","internalType":"uint256"},{"name":"minDelay","type":"uint256","internalType":"uint256"}]},{"type":"error","name":"TimelockInvalidOperationLength","inputs":[{"name":"targets","type":"uint256","internalType":"uint256"},{"name":"payloads","type":"uint256","internalType":"uint256"},{"name":"values","type":"uint256","internalType":"uint256"}]},{"type":"error","name":"TimelockUnauthorizedCaller","inputs":[{"name":"caller","type":"address","internalType":"address"}]},{"type":"error","name":"TimelockUnexecutedPredecessor","inputs":[{"name":"predecessorId","type":"bytes32","internalType":"bytes32"}]},{"type":"error","name":"TimelockUnexpectedOperationState","inputs":[{"name":"operationId","type":"bytes32","internalType":"bytes32"},{"name":"expectedStates","type":"bytes32","internalType":"bytes32"}]},{"type":"error","name":"UnderlyingCallReverted","inputs":[{"name":"returnData","type":"bytes","internalType":"bytes"}]}],"bytecode":{"object":"0x608060405234801561000f575f5ffd5b5060405161212838038061212883398101604081905261002e9161019f565b604080515f8082526020820181815282840190935284928492915f5b83518110156100dc5761009c7fb09aa5aeb3702cfd50b6b62bc4532604938f21248a27a1d5ca736082b6819cc1858381518110610089576100896101d6565b602002602001015161019860201b60201c565b506100d37ffd643c72710c63c0180259aba6b2d05451e3591a24e58b62239378085726f783858381518110610089576100896101d6565b5060010161004a565b505f5b82518110156101275761011e7fd8aa0f3194971a2a116679f7c2090f6939c8d4e01a2a8d7e41d55e5351469e63848381518110610089576100896101d6565b506001016100df565b506002849055604080515f8152602081018690527f11c24f4ead16507c69ac467fbd5e4eed5fb5c699626d2cc6d66421df253886d5910160405180910390a15050600380546001600160a01b03909416610100026001600160a81b031990941693909317909255506101ea92505050565b5f92915050565b5f5f604083850312156101b0575f5ffd5b82516001600160a01b03811681146101c6575f5ffd5b6020939093015192949293505050565b634e487b7160e01b5f52603260045260245ffd5b611f31806101f75f395ff3fe6080604052600436106101f4575f3560e01c80638000963011610108578063b1c5f4271161009d578063d547741f1161006d578063d547741f14610357578063e38335e514610606578063f23a6e6114610619578063f27a0c9214610644578063f2f4eb2614610658575f5ffd5b8063b1c5f42714610572578063bc197c8114610591578063c4d252f5146105bc578063d45c4435146105db575f5ffd5b80638f61f4f5116100d85780638f61f4f5146104da57806391d148541461050d578063a217fddf1461052c578063b08e51c01461053f575f5ffd5b806380009630146104695780638065657f146104885780638456cb59146104a75780638f2a0bb0146104bb575f5ffd5b80632f2ff15d11610189578063584b153e11610159578063584b153e146103c85780635c975abb146103e757806364d62353146103fe5780637958004c1461041d5780637df3927e14610449575f5ffd5b80632f2ff15d1461035757806331d507501461037657806336568abe146103955780633f4ba83a146103b4575f5ffd5b806313bc9f20116101c457806313bc9f20146102a8578063150b7a02146102c7578063248a9ca31461030a5780632ab0f52914610338575f5ffd5b806301d5062a146101ff57806301ffc9a71461022057806307bd026514610254578063134008d314610295575f5ffd5b366101fb57005b5f5ffd5b34801561020a575f5ffd5b5061021e610219366004611607565b61068d565b005b34801561022b575f5ffd5b5061023f61023a366004611676565b610761565b60405190151581526020015b60405180910390f35b34801561025f575f5ffd5b506102877fd8aa0f3194971a2a116679f7c2090f6939c8d4e01a2a8d7e41d55e5351469e6381565b60405190815260200161024b565b61021e6102a336600461169d565b610771565b3480156102b3575f5ffd5b5061023f6102c2366004611704565b610823565b3480156102d2575f5ffd5b506102f16102e13660046117cc565b630a85bd0160e11b949350505050565b6040516001600160e01b0319909116815260200161024b565b348015610315575f5ffd5b50610287610324366004611704565b5f9081526020819052604090206001015490565b348015610343575f5ffd5b5061023f610352366004611704565b610848565b348015610362575f5ffd5b5061021e610371366004611830565b610850565b348015610381575f5ffd5b5061023f610390366004611704565b61086f565b3480156103a0575f5ffd5b5061021e6103af366004611830565b610893565b3480156103bf575f5ffd5b5061021e6108c0565b3480156103d3575f5ffd5b5061023f6103e2366004611704565b6109a1565b3480156103f2575f5ffd5b5060035460ff1661023f565b348015610409575f5ffd5b5061021e610418366004611704565b6109e6565b348015610428575f5ffd5b5061043c610437366004611704565b610a54565b60405161024b919061186e565b61045c6104573660046118d5565b610a9c565b60405161024b9190611914565b348015610474575f5ffd5b5061021e610483366004611998565b610b79565b348015610493575f5ffd5b506102876104a236600461169d565b610c53565b3480156104b2575f5ffd5b5061021e610c91565b3480156104c6575f5ffd5b5061021e6104d53660046119b1565b610d6a565b3480156104e5575f5ffd5b506102877fb09aa5aeb3702cfd50b6b62bc4532604938f21248a27a1d5ca736082b6819cc181565b348015610518575f5ffd5b5061023f610527366004611830565b610ef6565b348015610537575f5ffd5b506102875f81565b34801561054a575f5ffd5b506102877ffd643c72710c63c0180259aba6b2d05451e3591a24e58b62239378085726f78381565b34801561057d575f5ffd5b5061028761058c366004611a66565b610f7a565b34801561059c575f5ffd5b506102f16105ab366004611b93565b63bc197c8160e01b95945050505050565b3480156105c7575f5ffd5b5061021e6105d6366004611704565b610fbe565b3480156105e6575f5ffd5b506102876105f5366004611704565b5f9081526001602052604090205490565b61021e610614366004611a66565b611068565b348015610624575f5ffd5b506102f1610633366004611c42565b63f23a6e6160e01b95945050505050565b34801561064f575f5ffd5b50600254610287565b348015610663575f5ffd5b5060035461010090046001600160a01b03166040516001600160a01b03909116815260200161024b565b7fb09aa5aeb3702cfd50b6b62bc4532604938f21248a27a1d5ca736082b6819cc16106b7816111e9565b5f6106c6898989898989610c53565b90506106d281846111f3565b5f817f4cf4410cc57040e44862ef0f45f3dd5a5e02db8eb8add648d4b0e236f1d07dca8b8b8b8b8b8a60405161070d96959493929190611cbe565b60405180910390a3831561075657807f20fda5fd27a1ea7bf5b9567f143ac5470bb059374a27e8f67cb44f946f6d03878560405161074d91815260200190565b60405180910390a25b505050505050505050565b5f61076b82611284565b92915050565b7fd8aa0f3194971a2a116679f7c2090f6939c8d4e01a2a8d7e41d55e5351469e6361079c815f610ef6565b6107aa576107aa81336112a8565b5f6107b9888888888888610c53565b90506107c581856112e1565b6107d18888888861132f565b5f817fc2617efa69bab66782fa219543714338489c4e9e178271560a91b82c3f612b588a8a8a8a6040516108089493929190611cfb565b60405180910390a3610819816113a3565b5050505050505050565b5f60025b61083083610a54565b60038111156108415761084161185a565b1492915050565b5f6003610827565b5f8281526020819052604090206001015461086a816111e9565b505050565b5f8061087a83610a54565b600381111561088b5761088b61185a565b141592915050565b6001600160a01b03811633146108bc5760405163334bd91960e11b815260040160405180910390fd5b5050565b600354604051632474521560e21b81527fe7276a2a84d8de556657ec9cf93a55a7d66f096e529d0582ed08e9e2208b92b5600482018190523360248301529161010090046001600160a01b0316906391d1485490604401602060405180830381865afa158015610932573d5f5f3e3d5ffd5b505050506040513d601f19601f820116820180604052508101906109569190611d23565b6109965760405162461bcd60e51b815260206004820152600c60248201526b15539055551213d49256915160a21b60448201526064015b60405180910390fd5b61099e6113ce565b50565b5f5f6109ac83610a54565b905060018160038111156109c2576109c261185a565b14806109df575060028160038111156109dd576109dd61185a565b145b9392505050565b33308114610a125760405163e2850c5960e01b81526001600160a01b038216600482015260240161098d565b60025460408051918252602082018490527f11c24f4ead16507c69ac467fbd5e4eed5fb5c699626d2cc6d66421df253886d5910160405180910390a150600255565b5f81815260016020526040812054805f03610a7157505f92915050565b60018103610a825750600392915050565b42811115610a935750600192915050565b50600292915050565b600354604051632474521560e21b81527f1a6838efa4183e08fe3607359d1259272af9d4716f65e1a7b5921f78fd5a3c6a6004820181905233602483015260609290916101009091046001600160a01b0316906391d1485490604401602060405180830381865afa158015610b13573d5f5f3e3d5ffd5b505050506040513d601f19601f82011682018060405250810190610b379190611d23565b610b725760405162461bcd60e51b815260206004820152600c60248201526b15539055551213d49256915160a21b604482015260640161098d565b5092915050565b600354604051632474521560e21b81527f1a6838efa4183e08fe3607359d1259272af9d4716f65e1a7b5921f78fd5a3c6a600482018190523360248301529161010090046001600160a01b0316906391d1485490604401602060405180830381865afa158015610beb573d5f5f3e3d5ffd5b505050506040513d601f19601f82011682018060405250810190610c0f9190611d23565b610c4a5760405162461bcd60e51b815260206004820152600c60248201526b15539055551213d49256915160a21b604482015260640161098d565b6108bc82611420565b5f868686868686604051602001610c6f96959493929190611cbe565b6040516020818303038152906040528051906020012090509695505050505050565b600354604051632474521560e21b81527ffcb9fcbfa83b897fb2d5cf4b58962164105c1e71489a37ef3ae0db3fdce576f6600482018190523360248301529161010090046001600160a01b0316906391d1485490604401602060405180830381865afa158015610d03573d5f5f3e3d5ffd5b505050506040513d601f19601f82011682018060405250810190610d279190611d23565b610d625760405162461bcd60e51b815260206004820152600c60248201526b15539055551213d49256915160a21b604482015260640161098d565b61099e611486565b7fb09aa5aeb3702cfd50b6b62bc4532604938f21248a27a1d5ca736082b6819cc1610d94816111e9565b8887141580610da35750888514155b15610dd5576040516001624fcdef60e01b03198152600481018a9052602481018690526044810188905260640161098d565b5f610de68b8b8b8b8b8b8b8b610f7a565b9050610df281846111f3565b5f5b8a811015610ea75780827f4cf4410cc57040e44862ef0f45f3dd5a5e02db8eb8add648d4b0e236f1d07dca8e8e85818110610e3157610e31611d42565b9050602002016020810190610e469190611998565b8d8d86818110610e5857610e58611d42565b905060200201358c8c87818110610e7157610e71611d42565b9050602002810190610e839190611d56565b8c8b604051610e9796959493929190611cbe565b60405180910390a3600101610df4565b508315610ee957807f20fda5fd27a1ea7bf5b9567f143ac5470bb059374a27e8f67cb44f946f6d038785604051610ee091815260200190565b60405180910390a25b5050505050505050505050565b6003545f9061010090046001600160a01b0316604051632474521560e21b8152600481018590526001600160a01b03848116602483015291909116906391d1485490604401602060405180830381865afa158015610f56573d5f5f3e3d5ffd5b505050506040513d601f19601f820116820180604052508101906109df9190611d23565b5f8888888888888888604051602001610f9a989796959493929190611e2e565b60405160208183030381529060405280519060200120905098975050505050505050565b7ffd643c72710c63c0180259aba6b2d05451e3591a24e58b62239378085726f783610fe8816111e9565b610ff1826109a1565b61102d578161100060026114c3565b61100a60016114c3565b604051635ead8eb560e01b8152600481019390935217602482015260440161098d565b5f828152600160205260408082208290555183917fbaa1eb22f2a492ba1a5fea61b8df4d27c6c8b5f3971e63bb58fa14ff72eedb7091a25050565b7fd8aa0f3194971a2a116679f7c2090f6939c8d4e01a2a8d7e41d55e5351469e63611093815f610ef6565b6110a1576110a181336112a8565b87861415806110b05750878414155b156110e2576040516001624fcdef60e01b0319815260048101899052602481018590526044810187905260640161098d565b5f6110f38a8a8a8a8a8a8a8a610f7a565b90506110ff81856112e1565b5f5b898110156111d3575f8b8b8381811061111c5761111c611d42565b90506020020160208101906111319190611998565b90505f8a8a8481811061114657611146611d42565b905060200201359050365f8a8a8681811061116357611163611d42565b90506020028101906111759190611d56565b915091506111858484848461132f565b84867fc2617efa69bab66782fa219543714338489c4e9e178271560a91b82c3f612b58868686866040516111bc9493929190611cfb565b60405180910390a350505050806001019050611101565b506111dd816113a3565b50505050505050505050565b61099e81336112a8565b6111fc8261086f565b1561122d578161120b5f6114c3565b604051635ead8eb560e01b81526004810192909252602482015260440161098d565b5f61123760025490565b90508082101561126457604051635433660960e01b8152600481018390526024810182905260440161098d565b61126e8242611ecd565b5f93845260016020526040909320929092555050565b5f6001600160e01b03198216630271189760e51b148061076b575061076b826114e5565b6112b28282610ef6565b6108bc5760405163e2517d3f60e01b81526001600160a01b03821660048201526024810183905260440161098d565b6112ea82610823565b6112f9578161120b60026114c3565b801580159061130e575061130c81610848565b155b156108bc5760405163121534c360e31b81526004810182905260240161098d565b5f5f856001600160a01b031685858560405161134c929190611eec565b5f6040518083038185875af1925050503d805f8114611386576040519150601f19603f3d011682016040523d82523d5f602084013e61138b565b606091505b509150915061139a8282611519565b50505050505050565b6113ac81610823565b6113bb578061120b60026114c3565b5f90815260016020819052604090912055565b6113d6611535565b6003805460ff191690557f5db9ee0a495bf2e6ff9c91a7834c1ba4fdd244a5e8aa4e537bd38aeae4b073aa335b6040516001600160a01b03909116815260200160405180910390a1565b600380546001600160a01b0383811661010081810274ffffffffffffffffffffffffffffffffffffffff001985161790945560405193909204169182907f9209b7c8c06dcfd261686a663e7c55989337b18d59da5433c6f2835fb6970920905f90a35050565b61148e61155a565b6003805460ff191660011790557f62e78cea01bee320cd4e420270b5ea74000d11b0c9f74754ebdbfc544b05a2586114033390565b5f8160038111156114d6576114d661185a565b600160ff919091161b92915050565b5f6001600160e01b03198216637965db0b60e01b148061076b57506301ffc9a760e01b6001600160e01b031983161461076b565b60608261152e576115298261157e565b61076b565b508061076b565b60035460ff1661155857604051638dfc202b60e01b815260040160405180910390fd5b565b60035460ff16156115585760405163d93c066560e01b815260040160405180910390fd5b80511561158e5780518082602001fd5b60405163d6bda27560e01b815260040160405180910390fd5b80356001600160a01b03811681146115bd575f5ffd5b919050565b5f5f83601f8401126115d2575f5ffd5b50813567ffffffffffffffff8111156115e9575f5ffd5b602083019150836020828501011115611600575f5ffd5b9250929050565b5f5f5f5f5f5f5f60c0888a03121561161d575f5ffd5b611626886115a7565b965060208801359550604088013567ffffffffffffffff811115611648575f5ffd5b6116548a828b016115c2565b989b979a50986060810135976080820135975060a09091013595509350505050565b5f60208284031215611686575f5ffd5b81356001600160e01b0319811681146109df575f5ffd5b5f5f5f5f5f5f60a087890312156116b2575f5ffd5b6116bb876115a7565b955060208701359450604087013567ffffffffffffffff8111156116dd575f5ffd5b6116e989828a016115c2565b979a9699509760608101359660809091013595509350505050565b5f60208284031215611714575f5ffd5b5035919050565b634e487b7160e01b5f52604160045260245ffd5b604051601f8201601f1916810167ffffffffffffffff811182821017156117585761175861171b565b604052919050565b5f82601f83011261176f575f5ffd5b813567ffffffffffffffff8111156117895761178961171b565b61179c601f8201601f191660200161172f565b8181528460208386010111156117b0575f5ffd5b816020850160208301375f918101602001919091529392505050565b5f5f5f5f608085870312156117df575f5ffd5b6117e8856115a7565b93506117f6602086016115a7565b925060408501359150606085013567ffffffffffffffff811115611818575f5ffd5b61182487828801611760565b91505092959194509250565b5f5f60408385031215611841575f5ffd5b82359150611851602084016115a7565b90509250929050565b634e487b7160e01b5f52602160045260245ffd5b602081016004831061188e57634e487b7160e01b5f52602160045260245ffd5b91905290565b5f5f83601f8401126118a4575f5ffd5b50813567ffffffffffffffff8111156118bb575f5ffd5b6020830191508360208260051b8501011115611600575f5ffd5b5f5f602083850312156118e6575f5ffd5b823567ffffffffffffffff8111156118fc575f5ffd5b61190885828601611894565b90969095509350505050565b5f602082016020835280845180835260408501915060408160051b8601019250602086015f5b8281101561198c57603f19878603018452815180518087528060208301602089015e5f602082890101526020601f19601f8301168801019650505060208201915060208401935060018101905061193a565b50929695505050505050565b5f602082840312156119a8575f5ffd5b6109df826115a7565b5f5f5f5f5f5f5f5f5f60c08a8c0312156119c9575f5ffd5b893567ffffffffffffffff8111156119df575f5ffd5b6119eb8c828d01611894565b909a5098505060208a013567ffffffffffffffff811115611a0a575f5ffd5b611a168c828d01611894565b90985096505060408a013567ffffffffffffffff811115611a35575f5ffd5b611a418c828d01611894565b9a9d999c50979a969997986060880135976080810135975060a0013595509350505050565b5f5f5f5f5f5f5f5f60a0898b031215611a7d575f5ffd5b883567ffffffffffffffff811115611a93575f5ffd5b611a9f8b828c01611894565b909950975050602089013567ffffffffffffffff811115611abe575f5ffd5b611aca8b828c01611894565b909750955050604089013567ffffffffffffffff811115611ae9575f5ffd5b611af58b828c01611894565b999c989b509699959896976060870135966080013595509350505050565b5f82601f830112611b22575f5ffd5b813567ffffffffffffffff811115611b3c57611b3c61171b565b8060051b611b4c6020820161172f565b91825260208185018101929081019086841115611b67575f5ffd5b6020860192505b83831015611b89578235825260209283019290910190611b6e565b9695505050505050565b5f5f5f5f5f60a08688031215611ba7575f5ffd5b611bb0866115a7565b9450611bbe602087016115a7565b9350604086013567ffffffffffffffff811115611bd9575f5ffd5b611be588828901611b13565b935050606086013567ffffffffffffffff811115611c01575f5ffd5b611c0d88828901611b13565b925050608086013567ffffffffffffffff811115611c29575f5ffd5b611c3588828901611760565b9150509295509295909350565b5f5f5f5f5f60a08688031215611c56575f5ffd5b611c5f866115a7565b9450611c6d602087016115a7565b93506040860135925060608601359150608086013567ffffffffffffffff811115611c29575f5ffd5b81835281816020850137505f828201602090810191909152601f909101601f19169091010190565b6001600160a01b038716815285602082015260a060408201525f611ce660a083018688611c96565b60608301949094525060800152949350505050565b6001600160a01b0385168152836020820152606060408201525f611b89606083018486611c96565b5f60208284031215611d33575f5ffd5b815180151581146109df575f5ffd5b634e487b7160e01b5f52603260045260245ffd5b5f5f8335601e19843603018112611d6b575f5ffd5b83018035915067ffffffffffffffff821115611d85575f5ffd5b602001915036819003821315611600575f5ffd5b5f8383855260208501945060208460051b820101835f5b86811015611e2257838303601f19018852813536879003601e19018112611dd5575f5ffd5b860160208101903567ffffffffffffffff811115611df1575f5ffd5b803603821315611dff575f5ffd5b611e0a858284611c96565b60209a8b019a90955093909301925050600101611db0565b50909695505050505050565b60a080825281018890525f8960c08301825b8b811015611e6e576001600160a01b03611e59846115a7565b16825260209283019290910190600101611e40565b5083810360208501528881526001600160fb1b03891115611e8d575f5ffd5b8860051b9150818a60208301370182810360209081016040850152611eb59082018789611d99565b60608401959095525050608001529695505050505050565b8082018082111561076b57634e487b7160e01b5f52601160045260245ffd5b818382375f910190815291905056fea2646970667358221220ea0ce5cec3ac4c3664f09e1ffa33ad4d73769ac12410e0a14360669d2c246aeb64736f6c634300081c0033","linkReferences":{}},"methodIdentifiers":{"CANCELLER_ROLE()":"b08e51c0","DEFAULT_ADMIN_ROLE()":"a217fddf","EXECUTOR_ROLE()":"07bd0265","PROPOSER_ROLE()":"8f61f4f5","cancel(bytes32)":"c4d252f5","core()":"f2f4eb26","emergencyAction((address,uint256,bytes)[])":"7df3927e","execute(address,uint256,bytes,bytes32,bytes32)":"134008d3","executeBatch(address[],uint256[],bytes[],bytes32,bytes32)":"e38335e5","getMinDelay()":"f27a0c92","getOperationState(bytes32)":"7958004c","getRoleAdmin(bytes32)":"248a9ca3","getTimestamp(bytes32)":"d45c4435","grantRole(bytes32,address)":"2f2ff15d","hasRole(bytes32,address)":"91d14854","hashOperation(address,uint256,bytes,bytes32,bytes32)":"8065657f","hashOperationBatch(address[],uint256[],bytes[],bytes32,bytes32)":"b1c5f427","isOperation(bytes32)":"31d50750","isOperationDone(bytes32)":"2ab0f529","isOperationPending(bytes32)":"584b153e","isOperationReady(bytes32)":"13bc9f20","onERC1155BatchReceived(address,address,uint256[],uint256[],bytes)":"bc197c81","onERC1155Received(address,address,uint256,uint256,bytes)":"f23a6e61","onERC721Received(address,address,uint256,bytes)":"150b7a02","pause()":"8456cb59","paused()":"5c975abb","renounceRole(bytes32,address)":"36568abe","revokeRole(bytes32,address)":"d547741f","schedule(address,uint256,bytes,bytes32,bytes32,uint256)":"01d5062a","scheduleBatch(address[],uint256[],bytes[],bytes32,bytes32,uint256)":"8f2a0bb0","setCore(address)":"80009630","supportsInterface(bytes4)":"01ffc9a7","unpause()":"3f4ba83a","updateDelay(uint256)":"64d62353"},"id":80}