{"abi":[{"type":"constructor","inputs":[{"name":"_core","type":"address","internalType":"address"},{"name":"_accounting","type":"address","internalType":"address"},{"name":"_allocationVoting","type":"address","internalType":"address"}],"stateMutability":"nonpayable"},{"type":"function","name":"accounting","inputs":[],"outputs":[{"name":"","type":"address","internalType":"address"}],"stateMutability":"view"},{"type":"function","name":"afterMint","inputs":[{"name":"","type":"address","internalType":"address"},{"name":"_assetsIn","type":"uint256","internalType":"uint256"}],"outputs":[],"stateMutability":"nonpayable"},{"type":"function","name":"allocationVoting","inputs":[],"outputs":[{"name":"","type":"address","internalType":"address"}],"stateMutability":"view"},{"type":"function","name":"core","inputs":[],"outputs":[{"name":"","type":"address","internalType":"contract InfiniFiCore"}],"stateMutability":"view"},{"type":"function","name":"emergencyAction","inputs":[{"name":"calls","type":"tuple[]","internalType":"struct CoreControlled.Call[]","components":[{"name":"target","type":"address","internalType":"address"},{"name":"value","type":"uint256","internalType":"uint256"},{"name":"callData","type":"bytes","internalType":"bytes"}]}],"outputs":[{"name":"returnData","type":"bytes[]","internalType":"bytes[]"}],"stateMutability":"payable"},{"type":"function","name":"pause","inputs":[],"outputs":[],"stateMutability":"nonpayable"},{"type":"function","name":"paused","inputs":[],"outputs":[{"name":"","type":"bool","internalType":"bool"}],"stateMutability":"view"},{"type":"function","name":"setCore","inputs":[{"name":"newCore","type":"address","internalType":"address"}],"outputs":[],"stateMutability":"nonpayable"},{"type":"function","name":"unpause","inputs":[],"outputs":[],"stateMutability":"nonpayable"},{"type":"event","name":"CoreUpdate","inputs":[{"name":"oldCore","type":"address","indexed":true,"internalType":"address"},{"name":"newCore","type":"address","indexed":true,"internalType":"address"}],"anonymous":false},{"type":"event","name":"Paused","inputs":[{"name":"account","type":"address","indexed":false,"internalType":"address"}],"anonymous":false},{"type":"event","name":"Unpaused","inputs":[{"name":"account","type":"address","indexed":false,"internalType":"address"}],"anonymous":false},{"type":"error","name":"AssetNotEnabled","inputs":[{"name":"_asset","type":"address","internalType":"address"}]},{"type":"error","name":"EnforcedPause","inputs":[]},{"type":"error","name":"ExpectedPause","inputs":[]},{"type":"error","name":"NoFarmsFound","inputs":[]},{"type":"error","name":"UnderlyingCallReverted","inputs":[{"name":"returnData","type":"bytes","internalType":"bytes"}]}],"bytecode":{"object":"0x6080604052348015600e575f5ffd5b50604051611268380380611268833981016040819052602b91608d565b5f80546001600160a01b03948516610100026001600160a81b0319909116179055600180549284166001600160a01b03199384161790556002805491909316911617905560c6565b80516001600160a01b03811681146088575f5ffd5b919050565b5f5f5f60608486031215609e575f5ffd5b60a5846073565b925060b1602085016073565b915060bd604085016073565b90509250925092565b611195806100d35f395ff3fe608060405260043610610084575f3560e01c80638000963011610057578063800096301461011b5780638456cb591461013a5780638a2fa94c1461014e5780639624e83e1461016d578063f2f4eb261461018c575f5ffd5b806329e20e90146100885780633f4ba83a146100c45780635c975abb146100da5780637df3927e146100fb575b5f5ffd5b348015610093575f5ffd5b506002546100a7906001600160a01b031681565b6040516001600160a01b0390911681526020015b60405180910390f35b3480156100cf575f5ffd5b506100d86101ad565b005b3480156100e5575f5ffd5b505f5460ff1660405190151581526020016100bb565b61010e610109366004610d46565b61028d565b6040516100bb9190610de5565b348015610126575f5ffd5b506100d8610135366004610e5c565b61050f565b348015610145575f5ffd5b506100d86105ec565b348015610159575f5ffd5b506100d8610168366004610e7e565b6106c4565b348015610178575f5ffd5b506001546100a7906001600160a01b031681565b348015610197575f5ffd5b505f5461010090046001600160a01b03166100a7565b5f54604051632474521560e21b81527fe7276a2a84d8de556657ec9cf93a55a7d66f096e529d0582ed08e9e2208b92b5600482018190523360248301529161010090046001600160a01b0316906391d1485490604401602060405180830381865afa15801561021e573d5f5f3e3d5ffd5b505050506040513d601f19601f820116820180604052508101906102429190610ea8565b6102825760405162461bcd60e51b815260206004820152600c60248201526b15539055551213d49256915160a21b60448201526064015b60405180910390fd5b61028a610b06565b50565b5f54604051632474521560e21b81527f1a6838efa4183e08fe3607359d1259272af9d4716f65e1a7b5921f78fd5a3c6a6004820181905233602483015260609290916101009091046001600160a01b0316906391d1485490604401602060405180830381865afa158015610303573d5f5f3e3d5ffd5b505050506040513d601f19601f820116820180604052508101906103279190610ea8565b6103625760405162461bcd60e51b815260206004820152600c60248201526b15539055551213d49256915160a21b6044820152606401610279565b8267ffffffffffffffff81111561037b5761037b610ec7565b6040519080825280602002602001820160405280156103ae57816020015b60608152602001906001900390816103995790505b5091505f5b83811015610507575f8585838181106103ce576103ce610edb565b90506020028101906103e09190610eef565b6103ee906020810190610e5c565b90505f86868481811061040357610403610edb565b90506020028101906104159190610eef565b602001359050365f88888681811061042f5761042f610edb565b90506020028101906104419190610eef565b61044f906040810190610f0d565b915091505f5f856001600160a01b0316858585604051610470929190610f57565b5f6040518083038185875af1925050503d805f81146104aa576040519150601f19603f3d011682016040523d82523d5f602084013e6104af565b606091505b50915091508181906104d557604051634ad176bb60e01b81526004016102799190610f66565b50808988815181106104e9576104e9610edb565b602002602001018190525050505050505080806001019150506103b3565b505092915050565b5f54604051632474521560e21b81527f1a6838efa4183e08fe3607359d1259272af9d4716f65e1a7b5921f78fd5a3c6a600482018190523360248301529161010090046001600160a01b0316906391d1485490604401602060405180830381865afa158015610580573d5f5f3e3d5ffd5b505050506040513d601f19601f820116820180604052508101906105a49190610ea8565b6105df5760405162461bcd60e51b815260206004820152600c60248201526b15539055551213d49256915160a21b6044820152606401610279565b6105e882610b57565b5050565b5f54604051632474521560e21b81527ffcb9fcbfa83b897fb2d5cf4b58962164105c1e71489a37ef3ae0db3fdce576f6600482018190523360248301529161010090046001600160a01b0316906391d1485490604401602060405180830381865afa15801561065d573d5f5f3e3d5ffd5b505050506040513d601f19601f820116820180604052508101906106819190610ea8565b6106bc5760405162461bcd60e51b815260206004820152600c60248201526b15539055551213d49256915160a21b6044820152606401610279565b61028a610bbc565b5f54604051632474521560e21b81527f615a688d53344290b742a2e72e4f187e5b88227c01f9d77ce2406d32f8bd0eda600482018190523360248301529161010090046001600160a01b0316906391d1485490604401602060405180830381865afa158015610735573d5f5f3e3d5ffd5b505050506040513d601f19601f820116820180604052508101906107599190610ea8565b6107945760405162461bcd60e51b815260206004820152600c60248201526b15539055551213d49256915160a21b6044820152606401610279565b5f5460ff16610b01575f336001600160a01b0316631083f7616040518163ffffffff1660e01b8152600401602060405180830381865afa1580156107da573d5f5f3e3d5ffd5b505050506040513d601f19601f820116820180604052508101906107fe9190610f78565b90505f60015f9054906101000a90046001600160a01b03166001600160a01b03166387418e4a6040518163ffffffff1660e01b8152600401602060405180830381865afa158015610851573d5f5f3e3d5ffd5b505050506040513d601f19601f820116820180604052508101906108759190610f78565b60405163114cb92f60e01b81526001600160a01b038481166004830152919091169063114cb92f90602401602060405180830381865afa1580156108bb573d5f5f3e3d5ffd5b505050506040513d601f19601f820116820180604052508101906108df9190610ea8565b9050818161090c5760405163f6f24b8360e01b81526001600160a01b039091166004820152602401610279565b506001805460405163018b371760e41b81526001600160a01b03858116600483015260248201939093525f92909116906318b3717090604401602060405180830381865afa158015610960573d5f5f3e3d5ffd5b505050506040513d601f19601f820116820180604052508101906109849190610f93565b6002546040516386644ac760e01b81526001600160a01b038681166004830152600160248301529293505f92839283929116906386644ac7906044015f60405180830381865afa1580156109da573d5f5f3e3d5ffd5b505050506040513d5f823e601f3d908101601f19168201604052610a019190810190611068565b9250925092505f835111610a285760405163128af34560e21b815260040160405180910390fd5b5f610a36848484888d610bf8565b90506001600160a01b038116610a525750505050505050505050565b604051627b8a6760e11b8152600481018a90526001600160a01b0382166024820152339062f714ce906044015f604051808303815f87803b158015610a95575f5ffd5b505af1158015610aa7573d5f5f3e3d5ffd5b50505050806001600160a01b031663d0e30db06040518163ffffffff1660e01b81526004015f604051808303815f87803b158015610ae3575f5ffd5b505af1158015610af5573d5f5f3e3d5ffd5b50505050505050505050505b505050565b610b0e610cff565b5f805460ff191690557f5db9ee0a495bf2e6ff9c91a7834c1ba4fdd244a5e8aa4e537bd38aeae4b073aa335b6040516001600160a01b03909116815260200160405180910390a1565b5f80546001600160a01b0383811661010081810274ffffffffffffffffffffffffffffffffffffffff0019851617855560405193049190911692909183917f9209b7c8c06dcfd261686a663e7c55989337b18d59da5433c6f2835fb697092091a35050565b610bc4610d23565b5f805460ff191660011790557f62e78cea01bee320cd4e420270b5ea74000d11b0c9f74754ebdbfc544b05a258610b3a3390565b84515f9081906001600160ff1b03610c10858761113a565b95505f5b82811015610cd6575f8a8281518110610c2f57610c2f610edb565b60200260200101516001600160a01b03166371a973056040518163ffffffff1660e01b8152600401602060405180830381865afa158015610c72573d5f5f3e3d5ffd5b505050506040513d601f19601f82011682018060405250810190610c969190610f93565b90505f888b8481518110610cac57610cac610edb565b6020026020010151028a8984010203905083811215610ccc578093508295505b5050600101610c14565b50888381518110610ce957610ce9610edb565b6020026020010151935050505095945050505050565b5f5460ff16610d2157604051638dfc202b60e01b815260040160405180910390fd5b565b5f5460ff1615610d215760405163d93c066560e01b815260040160405180910390fd5b5f5f60208385031215610d57575f5ffd5b823567ffffffffffffffff811115610d6d575f5ffd5b8301601f81018513610d7d575f5ffd5b803567ffffffffffffffff811115610d93575f5ffd5b8560208260051b8401011115610da7575f5ffd5b6020919091019590945092505050565b5f81518084528060208401602086015e5f602082860101526020601f19601f83011685010191505092915050565b5f602082016020835280845180835260408501915060408160051b8601019250602086015f5b82811015610e3c57603f19878603018452610e27858351610db7565b94506020938401939190910190600101610e0b565b50929695505050505050565b6001600160a01b038116811461028a575f5ffd5b5f60208284031215610e6c575f5ffd5b8135610e7781610e48565b9392505050565b5f5f60408385031215610e8f575f5ffd5b8235610e9a81610e48565b946020939093013593505050565b5f60208284031215610eb8575f5ffd5b81518015158114610e77575f5ffd5b634e487b7160e01b5f52604160045260245ffd5b634e487b7160e01b5f52603260045260245ffd5b5f8235605e19833603018112610f03575f5ffd5b9190910192915050565b5f5f8335601e19843603018112610f22575f5ffd5b83018035915067ffffffffffffffff821115610f3c575f5ffd5b602001915036819003821315610f50575f5ffd5b9250929050565b818382375f9101908152919050565b602081525f610e776020830184610db7565b5f60208284031215610f88575f5ffd5b8151610e7781610e48565b5f60208284031215610fa3575f5ffd5b5051919050565b604051601f8201601f1916810167ffffffffffffffff81118282101715610fd357610fd3610ec7565b604052919050565b5f67ffffffffffffffff821115610ff457610ff4610ec7565b5060051b60200190565b5f82601f83011261100d575f5ffd5b815161102061101b82610fdb565b610faa565b8082825260208201915060208360051b860101925085831115611041575f5ffd5b602085015b8381101561105e578051835260209283019201611046565b5095945050505050565b5f5f5f6060848603121561107a575f5ffd5b835167ffffffffffffffff811115611090575f5ffd5b8401601f810186136110a0575f5ffd5b80516110ae61101b82610fdb565b8082825260208201915060208360051b8501019250888311156110cf575f5ffd5b6020840193505b828410156110fa5783516110e981610e48565b8252602093840193909101906110d6565b80965050505050602084015167ffffffffffffffff81111561111a575f5ffd5b61112686828701610ffe565b604095909501519396949550929392505050565b8082018082111561115957634e487b7160e01b5f52601160045260245ffd5b9291505056fea264697066735822122084af7de88430dc0f4d8af9e9df88c5f1ddde8fc3451a596ec4440e3907370e9864736f6c634300081c0033","linkReferences":{}},"methodIdentifiers":{"accounting()":"9624e83e","afterMint(address,uint256)":"8a2fa94c","allocationVoting()":"29e20e90","core()":"f2f4eb26","emergencyAction((address,uint256,bytes)[])":"7df3927e","pause()":"8456cb59","paused()":"5c975abb","setCore(address)":"80009630","unpause()":"3f4ba83a"},"id":87}