{"abi":[{"type":"constructor","inputs":[{"name":"_aToken","type":"address","internalType":"address"},{"name":"_aaveV3Pool","type":"address","internalType":"address"},{"name":"_core","type":"address","internalType":"address"},{"name":"_assetToken","type":"address","internalType":"address"}],"stateMutability":"nonpayable"},{"type":"function","name":"aToken","inputs":[],"outputs":[{"name":"","type":"address","internalType":"address"}],"stateMutability":"view"},{"type":"function","name":"assetToken","inputs":[],"outputs":[{"name":"","type":"address","internalType":"address"}],"stateMutability":"view"},{"type":"function","name":"assets","inputs":[],"outputs":[{"name":"","type":"uint256","internalType":"uint256"}],"stateMutability":"view"},{"type":"function","name":"cap","inputs":[],"outputs":[{"name":"","type":"uint256","internalType":"uint256"}],"stateMutability":"view"},{"type":"function","name":"core","inputs":[],"outputs":[{"name":"","type":"address","internalType":"contract InfiniFiCore"}],"stateMutability":"view"},{"type":"function","name":"deposit","inputs":[],"outputs":[],"stateMutability":"nonpayable"},{"type":"function","name":"emergencyAction","inputs":[{"name":"calls","type":"tuple[]","internalType":"struct CoreControlled.Call[]","components":[{"name":"target","type":"address","internalType":"address"},{"name":"value","type":"uint256","internalType":"uint256"},{"name":"callData","type":"bytes","internalType":"bytes"}]}],"outputs":[{"name":"returnData","type":"bytes[]","internalType":"bytes[]"}],"stateMutability":"payable"},{"type":"function","name":"lendingPool","inputs":[],"outputs":[{"name":"","type":"address","internalType":"address"}],"stateMutability":"view"},{"type":"function","name":"liquidity","inputs":[],"outputs":[{"name":"","type":"uint256","internalType":"uint256"}],"stateMutability":"view"},{"type":"function","name":"maxDeposit","inputs":[],"outputs":[{"name":"","type":"uint256","internalType":"uint256"}],"stateMutability":"view"},{"type":"function","name":"maxSlippage","inputs":[],"outputs":[{"name":"","type":"uint256","internalType":"uint256"}],"stateMutability":"view"},{"type":"function","name":"pause","inputs":[],"outputs":[],"stateMutability":"nonpayable"},{"type":"function","name":"paused","inputs":[],"outputs":[{"name":"","type":"bool","internalType":"bool"}],"stateMutability":"view"},{"type":"function","name":"setCap","inputs":[{"name":"_newCap","type":"uint256","internalType":"uint256"}],"outputs":[],"stateMutability":"nonpayable"},{"type":"function","name":"setCore","inputs":[{"name":"newCore","type":"address","internalType":"address"}],"outputs":[],"stateMutability":"nonpayable"},{"type":"function","name":"setMaxSlippage","inputs":[{"name":"_maxSlippage","type":"uint256","internalType":"uint256"}],"outputs":[],"stateMutability":"nonpayable"},{"type":"function","name":"unpause","inputs":[],"outputs":[],"stateMutability":"nonpayable"},{"type":"function","name":"withdraw","inputs":[{"name":"amount","type":"uint256","internalType":"uint256"},{"name":"to","type":"address","internalType":"address"}],"outputs":[],"stateMutability":"nonpayable"},{"type":"event","name":"AssetsUpdated","inputs":[{"name":"timestamp","type":"uint256","indexed":false,"internalType":"uint256"},{"name":"assetsBefore","type":"uint256","indexed":false,"internalType":"uint256"},{"name":"assetsAfter","type":"uint256","indexed":false,"internalType":"uint256"}],"anonymous":false},{"type":"event","name":"CapUpdated","inputs":[{"name":"newCap","type":"uint256","indexed":false,"internalType":"uint256"}],"anonymous":false},{"type":"event","name":"CoreUpdate","inputs":[{"name":"oldCore","type":"address","indexed":true,"internalType":"address"},{"name":"newCore","type":"address","indexed":true,"internalType":"address"}],"anonymous":false},{"type":"event","name":"MaxSlippageUpdated","inputs":[{"name":"newMaxSlippage","type":"uint256","indexed":false,"internalType":"uint256"}],"anonymous":false},{"type":"event","name":"Paused","inputs":[{"name":"account","type":"address","indexed":false,"internalType":"address"}],"anonymous":false},{"type":"event","name":"Unpaused","inputs":[{"name":"account","type":"address","indexed":false,"internalType":"address"}],"anonymous":false},{"type":"error","name":"CapExceeded","inputs":[{"name":"newAmount","type":"uint256","internalType":"uint256"},{"name":"cap","type":"uint256","internalType":"uint256"}]},{"type":"error","name":"EnforcedPause","inputs":[]},{"type":"error","name":"ExpectedPause","inputs":[]},{"type":"error","name":"SafeERC20FailedOperation","inputs":[{"name":"token","type":"address","internalType":"address"}]},{"type":"error","name":"SlippageTooHigh","inputs":[{"name":"minAssetsOut","type":"uint256","internalType":"uint256"},{"name":"assetsReceived","type":"uint256","internalType":"uint256"}]},{"type":"error","name":"UnderlyingCallReverted","inputs":[{"name":"returnData","type":"bytes","internalType":"bytes"}]}],"bytecode":{"object":"0x60e060405234801561000f575f5ffd5b50604051611fbc380380611fbc83398101604081905261002e9161008d565b5f80546001600160a81b0319166101006001600160a01b039485160217905581166080525f19600155670de0b5cad2bef00060025591821660a0521660c0526100de565b80516001600160a01b0381168114610088575f5ffd5b919050565b5f5f5f5f608085870312156100a0575f5ffd5b6100a985610072565b93506100b760208601610072565b92506100c560408601610072565b91506100d360608601610072565b905092959194509250565b60805160a05160c051611e446101785f395f81816102f7015281816104f70152818161120b015281816112ec015281816116a0015261171701525f81816102c4015281816106890152610a8b01525f818161013a015281816105eb015281816106b301528181611027015281816111d4015281816113e00152818161146b015281816115150152818161167e01526116dc0152611e445ff3fe608060405260043610610104575f3560e01c806371a97305116100925780638c04166f116100625780638c04166f1461029e578063a0c1f15e146102b3578063a59a9973146102e6578063d0e30db014610319578063f2f4eb261461032d575f5ffd5b806371a97305146102375780637df3927e1461024b578063800096301461026b5780638456cb591461028a575f5ffd5b80633f4ba83a116100d85780633f4ba83a146101b057806343f68a49146101c457806347786d37146101e35780635c975abb146102025780636083e59a14610223575f5ffd5b8062f714ce146101085780631083f761146101295780631a68650214610179578063355274ea1461019b575b5f5ffd5b348015610113575f5ffd5b50610127610122366004611930565b61034e565b005b348015610134575f5ffd5b5061015c7f000000000000000000000000000000000000000000000000000000000000000081565b6040516001600160a01b0390911681526020015b60405180910390f35b348015610184575f5ffd5b5061018d6104e8565b604051908152602001610170565b3480156101a6575f5ffd5b5061018d60015481565b3480156101bb575f5ffd5b50610127610738565b3480156101cf575f5ffd5b506101276101de36600461195e565b610813565b3480156101ee575f5ffd5b506101276101fd36600461195e565b610920565b34801561020d575f5ffd5b505f5460ff166040519015158152602001610170565b34801561022e575f5ffd5b5061018d610a25565b348015610242575f5ffd5b5061018d610a74565b61025e610259366004611975565b610b01565b6040516101709190611a14565b348015610276575f5ffd5b50610127610285366004611a77565b610d83565b348015610295575f5ffd5b50610127610e60565b3480156102a9575f5ffd5b5061018d60025481565b3480156102be575f5ffd5b5061015c7f000000000000000000000000000000000000000000000000000000000000000081565b3480156102f1575f5ffd5b5061015c7f000000000000000000000000000000000000000000000000000000000000000081565b348015610324575f5ffd5b50610127610f38565b348015610338575f5ffd5b505f5461010090046001600160a01b031661015c565b5f54604051632474521560e21b81527f5f33620cda06d02d58df96005b92bc83bd059a566e48e016372f3fbdc974e371600482018190523360248301529161010090046001600160a01b0316906391d1485490604401602060405180830381865afa1580156103bf573d5f5f3e3d5ffd5b505050506040513d601f19601f820116820180604052508101906103e39190611a99565b6104235760405162461bcd60e51b815260206004820152600c60248201526b15539055551213d49256915160a21b60448201526064015b60405180910390fd5b61042b611198565b5f610434610a74565b905061044084846111bd565b5f610449610a74565b90505f6104568284611acc565b90505f61046e6002548361127a90919063ffffffff16565b905080878181101561049c57604051633b5d56ed60e11b81526004810192909252602482015260440161041a565b505060408051428152602081018690529081018490527f35a901c4413e585f9121eb5cf07e67760bd4ac498dd031249e5cd2cd225f74e49060600160405180910390a150505050505050565b5f5f6104f2610a74565b90505f7f00000000000000000000000000000000000000000000000000000000000000006001600160a01b0316630542975c6040518163ffffffff1660e01b8152600401602060405180830381865afa158015610551573d5f5f3e3d5ffd5b505050506040513d601f19601f820116820180604052508101906105759190611adf565b6001600160a01b031663e860accb6040518163ffffffff1660e01b8152600401602060405180830381865afa1580156105b0573d5f5f3e3d5ffd5b505050506040513d601f19601f820116820180604052508101906105d49190611adf565b604051632d57664160e21b81526001600160a01b037f0000000000000000000000000000000000000000000000000000000000000000811660048301529192505f9183169063b55d990490602401602060405180830381865afa15801561063d573d5f5f3e3d5ffd5b505050506040513d601f19601f820116820180604052508101906106619190611a99565b90508015610672575f935050505090565b6040516370a0823160e01b81526001600160a01b037f0000000000000000000000000000000000000000000000000000000000000000811660048301525f917f0000000000000000000000000000000000000000000000000000000000000000909116906370a0823190602401602060405180830381865afa1580156106fa573d5f5f3e3d5ffd5b505050506040513d601f19601f8201168201806040525081019061071e9190611afa565b905083811061072d578361072f565b805b94505050505090565b5f54604051632474521560e21b81527fe7276a2a84d8de556657ec9cf93a55a7d66f096e529d0582ed08e9e2208b92b5600482018190523360248301529161010090046001600160a01b0316906391d1485490604401602060405180830381865afa1580156107a9573d5f5f3e3d5ffd5b505050506040513d601f19601f820116820180604052508101906107cd9190611a99565b6108085760405162461bcd60e51b815260206004820152600c60248201526b15539055551213d49256915160a21b604482015260640161041a565b610810611297565b50565b5f54604051632474521560e21b81527f3947e2f542c6c46c543fa4f79cbd1e27fea37ed249bc3caf992570d19123642e600482018190523360248301529161010090046001600160a01b0316906391d1485490604401602060405180830381865afa158015610884573d5f5f3e3d5ffd5b505050506040513d601f19601f820116820180604052508101906108a89190611a99565b6108e35760405162461bcd60e51b815260206004820152600c60248201526b15539055551213d49256915160a21b604482015260640161041a565b60028290556040518281527f9c922f6d0c990b250e9dd0a427a5c8da7f44b960f697fecb31cbbd8ba79ec8c2906020015b60405180910390a15050565b5f54604051632474521560e21b81527f3947e2f542c6c46c543fa4f79cbd1e27fea37ed249bc3caf992570d19123642e600482018190523360248301529161010090046001600160a01b0316906391d1485490604401602060405180830381865afa158015610991573d5f5f3e3d5ffd5b505050506040513d601f19601f820116820180604052508101906109b59190611a99565b6109f05760405162461bcd60e51b815260206004820152600c60248201526b15539055551213d49256915160a21b604482015260640161041a565b60018290556040518281527f3c8eb7c49d332f4c1e4d92a27cda93c31cc9452f7a408e0c6109fcddbc9946ea90602001610914565b5f5f610a2f610a74565b90506001548110610a41575f91505090565b5f610a4a6112e8565b90505f82600154610a5b9190611acc565b9050808210610a6a5780610a6c565b815b935050505090565b6040516370a0823160e01b81523060048201525f907f00000000000000000000000000000000000000000000000000000000000000006001600160a01b0316906370a0823190602401602060405180830381865afa158015610ad8573d5f5f3e3d5ffd5b505050506040513d601f19601f82011682018060405250810190610afc9190611afa565b905090565b5f54604051632474521560e21b81527f1a6838efa4183e08fe3607359d1259272af9d4716f65e1a7b5921f78fd5a3c6a6004820181905233602483015260609290916101009091046001600160a01b0316906391d1485490604401602060405180830381865afa158015610b77573d5f5f3e3d5ffd5b505050506040513d601f19601f82011682018060405250810190610b9b9190611a99565b610bd65760405162461bcd60e51b815260206004820152600c60248201526b15539055551213d49256915160a21b604482015260640161041a565b8267ffffffffffffffff811115610bef57610bef611b11565b604051908082528060200260200182016040528015610c2257816020015b6060815260200190600190039081610c0d5790505b5091505f5b83811015610d7b575f858583818110610c4257610c42611b25565b9050602002810190610c549190611b39565b610c62906020810190611a77565b90505f868684818110610c7757610c77611b25565b9050602002810190610c899190611b39565b602001359050365f888886818110610ca357610ca3611b25565b9050602002810190610cb59190611b39565b610cc3906040810190611b57565b915091505f5f856001600160a01b0316858585604051610ce4929190611ba1565b5f6040518083038185875af1925050503d805f8114610d1e576040519150601f19603f3d011682016040523d82523d5f602084013e610d23565b606091505b5091509150818190610d4957604051634ad176bb60e01b815260040161041a9190611bb0565b5080898881518110610d5d57610d5d611b25565b60200260200101819052505050505050508080600101915050610c27565b505092915050565b5f54604051632474521560e21b81527f1a6838efa4183e08fe3607359d1259272af9d4716f65e1a7b5921f78fd5a3c6a600482018190523360248301529161010090046001600160a01b0316906391d1485490604401602060405180830381865afa158015610df4573d5f5f3e3d5ffd5b505050506040513d601f19601f82011682018060405250810190610e189190611a99565b610e535760405162461bcd60e51b815260206004820152600c60248201526b15539055551213d49256915160a21b604482015260640161041a565b610e5c826115d0565b5050565b5f54604051632474521560e21b81527ffcb9fcbfa83b897fb2d5cf4b58962164105c1e71489a37ef3ae0db3fdce576f6600482018190523360248301529161010090046001600160a01b0316906391d1485490604401602060405180830381865afa158015610ed1573d5f5f3e3d5ffd5b505050506040513d601f19601f82011682018060405250810190610ef59190611a99565b610f305760405162461bcd60e51b815260206004820152600c60248201526b15539055551213d49256915160a21b604482015260640161041a565b610810611635565b5f54604051632474521560e21b81527f5f33620cda06d02d58df96005b92bc83bd059a566e48e016372f3fbdc974e371600482018190523360248301529161010090046001600160a01b0316906391d1485490604401602060405180830381865afa158015610fa9573d5f5f3e3d5ffd5b505050506040513d601f19601f82011682018060405250810190610fcd9190611a99565b6110085760405162461bcd60e51b815260206004820152600c60248201526b15539055551213d49256915160a21b604482015260640161041a565b611010611198565b6040516370a0823160e01b81523060048201525f907f00000000000000000000000000000000000000000000000000000000000000006001600160a01b0316906370a0823190602401602060405180830381865afa158015611074573d5f5f3e3d5ffd5b505050506040513d601f19601f820116820180604052508101906110989190611afa565b90505f6110a3610a74565b6001549091506110b38383611bc2565b11156110e8576110c38282611bc2565b60015460405163f480e28560e01b81526004810192909252602482015260440161041a565b6110f182611671565b5f6110fa610a74565b90505f6111078383611acc565b90505f61111f6002548661127a90919063ffffffff16565b905080828181101561114d57604051633b5d56ed60e11b81526004810192909252602482015260440161041a565b505060408051428152602081018690529081018490527f35a901c4413e585f9121eb5cf07e67760bd4ac498dd031249e5cd2cd225f74e49060600160405180910390a1505050505050565b5f5460ff16156111bb5760405163d93c066560e01b815260040160405180910390fd5b565b604051631a4ca37b60e21b81526001600160a01b037f0000000000000000000000000000000000000000000000000000000000000000811660048301526024820184905282811660448301527f000000000000000000000000000000000000000000000000000000000000000016906369328dec906064016020604051808303815f875af1158015611251573d5f5f3e3d5ffd5b505050506040513d601f19601f820116820180604052508101906112759190611afa565b505050565b5f61128e8383670de0b6b3a7640000611771565b90505b92915050565b61129f61178c565b5f805460ff191690557f5db9ee0a495bf2e6ff9c91a7834c1ba4fdd244a5e8aa4e537bd38aeae4b073aa335b6040516001600160a01b03909116815260200160405180910390a1565b5f5f7f00000000000000000000000000000000000000000000000000000000000000006001600160a01b0316630542975c6040518163ffffffff1660e01b8152600401602060405180830381865afa158015611346573d5f5f3e3d5ffd5b505050506040513d601f19601f8201168201806040525081019061136a9190611adf565b6001600160a01b031663e860accb6040518163ffffffff1660e01b8152600401602060405180830381865afa1580156113a5573d5f5f3e3d5ffd5b505050506040513d601f19601f820116820180604052508101906113c99190611adf565b6040516308df7cab60e31b81526001600160a01b037f0000000000000000000000000000000000000000000000000000000000000000811660048301529192505f918316906346fbe558906024016040805180830381865afa158015611431573d5f5f3e3d5ffd5b505050506040513d601f19601f820116820180604052508101906114559190611bd5565b915050805f03611468575f199250505090565b5f7f00000000000000000000000000000000000000000000000000000000000000006001600160a01b031663313ce5676040518163ffffffff1660e01b8152600401602060405180830381865afa1580156114c5573d5f5f3e3d5ffd5b505050506040513d601f19601f820116820180604052508101906114e99190611bf7565b6114f490600a611cfa565b6114fe9083611d08565b6040516335ea6a7560e01b81526001600160a01b037f0000000000000000000000000000000000000000000000000000000000000000811660048301529192505f918516906335ea6a759060240161018060405180830381865afa158015611568573d5f5f3e3d5ffd5b505050506040513d601f19601f8201168201806040525081019061158c9190611d6e565b905081816020015182604001516115a39190611bc2565b106115b2575f94505050505090565b806020015181604001516115c69190611bc2565b61072f9083611acc565b5f80546001600160a01b0383811661010081810274ffffffffffffffffffffffffffffffffffffffff0019851617855560405193049190911692909183917f9209b7c8c06dcfd261686a663e7c55989337b18d59da5433c6f2835fb697092091a35050565b61163d611198565b5f805460ff191660011790557f62e78cea01bee320cd4e420270b5ea74000d11b0c9f74754ebdbfc544b05a2586112cb3390565b6116c56001600160a01b037f0000000000000000000000000000000000000000000000000000000000000000167f0000000000000000000000000000000000000000000000000000000000000000836117ae565b60405163617ba03760e01b81526001600160a01b037f000000000000000000000000000000000000000000000000000000000000000081166004830152602482018390523060448301525f60648301527f0000000000000000000000000000000000000000000000000000000000000000169063617ba037906084015f604051808303815f87803b158015611758575f5ffd5b505af115801561176a573d5f5f3e3d5ffd5b5050505050565b5f825f190484118302158202611785575f5ffd5b5091020490565b5f5460ff166111bb57604051638dfc202b60e01b815260040160405180910390fd5b604080516001600160a01b038416602482015260448082018490528251808303909101815260649091019091526020810180516001600160e01b031663095ea7b360e01b1790526117ff8482611867565b61186157604080516001600160a01b03851660248201525f6044808301919091528251808303909101815260649091019091526020810180516001600160e01b031663095ea7b360e01b1790526118579085906118b0565b61186184826118b0565b50505050565b5f5f5f5f60205f8651602088015f8a5af192503d91505f5190508280156118a65750811561189857806001146118a6565b5f866001600160a01b03163b115b9695505050505050565b5f5f60205f8451602086015f885af1806118cf576040513d5f823e3d81fd5b50505f513d915081156118e65780600114156118f3565b6001600160a01b0384163b155b1561186157604051635274afe760e01b81526001600160a01b038516600482015260240161041a565b6001600160a01b0381168114610810575f5ffd5b5f5f60408385031215611941575f5ffd5b8235915060208301356119538161191c565b809150509250929050565b5f6020828403121561196e575f5ffd5b5035919050565b5f5f60208385031215611986575f5ffd5b823567ffffffffffffffff81111561199c575f5ffd5b8301601f810185136119ac575f5ffd5b803567ffffffffffffffff8111156119c2575f5ffd5b8560208260051b84010111156119d6575f5ffd5b6020919091019590945092505050565b5f81518084528060208401602086015e5f602082860101526020601f19601f83011685010191505092915050565b5f602082016020835280845180835260408501915060408160051b8601019250602086015f5b82811015611a6b57603f19878603018452611a568583516119e6565b94506020938401939190910190600101611a3a565b50929695505050505050565b5f60208284031215611a87575f5ffd5b8135611a928161191c565b9392505050565b5f60208284031215611aa9575f5ffd5b81518015158114611a92575f5ffd5b634e487b7160e01b5f52601160045260245ffd5b8181038181111561129157611291611ab8565b5f60208284031215611aef575f5ffd5b8151611a928161191c565b5f60208284031215611b0a575f5ffd5b5051919050565b634e487b7160e01b5f52604160045260245ffd5b634e487b7160e01b5f52603260045260245ffd5b5f8235605e19833603018112611b4d575f5ffd5b9190910192915050565b5f5f8335601e19843603018112611b6c575f5ffd5b83018035915067ffffffffffffffff821115611b86575f5ffd5b602001915036819003821315611b9a575f5ffd5b9250929050565b818382375f9101908152919050565b602081525f61128e60208301846119e6565b8082018082111561129157611291611ab8565b5f5f60408385031215611be6575f5ffd5b505080516020909101519092909150565b5f60208284031215611c07575f5ffd5b815160ff81168114611a92575f5ffd5b6001815b6001841115611c5257808504811115611c3657611c36611ab8565b6001841615611c4457908102905b60019390931c928002611c1b565b935093915050565b5f82611c6857506001611291565b81611c7457505f611291565b8160018114611c8a5760028114611c9457611cb0565b6001915050611291565b60ff841115611ca557611ca5611ab8565b50506001821b611291565b5060208310610133831016604e8410600b8410161715611cd3575081810a611291565b611cdf5f198484611c17565b805f1904821115611cf257611cf2611ab8565b029392505050565b5f61128e60ff841683611c5a565b808202811582820484141761129157611291611ab8565b604051610180810167ffffffffffffffff81118282101715611d4f57634e487b7160e01b5f52604160045260245ffd5b60405290565b805164ffffffffff81168114611d69575f5ffd5b919050565b5f610180828403128015611d80575f5ffd5b50611d89611d1f565b825181526020808401519082015260408084015190820152606080840151908201526080808401519082015260a0808401519082015260c0808401519082015260e08084015190820152610100808401519082015261012080840151908201526101408084015190820152611e016101608401611d55565b610160820152939250505056fea2646970667358221220d818a7d7a5cf9a1bb59906f480a2a27549d38b3c1319f51c5007f1318374f90e64736f6c634300081c0033","linkReferences":{}},"methodIdentifiers":{"aToken()":"a0c1f15e","assetToken()":"1083f761","assets()":"71a97305","cap()":"355274ea","core()":"f2f4eb26","deposit()":"d0e30db0","emergencyAction((address,uint256,bytes)[])":"7df3927e","lendingPool()":"a59a9973","liquidity()":"1a686502","maxDeposit()":"6083e59a","maxSlippage()":"8c04166f","pause()":"8456cb59","paused()":"5c975abb","setCap(uint256)":"47786d37","setCore(address)":"80009630","setMaxSlippage(uint256)":"43f68a49","unpause()":"3f4ba83a","withdraw(uint256,address)":"00f714ce"},"id":83}