{"abi":[{"type":"constructor","inputs":[{"name":"_core","type":"address","internalType":"address"},{"name":"_farmRegistry","type":"address","internalType":"address"}],"stateMutability":"nonpayable"},{"type":"function","name":"batchMovement","inputs":[{"name":"_from","type":"address[]","internalType":"address[]"},{"name":"_to","type":"address[]","internalType":"address[]"},{"name":"_amounts","type":"uint256[]","internalType":"uint256[]"}],"outputs":[],"stateMutability":"nonpayable"},{"type":"function","name":"batchMovementWithCooldown","inputs":[{"name":"_from","type":"address[]","internalType":"address[]"},{"name":"_to","type":"address[]","internalType":"address[]"},{"name":"_amounts","type":"uint256[]","internalType":"uint256[]"}],"outputs":[],"stateMutability":"nonpayable"},{"type":"function","name":"cooldown","inputs":[],"outputs":[{"name":"","type":"uint256","internalType":"uint256"}],"stateMutability":"view"},{"type":"function","name":"core","inputs":[],"outputs":[{"name":"","type":"address","internalType":"contract InfiniFiCore"}],"stateMutability":"view"},{"type":"function","name":"emergencyAction","inputs":[{"name":"calls","type":"tuple[]","internalType":"struct CoreControlled.Call[]","components":[{"name":"target","type":"address","internalType":"address"},{"name":"value","type":"uint256","internalType":"uint256"},{"name":"callData","type":"bytes","internalType":"bytes"}]}],"outputs":[{"name":"returnData","type":"bytes[]","internalType":"bytes[]"}],"stateMutability":"payable"},{"type":"function","name":"farmRegistry","inputs":[],"outputs":[{"name":"","type":"address","internalType":"address"}],"stateMutability":"view"},{"type":"function","name":"lastRebalance","inputs":[],"outputs":[{"name":"","type":"uint256","internalType":"uint256"}],"stateMutability":"view"},{"type":"function","name":"pause","inputs":[],"outputs":[],"stateMutability":"nonpayable"},{"type":"function","name":"paused","inputs":[],"outputs":[{"name":"","type":"bool","internalType":"bool"}],"stateMutability":"view"},{"type":"function","name":"setCooldown","inputs":[{"name":"_cooldown","type":"uint256","internalType":"uint256"}],"outputs":[],"stateMutability":"nonpayable"},{"type":"function","name":"setCore","inputs":[{"name":"newCore","type":"address","internalType":"address"}],"outputs":[],"stateMutability":"nonpayable"},{"type":"function","name":"singleMovement","inputs":[{"name":"_from","type":"address","internalType":"address"},{"name":"_to","type":"address","internalType":"address"},{"name":"_amount","type":"uint256","internalType":"uint256"}],"outputs":[{"name":"","type":"uint256","internalType":"uint256"}],"stateMutability":"nonpayable"},{"type":"function","name":"unpause","inputs":[],"outputs":[],"stateMutability":"nonpayable"},{"type":"event","name":"Allocate","inputs":[{"name":"timestamp","type":"uint256","indexed":true,"internalType":"uint256"},{"name":"from","type":"address","indexed":true,"internalType":"address"},{"name":"to","type":"address","indexed":true,"internalType":"address"},{"name":"asset","type":"address","indexed":false,"internalType":"address"},{"name":"amount","type":"uint256","indexed":false,"internalType":"uint256"}],"anonymous":false},{"type":"event","name":"CooldownUpdated","inputs":[{"name":"timestamp","type":"uint256","indexed":true,"internalType":"uint256"},{"name":"cooldown","type":"uint256","indexed":false,"internalType":"uint256"}],"anonymous":false},{"type":"event","name":"CoreUpdate","inputs":[{"name":"oldCore","type":"address","indexed":true,"internalType":"address"},{"name":"newCore","type":"address","indexed":true,"internalType":"address"}],"anonymous":false},{"type":"event","name":"Paused","inputs":[{"name":"account","type":"address","indexed":false,"internalType":"address"}],"anonymous":false},{"type":"event","name":"Unpaused","inputs":[{"name":"account","type":"address","indexed":false,"internalType":"address"}],"anonymous":false},{"type":"error","name":"CooldownNotElapsed","inputs":[]},{"type":"error","name":"EmptyInput","inputs":[]},{"type":"error","name":"EnforcedPause","inputs":[]},{"type":"error","name":"ExpectedPause","inputs":[]},{"type":"error","name":"InactiveRebalancer","inputs":[]},{"type":"error","name":"IncompatibleAssets","inputs":[]},{"type":"error","name":"InvalidFarm","inputs":[{"name":"farm","type":"address","internalType":"address"}]},{"type":"error","name":"InvalidInput","inputs":[]},{"type":"error","name":"UnderlyingCallReverted","inputs":[{"name":"returnData","type":"bytes","internalType":"bytes"}]}],"bytecode":{"object":"0x60a060405234801561000f575f5ffd5b506040516116f13803806116f183398101604081905261002e91610090565b5f80546001600160a01b03808516610100026001600160a81b0319909216919091179091558116608052613840600181905561006a90426100c1565b600255506100e69050565b80516001600160a01b038116811461008b575f5ffd5b919050565b5f5f604083850312156100a1575f5ffd5b6100aa83610075565b91506100b860208401610075565b90509250929050565b818103818111156100e057634e487b7160e01b5f52601160045260245ffd5b92915050565b6080516115e561010c5f395f818161020701528181610d9e0152610e5401526115e55ff3fe6080604052600436106100ce575f3560e01c8063787a08a61161007c5780638456cb59116100575780638456cb59146101e257806387418e4a146101f6578063cc57900814610241578063f2f4eb2614610260575f5ffd5b8063787a08a61461018e5780637df3927e146101a357806380009630146101c3575f5ffd5b80633f4ba83a116100ac5780633f4ba83a1461013a5780634fc3f41a1461014e5780635c975abb1461016d575f5ffd5b8063106b9ca1146100d2578063323bb807146100fa5780633dd5446d1461011b575b5f5ffd5b3480156100dd575f5ffd5b506100e760025481565b6040519081526020015b60405180910390f35b348015610105575f5ffd5b50610119610114366004611295565b610281565b005b348015610126575f5ffd5b50610119610135366004611295565b6103a8565b348015610145575f5ffd5b5061011961048e565b348015610159575f5ffd5b50610119610168366004611334565b610569565b348015610178575f5ffd5b505f5460ff1660405190151581526020016100f1565b348015610199575f5ffd5b506100e760015481565b6101b66101b136600461134b565b610677565b6040516100f191906113b8565b3480156101ce575f5ffd5b506101196101dd36600461142f565b6108f9565b3480156101ed575f5ffd5b506101196109d6565b348015610201575f5ffd5b506102297f000000000000000000000000000000000000000000000000000000000000000081565b6040516001600160a01b0390911681526020016100f1565b34801561024c575f5ffd5b506100e761025b366004611451565b610aae565b34801561026b575f5ffd5b505f5461010090046001600160a01b0316610229565b610289610b9b565b5f54604051632474521560e21b81527fd9fa15f584375c99b94a4f575a0f2613222d7c57b2d1db09e835e77301b9eb9a600482018190523360248301529161010090046001600160a01b0316906391d1485490604401602060405180830381865afa1580156102fa573d5f5f3e3d5ffd5b505050506040513d601f19601f8201168201806040525081019061031e919061148f565b61035e5760405162461bcd60e51b815260206004820152600c60248201526b15539055551213d49256915160a21b60448201526064015b60405180910390fd5b60025460015461036e90426114ae565b101561038d57604051635115ba2f60e11b815260040160405180910390fd5b4260025561039f878787878787610bc0565b50505050505050565b6103b0610b9b565b5f54604051632474521560e21b81527f81c2da19079a6b9586648186d4d64ede4daff8cc96fb1e2cbf9c9bb9c3b3bb94600482018190523360248301529161010090046001600160a01b0316906391d1485490604401602060405180830381865afa158015610421573d5f5f3e3d5ffd5b505050506040513d601f19601f82011682018060405250810190610445919061148f565b6104805760405162461bcd60e51b815260206004820152600c60248201526b15539055551213d49256915160a21b6044820152606401610355565b61039f878787878787610bc0565b5f54604051632474521560e21b81527fe7276a2a84d8de556657ec9cf93a55a7d66f096e529d0582ed08e9e2208b92b5600482018190523360248301529161010090046001600160a01b0316906391d1485490604401602060405180830381865afa1580156104ff573d5f5f3e3d5ffd5b505050506040513d601f19601f82011682018060405250810190610523919061148f565b61055e5760405162461bcd60e51b815260206004820152600c60248201526b15539055551213d49256915160a21b6044820152606401610355565b610566610c8b565b50565b5f54604051632474521560e21b81527f3947e2f542c6c46c543fa4f79cbd1e27fea37ed249bc3caf992570d19123642e600482018190523360248301529161010090046001600160a01b0316906391d1485490604401602060405180830381865afa1580156105da573d5f5f3e3d5ffd5b505050506040513d601f19601f820116820180604052508101906105fe919061148f565b6106395760405162461bcd60e51b815260206004820152600c60248201526b15539055551213d49256915160a21b6044820152606401610355565b600182905560405182815242907f5953b565c074c2cce1866b4e69c9efc4908556bb6fca70f735907c94d94055159060200160405180910390a25050565b5f54604051632474521560e21b81527f1a6838efa4183e08fe3607359d1259272af9d4716f65e1a7b5921f78fd5a3c6a6004820181905233602483015260609290916101009091046001600160a01b0316906391d1485490604401602060405180830381865afa1580156106ed573d5f5f3e3d5ffd5b505050506040513d601f19601f82011682018060405250810190610711919061148f565b61074c5760405162461bcd60e51b815260206004820152600c60248201526b15539055551213d49256915160a21b6044820152606401610355565b8267ffffffffffffffff811115610765576107656114d3565b60405190808252806020026020018201604052801561079857816020015b60608152602001906001900390816107835790505b5091505f5b838110156108f1575f8585838181106107b8576107b86114e7565b90506020028101906107ca91906114fb565b6107d890602081019061142f565b90505f8686848181106107ed576107ed6114e7565b90506020028101906107ff91906114fb565b602001359050365f888886818110610819576108196114e7565b905060200281019061082b91906114fb565b610839906040810190611519565b915091505f5f856001600160a01b031685858560405161085a92919061155c565b5f6040518083038185875af1925050503d805f8114610894576040519150601f19603f3d011682016040523d82523d5f602084013e610899565b606091505b50915091508181906108bf57604051634ad176bb60e01b8152600401610355919061156b565b50808988815181106108d3576108d36114e7565b6020026020010181905250505050505050808060010191505061079d565b505092915050565b5f54604051632474521560e21b81527f1a6838efa4183e08fe3607359d1259272af9d4716f65e1a7b5921f78fd5a3c6a600482018190523360248301529161010090046001600160a01b0316906391d1485490604401602060405180830381865afa15801561096a573d5f5f3e3d5ffd5b505050506040513d601f19601f8201168201806040525081019061098e919061148f565b6109c95760405162461bcd60e51b815260206004820152600c60248201526b15539055551213d49256915160a21b6044820152606401610355565b6109d282610cdc565b5050565b5f54604051632474521560e21b81527ffcb9fcbfa83b897fb2d5cf4b58962164105c1e71489a37ef3ae0db3fdce576f6600482018190523360248301529161010090046001600160a01b0316906391d1485490604401602060405180830381865afa158015610a47573d5f5f3e3d5ffd5b505050506040513d601f19601f82011682018060405250810190610a6b919061148f565b610aa65760405162461bcd60e51b815260206004820152600c60248201526b15539055551213d49256915160a21b6044820152606401610355565b610566610d41565b5f610ab7610b9b565b5f54604051632474521560e21b81527f81c2da19079a6b9586648186d4d64ede4daff8cc96fb1e2cbf9c9bb9c3b3bb94600482018190523360248301529161010090046001600160a01b0316906391d1485490604401602060405180830381865afa158015610b28573d5f5f3e3d5ffd5b505050506040513d601f19601f82011682018060405250810190610b4c919061148f565b610b875760405162461bcd60e51b815260206004820152600c60248201526b15539055551213d49256915160a21b6044820152606401610355565b610b92858585610d7d565b95945050505050565b5f5460ff1615610bbe5760405163d93c066560e01b815260040160405180910390fd5b565b84610bde5760405163a447fc5360e01b815260040160405180910390fd5b8483148015610bec57508481145b610c095760405163b4fa3fb360e01b815260040160405180910390fd5b5f5b8581101561039f57610c82878783818110610c2857610c286114e7565b9050602002016020810190610c3d919061142f565b868684818110610c4f57610c4f6114e7565b9050602002016020810190610c64919061142f565b858585818110610c7657610c766114e7565b90506020020135610d7d565b50600101610c0b565b610c9361122b565b5f805460ff191690557f5db9ee0a495bf2e6ff9c91a7834c1ba4fdd244a5e8aa4e537bd38aeae4b073aa335b6040516001600160a01b03909116815260200160405180910390a1565b5f80546001600160a01b0383811661010081810274ffffffffffffffffffffffffffffffffffffffff0019851617855560405193049190911692909183917f9209b7c8c06dcfd261686a663e7c55989337b18d59da5433c6f2835fb697092091a35050565b610d49610b9b565b5f805460ff191660011790557f62e78cea01bee320cd4e420270b5ea74000d11b0c9f74754ebdbfc544b05a258610cbf3390565b60405163637012c760e01b81526001600160a01b0384811660048301525f917f00000000000000000000000000000000000000000000000000000000000000009091169063637012c790602401602060405180830381865afa158015610de5573d5f5f3e3d5ffd5b505050506040513d601f19601f82011682018060405250810190610e09919061148f565b8490610e345760405163400b8e8960e01b81526001600160a01b039091166004820152602401610355565b5060405163637012c760e01b81526001600160a01b0384811660048301527f0000000000000000000000000000000000000000000000000000000000000000169063637012c790602401602060405180830381865afa158015610e99573d5f5f3e3d5ffd5b505050506040513d601f19601f82011682018060405250810190610ebd919061148f565b8390610ee85760405163400b8e8960e01b81526001600160a01b039091166004820152602401610355565b505f846001600160a01b0316631083f7616040518163ffffffff1660e01b8152600401602060405180830381865afa158015610f26573d5f5f3e3d5ffd5b505050506040513d601f19601f82011682018060405250810190610f4a919061157d565b9050806001600160a01b0316846001600160a01b0316631083f7616040518163ffffffff1660e01b8152600401602060405180830381865afa158015610f92573d5f5f3e3d5ffd5b505050506040513d601f19601f82011682018060405250810190610fb6919061157d565b6001600160a01b031614610fdd5760405163fce692b960e01b815260040160405180910390fd5b825f0361104b57846001600160a01b0316631a6865026040518163ffffffff1660e01b8152600401602060405180830381865afa158015611020573d5f5f3e3d5ffd5b505050506040513d601f19601f820116820180604052508101906110449190611598565b92506110b6565b5f1983036110b657846001600160a01b03166371a973056040518163ffffffff1660e01b8152600401602060405180830381865afa15801561108f573d5f5f3e3d5ffd5b505050506040513d601f19601f820116820180604052508101906110b39190611598565b92505b5f846001600160a01b0316636083e59a6040518163ffffffff1660e01b8152600401602060405180830381865afa1580156110f3573d5f5f3e3d5ffd5b505050506040513d601f19601f820116820180604052508101906111179190611598565b90508084116111265783611128565b805b604051627b8a6760e11b8152600481018290526001600160a01b0387811660248301529195509087169062f714ce906044015f604051808303815f87803b158015611171575f5ffd5b505af1158015611183573d5f5f3e3d5ffd5b50505050846001600160a01b031663d0e30db06040518163ffffffff1660e01b81526004015f604051808303815f87803b1580156111bf575f5ffd5b505af11580156111d1573d5f5f3e3d5ffd5b5050604080516001600160a01b03868116825260208201899052808a1694508a16925042917f9511b7e04ae4835f90a3df7e408c35a66c7064e36892abb46277484e49cee008910160405180910390a45091949350505050565b5f5460ff16610bbe57604051638dfc202b60e01b815260040160405180910390fd5b5f5f83601f84011261125d575f5ffd5b50813567ffffffffffffffff811115611274575f5ffd5b6020830191508360208260051b850101111561128e575f5ffd5b9250929050565b5f5f5f5f5f5f606087890312156112aa575f5ffd5b863567ffffffffffffffff8111156112c0575f5ffd5b6112cc89828a0161124d565b909750955050602087013567ffffffffffffffff8111156112eb575f5ffd5b6112f789828a0161124d565b909550935050604087013567ffffffffffffffff811115611316575f5ffd5b61132289828a0161124d565b979a9699509497509295939492505050565b5f60208284031215611344575f5ffd5b5035919050565b5f5f6020838503121561135c575f5ffd5b823567ffffffffffffffff811115611372575f5ffd5b61137e8582860161124d565b90969095509350505050565b5f81518084528060208401602086015e5f602082860101526020601f19601f83011685010191505092915050565b5f602082016020835280845180835260408501915060408160051b8601019250602086015f5b8281101561140f57603f198786030184526113fa85835161138a565b945060209384019391909101906001016113de565b50929695505050505050565b6001600160a01b0381168114610566575f5ffd5b5f6020828403121561143f575f5ffd5b813561144a8161141b565b9392505050565b5f5f5f60608486031215611463575f5ffd5b833561146e8161141b565b9250602084013561147e8161141b565b929592945050506040919091013590565b5f6020828403121561149f575f5ffd5b8151801515811461144a575f5ffd5b818103818111156114cd57634e487b7160e01b5f52601160045260245ffd5b92915050565b634e487b7160e01b5f52604160045260245ffd5b634e487b7160e01b5f52603260045260245ffd5b5f8235605e1983360301811261150f575f5ffd5b9190910192915050565b5f5f8335601e1984360301811261152e575f5ffd5b83018035915067ffffffffffffffff821115611548575f5ffd5b60200191503681900382131561128e575f5ffd5b818382375f9101908152919050565b602081525f61144a602083018461138a565b5f6020828403121561158d575f5ffd5b815161144a8161141b565b5f602082840312156115a8575f5ffd5b505191905056fea264697066735822122063a59083e94e1ee50d583c55ace95f7399eab9ce53ff3622bbd02a1b721039aa64736f6c634300081c0033","linkReferences":{}},"methodIdentifiers":{"batchMovement(address[],address[],uint256[])":"3dd5446d","batchMovementWithCooldown(address[],address[],uint256[])":"323bb807","cooldown()":"787a08a6","core()":"f2f4eb26","emergencyAction((address,uint256,bytes)[])":"7df3927e","farmRegistry()":"87418e4a","lastRebalance()":"106b9ca1","pause()":"8456cb59","paused()":"5c975abb","setCooldown(uint256)":"4fc3f41a","setCore(address)":"80009630","singleMovement(address,address,uint256)":"cc579008","unpause()":"3f4ba83a"},"id":89}