{"abi":[{"type":"constructor","inputs":[{"name":"_core","type":"address","internalType":"address"},{"name":"_lockingController","type":"address","internalType":"address"},{"name":"_farmRegistry","type":"address","internalType":"address"}],"stateMutability":"nonpayable"},{"type":"function","name":"core","inputs":[],"outputs":[{"name":"","type":"address","internalType":"contract InfiniFiCore"}],"stateMutability":"view"},{"type":"function","name":"emergencyAction","inputs":[{"name":"calls","type":"tuple[]","internalType":"struct CoreControlled.Call[]","components":[{"name":"target","type":"address","internalType":"address"},{"name":"value","type":"uint256","internalType":"uint256"},{"name":"callData","type":"bytes","internalType":"bytes"}]}],"outputs":[{"name":"returnData","type":"bytes[]","internalType":"bytes[]"}],"stateMutability":"payable"},{"type":"function","name":"farmRegistry","inputs":[],"outputs":[{"name":"","type":"address","internalType":"address"}],"stateMutability":"view"},{"type":"function","name":"farmWeightData","inputs":[{"name":"farm","type":"address","internalType":"address"}],"outputs":[{"name":"epoch","type":"uint32","internalType":"uint32"},{"name":"currentWeight","type":"uint112","internalType":"uint112"},{"name":"nextWeight","type":"uint112","internalType":"uint112"}],"stateMutability":"view"},{"type":"function","name":"getAssetVoteWeights","inputs":[{"name":"_asset","type":"address","internalType":"address"},{"name":"_farmType","type":"uint256","internalType":"uint256"}],"outputs":[{"name":"","type":"address[]","internalType":"address[]"},{"name":"","type":"uint256[]","internalType":"uint256[]"},{"name":"","type":"uint256","internalType":"uint256"}],"stateMutability":"view"},{"type":"function","name":"getVote","inputs":[{"name":"_farm","type":"address","internalType":"address"}],"outputs":[{"name":"","type":"uint256","internalType":"uint256"}],"stateMutability":"view"},{"type":"function","name":"getVoteWeights","inputs":[{"name":"_farmType","type":"uint256","internalType":"uint256"}],"outputs":[{"name":"","type":"address[]","internalType":"address[]"},{"name":"","type":"uint256[]","internalType":"uint256[]"},{"name":"","type":"uint256","internalType":"uint256"}],"stateMutability":"view"},{"type":"function","name":"lastVoteEpoch","inputs":[{"name":"user","type":"address","internalType":"address"},{"name":"unwindingEpochs","type":"uint32","internalType":"uint32"}],"outputs":[{"name":"epoch","type":"uint32","internalType":"uint32"}],"stateMutability":"view"},{"type":"function","name":"lockingController","inputs":[],"outputs":[{"name":"","type":"address","internalType":"address"}],"stateMutability":"view"},{"type":"function","name":"pause","inputs":[],"outputs":[],"stateMutability":"nonpayable"},{"type":"function","name":"paused","inputs":[],"outputs":[{"name":"","type":"bool","internalType":"bool"}],"stateMutability":"view"},{"type":"function","name":"setCore","inputs":[{"name":"newCore","type":"address","internalType":"address"}],"outputs":[],"stateMutability":"nonpayable"},{"type":"function","name":"unpause","inputs":[],"outputs":[],"stateMutability":"nonpayable"},{"type":"function","name":"vote","inputs":[{"name":"_user","type":"address","internalType":"address"},{"name":"_asset","type":"address","internalType":"address"},{"name":"_unwindingEpochs","type":"uint32","internalType":"uint32"},{"name":"_liquidVotes","type":"tuple[]","internalType":"struct AllocationVoting.AllocationVote[]","components":[{"name":"farm","type":"address","internalType":"address"},{"name":"weight","type":"uint96","internalType":"uint96"}]},{"name":"_illiquidVotes","type":"tuple[]","internalType":"struct AllocationVoting.AllocationVote[]","components":[{"name":"farm","type":"address","internalType":"address"},{"name":"weight","type":"uint96","internalType":"uint96"}]}],"outputs":[],"stateMutability":"nonpayable"},{"type":"event","name":"CoreUpdate","inputs":[{"name":"oldCore","type":"address","indexed":true,"internalType":"address"},{"name":"newCore","type":"address","indexed":true,"internalType":"address"}],"anonymous":false},{"type":"event","name":"FarmVoteRegistered","inputs":[{"name":"timestamp","type":"uint256","indexed":true,"internalType":"uint256"},{"name":"epoch","type":"uint256","indexed":true,"internalType":"uint256"},{"name":"user","type":"address","indexed":true,"internalType":"address"},{"name":"unwindingEpochs","type":"uint32","indexed":false,"internalType":"uint32"},{"name":"liquidVotes","type":"tuple[]","indexed":false,"internalType":"struct AllocationVoting.AllocationVote[]","components":[{"name":"farm","type":"address","internalType":"address"},{"name":"weight","type":"uint96","internalType":"uint96"}]},{"name":"illiquidVotes","type":"tuple[]","indexed":false,"internalType":"struct AllocationVoting.AllocationVote[]","components":[{"name":"farm","type":"address","internalType":"address"},{"name":"weight","type":"uint96","internalType":"uint96"}]}],"anonymous":false},{"type":"event","name":"Paused","inputs":[{"name":"account","type":"address","indexed":false,"internalType":"address"}],"anonymous":false},{"type":"event","name":"Unpaused","inputs":[{"name":"account","type":"address","indexed":false,"internalType":"address"}],"anonymous":false},{"type":"error","name":"AlreadyVoted","inputs":[{"name":"_user","type":"address","internalType":"address"},{"name":"_unwindingEpochs","type":"uint32","internalType":"uint32"}]},{"type":"error","name":"EnforcedPause","inputs":[]},{"type":"error","name":"ExpectedPause","inputs":[]},{"type":"error","name":"InvalidAsset","inputs":[{"name":"_asset","type":"address","internalType":"address"}]},{"type":"error","name":"InvalidTargetBucket","inputs":[{"name":"_farm","type":"address","internalType":"address"},{"name":"_maturity","type":"uint256","internalType":"uint256"},{"name":"_userUnbondingTimestamp","type":"uint256","internalType":"uint256"}]},{"type":"error","name":"InvalidWeights","inputs":[{"name":"_expectedPower","type":"uint256","internalType":"uint256"},{"name":"_actualPower","type":"uint256","internalType":"uint256"}]},{"type":"error","name":"NoVotingPower","inputs":[{"name":"_user","type":"address","internalType":"address"},{"name":"_unwindingEpochs","type":"uint32","internalType":"uint32"}]},{"type":"error","name":"UnderlyingCallReverted","inputs":[{"name":"returnData","type":"bytes","internalType":"bytes"}]},{"type":"error","name":"UnknownFarm","inputs":[{"name":"farm","type":"address","internalType":"address"},{"name":"liquid","type":"bool","internalType":"bool"}]}],"bytecode":{"object":"0x6080604052348015600e575f5ffd5b50604051611f00380380611f00833981016040819052602b91608d565b5f80546001600160a01b03948516610100026001600160a81b0319909116179055600180549284166001600160a01b03199384161790556002805491909316911617905560c6565b80516001600160a01b03811681146088575f5ffd5b919050565b5f5f5f60608486031215609e575f5ffd5b60a5846073565b925060b1602085016073565b915060bd604085016073565b90509250925092565b611e2d806100d35f395ff3fe6080604052600436106100d9575f3560e01c80638456cb591161007c5780638d337b81116100575780638d337b81146102bb5780639a957be8146102e8578063bae4182914610307578063f2f4eb2614610326575f5ffd5b80638456cb591461024257806386644ac71461025657806387418e4a14610284575f5ffd5b80635c975abb116100b75780635c975abb146101915780637df3927e146101b257806380009630146101d25780638359f1fb146101f1575f5ffd5b806313527eda146100dd5780632610409b1461015c5780633f4ba83a1461017d575b5f5ffd5b3480156100e8575f5ffd5b5061012b6100f73660046117be565b60036020525f908152604090205463ffffffff8116906001600160701b036401000000008204811691600160901b90041683565b6040805163ffffffff90941684526001600160701b0392831660208501529116908201526060015b60405180910390f35b348015610167575f5ffd5b5061017b610176366004611840565b610347565b005b348015610188575f5ffd5b5061017b6107c8565b34801561019c575f5ffd5b505f5460ff166040519015158152602001610153565b6101c56101c03660046118e4565b6108a3565b6040516101539190611983565b3480156101dd575f5ffd5b5061017b6101ec3660046117be565b610b25565b3480156101fc575f5ffd5b5061022d61020b3660046119e6565b600460209081525f928352604080842090915290825290205463ffffffff1681565b60405163ffffffff9091168152602001610153565b34801561024d575f5ffd5b5061017b610c02565b348015610261575f5ffd5b50610275610270366004611a19565b610cda565b60405161015393929190611a43565b34801561028f575f5ffd5b506002546102a3906001600160a01b031681565b6040516001600160a01b039091168152602001610153565b3480156102c6575f5ffd5b506102da6102d53660046117be565b610d72565b604051908152602001610153565b3480156102f3575f5ffd5b50610275610302366004611ad4565b610e45565b348015610312575f5ffd5b506001546102a3906001600160a01b031681565b348015610331575f5ffd5b505f5461010090046001600160a01b03166102a3565b61034f610ed8565b5f54604051632474521560e21b81527f276ea66e969b021a947c47a128f4d53c55387336443ef7a5391a75f0d2e48d25600482018190523360248301529161010090046001600160a01b0316906391d1485490604401602060405180830381865afa1580156103c0573d5f5f3e3d5ffd5b505050506040513d601f19601f820116820180604052508101906103e49190611aeb565b6104245760405162461bcd60e51b815260206004820152600c60248201526b15539055551213d49256915160a21b60448201526064015b60405180910390fd5b60025460405163114cb92f60e01b81526001600160a01b0389811660048301529091169063114cb92f90602401602060405180830381865afa15801561046c573d5f5f3e3d5ffd5b505050506040513d601f19601f820116820180604052508101906104909190611aeb565b87906104bb576040516337bce3c560e11b81526001600160a01b03909116600482015260240161041b565b50604051635487c57760e01b81524260048201525f9073__$c2db40bc88d1695fb95efa117e02d420e9$__90635487c57790602401602060405180830381865af415801561050b573d5f5f3e3d5ffd5b505050506040513d601f19601f8201168201806040525081019061052f9190611b0a565b6001600160a01b038a165f90815260046020908152604080832063ffffffff8c811685529252909120549192508a91899180851691161061059a57604051635897763b60e01b81526001600160a01b03909216600483015263ffffffff16602482015260440161041b565b50506001600160a01b038981165f81815260046020818152604080842063ffffffff8e811680875291909352818520805463ffffffff1916938916939093179092556001549051630b7cfa7960e31b815292830194909452602482015290929190911690635be7d3c890604401602060405180830381865afa158015610622573d5f5f3e3d5ffd5b505050506040513d601f19601f820116820180604052508101906106469190611b0a565b905089888261067f57604051637f2355dd60e01b81526001600160a01b03909216600483015263ffffffff16602482015260440161041b565b50506106908989848489895f610efd565b6106a0898984848b8b6001610efd565b60015460405163e7dda2eb60e01b815263ffffffff8a1660048201525f916001600160a01b03169063e7dda2eb90602401602060405180830381865afa1580156106ec573d5f5f3e3d5ffd5b505050506040513d601f19601f820116820180604052508101906107109190611b2c565b60405163af4c8de160e01b81526001600160a01b038d811660048301529192509082169063af4c8de1906024015f604051808303815f87803b158015610754575f5ffd5b505af1158015610766573d5f5f3e3d5ffd5b505050508a6001600160a01b03168363ffffffff16427fc55c7fb5483280f4c7d506cd9f8828a90deea18f8d2753b8894fa7f959a86f5a8c8c8c8c8c6040516107b3959493929190611bc9565b60405180910390a45050505050505050505050565b5f54604051632474521560e21b81527fe7276a2a84d8de556657ec9cf93a55a7d66f096e529d0582ed08e9e2208b92b5600482018190523360248301529161010090046001600160a01b0316906391d1485490604401602060405180830381865afa158015610839573d5f5f3e3d5ffd5b505050506040513d601f19601f8201168201806040525081019061085d9190611aeb565b6108985760405162461bcd60e51b815260206004820152600c60248201526b15539055551213d49256915160a21b604482015260640161041b565b6108a061119b565b50565b5f54604051632474521560e21b81527f1a6838efa4183e08fe3607359d1259272af9d4716f65e1a7b5921f78fd5a3c6a6004820181905233602483015260609290916101009091046001600160a01b0316906391d1485490604401602060405180830381865afa158015610919573d5f5f3e3d5ffd5b505050506040513d601f19601f8201168201806040525081019061093d9190611aeb565b6109785760405162461bcd60e51b815260206004820152600c60248201526b15539055551213d49256915160a21b604482015260640161041b565b8267ffffffffffffffff81111561099157610991611c07565b6040519080825280602002602001820160405280156109c457816020015b60608152602001906001900390816109af5790505b5091505f5b83811015610b1d575f8585838181106109e4576109e4611c1b565b90506020028101906109f69190611c2f565b610a049060208101906117be565b90505f868684818110610a1957610a19611c1b565b9050602002810190610a2b9190611c2f565b602001359050365f888886818110610a4557610a45611c1b565b9050602002810190610a579190611c2f565b610a65906040810190611c4d565b915091505f5f856001600160a01b0316858585604051610a86929190611c90565b5f6040518083038185875af1925050503d805f8114610ac0576040519150601f19603f3d011682016040523d82523d5f602084013e610ac5565b606091505b5091509150818190610aeb57604051634ad176bb60e01b815260040161041b9190611c9f565b5080898881518110610aff57610aff611c1b565b602002602001018190525050505050505080806001019150506109c9565b505092915050565b5f54604051632474521560e21b81527f1a6838efa4183e08fe3607359d1259272af9d4716f65e1a7b5921f78fd5a3c6a600482018190523360248301529161010090046001600160a01b0316906391d1485490604401602060405180830381865afa158015610b96573d5f5f3e3d5ffd5b505050506040513d601f19601f82011682018060405250810190610bba9190611aeb565b610bf55760405162461bcd60e51b815260206004820152600c60248201526b15539055551213d49256915160a21b604482015260640161041b565b610bfe826111ec565b5050565b5f54604051632474521560e21b81527ffcb9fcbfa83b897fb2d5cf4b58962164105c1e71489a37ef3ae0db3fdce576f6600482018190523360248301529161010090046001600160a01b0316906391d1485490604401602060405180830381865afa158015610c73573d5f5f3e3d5ffd5b505050506040513d601f19601f82011682018060405250810190610c979190611aeb565b610cd25760405162461bcd60e51b815260206004820152600c60248201526b15539055551213d49256915160a21b604482015260640161041b565b6108a0611251565b60025460405162db564560e01b81526001600160a01b0384811660048301526024820184905260609283925f928392169062db5645906044015f60405180830381865afa158015610d2d573d5f5f3e3d5ffd5b505050506040513d5f823e601f3d908101601f19168201604052610d549190810190611cb1565b90505f5f610d618361128d565b939650945091925050509250925092565b6001600160a01b0381165f9081526003602090815260408083208151606081018352905463ffffffff811682526001600160701b036401000000008204811694830194909452600160901b90049092168282015251635487c57760e01b8152426004820152610e3f919073__$c2db40bc88d1695fb95efa117e02d420e9$__90635487c57790602401602060405180830381865af4158015610e16573d5f5f3e3d5ffd5b505050506040513d601f19601f82011682018060405250810190610e3a9190611b0a565b611430565b92915050565b60025460405163304238b160e21b81526004810183905260609182915f9182916001600160a01b039091169063c108e2c4906024015f60405180830381865afa158015610e94573d5f5f3e3d5ffd5b505050506040513d5f823e601f3d908101601f19168201604052610ebb9190810190611cb1565b90505f5f610ec88361128d565b9398909750929550919350505050565b5f5460ff1615610efb5760405163d93c066560e01b815260040160405180910390fd5b565b5f805b83811015611158575f858583818110610f1b57610f1b611c1b565b610f3192602060409092020190810191506117be565b90508315610f4a57610f458a826001611497565b610f60565b610f568a826002611497565b610f60818a6115e5565b6001600160a01b0381165f908152600360209081526040918290208251606081018452905463ffffffff8082168084526001600160701b036401000000008404811695850195909552600160901b9092049093169382019390935291908a161461103757610fcf60018a611d90565b63ffffffff16815f015163ffffffff1603611013576040805160608101825263ffffffff8b168152918101516001600160701b031660208301525f90820152611037565b506040805160608101825263ffffffff8a1681525f60208201819052918101919091525b86868481811061104957611049611c1b565b90506040020160200160208101906110619190611dac565b6bffffffffffffffffffffffff16816040018181516110809190611dc5565b6001600160701b039081169091526001600160a01b0384165f908152600360209081526040918290208551815492870151938701518516600160901b0271ffffffffffffffffffffffffffffffffffff949095166401000000000271ffffffffffffffffffffffffffffffffffff1990931663ffffffff9091161791909117919091169190911790555086868481811061111c5761111c611c1b565b90506040020160200160208101906111349190611dac565b61114c906bffffffffffffffffffffffff1685611de4565b93505050600101610f00565b5084811480611165575080155b8582909161118f57604051637abead9960e11b81526004810192909252602482015260440161041b565b50505050505050505050565b6111a3611788565b5f805460ff191690557f5db9ee0a495bf2e6ff9c91a7834c1ba4fdd244a5e8aa4e537bd38aeae4b073aa335b6040516001600160a01b03909116815260200160405180910390a1565b5f80546001600160a01b0383811661010081810274ffffffffffffffffffffffffffffffffffffffff0019851617855560405193049190911692909183917f9209b7c8c06dcfd261686a663e7c55989337b18d59da5433c6f2835fb697092091a35050565b611259610ed8565b5f805460ff191660011790557f62e78cea01bee320cd4e420270b5ea74000d11b0c9f74754ebdbfc544b05a2586111cf3390565b604051635487c57760e01b81524260048201526060905f90819073__$c2db40bc88d1695fb95efa117e02d420e9$__90635487c57790602401602060405180830381865af41580156112e1573d5f5f3e3d5ffd5b505050506040513d601f19601f820116820180604052508101906113059190611b0a565b90505f845167ffffffffffffffff81111561132257611322611c07565b60405190808252806020026020018201604052801561134b578160200160208202803683370190505b5090505f805b8651811015611424576113d760035f89848151811061137257611372611c1b565b6020908102919091018101516001600160a01b031682528181019290925260409081015f208151606081018352905463ffffffff811682526001600160701b036401000000008204811694830194909452600160901b90049092169082015285611430565b8382815181106113e9576113e9611c1b565b60200260200101818152505082818151811061140757611407611c1b565b60200260200101518261141a9190611de4565b9150600101611351565b50909590945092505050565b5f8163ffffffff16835f015163ffffffff160361145b575060208201516001600160701b0316610e3f565b611466600183611d90565b63ffffffff16835f015163ffffffff160361148f575060408201516001600160701b0316610e3f565b505f92915050565b600254604051635f87809f60e11b81526001600160a01b0384811660048301526024820184905290911690819063bf0f013e90604401602060405180830381865afa1580156114e8573d5f5f3e3d5ffd5b505050506040513d601f19601f8201168201806040525081019061150c9190611aeb565b83600190916115415760405163c8cf6f4160e01b81526001600160a01b0390921660048301521515602482015260440161041b565b50506040516388f2908360e01b81526001600160a01b03848116600483015285811660248301528216906388f2908390604401602060405180830381865afa15801561158f573d5f5f3e3d5ffd5b505050506040513d601f19601f820116820180604052508101906115b39190611aeb565b84906115de576040516337bce3c560e11b81526001600160a01b03909116600482015260240161041b565b5050505050565b5f826001600160a01b031663204f83f96040518163ffffffff1660e01b8152600401602060405180830381865afa158015611622573d5f5f3e3d5ffd5b505050506040513d601f19601f820116820180604052508101906116469190611b0a565b604051635487c57760e01b81524260048201529091505f9063ffffffff84169073__$c2db40bc88d1695fb95efa117e02d420e9$__90635487c57790602401602060405180830381865af41580156116a0573d5f5f3e3d5ffd5b505050506040513d601f19601f820116820180604052508101906116c49190611b0a565b6116ce9190611de4565b6040516372b8648960e01b8152600481019190915273__$c2db40bc88d1695fb95efa117e02d420e9$__906372b8648990602401602060405180830381865af415801561171d573d5f5f3e3d5ffd5b505050506040513d601f19601f820116820180604052508101906117419190611b0a565b905083828280821061177f57604051637430089160e11b81526001600160a01b0390931660048401526024830191909152604482015260640161041b565b50505050505050565b5f5460ff16610efb57604051638dfc202b60e01b815260040160405180910390fd5b6001600160a01b03811681146108a0575f5ffd5b5f602082840312156117ce575f5ffd5b81356117d9816117aa565b9392505050565b803563ffffffff811681146117f3575f5ffd5b919050565b5f5f83601f840112611808575f5ffd5b50813567ffffffffffffffff81111561181f575f5ffd5b6020830191508360208260061b8501011115611839575f5ffd5b9250929050565b5f5f5f5f5f5f5f60a0888a031215611856575f5ffd5b8735611861816117aa565b96506020880135611871816117aa565b955061187f604089016117e0565b9450606088013567ffffffffffffffff81111561189a575f5ffd5b6118a68a828b016117f8565b909550935050608088013567ffffffffffffffff8111156118c5575f5ffd5b6118d18a828b016117f8565b989b979a50959850939692959293505050565b5f5f602083850312156118f5575f5ffd5b823567ffffffffffffffff81111561190b575f5ffd5b8301601f8101851361191b575f5ffd5b803567ffffffffffffffff811115611931575f5ffd5b8560208260051b8401011115611945575f5ffd5b6020919091019590945092505050565b5f81518084528060208401602086015e5f602082860101526020601f19601f83011685010191505092915050565b5f602082016020835280845180835260408501915060408160051b8601019250602086015f5b828110156119da57603f198786030184526119c5858351611955565b945060209384019391909101906001016119a9565b50929695505050505050565b5f5f604083850312156119f7575f5ffd5b8235611a02816117aa565b9150611a10602084016117e0565b90509250929050565b5f5f60408385031215611a2a575f5ffd5b8235611a35816117aa565b946020939093013593505050565b606080825284519082018190525f9060208601906080840190835b81811015611a855783516001600160a01b0316835260209384019390920191600101611a5e565b5050838103602080860191909152865180835291810192508601905f5b81811015611ac0578251845260209384019390920191600101611aa2565b505050604092909201929092529392505050565b5f60208284031215611ae4575f5ffd5b5035919050565b5f60208284031215611afb575f5ffd5b815180151581146117d9575f5ffd5b5f60208284031215611b1a575f5ffd5b5051919050565b80516117f3816117aa565b5f60208284031215611b3c575f5ffd5b81516117d9816117aa565b80356bffffffffffffffffffffffff811681146117f3575f5ffd5b8183526020830192505f815f5b84811015611bbf578135611b82816117aa565b6001600160a01b031686526bffffffffffffffffffffffff611ba660208401611b47565b1660208701526040958601959190910190600101611b6f565b5093949350505050565b63ffffffff86168152606060208201525f611be8606083018688611b62565b8281036040840152611bfb818587611b62565b98975050505050505050565b634e487b7160e01b5f52604160045260245ffd5b634e487b7160e01b5f52603260045260245ffd5b5f8235605e19833603018112611c43575f5ffd5b9190910192915050565b5f5f8335601e19843603018112611c62575f5ffd5b83018035915067ffffffffffffffff821115611c7c575f5ffd5b602001915036819003821315611839575f5ffd5b818382375f9101908152919050565b602081525f6117d96020830184611955565b5f60208284031215611cc1575f5ffd5b815167ffffffffffffffff811115611cd7575f5ffd5b8201601f81018413611ce7575f5ffd5b805167ffffffffffffffff811115611d0157611d01611c07565b8060051b604051601f19603f830116810181811067ffffffffffffffff82111715611d2e57611d2e611c07565b604052918252602081840181019290810187841115611d4b575f5ffd5b6020850194505b83851015611d7157611d6385611b21565b815260209485019401611d52565b509695505050505050565b634e487b7160e01b5f52601160045260245ffd5b63ffffffff8281168282160390811115610e3f57610e3f611d7c565b5f60208284031215611dbc575f5ffd5b6117d982611b47565b6001600160701b038181168382160190811115610e3f57610e3f611d7c565b80820180821115610e3f57610e3f611d7c56fea26469706673582212206e80678a0fc17183986e03c73f8535e2db5484235e6a03c4e5a156e34c79a76e64736f6c634300081c0033","linkReferences":{"src/libraries/EpochLib.sol":{"EpochLib":[{"start":1446,"length":20},{"start":3761,"length":20},{"start":4988,"length":20},{"start":5947,"length":20},{"start":6072,"length":20}]}}},"methodIdentifiers":{"core()":"f2f4eb26","emergencyAction((address,uint256,bytes)[])":"7df3927e","farmRegistry()":"87418e4a","farmWeightData(address)":"13527eda","getAssetVoteWeights(address,uint256)":"86644ac7","getVote(address)":"8d337b81","getVoteWeights(uint256)":"9a957be8","lastVoteEpoch(address,uint32)":"8359f1fb","lockingController()":"bae41829","pause()":"8456cb59","paused()":"5c975abb","setCore(address)":"80009630","unpause()":"3f4ba83a","vote(address,address,uint32,(address,uint96)[],(address,uint96)[])":"2610409b"},"id":79}