{"abi":[{"type":"constructor","inputs":[{"name":"_core","type":"address","internalType":"address"},{"name":"_receiptToken","type":"address","internalType":"address"},{"name":"_unwindingModule","type":"address","internalType":"address"}],"stateMutability":"nonpayable"},{"type":"function","name":"applyLosses","inputs":[{"name":"_amount","type":"uint256","internalType":"uint256"}],"outputs":[],"stateMutability":"nonpayable"},{"type":"function","name":"balanceOf","inputs":[{"name":"_user","type":"address","internalType":"address"}],"outputs":[{"name":"","type":"uint256","internalType":"uint256"}],"stateMutability":"view"},{"type":"function","name":"buckets","inputs":[{"name":"_unwindingEpochs","type":"uint32","internalType":"uint32"}],"outputs":[{"name":"shareToken","type":"address","internalType":"address"},{"name":"totalReceiptTokens","type":"uint256","internalType":"uint256"},{"name":"multiplier","type":"uint256","internalType":"uint256"}],"stateMutability":"view"},{"type":"function","name":"cancelUnwinding","inputs":[{"name":"_user","type":"address","internalType":"address"},{"name":"_unwindingTimestamp","type":"uint256","internalType":"uint256"},{"name":"_newUnwindingEpochs","type":"uint32","internalType":"uint32"}],"outputs":[],"stateMutability":"nonpayable"},{"type":"function","name":"core","inputs":[],"outputs":[{"name":"","type":"address","internalType":"contract InfiniFiCore"}],"stateMutability":"view"},{"type":"function","name":"createPosition","inputs":[{"name":"_amount","type":"uint256","internalType":"uint256"},{"name":"_unwindingEpochs","type":"uint32","internalType":"uint32"},{"name":"_recipient","type":"address","internalType":"address"}],"outputs":[],"stateMutability":"nonpayable"},{"type":"function","name":"depositRewards","inputs":[{"name":"_amount","type":"uint256","internalType":"uint256"}],"outputs":[],"stateMutability":"nonpayable"},{"type":"function","name":"emergencyAction","inputs":[{"name":"calls","type":"tuple[]","internalType":"struct CoreControlled.Call[]","components":[{"name":"target","type":"address","internalType":"address"},{"name":"value","type":"uint256","internalType":"uint256"},{"name":"callData","type":"bytes","internalType":"bytes"}]}],"outputs":[{"name":"returnData","type":"bytes[]","internalType":"bytes[]"}],"stateMutability":"payable"},{"type":"function","name":"enableBucket","inputs":[{"name":"_unwindingEpochs","type":"uint32","internalType":"uint32"},{"name":"_shareToken","type":"address","internalType":"address"},{"name":"_multiplier","type":"uint256","internalType":"uint256"}],"outputs":[],"stateMutability":"nonpayable"},{"type":"function","name":"enabledBuckets","inputs":[{"name":"","type":"uint256","internalType":"uint256"}],"outputs":[{"name":"","type":"uint32","internalType":"uint32"}],"stateMutability":"view"},{"type":"function","name":"exchangeRate","inputs":[{"name":"_unwindingEpochs","type":"uint32","internalType":"uint32"}],"outputs":[{"name":"","type":"uint256","internalType":"uint256"}],"stateMutability":"view"},{"type":"function","name":"globalReceiptToken","inputs":[],"outputs":[{"name":"","type":"uint256","internalType":"uint256"}],"stateMutability":"view"},{"type":"function","name":"globalRewardWeight","inputs":[],"outputs":[{"name":"","type":"uint256","internalType":"uint256"}],"stateMutability":"view"},{"type":"function","name":"increaseUnwindingEpochs","inputs":[{"name":"_shares","type":"uint256","internalType":"uint256"},{"name":"_oldUnwindingEpochs","type":"uint32","internalType":"uint32"},{"name":"_newUnwindingEpochs","type":"uint32","internalType":"uint32"},{"name":"_recipient","type":"address","internalType":"address"}],"outputs":[],"stateMutability":"nonpayable"},{"type":"function","name":"pause","inputs":[],"outputs":[],"stateMutability":"nonpayable"},{"type":"function","name":"paused","inputs":[],"outputs":[{"name":"","type":"bool","internalType":"bool"}],"stateMutability":"view"},{"type":"function","name":"receiptToken","inputs":[],"outputs":[{"name":"","type":"address","internalType":"address"}],"stateMutability":"view"},{"type":"function","name":"rewardMultiplier","inputs":[],"outputs":[{"name":"","type":"uint256","internalType":"uint256"}],"stateMutability":"view"},{"type":"function","name":"rewardWeight","inputs":[{"name":"_user","type":"address","internalType":"address"}],"outputs":[{"name":"","type":"uint256","internalType":"uint256"}],"stateMutability":"view"},{"type":"function","name":"rewardWeightForUnwindingEpochs","inputs":[{"name":"_user","type":"address","internalType":"address"},{"name":"_unwindingEpochs","type":"uint32","internalType":"uint32"}],"outputs":[{"name":"","type":"uint256","internalType":"uint256"}],"stateMutability":"view"},{"type":"function","name":"setBucketMultiplier","inputs":[{"name":"_unwindingEpochs","type":"uint32","internalType":"uint32"},{"name":"_multiplier","type":"uint256","internalType":"uint256"}],"outputs":[],"stateMutability":"nonpayable"},{"type":"function","name":"setCore","inputs":[{"name":"newCore","type":"address","internalType":"address"}],"outputs":[],"stateMutability":"nonpayable"},{"type":"function","name":"shareToken","inputs":[{"name":"_unwindingEpochs","type":"uint32","internalType":"uint32"}],"outputs":[{"name":"","type":"address","internalType":"address"}],"stateMutability":"view"},{"type":"function","name":"shares","inputs":[{"name":"_user","type":"address","internalType":"address"},{"name":"_unwindingEpochs","type":"uint32","internalType":"uint32"}],"outputs":[{"name":"","type":"uint256","internalType":"uint256"}],"stateMutability":"view"},{"type":"function","name":"startUnwinding","inputs":[{"name":"_shares","type":"uint256","internalType":"uint256"},{"name":"_unwindingEpochs","type":"uint32","internalType":"uint32"},{"name":"_recipient","type":"address","internalType":"address"}],"outputs":[],"stateMutability":"nonpayable"},{"type":"function","name":"totalBalance","inputs":[],"outputs":[{"name":"","type":"uint256","internalType":"uint256"}],"stateMutability":"view"},{"type":"function","name":"unpause","inputs":[],"outputs":[],"stateMutability":"nonpayable"},{"type":"function","name":"unwindingEpochsEnabled","inputs":[{"name":"_unwindingEpochs","type":"uint32","internalType":"uint32"}],"outputs":[{"name":"","type":"bool","internalType":"bool"}],"stateMutability":"view"},{"type":"function","name":"unwindingModule","inputs":[],"outputs":[{"name":"","type":"address","internalType":"address"}],"stateMutability":"view"},{"type":"function","name":"withdraw","inputs":[{"name":"_user","type":"address","internalType":"address"},{"name":"_unwindingTimestamp","type":"uint256","internalType":"uint256"}],"outputs":[],"stateMutability":"nonpayable"},{"type":"event","name":"BucketEnabled","inputs":[{"name":"timestamp","type":"uint256","indexed":true,"internalType":"uint256"},{"name":"bucket","type":"uint256","indexed":false,"internalType":"uint256"},{"name":"shareToken","type":"address","indexed":false,"internalType":"address"},{"name":"multiplier","type":"uint256","indexed":false,"internalType":"uint256"}],"anonymous":false},{"type":"event","name":"BucketMultiplierUpdated","inputs":[{"name":"timestamp","type":"uint256","indexed":true,"internalType":"uint256"},{"name":"bucket","type":"uint256","indexed":false,"internalType":"uint256"},{"name":"multiplier","type":"uint256","indexed":false,"internalType":"uint256"}],"anonymous":false},{"type":"event","name":"CoreUpdate","inputs":[{"name":"oldCore","type":"address","indexed":true,"internalType":"address"},{"name":"newCore","type":"address","indexed":true,"internalType":"address"}],"anonymous":false},{"type":"event","name":"LossesApplied","inputs":[{"name":"timestamp","type":"uint256","indexed":true,"internalType":"uint256"},{"name":"amount","type":"uint256","indexed":false,"internalType":"uint256"}],"anonymous":false},{"type":"event","name":"Paused","inputs":[{"name":"account","type":"address","indexed":false,"internalType":"address"}],"anonymous":false},{"type":"event","name":"PositionCreated","inputs":[{"name":"timestamp","type":"uint256","indexed":true,"internalType":"uint256"},{"name":"user","type":"address","indexed":true,"internalType":"address"},{"name":"amount","type":"uint256","indexed":false,"internalType":"uint256"},{"name":"unwindingEpochs","type":"uint32","indexed":true,"internalType":"uint32"}],"anonymous":false},{"type":"event","name":"PositionRemoved","inputs":[{"name":"timestamp","type":"uint256","indexed":true,"internalType":"uint256"},{"name":"user","type":"address","indexed":true,"internalType":"address"},{"name":"amount","type":"uint256","indexed":false,"internalType":"uint256"},{"name":"unwindingEpochs","type":"uint32","indexed":true,"internalType":"uint32"}],"anonymous":false},{"type":"event","name":"RewardsDeposited","inputs":[{"name":"timestamp","type":"uint256","indexed":true,"internalType":"uint256"},{"name":"amount","type":"uint256","indexed":false,"internalType":"uint256"}],"anonymous":false},{"type":"event","name":"Unpaused","inputs":[{"name":"account","type":"address","indexed":false,"internalType":"address"}],"anonymous":false},{"type":"error","name":"BucketMustBeLongerDuration","inputs":[{"name":"oldValue","type":"uint32","internalType":"uint32"},{"name":"newValue","type":"uint32","internalType":"uint32"}]},{"type":"error","name":"EnforcedPause","inputs":[]},{"type":"error","name":"ExpectedPause","inputs":[]},{"type":"error","name":"InvalidBucket","inputs":[{"name":"unwindingEpochs","type":"uint32","internalType":"uint32"}]},{"type":"error","name":"InvalidMultiplier","inputs":[{"name":"multiplier","type":"uint256","internalType":"uint256"}]},{"type":"error","name":"InvalidUnwindingEpochs","inputs":[{"name":"unwindingEpochs","type":"uint32","internalType":"uint32"}]},{"type":"error","name":"TransferFailed","inputs":[]},{"type":"error","name":"UnderlyingCallReverted","inputs":[{"name":"returnData","type":"bytes","internalType":"bytes"}]},{"type":"error","name":"UnwindingInProgress","inputs":[]}],"bytecode":{"object":"0x60c060405234801561000f575f5ffd5b506040516137ef3803806137ef83398101604081905261002e91610077565b5f80546001600160a81b0319166101006001600160a01b03958616021790559082166080521660a0526100b7565b80516001600160a01b0381168114610072575f5ffd5b919050565b5f5f5f60608486031215610089575f5ffd5b6100928461005c565b92506100a06020850161005c565b91506100ae6040850161005c565b90509250925092565b60805160a0516136a061014f5f395f818161051c015281816107f70152818161096701528181610a1b01528181610f5d015281816115800152818161166001528181611e1701528181611ec401528181611f380152818161238e015281816129900152612e5901525f81816105a101528181610aac0152818161168f01528181611d7f01528181611f670152612b0b01526136a05ff3fe6080604052600436106101c5575f3560e01c80637f866a0d116100f2578063c4acfb8f11610092578063ec78e83211610062578063ec78e83214610590578063ed4254ec146105c3578063f2f4eb26146105e2578063f3fef3a314610603575f5ffd5b8063c4acfb8f146104cd578063ca9011ae146104ec578063e37d01b11461050b578063e7dda2eb14610556575f5ffd5b806388d045d3116100cd57806388d045d31461045c5780638bdf67f21461047b5780638e23cbc71461049a578063ad7a672f146104b9575f5ffd5b80637f866a0d1461040a57806380009630146104295780638456cb5914610448575f5ffd5b806342cf00a9116101685780636f2c590a116101385780636f2c590a1461038357806370a08231146103975780637c1d0f21146103b65780637df3927e146103ea575f5ffd5b806342cf00a9146102ed5780635be7d3c8146103395780635c975abb14610358578063626e143e1461036e575f5ffd5b806325c95a68116101a357806325c95a681461027a578063265227771461029b57806329eda9e5146102ba5780633f4ba83a146102d9575f5ffd5b80630fc48a14146101c957806310821ff9146102385780631862a69c14610265575b5f5ffd5b3480156101d4575f5ffd5b5061020e6101e3366004613251565b600260208190525f91825260409091208054600182015491909201546001600160a01b039092169183565b604080516001600160a01b0390941684526020840192909252908201526060015b60405180910390f35b348015610243575f5ffd5b50610257610252366004613251565b610622565b60405190815260200161022f565b348015610270575f5ffd5b5061025760035481565b348015610285575f5ffd5b50610299610294366004613280565b6106fb565b005b3480156102a6575f5ffd5b506102996102b53660046132b9565b610854565b3480156102c5575f5ffd5b506102576102d43660046132d0565b610c6b565b3480156102e4575f5ffd5b50610299610d2d565b3480156102f8575f5ffd5b50610329610307366004613251565b63ffffffff165f908152600260205260409020546001600160a01b0316151590565b604051901515815260200161022f565b348015610344575f5ffd5b506102576103533660046132d0565b610e08565b348015610363575f5ffd5b505f5460ff16610329565b348015610379575f5ffd5b5061025760045481565b34801561038e575f5ffd5b50610257610f59565b3480156103a2575f5ffd5b506102576103b1366004613301565b611018565b3480156103c1575f5ffd5b506103d56103d03660046132b9565b611025565b60405163ffffffff909116815260200161022f565b6103fd6103f836600461331a565b61105c565b60405161022f91906133b9565b348015610415575f5ffd5b5061029961042436600461341c565b6112de565b348015610434575f5ffd5b50610299610443366004613301565b6117ef565b348015610453575f5ffd5b506102996118c8565b348015610467575f5ffd5b5061029961047636600461344c565b6119a0565b348015610486575f5ffd5b506102996104953660046132b9565b611c4d565b3480156104a5575f5ffd5b506102996104b4366004613486565b612135565b3480156104c4575f5ffd5b5061025761238b565b3480156104d8575f5ffd5b506102996104e73660046134ae565b61241e565b3480156104f7575f5ffd5b50610257610506366004613301565b612970565b348015610516575f5ffd5b5061053e7f000000000000000000000000000000000000000000000000000000000000000081565b6040516001600160a01b03909116815260200161022f565b348015610561575f5ffd5b5061053e610570366004613251565b63ffffffff165f908152600260205260409020546001600160a01b031690565b34801561059b575f5ffd5b5061053e7f000000000000000000000000000000000000000000000000000000000000000081565b3480156105ce575f5ffd5b506102996105dd36600461341c565b61297d565b3480156105ed575f5ffd5b505f5461010090046001600160a01b031661053e565b34801561060e575f5ffd5b5061029961061d3660046134f8565b612d6f565b63ffffffff81165f908152600260208181526040808420815160608101835281546001600160a01b03168082526001830154948201949094529301549083015261066e57505f92915050565b5f815f01516001600160a01b03166318160ddd6040518163ffffffff1660e01b8152600401602060405180830381865afa1580156106ae573d5f5f3e3d5ffd5b505050506040513d601f19601f820116820180604052508101906106d29190613512565b9050805f036106e457505f9392505050565b60208201516106f39082612eb4565b949350505050565b610703612ecf565b5f54604051632474521560e21b81525f51602061364b5f395f51905f52600482018190523360248301529161010090046001600160a01b0316906391d1485490604401602060405180830381865afa158015610761573d5f5f3e3d5ffd5b505050506040513d601f19601f820116820180604052508101906107859190613529565b6107c55760405162461bcd60e51b815260206004820152600c60248201526b15539055551213d49256915160a21b60448201526064015b60405180910390fd5b6040516304b92b4d60e31b81526001600160a01b0385811660048301526024820185905263ffffffff841660448301527f000000000000000000000000000000000000000000000000000000000000000016906325c95a68906064015f604051808303815f87803b158015610838575f5ffd5b505af115801561084a573d5f5f3e3d5ffd5b5050505050505050565b5f54604051632474521560e21b81527f31e44e7763cc54215b453a052743c504bdb2e0f29f465a4651620cb67f255478600482018190523360248301529161010090046001600160a01b0316906391d1485490604401602060405180830381865afa1580156108c5573d5f5f3e3d5ffd5b505050506040513d601f19601f820116820180604052508101906108e99190613529565b6109245760405162461bcd60e51b815260206004820152600c60248201526b15539055551213d49256915160a21b60448201526064016107bc565b8115610c6757427f662b73c43fde85ff3a0a25bcaae182d680e3ad99ecd2edef1f83c63c20c6e4118360405161095c91815260200190565b60405180910390a25f7f00000000000000000000000000000000000000000000000000000000000000006001600160a01b031663deb6bb2a6040518163ffffffff1660e01b8152600401602060405180830381865afa1580156109c1573d5f5f3e3d5ffd5b505050506040513d601f19601f820116820180604052508101906109e59190613512565b6003549091505f610a02836109fa848261355c565b879190612ef4565b604051632652277760e01b8152600481018290529091507f00000000000000000000000000000000000000000000000000000000000000006001600160a01b0316906326522777906024015f604051808303815f87803b158015610a64575f5ffd5b505af1158015610a76573d5f5f3e3d5ffd5b505050508085610a86919061356f565b9450845f03610a96575050505050565b604051630852cd8d60e31b8152600481018690527f00000000000000000000000000000000000000000000000000000000000000006001600160a01b0316906342966c68906024015f604051808303815f87803b158015610af5575f5ffd5b505af1158015610b07573d5f5f3e3d5ffd5b505060015460045490925090505f805b83811015610c13575f60025f60018481548110610b3657610b36613582565b905f5260205f2090600891828204019190066004029054906101000a900463ffffffff1663ffffffff1663ffffffff1681526020019081526020015f2090505f81600101549050805f03610b8b575050610c0b565b5f610b97828d8b612f0f565b9050610ba38183612f32565b9050610baf818361356f565b6001840155610bbe818661355c565b60028401549095505f610bd18483612f47565b90505f610be883610be2868861356f565b90612f47565b90505f610bf5828461356f565b9050610c01818b61356f565b9950505050505050505b600101610b17565b50610c1e818661356f565b60035560048290555f8415801590610c3557508685145b90505f5f83118015610c4657508683145b90508180610c515750805b15610c5e57610c5e612f5b565b50505050505050505b5050565b63ffffffff81165f908152600260208181526040808420815160608101835281546001600160a01b031680825260018301549482019490945293015490830152610cb8575f915050610d27565b80516040516370a0823160e01b81526001600160a01b038681166004830152909116906370a0823190602401602060405180830381865afa158015610cff573d5f5f3e3d5ffd5b505050506040513d601f19601f82011682018060405250810190610d239190613512565b9150505b92915050565b5f54604051632474521560e21b81527fe7276a2a84d8de556657ec9cf93a55a7d66f096e529d0582ed08e9e2208b92b5600482018190523360248301529161010090046001600160a01b0316906391d1485490604401602060405180830381865afa158015610d9e573d5f5f3e3d5ffd5b505050506040513d601f19601f82011682018060405250810190610dc29190613529565b610dfd5760405162461bcd60e51b815260206004820152600c60248201526b15539055551213d49256915160a21b60448201526064016107bc565b610e05612fb4565b50565b63ffffffff81165f908152600260208181526040808420815160608101835281546001600160a01b0390811680835260018401549583019590955291909401548483015290516370a0823160e01b815290861660048201528391906370a0823190602401602060405180830381865afa158015610e87573d5f5f3e3d5ffd5b505050506040513d601f19601f82011682018060405250810190610eab9190613512565b90505f825f01516001600160a01b03166318160ddd6040518163ffffffff1660e01b8152600401602060405180830381865afa158015610eed573d5f5f3e3d5ffd5b505050506040513d601f19601f82011682018060405250810190610f119190613512565b9050805f03610f25575f9350505050610d27565b5f610f4184604001518560200151612f4790919063ffffffff16565b9050610f4e838284612ef4565b979650505050505050565b5f5f7f00000000000000000000000000000000000000000000000000000000000000006001600160a01b031663d64b84b56040518163ffffffff1660e01b8152600401602060405180830381865afa158015610fb7573d5f5f3e3d5ffd5b505050506040513d601f19601f82011682018060405250810190610fdb9190613512565b600454610fe8919061355c565b9050805f0361100057670de0b6b3a764000091505090565b61101261100b61238b565b8290612eb4565b91505090565b5f610d2782612fec612ff3565b60018181548110611034575f80fd5b905f5260205f209060089182820401919006600402915054906101000a900463ffffffff1681565b5f54604051632474521560e21b81527f1a6838efa4183e08fe3607359d1259272af9d4716f65e1a7b5921f78fd5a3c6a6004820181905233602483015260609290916101009091046001600160a01b0316906391d1485490604401602060405180830381865afa1580156110d2573d5f5f3e3d5ffd5b505050506040513d601f19601f820116820180604052508101906110f69190613529565b6111315760405162461bcd60e51b815260206004820152600c60248201526b15539055551213d49256915160a21b60448201526064016107bc565b8267ffffffffffffffff81111561114a5761114a613596565b60405190808252806020026020018201604052801561117d57816020015b60608152602001906001900390816111685790505b5091505f5b838110156112d6575f85858381811061119d5761119d613582565b90506020028101906111af91906135aa565b6111bd906020810190613301565b90505f8686848181106111d2576111d2613582565b90506020028101906111e491906135aa565b602001359050365f8888868181106111fe576111fe613582565b905060200281019061121091906135aa565b61121e9060408101906135c8565b915091505f5f856001600160a01b031685858560405161123f929190613612565b5f6040518083038185875af1925050503d805f8114611279576040519150601f19603f3d011682016040523d82523d5f602084013e61127e565b606091505b50915091508181906112a457604051634ad176bb60e01b81526004016107bc9190613621565b50808988815181106112b8576112b8613582565b60200260200101819052505050505050508080600101915050611182565b505092915050565b6112e6612ecf565b5f54604051632474521560e21b81525f51602061364b5f395f51905f52600482018190523360248301529161010090046001600160a01b0316906391d1485490604401602060405180830381865afa158015611344573d5f5f3e3d5ffd5b505050506040513d601f19601f820116820180604052508101906113689190613529565b6113a35760405162461bcd60e51b815260206004820152600c60248201526b15539055551213d49256915160a21b60448201526064016107bc565b63ffffffff83165f90815260026020818152604092839020835160608101855281546001600160a01b03168082526001830154938201939093529201549282019290925290849061141057604051632b2f6c3560e01b815263ffffffff90911660048201526024016107bc565b505f815f01516001600160a01b03166318160ddd6040518163ffffffff1660e01b8152600401602060405180830381865afa158015611451573d5f5f3e3d5ffd5b505050506040513d601f19601f820116820180604052508101906114759190613512565b90505f61149183602001518389612ef49092919063ffffffff16565b83516040516323b872dd60e01b8152336004820152306024820152604481018a90529192506001600160a01b0316906323b872dd906064016020604051808303815f875af11580156114e5573d5f5f3e3d5ffd5b505050506040513d601f19601f820116820180604052508101906115099190613529565b611526576040516312171d8360e31b815260040160405180910390fd5b8251604051630852cd8d60e31b8152600481018990526001600160a01b03909116906342966c68906024015f604051808303815f87803b158015611568575f5ffd5b505af115801561157a573d5f5f3e3d5ffd5b505050507f00000000000000000000000000000000000000000000000000000000000000006001600160a01b031663f6720a828683896115c7886040015187612f4790919063ffffffff16565b6040517fffffffff0000000000000000000000000000000000000000000000000000000060e087901b1681526001600160a01b039094166004850152602484019290925263ffffffff16604483015260648201526084015f604051808303815f87803b158015611635575f5ffd5b505af1158015611647573d5f5f3e3d5ffd5b505060405163a9059cbb60e01b81526001600160a01b037f000000000000000000000000000000000000000000000000000000000000000081166004830152602482018590527f000000000000000000000000000000000000000000000000000000000000000016925063a9059cbb91506044016020604051808303815f875af11580156116d7573d5f5f3e3d5ffd5b505050506040513d601f19601f820116820180604052508101906116fb9190613529565b5080836020015161170c919061356f565b63ffffffff8088165f908152600260209081526040808320600101949094559286015192860151909261173f92612f4716565b90505f61175b82866020015185612f0f9092919063ffffffff16565b90506117678183612f32565b90508060045f82825461177a919061356f565b925050819055508260035f828254611792919061356f565b925050819055508763ffffffff16876001600160a01b0316427fbf3fa14675f05849ac4d7547863114244029774d47c7f763094735898aa54158866040516117dc91815260200190565b60405180910390a4505050505050505050565b5f54604051632474521560e21b81527f1a6838efa4183e08fe3607359d1259272af9d4716f65e1a7b5921f78fd5a3c6a600482018190523360248301529161010090046001600160a01b0316906391d1485490604401602060405180830381865afa158015611860573d5f5f3e3d5ffd5b505050506040513d601f19601f820116820180604052508101906118849190613529565b6118bf5760405162461bcd60e51b815260206004820152600c60248201526b15539055551213d49256915160a21b60448201526064016107bc565b610c6782613196565b5f54604051632474521560e21b81527ffcb9fcbfa83b897fb2d5cf4b58962164105c1e71489a37ef3ae0db3fdce576f6600482018190523360248301529161010090046001600160a01b0316906391d1485490604401602060405180830381865afa158015611939573d5f5f3e3d5ffd5b505050506040513d601f19601f8201168201806040525081019061195d9190613529565b6119985760405162461bcd60e51b815260206004820152600c60248201526b15539055551213d49256915160a21b60448201526064016107bc565b610e05612f5b565b5f54604051632474521560e21b81527f1a6838efa4183e08fe3607359d1259272af9d4716f65e1a7b5921f78fd5a3c6a600482018190523360248301529161010090046001600160a01b0316906391d1485490604401602060405180830381865afa158015611a11573d5f5f3e3d5ffd5b505050506040513d601f19601f82011682018060405250810190611a359190613529565b611a705760405162461bcd60e51b815260206004820152600c60248201526b15539055551213d49256915160a21b60448201526064016107bc565b63ffffffff84165f9081526002602052604090205484906001600160a01b031615611ab757604051632b2f6c3560e01b815263ffffffff90911660048201526024016107bc565b508363ffffffff8116611ae65760405163aa822e2f60e01b815263ffffffff90911660048201526024016107bc565b5083606463ffffffff82161115611b195760405163aa822e2f60e01b815263ffffffff90911660048201526024016107bc565b5081670de0b6b3a7640000811015611b4757604051639f44c9eb60e01b81526004016107bc91815260200190565b50611b5b670de0b6b3a76400006002613633565b8211158290611b8057604051639f44c9eb60e01b81526004016107bc91815260200190565b5063ffffffff8481165f81815260026020818152604080842080546001600160a01b0319166001600160a01b038b169081178255930188905560018054808201825594527fb10e2d527612073b26eecdfd717e6a320cf44b4afac2b0732d9fcbe2b7fa0cf66008850401805460079095166004026101000a968702199094169585029590951790925583519283529082015290810183905242907fd4263ef9d0edf23a7a8b6734c3e75bf29df4b41f29ae75ada7287d66c355d2b99060600160405180910390a250505050565b5f54604051632474521560e21b81527f31e44e7763cc54215b453a052743c504bdb2e0f29f465a4651620cb67f255478600482018190523360248301529161010090046001600160a01b0316906391d1485490604401602060405180830381865afa158015611cbe573d5f5f3e3d5ffd5b505050506040513d601f19601f82011682018060405250810190611ce29190613529565b611d1d5760405162461bcd60e51b815260206004820152600c60248201526b15539055551213d49256915160a21b60448201526064016107bc565b8115610c6757427f8ad0c4905aa5603107e860e0c2b1a78e23eba312c30f8114a70d94d9e187f5af83604051611d5591815260200190565b60405180910390a26040516323b872dd60e01b8152336004820152306024820152604481018390527f00000000000000000000000000000000000000000000000000000000000000006001600160a01b0316906323b872dd906064016020604051808303815f875af1158015611dcd573d5f5f3e3d5ffd5b505050506040513d601f19601f82011682018060405250810190611df19190613529565b611e0e576040516312171d8360e31b815260040160405180910390fd5b5f60045490505f7f00000000000000000000000000000000000000000000000000000000000000006001600160a01b031663d64b84b56040518163ffffffff1660e01b8152600401602060405180830381865afa158015611e71573d5f5f3e3d5ffd5b505050506040513d601f19601f82011682018060405250810190611e959190613512565b90505f611ea6826109fa818661355c565b9050801561200a576040516345efb3f960e11b8152600481018290527f00000000000000000000000000000000000000000000000000000000000000006001600160a01b031690638bdf67f2906024015f604051808303815f87803b158015611f0d575f5ffd5b505af1158015611f1f573d5f5f3e3d5ffd5b505060405163a9059cbb60e01b81526001600160a01b037f000000000000000000000000000000000000000000000000000000000000000081166004830152602482018590527f000000000000000000000000000000000000000000000000000000000000000016925063a9059cbb91506044016020604051808303815f875af1158015611faf573d5f5f3e3d5ffd5b505050506040513d601f19601f82011682018060405250810190611fd39190613529565b611ff0576040516312171d8360e31b815260040160405180910390fd5b611ffa818661356f565b9450845f0361200a575050505050565b825f03612018575050505050565b6001545f908190815b81811015612106575f60025f6001848154811061204057612040613582565b5f918252602080832060088304015463ffffffff60046007909416939093026101000a900482168452830193909352604090910181206001810154600282015491945092612090918491612f4716565b90505f61209e8d838d612ef4565b9050805f036120b057505050506120fe565b6120ba818461355c565b60018501556120c9818861355c565b96505f6120e085600201548386610be2919061355c565b90506120ec838261356f565b6120f6908a61355c565b985050505050505b600101612021565b508160035f828254612118919061355c565b909155506121289050838761355c565b6004555050505050505050565b5f54604051632474521560e21b81527f1a6838efa4183e08fe3607359d1259272af9d4716f65e1a7b5921f78fd5a3c6a600482018190523360248301529161010090046001600160a01b0316906391d1485490604401602060405180830381865afa1580156121a6573d5f5f3e3d5ffd5b505050506040513d601f19601f820116820180604052508101906121ca9190613529565b6122055760405162461bcd60e51b815260206004820152600c60248201526b15539055551213d49256915160a21b60448201526064016107bc565b63ffffffff83165f90815260026020818152604092839020835160608101855281546001600160a01b03168082526001830154938201939093529201549282019290925290849061227257604051632b2f6c3560e01b815263ffffffff90911660048201526024016107bc565b5082670de0b6b3a76400008110156122a057604051639f44c9eb60e01b81526004016107bc91815260200190565b506122b4670de0b6b3a76400006002613633565b83111583906122d957604051639f44c9eb60e01b81526004016107bc91815260200190565b505f6122f682604001518360200151612f4790919063ffffffff16565b90505f612310858460200151612f4790919063ffffffff16565b90508181600454612321919061355c565b61232b919061356f565b60045563ffffffff86165f818152600260208181526040928390209091018890558151928352820187905242917fc4cc0e960a3df1fc5d5b08bd774cca6269471fd7837e156ace5e2fc521d033c7910160405180910390a2505050505050565b5f7f00000000000000000000000000000000000000000000000000000000000000006001600160a01b031663deb6bb2a6040518163ffffffff1660e01b8152600401602060405180830381865afa1580156123e8573d5f5f3e3d5ffd5b505050506040513d601f19601f8201168201806040525081019061240c9190613512565b600354612419919061355c565b905090565b612426612ecf565b5f54604051632474521560e21b81525f51602061364b5f395f51905f52600482018190523360248301529161010090046001600160a01b0316906391d1485490604401602060405180830381865afa158015612484573d5f5f3e3d5ffd5b505050506040513d601f19601f820116820180604052508101906124a89190613529565b6124e35760405162461bcd60e51b815260206004820152600c60248201526b15539055551213d49256915160a21b60448201526064016107bc565b838363ffffffff8083169082161161251e576040516323efd85360e21b815263ffffffff9283166004820152911660248201526044016107bc565b505063ffffffff8085165f90815260026020818152604080842081516060808201845282546001600160a01b039081168352600180850154848801529387015483860152978b1687528585529583902083519687018452805490971680875291870154938601939093529490920154918301919091529185906125bd57604051632b2f6c3560e01b815263ffffffff90911660048201526024016107bc565b50865f036125cc575050612969565b5f825f01516001600160a01b03166318160ddd6040518163ffffffff1660e01b8152600401602060405180830381865afa15801561260c573d5f5f3e3d5ffd5b505050506040513d601f19601f820116820180604052508101906126309190613512565b90505f61264c8460200151838b612ef49092919063ffffffff16565b9050805f0361265e5750505050612969565b5f61267a85604001518660200151612f4790919063ffffffff16565b90505f61269682876020015185612f0f9092919063ffffffff16565b90506126a28183612f32565b865160405163079cc67960e41b8152336004820152602481018e90529192506001600160a01b0316906379cc6790906044015f604051808303815f87803b1580156126eb575f5ffd5b505af11580156126fd573d5f5f3e3d5ffd5b505050508286602001818151612713919061356f565b90525063ffffffff8a165f9081526002602081815260408084208a5181546001600160a01b0319166001600160a01b039182161782558b84015160018301558b8301519190940155885181516318160ddd60e01b815291519316926318160ddd926004808401939192918290030181865afa158015612794573d5f5f3e3d5ffd5b505050506040513d601f19601f820116820180604052508101906127b89190613512565b90505f81156127d85760208701516127d39086908490612ef4565b6127da565b845b90505f6127f4886040015187612f4790919063ffffffff16565b88516040516340c10f1960e01b81526001600160a01b038e81166004830152602482018690529293509116906340c10f19906044015f604051808303815f87803b158015612840575f5ffd5b505af1158015612852573d5f5f3e3d5ffd5b505050508588602001818151612868919061355c565b90525063ffffffff8c165f908152600260208181526040928390208b5181546001600160a01b0319166001600160a01b03909116178155908b01516001820155918a015191015560045484906128bf90839061355c565b6128c9919061356f565b60045560405186815263ffffffff8e16906001600160a01b038d169042907fbf3fa14675f05849ac4d7547863114244029774d47c7f763094735898aa541589060200160405180910390a48b63ffffffff168b6001600160a01b0316427f92177e10bc6c212f7b3d2d410aa7c5ecd47b5a5588ec2b495e42c8b6e394f7088960405161295791815260200190565b60405180910390a45050505050505050505b5050505050565b5f610d27826131fb612ff3565b612985612ecf565b336001600160a01b037f00000000000000000000000000000000000000000000000000000000000000001614612a7b575f5461010090046001600160a01b0316604051632474521560e21b81525f51602061364b5f395f51905f5260048201523360248201526001600160a01b0391909116906391d1485490604401602060405180830381865afa158015612a1c573d5f5f3e3d5ffd5b505050506040513d601f19601f82011682018060405250810190612a409190613529565b612a7b5760405162461bcd60e51b815260206004820152600c60248201526b15539055551213d49256915160a21b60448201526064016107bc565b63ffffffff82165f90815260026020818152604092839020835160608101855281546001600160a01b031680825260018301549382019390935292015492820192909252908390612ae857604051632b2f6c3560e01b815263ffffffff90911660048201526024016107bc565b506040516323b872dd60e01b8152336004820152306024820152604481018590527f00000000000000000000000000000000000000000000000000000000000000006001600160a01b0316906323b872dd906064016020604051808303815f875af1158015612b59573d5f5f3e3d5ffd5b505050506040513d601f19601f82011682018060405250810190612b7d9190613529565b612b9a576040516312171d8360e31b815260040160405180910390fd5b5f815f01516001600160a01b03166318160ddd6040518163ffffffff1660e01b8152600401602060405180830381865afa158015612bda573d5f5f3e3d5ffd5b505050506040513d601f19601f82011682018060405250810190612bfe9190613512565b90505f8115612c1e576020830151612c199087908490612ef4565b612c20565b855b90505f612c3a846040015188612f4790919063ffffffff16565b90508684602001818151612c4e919061355c565b905250600480548291905f90612c6590849061355c565b925050819055508660035f828254612c7d919061355c565b909155505063ffffffff86165f90815260026020818152604092839020875181546001600160a01b0319166001600160a01b03918216908117835592890151600183015588850151919093015591516340c10f1960e01b81529087166004820152602481018490526340c10f19906044015f604051808303815f87803b158015612d05575f5ffd5b505af1158015612d17573d5f5f3e3d5ffd5b505050508563ffffffff16856001600160a01b0316427f92177e10bc6c212f7b3d2d410aa7c5ecd47b5a5588ec2b495e42c8b6e394f7088a604051612d5e91815260200190565b60405180910390a450505050505050565b612d77612ecf565b5f54604051632474521560e21b81525f51602061364b5f395f51905f52600482018190523360248301529161010090046001600160a01b0316906391d1485490604401602060405180830381865afa158015612dd5573d5f5f3e3d5ffd5b505050506040513d601f19601f82011682018060405250810190612df99190613529565b612e345760405162461bcd60e51b815260206004820152600c60248201526b15539055551213d49256915160a21b60448201526064016107bc565b604051627b8a6760e11b8152600481018390526001600160a01b0384811660248301527f0000000000000000000000000000000000000000000000000000000000000000169062f714ce906044015f604051808303815f87803b158015612e99575f5ffd5b505af1158015612eab573d5f5f3e3d5ffd5b50505050505050565b5f612ec883670de0b6b3a764000084612ef4565b9392505050565b5f5460ff1615612ef25760405163d93c066560e01b815260040160405180910390fd5b565b5f825f190484118302158202612f08575f5ffd5b5091020490565b5f825f190484118302158202612f23575f5ffd5b50910281810615159190040190565b5f818310612f405781612ec8565b5090919050565b5f612ec88383670de0b6b3a7640000612ef4565b612f63612ecf565b5f805460ff191660011790557f62e78cea01bee320cd4e420270b5ea74000d11b0c9f74754ebdbfc544b05a258612f973390565b6040516001600160a01b03909116815260200160405180910390a1565b612fbc613217565b5f805460ff191690557f5db9ee0a495bf2e6ff9c91a7834c1ba4fdd244a5e8aa4e537bd38aeae4b073aa33612f97565b6020015190565b6001545f908190815b8181101561318c575f6001828154811061301857613018613582565b5f918252602080832060088304015463ffffffff6004600790941684026101000a9091041680845260028083526040808620815160608101835281546001600160a01b031680825260018301549682019690965292015482820152516370a0823160e01b815291955093926370a08231916130a4918d91016001600160a01b0391909116815260200190565b602060405180830381865afa1580156130bf573d5f5f3e3d5ffd5b505050506040513d601f19601f820116820180604052508101906130e39190613512565b90505f825f01516001600160a01b03166318160ddd6040518163ffffffff1660e01b8152600401602060405180830381865afa158015613125573d5f5f3e3d5ffd5b505050506040513d601f19601f820116820180604052508101906131499190613512565b9050805f0361315b5750505050613184565b61317361316b848b63ffffffff16565b839083612ef4565b61317d908861355c565b9650505050505b600101612ffc565b5090949350505050565b5f80546001600160a01b0383811661010081810274ffffffffffffffffffffffffffffffffffffffff0019851617855560405193049190911692909183917f9209b7c8c06dcfd261686a663e7c55989337b18d59da5433c6f2835fb697092091a35050565b5f610d2782604001518360200151612f4790919063ffffffff16565b5f5460ff16612ef257604051638dfc202b60e01b815260040160405180910390fd5b803563ffffffff8116811461324c575f5ffd5b919050565b5f60208284031215613261575f5ffd5b612ec882613239565b80356001600160a01b038116811461324c575f5ffd5b5f5f5f60608486031215613292575f5ffd5b61329b8461326a565b9250602084013591506132b060408501613239565b90509250925092565b5f602082840312156132c9575f5ffd5b5035919050565b5f5f604083850312156132e1575f5ffd5b6132ea8361326a565b91506132f860208401613239565b90509250929050565b5f60208284031215613311575f5ffd5b612ec88261326a565b5f5f6020838503121561332b575f5ffd5b823567ffffffffffffffff811115613341575f5ffd5b8301601f81018513613351575f5ffd5b803567ffffffffffffffff811115613367575f5ffd5b8560208260051b840101111561337b575f5ffd5b6020919091019590945092505050565b5f81518084528060208401602086015e5f602082860101526020601f19601f83011685010191505092915050565b5f602082016020835280845180835260408501915060408160051b8601019250602086015f5b8281101561341057603f198786030184526133fb85835161338b565b945060209384019391909101906001016133df565b50929695505050505050565b5f5f5f6060848603121561342e575f5ffd5b8335925061343e60208501613239565b91506132b06040850161326a565b5f5f5f6060848603121561345e575f5ffd5b61346784613239565b92506134756020850161326a565b929592945050506040919091013590565b5f5f60408385031215613497575f5ffd5b6134a083613239565b946020939093013593505050565b5f5f5f5f608085870312156134c1575f5ffd5b843593506134d160208601613239565b92506134df60408601613239565b91506134ed6060860161326a565b905092959194509250565b5f5f60408385031215613509575f5ffd5b6134a08361326a565b5f60208284031215613522575f5ffd5b5051919050565b5f60208284031215613539575f5ffd5b81518015158114612ec8575f5ffd5b634e487b7160e01b5f52601160045260245ffd5b80820180821115610d2757610d27613548565b81810381811115610d2757610d27613548565b634e487b7160e01b5f52603260045260245ffd5b634e487b7160e01b5f52604160045260245ffd5b5f8235605e198336030181126135be575f5ffd5b9190910192915050565b5f5f8335601e198436030181126135dd575f5ffd5b83018035915067ffffffffffffffff8211156135f7575f5ffd5b60200191503681900382131561360b575f5ffd5b9250929050565b818382375f9101908152919050565b602081525f612ec8602083018461338b565b8082028115828204841417610d2757610d2761354856fe276ea66e969b021a947c47a128f4d53c55387336443ef7a5391a75f0d2e48d25a264697066735822122082cf84341805f42c6e74bb2fe2770a801e20c59c174247b075f8a26752aa258464736f6c634300081c0033","linkReferences":{}},"methodIdentifiers":{"applyLosses(uint256)":"26522777","balanceOf(address)":"70a08231","buckets(uint32)":"0fc48a14","cancelUnwinding(address,uint256,uint32)":"25c95a68","core()":"f2f4eb26","createPosition(uint256,uint32,address)":"ed4254ec","depositRewards(uint256)":"8bdf67f2","emergencyAction((address,uint256,bytes)[])":"7df3927e","enableBucket(uint32,address,uint256)":"88d045d3","enabledBuckets(uint256)":"7c1d0f21","exchangeRate(uint32)":"10821ff9","globalReceiptToken()":"1862a69c","globalRewardWeight()":"626e143e","increaseUnwindingEpochs(uint256,uint32,uint32,address)":"c4acfb8f","pause()":"8456cb59","paused()":"5c975abb","receiptToken()":"ec78e832","rewardMultiplier()":"6f2c590a","rewardWeight(address)":"ca9011ae","rewardWeightForUnwindingEpochs(address,uint32)":"5be7d3c8","setBucketMultiplier(uint32,uint256)":"8e23cbc7","setCore(address)":"80009630","shareToken(uint32)":"e7dda2eb","shares(address,uint32)":"29eda9e5","startUnwinding(uint256,uint32,address)":"7f866a0d","totalBalance()":"ad7a672f","unpause()":"3f4ba83a","unwindingEpochsEnabled(uint32)":"42cf00a9","unwindingModule()":"e37d01b1","withdraw(address,uint256)":"f3fef3a3"},"id":105}