{"abi":[{"type":"constructor","inputs":[],"stateMutability":"nonpayable"},{"type":"function","name":"addresses","inputs":[{"name":"","type":"bytes32","internalType":"bytes32"}],"outputs":[{"name":"","type":"address","internalType":"address"}],"stateMutability":"view"},{"type":"function","name":"cancelUnwinding","inputs":[{"name":"_unwindingTimestamp","type":"uint256","internalType":"uint256"},{"name":"_newUnwindingEpochs","type":"uint32","internalType":"uint32"}],"outputs":[],"stateMutability":"nonpayable"},{"type":"function","name":"claimRedemption","inputs":[],"outputs":[],"stateMutability":"nonpayable"},{"type":"function","name":"core","inputs":[],"outputs":[{"name":"","type":"address","internalType":"contract InfiniFiCore"}],"stateMutability":"view"},{"type":"function","name":"createPosition","inputs":[{"name":"_amount","type":"uint256","internalType":"uint256"},{"name":"_unwindingEpochs","type":"uint32","internalType":"uint32"},{"name":"_recipient","type":"address","internalType":"address"}],"outputs":[],"stateMutability":"nonpayable"},{"type":"function","name":"emergencyAction","inputs":[{"name":"calls","type":"tuple[]","internalType":"struct CoreControlled.Call[]","components":[{"name":"target","type":"address","internalType":"address"},{"name":"value","type":"uint256","internalType":"uint256"},{"name":"callData","type":"bytes","internalType":"bytes"}]}],"outputs":[{"name":"returnData","type":"bytes[]","internalType":"bytes[]"}],"stateMutability":"payable"},{"type":"function","name":"getAddress","inputs":[{"name":"_name","type":"string","internalType":"string"}],"outputs":[{"name":"","type":"address","internalType":"address"}],"stateMutability":"view"},{"type":"function","name":"increaseUnwindingEpochs","inputs":[{"name":"_oldUnwindingEpochs","type":"uint32","internalType":"uint32"},{"name":"_newUnwindingEpochs","type":"uint32","internalType":"uint32"}],"outputs":[],"stateMutability":"nonpayable"},{"type":"function","name":"init","inputs":[{"name":"_core","type":"address","internalType":"address"}],"outputs":[],"stateMutability":"nonpayable"},{"type":"function","name":"mint","inputs":[{"name":"_to","type":"address","internalType":"address"},{"name":"_amount","type":"uint256","internalType":"uint256"}],"outputs":[{"name":"","type":"uint256","internalType":"uint256"}],"stateMutability":"nonpayable"},{"type":"function","name":"mintAndLock","inputs":[{"name":"_to","type":"address","internalType":"address"},{"name":"_amount","type":"uint256","internalType":"uint256"},{"name":"_unwindingEpochs","type":"uint32","internalType":"uint32"}],"outputs":[{"name":"","type":"uint256","internalType":"uint256"}],"stateMutability":"nonpayable"},{"type":"function","name":"mintAndStake","inputs":[{"name":"_to","type":"address","internalType":"address"},{"name":"_amount","type":"uint256","internalType":"uint256"}],"outputs":[{"name":"","type":"uint256","internalType":"uint256"}],"stateMutability":"nonpayable"},{"type":"function","name":"multiVote","inputs":[{"name":"_assets","type":"address[]","internalType":"address[]"},{"name":"_unwindingEpochs","type":"uint32[]","internalType":"uint32[]"},{"name":"_liquidVotes","type":"tuple[][]","internalType":"struct AllocationVoting.AllocationVote[][]","components":[{"name":"farm","type":"address","internalType":"address"},{"name":"weight","type":"uint96","internalType":"uint96"}]},{"name":"_illiquidVotes","type":"tuple[][]","internalType":"struct AllocationVoting.AllocationVote[][]","components":[{"name":"farm","type":"address","internalType":"address"},{"name":"weight","type":"uint96","internalType":"uint96"}]}],"outputs":[],"stateMutability":"nonpayable"},{"type":"function","name":"pause","inputs":[],"outputs":[],"stateMutability":"nonpayable"},{"type":"function","name":"paused","inputs":[],"outputs":[{"name":"","type":"bool","internalType":"bool"}],"stateMutability":"view"},{"type":"function","name":"redeem","inputs":[{"name":"_to","type":"address","internalType":"address"},{"name":"_amount","type":"uint256","internalType":"uint256"}],"outputs":[{"name":"","type":"uint256","internalType":"uint256"}],"stateMutability":"nonpayable"},{"type":"function","name":"setAddress","inputs":[{"name":"_name","type":"string","internalType":"string"},{"name":"_address","type":"address","internalType":"address"}],"outputs":[],"stateMutability":"nonpayable"},{"type":"function","name":"setCore","inputs":[{"name":"newCore","type":"address","internalType":"address"}],"outputs":[],"stateMutability":"nonpayable"},{"type":"function","name":"startUnwinding","inputs":[{"name":"_shares","type":"uint256","internalType":"uint256"},{"name":"_unwindingEpochs","type":"uint32","internalType":"uint32"}],"outputs":[],"stateMutability":"nonpayable"},{"type":"function","name":"unpause","inputs":[],"outputs":[],"stateMutability":"nonpayable"},{"type":"function","name":"unstakeAndLock","inputs":[{"name":"_to","type":"address","internalType":"address"},{"name":"_amount","type":"uint256","internalType":"uint256"},{"name":"_unwindingEpochs","type":"uint32","internalType":"uint32"}],"outputs":[{"name":"","type":"uint256","internalType":"uint256"}],"stateMutability":"nonpayable"},{"type":"function","name":"vote","inputs":[{"name":"_asset","type":"address","internalType":"address"},{"name":"_unwindingEpochs","type":"uint32","internalType":"uint32"},{"name":"_liquidVotes","type":"tuple[]","internalType":"struct AllocationVoting.AllocationVote[]","components":[{"name":"farm","type":"address","internalType":"address"},{"name":"weight","type":"uint96","internalType":"uint96"}]},{"name":"_illiquidVotes","type":"tuple[]","internalType":"struct AllocationVoting.AllocationVote[]","components":[{"name":"farm","type":"address","internalType":"address"},{"name":"weight","type":"uint96","internalType":"uint96"}]}],"outputs":[],"stateMutability":"nonpayable"},{"type":"function","name":"withdraw","inputs":[{"name":"_unwindingTimestamp","type":"uint256","internalType":"uint256"}],"outputs":[],"stateMutability":"nonpayable"},{"type":"function","name":"zapInAndLock","inputs":[{"name":"_token","type":"address","internalType":"address"},{"name":"_amount","type":"uint256","internalType":"uint256"},{"name":"_routerData","type":"bytes","internalType":"bytes"},{"name":"_unwindingEpochs","type":"uint32","internalType":"uint32"},{"name":"_to","type":"address","internalType":"address"}],"outputs":[{"name":"","type":"uint256","internalType":"uint256"}],"stateMutability":"payable"},{"type":"event","name":"AddressSet","inputs":[{"name":"timestamp","type":"uint256","indexed":false,"internalType":"uint256"},{"name":"name","type":"string","indexed":true,"internalType":"string"},{"name":"_address","type":"address","indexed":false,"internalType":"address"}],"anonymous":false},{"type":"event","name":"CoreUpdate","inputs":[{"name":"oldCore","type":"address","indexed":true,"internalType":"address"},{"name":"newCore","type":"address","indexed":true,"internalType":"address"}],"anonymous":false},{"type":"event","name":"Paused","inputs":[{"name":"account","type":"address","indexed":false,"internalType":"address"}],"anonymous":false},{"type":"event","name":"Unpaused","inputs":[{"name":"account","type":"address","indexed":false,"internalType":"address"}],"anonymous":false},{"type":"error","name":"EnforcedPause","inputs":[]},{"type":"error","name":"ExpectedPause","inputs":[]},{"type":"error","name":"PendingLossesUnapplied","inputs":[]},{"type":"error","name":"SafeERC20FailedOperation","inputs":[{"name":"token","type":"address","internalType":"address"}]},{"type":"error","name":"SwapFailed","inputs":[]},{"type":"error","name":"UnderlyingCallReverted","inputs":[{"name":"returnData","type":"bytes","internalType":"bytes"}]}],"bytecode":{"object":"0x6080604052348015600e575f5ffd5b505f80546001600160a81b0319166101001790556130118061002f5f395ff3fe608060405260043610610183575f3560e01c806380009630116100d1578063c1d9fe3e1161007c578063d95ce53b11610057578063d95ce53b1461042a578063ed4254ec14610449578063f2f4eb2614610468575f5ffd5b8063c1d9fe3e146103d9578063c93e3e7e146103f8578063c99ce02214610417575f5ffd5b8063a16ba4e0116100ac578063a16ba4e014610387578063bf40fac11461039b578063c00716ea146103ba575f5ffd5b806380009630146103355780638456cb59146103545780639b2ea4bd14610368575f5ffd5b80633f4ba83a116101315780635c975abb1161010c5780635c975abb146102a8578063699f200f146102c95780637df3927e14610315575f5ffd5b80633f4ba83a1461025657806340c10f191461026a5780634ec7838114610289575f5ffd5b8063230ae89c11610161578063230ae89c146101f957806326cf8338146102185780632e1a7d4d14610237575f5ffd5b806319ab453c146101875780631a11dc4c146101a85780631e9a6950146101c7575b5f5ffd5b348015610192575f5ffd5b506101a66101a13660046127d6565b610489565b005b3480156101b3575f5ffd5b506101a66101c236600461280b565b6104b2565b3480156101d2575f5ffd5b506101e66101e1366004612835565b610559565b6040519081526020015b60405180910390f35b348015610204575f5ffd5b506101e6610213366004612835565b61072f565b348015610223575f5ffd5b506101e661023236600461285f565b6109d8565b348015610242575f5ffd5b506101a661025136600461289a565b610c81565b348015610261575f5ffd5b506101a6610d23565b348015610275575f5ffd5b506101e6610284366004612835565b610e00565b348015610294575f5ffd5b506101a66102a33660046128f9565b610f1e565b3480156102b3575f5ffd5b505f5460ff1660405190151581526020016101f0565b3480156102d4575f5ffd5b506102fd6102e336600461289a565b60016020525f90815260409020546001600160a01b031681565b6040516001600160a01b0390911681526020016101f0565b6103286103233660046129c7565b611071565b6040516101f09190612a34565b348015610340575f5ffd5b506101a661034f3660046127d6565b6112f3565b34801561035f575f5ffd5b506101a66113d0565b348015610373575f5ffd5b506101a6610382366004612b36565b6114a8565b348015610392575f5ffd5b506101a661162e565b3480156103a6575f5ffd5b506102fd6103b5366004612b85565b6116bf565b3480156103c5575f5ffd5b506101a66103d436600461280b565b611708565b3480156103e4575f5ffd5b506101a66103f3366004612c00565b61190a565b348015610403575f5ffd5b506101a6610412366004612c92565b6119a3565b6101e6610425366004612cba565b611c1a565b348015610435575f5ffd5b506101e661044436600461285f565b612019565b348015610454575f5ffd5b506101a6610463366004612d63565b61228d565b348015610473575f5ffd5b505f5461010090046001600160a01b03166102fd565b5f5461010090046001600160a01b0316156104a6576104a6612da0565b6104af81612422565b50565b6104ba612487565b6104ec604051806040016040528060118152602001703637b1b5b4b733a1b7b73a3937b63632b960791b8152506116bf565b6040516304b92b4d60e31b81523360048201526024810184905263ffffffff831660448201526001600160a01b0391909116906325c95a68906064015f604051808303815f87803b15801561053f575f5ffd5b505af1158015610551573d5f5f3e3d5ffd5b505050505050565b5f610562612487565b61056a6124ac565b5f6105986040518060400160405280600c81526020016b3932b1b2b4b83a2a37b5b2b760a11b8152506116bf565b90505f6105cc6040518060400160405280601081526020016f3932b232b2b6a1b7b73a3937b63632b960811b8152506116bf565b6040516323b872dd60e01b8152336004820152306024820152604481018690529091506001600160a01b038316906323b872dd906064016020604051808303815f875af115801561061f573d5f5f3e3d5ffd5b505050506040513d601f19601f820116820180604052508101906106439190612db4565b5060405163095ea7b360e01b81526001600160a01b0382811660048301526024820186905283169063095ea7b3906044016020604051808303815f875af1158015610690573d5f5f3e3d5ffd5b505050506040513d601f19601f820116820180604052508101906106b49190612db4565b506040516301e9a69560e41b81526001600160a01b03868116600483015260248201869052821690631e9a6950906044015b6020604051808303815f875af1158015610702573d5f5f3e3d5ffd5b505050506040513d601f19601f820116820180604052508101906107269190612dd3565b95945050505050565b5f610738612487565b5f6107686040518060400160405280600e81526020016d36b4b73a21b7b73a3937b63632b960911b8152506116bf565b90505f6107976040518060400160405280600b81526020016a39ba30b5b2b22a37b5b2b760a91b8152506116bf565b90505f6107c76040518060400160405280600c81526020016b3932b1b2b4b83a2a37b5b2b760a11b8152506116bf565b90505f6107ef604051806040016040528060048152602001635553444360e01b8152506116bf565b90506108066001600160a01b03821633308961255c565b60405163095ea7b360e01b81526001600160a01b0385811660048301526024820188905282169063095ea7b3906044016020604051808303815f875af1158015610852573d5f5f3e3d5ffd5b505050506040513d601f19601f820116820180604052508101906108769190612db4565b506040516340c10f1960e01b8152306004820152602481018790525f906001600160a01b038616906340c10f19906044016020604051808303815f875af11580156108c3573d5f5f3e3d5ffd5b505050506040513d601f19601f820116820180604052508101906108e79190612dd3565b60405163095ea7b360e01b81526001600160a01b038681166004830152602482018390529192509084169063095ea7b3906044016020604051808303815f875af1158015610937573d5f5f3e3d5ffd5b505050506040513d601f19601f8201168201806040525081019061095b9190612db4565b50604051636e553f6560e01b8152600481018290526001600160a01b038981166024830152851690636e553f65906044016020604051808303815f875af11580156109a8573d5f5f3e3d5ffd5b505050506040513d601f19601f820116820180604052508101906109cc9190612dd3565b50979650505050505050565b5f6109e1612487565b5f610a116040518060400160405280600e81526020016d36b4b73a21b7b73a3937b63632b960911b8152506116bf565b90505f610a416040518060400160405280600c81526020016b3932b1b2b4b83a2a37b5b2b760a11b8152506116bf565b90505f610a76604051806040016040528060118152602001703637b1b5b4b733a1b7b73a3937b63632b960791b8152506116bf565b90505f610a9e604051806040016040528060048152602001635553444360e01b8152506116bf565b9050610ab56001600160a01b03821633308a61255c565b60405163095ea7b360e01b81526001600160a01b0385811660048301526024820189905282169063095ea7b3906044016020604051808303815f875af1158015610b01573d5f5f3e3d5ffd5b505050506040513d601f19601f82011682018060405250810190610b259190612db4565b506040516340c10f1960e01b8152306004820152602481018890525f906001600160a01b038616906340c10f19906044016020604051808303815f875af1158015610b72573d5f5f3e3d5ffd5b505050506040513d601f19601f82011682018060405250810190610b969190612dd3565b60405163095ea7b360e01b81526001600160a01b038581166004830152602482018390529192509085169063095ea7b3906044016020604051808303815f875af1158015610be6573d5f5f3e3d5ffd5b505050506040513d601f19601f82011682018060405250810190610c0a9190612db4565b50604051633b50953b60e21b81526004810182905263ffffffff881660248201526001600160a01b038a8116604483015284169063ed4254ec906064015f604051808303815f87803b158015610c5e575f5ffd5b505af1158015610c70573d5f5f3e3d5ffd5b50929b9a5050505050505050505050565b610c89612487565b610c916124ac565b610cc3604051806040016040528060118152602001703637b1b5b4b733a1b7b73a3937b63632b960791b8152506116bf565b60405163f3fef3a360e01b8152336004820152602481018390526001600160a01b03919091169063f3fef3a3906044015f604051808303815f87803b158015610d0a575f5ffd5b505af1158015610d1c573d5f5f3e3d5ffd5b5050505050565b5f54604051632474521560e21b81527fe7276a2a84d8de556657ec9cf93a55a7d66f096e529d0582ed08e9e2208b92b5600482018190523360248301529161010090046001600160a01b0316906391d1485490604401602060405180830381865afa158015610d94573d5f5f3e3d5ffd5b505050506040513d601f19601f82011682018060405250810190610db89190612db4565b610df85760405162461bcd60e51b815260206004820152600c60248201526b15539055551213d49256915160a21b60448201526064015b60405180910390fd5b6104af6125c3565b5f610e09612487565b5f610e2f604051806040016040528060048152602001635553444360e01b8152506116bf565b90505f610e616040518060400160405280600e81526020016d36b4b73a21b7b73a3937b63632b960911b8152506116bf565b9050610e786001600160a01b03831633308761255c565b60405163095ea7b360e01b81526001600160a01b0382811660048301526024820186905283169063095ea7b3906044016020604051808303815f875af1158015610ec4573d5f5f3e3d5ffd5b505050506040513d601f19601f82011682018060405250810190610ee89190612db4565b506040516340c10f1960e01b81526001600160a01b038681166004830152602482018690528216906340c10f19906044016106e6565b610f26612487565b5f610f586040518060400160405280601081526020016f616c6c6f636174696f6e566f74696e6760801b8152506116bf565b90505f5b8881101561106557816001600160a01b0316632610409b338c8c85818110610f8657610f86612dea565b9050602002016020810190610f9b91906127d6565b8b8b86818110610fad57610fad612dea565b9050602002016020810190610fc29190612dfe565b8a8a87818110610fd457610fd4612dea565b9050602002810190610fe69190612e17565b8a8a89818110610ff857610ff8612dea565b905060200281019061100a9190612e17565b6040518863ffffffff1660e01b815260040161102c9796959493929190612eca565b5f604051808303815f87803b158015611043575f5ffd5b505af1158015611055573d5f5f3e3d5ffd5b505060019092019150610f5c9050565b50505050505050505050565b5f54604051632474521560e21b81527f1a6838efa4183e08fe3607359d1259272af9d4716f65e1a7b5921f78fd5a3c6a6004820181905233602483015260609290916101009091046001600160a01b0316906391d1485490604401602060405180830381865afa1580156110e7573d5f5f3e3d5ffd5b505050506040513d601f19601f8201168201806040525081019061110b9190612db4565b6111465760405162461bcd60e51b815260206004820152600c60248201526b15539055551213d49256915160a21b6044820152606401610def565b8267ffffffffffffffff81111561115f5761115f612a97565b60405190808252806020026020018201604052801561119257816020015b606081526020019060019003908161117d5790505b5091505f5b838110156112eb575f8585838181106111b2576111b2612dea565b90506020028101906111c49190612f28565b6111d29060208101906127d6565b90505f8686848181106111e7576111e7612dea565b90506020028101906111f99190612f28565b602001359050365f88888681811061121357611213612dea565b90506020028101906112259190612f28565b611233906040810190612f46565b915091505f5f856001600160a01b0316858585604051611254929190612f89565b5f6040518083038185875af1925050503d805f811461128e576040519150601f19603f3d011682016040523d82523d5f602084013e611293565b606091505b50915091508181906112b957604051634ad176bb60e01b8152600401610def9190612f98565b50808988815181106112cd576112cd612dea565b60200260200101819052505050505050508080600101915050611197565b505092915050565b5f54604051632474521560e21b81527f1a6838efa4183e08fe3607359d1259272af9d4716f65e1a7b5921f78fd5a3c6a600482018190523360248301529161010090046001600160a01b0316906391d1485490604401602060405180830381865afa158015611364573d5f5f3e3d5ffd5b505050506040513d601f19601f820116820180604052508101906113889190612db4565b6113c35760405162461bcd60e51b815260206004820152600c60248201526b15539055551213d49256915160a21b6044820152606401610def565b6113cc82612422565b5050565b5f54604051632474521560e21b81527ffcb9fcbfa83b897fb2d5cf4b58962164105c1e71489a37ef3ae0db3fdce576f6600482018190523360248301529161010090046001600160a01b0316906391d1485490604401602060405180830381865afa158015611441573d5f5f3e3d5ffd5b505050506040513d601f19601f820116820180604052508101906114659190612db4565b6114a05760405162461bcd60e51b815260206004820152600c60248201526b15539055551213d49256915160a21b6044820152606401610def565b6104af612614565b5f54604051632474521560e21b81527f1a6838efa4183e08fe3607359d1259272af9d4716f65e1a7b5921f78fd5a3c6a600482018190523360248301529161010090046001600160a01b0316906391d1485490604401602060405180830381865afa158015611519573d5f5f3e3d5ffd5b505050506040513d601f19601f8201168201806040525081019061153d9190612db4565b6115785760405162461bcd60e51b815260206004820152600c60248201526b15539055551213d49256915160a21b6044820152606401610def565b8160015f8560405160200161158d9190612f98565b6040516020818303038152906040528051906020012081526020019081526020015f205f6101000a8154816001600160a01b0302191690836001600160a01b03160217905550826040516115e19190612faa565b604080519182900382204283526001600160a01b0385166020840152917f34765092fb4826a2f48dae7ee370790341f5fe0147f013fca4108e6ea65a68ed910160405180910390a2505050565b611636612487565b6116676040518060400160405280601081526020016f3932b232b2b6a1b7b73a3937b63632b960811b8152506116bf565b60405163c0598b0d60e01b81523360048201526001600160a01b03919091169063c0598b0d906024015f604051808303815f87803b1580156116a7575f5ffd5b505af11580156116b9573d5f5f3e3d5ffd5b50505050565b5f60015f836040516020016116d49190612f98565b60408051601f198184030181529181528151602092830120835290820192909252015f20546001600160a01b031692915050565b611710612487565b5f611743604051806040016040528060118152602001703637b1b5b4b733a1b7b73a3937b63632b960791b8152506116bf565b60405163e7dda2eb60e01b815263ffffffff841660048201529091505f906001600160a01b0383169063e7dda2eb90602401602060405180830381865afa158015611790573d5f5f3e3d5ffd5b505050506040513d601f19601f820116820180604052508101906117b49190612fc0565b6040516323b872dd60e01b8152336004820152306024820152604481018690529091506001600160a01b038216906323b872dd906064016020604051808303815f875af1158015611807573d5f5f3e3d5ffd5b505050506040513d601f19601f8201168201806040525081019061182b9190612db4565b5060405163095ea7b360e01b81526001600160a01b0383811660048301526024820186905282169063095ea7b3906044016020604051808303815f875af1158015611878573d5f5f3e3d5ffd5b505050506040513d601f19601f8201168201806040525081019061189c9190612db4565b50604051637f866a0d60e01b81526004810185905263ffffffff841660248201523360448201526001600160a01b03831690637f866a0d906064015f604051808303815f87803b1580156118ee575f5ffd5b505af1158015611900573d5f5f3e3d5ffd5b5050505050505050565b611912612487565b6119436040518060400160405280601081526020016f616c6c6f636174696f6e566f74696e6760801b8152506116bf565b6001600160a01b0316632610409b338888888888886040518863ffffffff1660e01b815260040161197a9796959493929190612eca565b5f604051808303815f87803b158015611991575f5ffd5b505af1158015611065573d5f5f3e3d5ffd5b6119ab612487565b5f6119de604051806040016040528060118152602001703637b1b5b4b733a1b7b73a3937b63632b960791b8152506116bf565b60405163e7dda2eb60e01b815263ffffffff851660048201529091505f906001600160a01b0383169063e7dda2eb90602401602060405180830381865afa158015611a2b573d5f5f3e3d5ffd5b505050506040513d601f19601f82011682018060405250810190611a4f9190612fc0565b6040516370a0823160e01b81523360048201529091505f906001600160a01b038316906370a0823190602401602060405180830381865afa158015611a96573d5f5f3e3d5ffd5b505050506040513d601f19601f82011682018060405250810190611aba9190612dd3565b6040516323b872dd60e01b8152336004820152306024820152604481018290529091506001600160a01b038316906323b872dd906064016020604051808303815f875af1158015611b0d573d5f5f3e3d5ffd5b505050506040513d601f19601f82011682018060405250810190611b319190612db4565b5060405163095ea7b360e01b81526001600160a01b0384811660048301526024820183905283169063095ea7b3906044016020604051808303815f875af1158015611b7e573d5f5f3e3d5ffd5b505050506040513d601f19601f82011682018060405250810190611ba29190612db4565b5060405163c4acfb8f60e01b81526004810182905263ffffffff8087166024830152851660448201523360648201526001600160a01b0384169063c4acfb8f906084015b5f604051808303815f87803b158015611bfd575f5ffd5b505af1158015611c0f573d5f5f3e3d5ffd5b505050505050505050565b5f611c23612487565b5f611c4e604051806040016040528060098152602001683d30b82937baba32b960b91b8152506116bf565b90506001600160a01b03881673eeeeeeeeeeeeeeeeeeeeeeeeeeeeeeeeeeeeeeee14611c9d57611c896001600160a01b03891633308a61255c565b611c9d6001600160a01b0389168289612650565b5f816001600160a01b0316348888604051611cb9929190612f89565b5f6040518083038185875af1925050503d805f8114611cf3576040519150601f19603f3d011682016040523d82523d5f602084013e611cf8565b606091505b5050905080611d1a5760405163081ceff360e41b815260040160405180910390fd5b5f611d4a6040518060400160405280600e81526020016d36b4b73a21b7b73a3937b63632b960911b8152506116bf565b90505f611d7f604051806040016040528060118152602001703637b1b5b4b733a1b7b73a3937b63632b960791b8152506116bf565b90505f611daf6040518060400160405280600c81526020016b3932b1b2b4b83a2a37b5b2b760a11b8152506116bf565b90505f611dd7604051806040016040528060048152602001635553444360e01b8152506116bf565b6040516370a0823160e01b81523060048201529091505f906001600160a01b038316906370a0823190602401602060405180830381865afa158015611e1e573d5f5f3e3d5ffd5b505050506040513d601f19601f82011682018060405250810190611e429190612dd3565b60405163095ea7b360e01b81526001600160a01b038781166004830152602482018390529192509083169063095ea7b3906044016020604051808303815f875af1158015611e92573d5f5f3e3d5ffd5b505050506040513d601f19601f82011682018060405250810190611eb69190612db4565b506040516340c10f1960e01b8152306004820152602481018290525f906001600160a01b038716906340c10f19906044016020604051808303815f875af1158015611f03573d5f5f3e3d5ffd5b505050506040513d601f19601f82011682018060405250810190611f279190612dd3565b60405163095ea7b360e01b81526001600160a01b038781166004830152602482018390529192509085169063095ea7b3906044016020604051808303815f875af1158015611f77573d5f5f3e3d5ffd5b505050506040513d601f19601f82011682018060405250810190611f9b9190612db4565b50604051633b50953b60e21b81526004810182905263ffffffff8c1660248201526001600160a01b038b8116604483015286169063ed4254ec906064015f604051808303815f87803b158015611fef575f5ffd5b505af1158015612001573d5f5f3e3d5ffd5b50929a50505050505050505050509695505050505050565b5f612022612487565b5f6120506040518060400160405280600c81526020016b3932b1b2b4b83a2a37b5b2b760a11b8152506116bf565b90505f61207f6040518060400160405280600b81526020016a39ba30b5b2b22a37b5b2b760a91b8152506116bf565b90505f6120b4604051806040016040528060118152602001703637b1b5b4b733a1b7b73a3937b63632b960791b8152506116bf565b6040516323b872dd60e01b8152336004820152306024820152604481018890529091506001600160a01b038316906323b872dd906064016020604051808303815f875af1158015612107573d5f5f3e3d5ffd5b505050506040513d601f19601f8201168201806040525081019061212b9190612db4565b50604051635d043b2960e11b815260048101879052306024820181905260448201525f906001600160a01b0384169063ba087652906064016020604051808303815f875af115801561217f573d5f5f3e3d5ffd5b505050506040513d601f19601f820116820180604052508101906121a39190612dd3565b60405163095ea7b360e01b81526001600160a01b038481166004830152602482018390529192509085169063095ea7b3906044016020604051808303815f875af11580156121f3573d5f5f3e3d5ffd5b505050506040513d601f19601f820116820180604052508101906122179190612db4565b50604051633b50953b60e21b81526004810182905263ffffffff871660248201526001600160a01b03898116604483015283169063ed4254ec906064015f604051808303815f87803b15801561226b575f5ffd5b505af115801561227d573d5f5f3e3d5ffd5b50929a9950505050505050505050565b612295612487565b5f6122c36040518060400160405280600c81526020016b3932b1b2b4b83a2a37b5b2b760a11b8152506116bf565b90505f6122f8604051806040016040528060118152602001703637b1b5b4b733a1b7b73a3937b63632b960791b8152506116bf565b6040516323b872dd60e01b8152336004820152306024820152604481018790529091506001600160a01b038316906323b872dd906064016020604051808303815f875af115801561234b573d5f5f3e3d5ffd5b505050506040513d601f19601f8201168201806040525081019061236f9190612db4565b5060405163095ea7b360e01b81526001600160a01b0382811660048301526024820187905283169063095ea7b3906044016020604051808303815f875af11580156123bc573d5f5f3e3d5ffd5b505050506040513d601f19601f820116820180604052508101906123e09190612db4565b50604051633b50953b60e21b81526004810186905263ffffffff851660248201526001600160a01b03848116604483015282169063ed4254ec90606401611be6565b5f80546001600160a01b0383811661010081810274ffffffffffffffffffffffffffffffffffffffff0019851617855560405193049190911692909183917f9209b7c8c06dcfd261686a663e7c55989337b18d59da5433c6f2835fb697092091a35050565b5f5460ff16156124aa5760405163d93c066560e01b815260040160405180910390fd5b565b5f6124da6040518060400160405280600c81526020016b7969656c6453686172696e6760a01b8152506116bf565b90505f816001600160a01b031663f843336c6040518163ffffffff1660e01b8152600401602060405180830381865afa158015612519573d5f5f3e3d5ffd5b505050506040513d601f19601f8201168201806040525081019061253d9190612dd3565b12156104af57604051630e4a65c960e21b815260040160405180910390fd5b6040516001600160a01b0384811660248301528381166044830152606482018390526116b99186918216906323b872dd906084015b604051602081830303815290604052915060e01b6020820180516001600160e01b0383818316178352505050506126db565b6125cb612747565b5f805460ff191690557f5db9ee0a495bf2e6ff9c91a7834c1ba4fdd244a5e8aa4e537bd38aeae4b073aa335b6040516001600160a01b03909116815260200160405180910390a1565b61261c612487565b5f805460ff191660011790557f62e78cea01bee320cd4e420270b5ea74000d11b0c9f74754ebdbfc544b05a2586125f73390565b604080516001600160a01b038416602482015260448082018490528251808303909101815260649091019091526020810180516001600160e01b031663095ea7b360e01b1790526126a18482612769565b6116b9576040516001600160a01b0384811660248301525f60448301526126d591869182169063095ea7b390606401612591565b6116b984825b5f5f60205f8451602086015f885af1806126fa576040513d5f823e3d81fd5b50505f513d9150811561271157806001141561271e565b6001600160a01b0384163b155b156116b957604051635274afe760e01b81526001600160a01b0385166004820152602401610def565b5f5460ff166124aa57604051638dfc202b60e01b815260040160405180910390fd5b5f5f5f5f60205f8651602088015f8a5af192503d91505f5190508280156127a85750811561279a57806001146127a8565b5f866001600160a01b03163b115b9695505050505050565b6001600160a01b03811681146104af575f5ffd5b80356127d1816127b2565b919050565b5f602082840312156127e6575f5ffd5b81356127f1816127b2565b9392505050565b803563ffffffff811681146127d1575f5ffd5b5f5f6040838503121561281c575f5ffd5b8235915061282c602084016127f8565b90509250929050565b5f5f60408385031215612846575f5ffd5b8235612851816127b2565b946020939093013593505050565b5f5f5f60608486031215612871575f5ffd5b833561287c816127b2565b925060208401359150612891604085016127f8565b90509250925092565b5f602082840312156128aa575f5ffd5b5035919050565b5f5f83601f8401126128c1575f5ffd5b50813567ffffffffffffffff8111156128d8575f5ffd5b6020830191508360208260051b85010111156128f2575f5ffd5b9250929050565b5f5f5f5f5f5f5f5f6080898b031215612910575f5ffd5b883567ffffffffffffffff811115612926575f5ffd5b6129328b828c016128b1565b909950975050602089013567ffffffffffffffff811115612951575f5ffd5b61295d8b828c016128b1565b909750955050604089013567ffffffffffffffff81111561297c575f5ffd5b6129888b828c016128b1565b909550935050606089013567ffffffffffffffff8111156129a7575f5ffd5b6129b38b828c016128b1565b999c989b5096995094979396929594505050565b5f5f602083850312156129d8575f5ffd5b823567ffffffffffffffff8111156129ee575f5ffd5b6129fa858286016128b1565b90969095509350505050565b5f81518084528060208401602086015e5f602082860101526020601f19601f83011685010191505092915050565b5f602082016020835280845180835260408501915060408160051b8601019250602086015f5b82811015612a8b57603f19878603018452612a76858351612a06565b94506020938401939190910190600101612a5a565b50929695505050505050565b634e487b7160e01b5f52604160045260245ffd5b5f82601f830112612aba575f5ffd5b813567ffffffffffffffff811115612ad457612ad4612a97565b604051601f8201601f19908116603f0116810167ffffffffffffffff81118282101715612b0357612b03612a97565b604052818152838201602001851015612b1a575f5ffd5b816020850160208301375f918101602001919091529392505050565b5f5f60408385031215612b47575f5ffd5b823567ffffffffffffffff811115612b5d575f5ffd5b612b6985828601612aab565b9250506020830135612b7a816127b2565b809150509250929050565b5f60208284031215612b95575f5ffd5b813567ffffffffffffffff811115612bab575f5ffd5b612bb784828501612aab565b949350505050565b5f5f83601f840112612bcf575f5ffd5b50813567ffffffffffffffff811115612be6575f5ffd5b6020830191508360208260061b85010111156128f2575f5ffd5b5f5f5f5f5f5f60808789031215612c15575f5ffd5b8635612c20816127b2565b9550612c2e602088016127f8565b9450604087013567ffffffffffffffff811115612c49575f5ffd5b612c5589828a01612bbf565b909550935050606087013567ffffffffffffffff811115612c74575f5ffd5b612c8089828a01612bbf565b979a9699509497509295939492505050565b5f5f60408385031215612ca3575f5ffd5b612cac836127f8565b915061282c602084016127f8565b5f5f5f5f5f5f60a08789031215612ccf575f5ffd5b8635612cda816127b2565b955060208701359450604087013567ffffffffffffffff811115612cfc575f5ffd5b8701601f81018913612d0c575f5ffd5b803567ffffffffffffffff811115612d22575f5ffd5b896020828401011115612d33575f5ffd5b60209190910194509250612d49606088016127f8565b9150612d57608088016127c6565b90509295509295509295565b5f5f5f60608486031215612d75575f5ffd5b83359250612d85602085016127f8565b91506040840135612d95816127b2565b809150509250925092565b634e487b7160e01b5f52600160045260245ffd5b5f60208284031215612dc4575f5ffd5b815180151581146127f1575f5ffd5b5f60208284031215612de3575f5ffd5b5051919050565b634e487b7160e01b5f52603260045260245ffd5b5f60208284031215612e0e575f5ffd5b6127f1826127f8565b5f5f8335601e19843603018112612e2c575f5ffd5b83018035915067ffffffffffffffff821115612e46575f5ffd5b6020019150600681901b36038213156128f2575f5ffd5b8183526020830192505f815f5b84811015612ec0578135612e7d816127b2565b6001600160a01b0316865260208201356bffffffffffffffffffffffff8116808214612ea7575f5ffd5b6020880152506040958601959190910190600101612e6a565b5093949350505050565b6001600160a01b03881681526001600160a01b038716602082015263ffffffff8616604082015260a060608201525f612f0760a083018688612e5d565b8281036080840152612f1a818587612e5d565b9a9950505050505050505050565b5f8235605e19833603018112612f3c575f5ffd5b9190910192915050565b5f5f8335601e19843603018112612f5b575f5ffd5b83018035915067ffffffffffffffff821115612f75575f5ffd5b6020019150368190038213156128f2575f5ffd5b818382375f9101908152919050565b602081525f6127f16020830184612a06565b5f82518060208501845e5f920191825250919050565b5f60208284031215612fd0575f5ffd5b81516127f1816127b256fea2646970667358221220dcde22c70eb826cdc66f469e3bfefa9ca0318d2809217865fa5c5c95e686cf5364736f6c634300081c0033","linkReferences":{}},"methodIdentifiers":{"addresses(bytes32)":"699f200f","cancelUnwinding(uint256,uint32)":"1a11dc4c","claimRedemption()":"a16ba4e0","core()":"f2f4eb26","createPosition(uint256,uint32,address)":"ed4254ec","emergencyAction((address,uint256,bytes)[])":"7df3927e","getAddress(string)":"bf40fac1","increaseUnwindingEpochs(uint32,uint32)":"c93e3e7e","init(address)":"19ab453c","mint(address,uint256)":"40c10f19","mintAndLock(address,uint256,uint32)":"26cf8338","mintAndStake(address,uint256)":"230ae89c","multiVote(address[],uint32[],(address,uint96)[][],(address,uint96)[][])":"4ec78381","pause()":"8456cb59","paused()":"5c975abb","redeem(address,uint256)":"1e9a6950","setAddress(string,address)":"9b2ea4bd","setCore(address)":"80009630","startUnwinding(uint256,uint32)":"c00716ea","unpause()":"3f4ba83a","unstakeAndLock(address,uint256,uint32)":"d95ce53b","vote(address,uint32,(address,uint96)[],(address,uint96)[])":"c1d9fe3e","withdraw(uint256)":"2e1a7d4d","zapInAndLock(address,uint256,bytes,uint32,address)":"c99ce022"},"id":78}