{"abi":[{"type":"constructor","inputs":[],"stateMutability":"nonpayable"},{"type":"function","name":"DEFAULT_ADMIN_ROLE","inputs":[],"outputs":[{"name":"","type":"bytes32","internalType":"bytes32"}],"stateMutability":"view"},{"type":"function","name":"createRole","inputs":[{"name":"role","type":"bytes32","internalType":"bytes32"},{"name":"adminRole","type":"bytes32","internalType":"bytes32"}],"outputs":[],"stateMutability":"nonpayable"},{"type":"function","name":"getRoleAdmin","inputs":[{"name":"role","type":"bytes32","internalType":"bytes32"}],"outputs":[{"name":"","type":"bytes32","internalType":"bytes32"}],"stateMutability":"view"},{"type":"function","name":"getRoleMember","inputs":[{"name":"role","type":"bytes32","internalType":"bytes32"},{"name":"index","type":"uint256","internalType":"uint256"}],"outputs":[{"name":"","type":"address","internalType":"address"}],"stateMutability":"view"},{"type":"function","name":"getRoleMemberCount","inputs":[{"name":"role","type":"bytes32","internalType":"bytes32"}],"outputs":[{"name":"","type":"uint256","internalType":"uint256"}],"stateMutability":"view"},{"type":"function","name":"getRoleMembers","inputs":[{"name":"role","type":"bytes32","internalType":"bytes32"}],"outputs":[{"name":"","type":"address[]","internalType":"address[]"}],"stateMutability":"view"},{"type":"function","name":"grantRole","inputs":[{"name":"role","type":"bytes32","internalType":"bytes32"},{"name":"account","type":"address","internalType":"address"}],"outputs":[],"stateMutability":"nonpayable"},{"type":"function","name":"grantRoles","inputs":[{"name":"roles","type":"bytes32[]","internalType":"bytes32[]"},{"name":"accounts","type":"address[]","internalType":"address[]"}],"outputs":[],"stateMutability":"nonpayable"},{"type":"function","name":"hasRole","inputs":[{"name":"role","type":"bytes32","internalType":"bytes32"},{"name":"account","type":"address","internalType":"address"}],"outputs":[{"name":"","type":"bool","internalType":"bool"}],"stateMutability":"view"},{"type":"function","name":"renounceRole","inputs":[{"name":"role","type":"bytes32","internalType":"bytes32"},{"name":"callerConfirmation","type":"address","internalType":"address"}],"outputs":[],"stateMutability":"nonpayable"},{"type":"function","name":"revokeRole","inputs":[{"name":"role","type":"bytes32","internalType":"bytes32"},{"name":"account","type":"address","internalType":"address"}],"outputs":[],"stateMutability":"nonpayable"},{"type":"function","name":"setRoleAdmin","inputs":[{"name":"role","type":"bytes32","internalType":"bytes32"},{"name":"adminRole","type":"bytes32","internalType":"bytes32"}],"outputs":[],"stateMutability":"nonpayable"},{"type":"function","name":"supportsInterface","inputs":[{"name":"interfaceId","type":"bytes4","internalType":"bytes4"}],"outputs":[{"name":"","type":"bool","internalType":"bool"}],"stateMutability":"view"},{"type":"event","name":"RoleAdminChanged","inputs":[{"name":"role","type":"bytes32","indexed":true,"internalType":"bytes32"},{"name":"previousAdminRole","type":"bytes32","indexed":true,"internalType":"bytes32"},{"name":"newAdminRole","type":"bytes32","indexed":true,"internalType":"bytes32"}],"anonymous":false},{"type":"event","name":"RoleGranted","inputs":[{"name":"role","type":"bytes32","indexed":true,"internalType":"bytes32"},{"name":"account","type":"address","indexed":true,"internalType":"address"},{"name":"sender","type":"address","indexed":true,"internalType":"address"}],"anonymous":false},{"type":"event","name":"RoleRevoked","inputs":[{"name":"role","type":"bytes32","indexed":true,"internalType":"bytes32"},{"name":"account","type":"address","indexed":true,"internalType":"address"},{"name":"sender","type":"address","indexed":true,"internalType":"address"}],"anonymous":false},{"type":"error","name":"AccessControlBadConfirmation","inputs":[]},{"type":"error","name":"AccessControlUnauthorizedAccount","inputs":[{"name":"account","type":"address","internalType":"address"},{"name":"neededRole","type":"bytes32","internalType":"bytes32"}]},{"type":"error","name":"LengthMismatch","inputs":[{"name":"expected","type":"uint256","internalType":"uint256"},{"name":"actual","type":"uint256","internalType":"uint256"}]},{"type":"error","name":"RoleAlreadyExists","inputs":[{"name":"role","type":"bytes32","internalType":"bytes32"}]},{"type":"error","name":"RoleDoesNotExist","inputs":[{"name":"role","type":"bytes32","internalType":"bytes32"}]}],"bytecode":{"object":"0x608060405234801561000f575f5ffd5b506100275f5160206110d85f395f51905f52336103eb565b5061003f5f5160206110d85f395f51905f5280610421565b6100767ffcb9fcbfa83b897fb2d5cf4b58962164105c1e71489a37ef3ae0db3fdce576f65f5160206110d85f395f51905f52610421565b6100ad7fe7276a2a84d8de556657ec9cf93a55a7d66f096e529d0582ed08e9e2208b92b55f5160206110d85f395f51905f52610421565b6100e47f3947e2f542c6c46c543fa4f79cbd1e27fea37ed249bc3caf992570d19123642e5f5160206110d85f395f51905f52610421565b61011b7f276ea66e969b021a947c47a128f4d53c55387336443ef7a5391a75f0d2e48d255f5160206110d85f395f51905f52610421565b6101527f615a688d53344290b742a2e72e4f187e5b88227c01f9d77ce2406d32f8bd0eda5f5160206110d85f395f51905f52610421565b6101897fc843f0b739b89f713c29d5349e88538222378b9e38ad958b090593af5e3d0fd95f5160206110d85f395f51905f52610421565b6101c07fc46edb8291bbe8016e3c83529d0eb01c2733d265fc4594ac6299b3ef727215465f5160206110d85f395f51905f52610421565b6101f77fcbb2ad763b83373ffb4a14f6dcd2511a7417366beed4ab3780925f276ba438365f5160206110d85f395f51905f52610421565b61022e7f5f33620cda06d02d58df96005b92bc83bd059a566e48e016372f3fbdc974e3715f5160206110d85f395f51905f52610421565b6102657f81c2da19079a6b9586648186d4d64ede4daff8cc96fb1e2cbf9c9bb9c3b3bb945f5160206110d85f395f51905f52610421565b61029c7fd9fa15f584375c99b94a4f575a0f2613222d7c57b2d1db09e835e77301b9eb9a5f5160206110d85f395f51905f52610421565b6102d37f456cfaf8d1ec98ae5bbe595a448911a58cb2e264d4686992e15dec9d0f363e035f5160206110d85f395f51905f52610421565b61030a7f942451c9be4228ec3c497ec9d1a5b3a6cc100bc2c661ab6870fff0b4eccfe6f55f5160206110d85f395f51905f52610421565b6103417f31e44e7763cc54215b453a052743c504bdb2e0f29f465a4651620cb67f2554785f5160206110d85f395f51905f52610421565b6103787fb09aa5aeb3702cfd50b6b62bc4532604938f21248a27a1d5ca736082b6819cc15f5160206110d85f395f51905f52610421565b6103af7fd8aa0f3194971a2a116679f7c2090f6939c8d4e01a2a8d7e41d55e5351469e635f5160206110d85f395f51905f52610421565b6103e67ffd643c72710c63c0180259aba6b2d05451e3591a24e58b62239378085726f7835f5160206110d85f395f51905f52610421565b610566565b5f806103f7848461046b565b90508015610418575f8481526001602052604090206104169084610512565b505b90505b92915050565b5f82815260208190526040808220600101805490849055905190918391839186917fbd79b86ffe0ab8e8776151514217cd7cacd52c909f66475c3af44e129f0b00ff9190a4505050565b5f828152602081815260408083206001600160a01b038516845290915281205460ff1661050b575f838152602081815260408083206001600160a01b03861684529091529020805460ff191660011790556104c33390565b6001600160a01b0316826001600160a01b0316847f2f8788117e7eff1d82e926ec794901d17c78024a50270940304540a733656f0d60405160405180910390a450600161041b565b505f61041b565b5f610418836001600160a01b0384165f81815260018301602052604081205461050b57508154600181810184555f84815260208082209093018490558454848252828601909352604090209190915561041b565b610b65806105735f395ff3fe608060405234801561000f575f5ffd5b50600436106100da575f3560e01c80634c9f938411610088578063a217fddf11610063578063a217fddf146101f8578063a3246ad3146101ff578063ca15c8731461021f578063d547741f14610232575f5ffd5b80634c9f9384146101845780639010d07c1461019757806391d14854146101c2575f5ffd5b8063248a9ca3116100b8578063248a9ca31461012e5780632f2ff15d1461015e57806336568abe14610171575f5ffd5b806301ffc9a7146100de5780630e54e58d146101065780631e4e00911461011b575b5f5ffd5b6100f16100ec36600461092d565b610245565b60405190151581526020015b60405180910390f35b61011961011436600461099c565b61026f565b005b610119610129366004610a08565b61033c565b61015061013c366004610a28565b5f9081526020819052604090206001015490565b6040519081526020016100fd565b61011961016c366004610a5a565b6103ab565b61011961017f366004610a5a565b6103d5565b610119610192366004610a08565b610408565b6101aa6101a5366004610a08565b610466565b6040516001600160a01b0390911681526020016100fd565b6100f16101d0366004610a5a565b5f918252602082815260408084206001600160a01b0393909316845291905290205460ff1690565b6101505f81565b61021261020d366004610a28565b610484565b6040516100fd9190610a84565b61015061022d366004610a28565b61049d565b610119610240366004610a5a565b6104b3565b5f6001600160e01b03198216635a05180f60e01b14806102695750610269826104d7565b92915050565b828181811461029f576040516355c5b3e360e11b8152600481019290925260248201526044015b60405180910390fd5b505f90505b83811015610335576102e46102df8686848181106102c4576102c4610acf565b905060200201355f9081526020819052604090206001015490565b61050b565b61032c8585838181106102f9576102f9610acf565b9050602002013584848481811061031257610312610acf565b90506020020160208101906103279190610ae3565b610518565b506001016102a4565b5050505050565b7f1a6838efa4183e08fe3607359d1259272af9d4716f65e1a7b5921f78fd5a3c6a6103668161050b565b5f838152602081905260408120600101541415839061039b576040516316b0082360e31b815260040161029691815260200190565b506103a6838361054b565b505050565b5f828152602081905260409020600101546103c58161050b565b6103cf8383610518565b50505050565b6001600160a01b03811633146103fe5760405163334bd91960e11b815260040160405180910390fd5b6103a68282610595565b7f1a6838efa4183e08fe3607359d1259272af9d4716f65e1a7b5921f78fd5a3c6a6104328161050b565b5f8381526020819052604081206001015414839061039b57604051630d7db63160e31b815260040161029691815260200190565b5f82815260016020526040812061047d90836105c0565b9392505050565b5f818152600160205260409020606090610269906105cb565b5f818152600160205260408120610269906105d7565b5f828152602081905260409020600101546104cd8161050b565b6103cf8383610595565b5f6001600160e01b03198216637965db0b60e01b148061026957506301ffc9a760e01b6001600160e01b0319831614610269565b61051581336105e0565b50565b5f5f6105248484610636565b9050801561047d575f84815260016020526040902061054390846106dd565b509392505050565b5f82815260208190526040808220600101805490849055905190918391839186917fbd79b86ffe0ab8e8776151514217cd7cacd52c909f66475c3af44e129f0b00ff9190a4505050565b5f5f6105a184846106f1565b9050801561047d575f8481526001602052604090206105439084610772565b5f61047d8383610786565b60605f61047d836107ac565b5f610269825490565b5f828152602081815260408083206001600160a01b038516845290915290205460ff166106325760405163e2517d3f60e01b81526001600160a01b038216600482015260248101839052604401610296565b5050565b5f828152602081815260408083206001600160a01b038516845290915281205460ff166106d6575f838152602081815260408083206001600160a01b03861684529091529020805460ff1916600117905561068e3390565b6001600160a01b0316826001600160a01b0316847f2f8788117e7eff1d82e926ec794901d17c78024a50270940304540a733656f0d60405160405180910390a4506001610269565b505f610269565b5f61047d836001600160a01b038416610805565b5f828152602081815260408083206001600160a01b038516845290915281205460ff16156106d6575f838152602081815260408083206001600160a01b0386168085529252808320805460ff1916905551339286917ff6391f5c32d9c69d2a47ea670b442974b53935d1edc7fd64eb21e047a839171b9190a4506001610269565b5f61047d836001600160a01b03841661084a565b5f825f01828154811061079b5761079b610acf565b905f5260205f200154905092915050565b6060815f018054806020026020016040519081016040528092919081815260200182805480156107f957602002820191905f5260205f20905b8154815260200190600101908083116107e5575b50505050509050919050565b5f8181526001830160205260408120546106d657508154600181810184555f848152602080822090930184905584548482528286019093526040902091909155610269565b5f8181526001830160205260408120548015610924575f61086c600183610afc565b85549091505f9061087f90600190610afc565b90508082146108de575f865f01828154811061089d5761089d610acf565b905f5260205f200154905080875f0184815481106108bd576108bd610acf565b5f918252602080832090910192909255918252600188019052604090208390555b85548690806108ef576108ef610b1b565b600190038181905f5260205f20015f90559055856001015f8681526020019081526020015f205f905560019350505050610269565b5f915050610269565b5f6020828403121561093d575f5ffd5b81356001600160e01b03198116811461047d575f5ffd5b5f5f83601f840112610964575f5ffd5b50813567ffffffffffffffff81111561097b575f5ffd5b6020830191508360208260051b8501011115610995575f5ffd5b9250929050565b5f5f5f5f604085870312156109af575f5ffd5b843567ffffffffffffffff8111156109c5575f5ffd5b6109d187828801610954565b909550935050602085013567ffffffffffffffff8111156109f0575f5ffd5b6109fc87828801610954565b95989497509550505050565b5f5f60408385031215610a19575f5ffd5b50508035926020909101359150565b5f60208284031215610a38575f5ffd5b5035919050565b80356001600160a01b0381168114610a55575f5ffd5b919050565b5f5f60408385031215610a6b575f5ffd5b82359150610a7b60208401610a3f565b90509250929050565b602080825282518282018190525f918401906040840190835b81811015610ac45783516001600160a01b0316835260209384019390920191600101610a9d565b509095945050505050565b634e487b7160e01b5f52603260045260245ffd5b5f60208284031215610af3575f5ffd5b61047d82610a3f565b8181038181111561026957634e487b7160e01b5f52601160045260245ffd5b634e487b7160e01b5f52603160045260245ffdfea26469706673582212204840cbeca7637cbe9901ec5ac6dc0030fa9a6d1e76fd4fe2978e2a9ea3a5f4e964736f6c634300081c00331a6838efa4183e08fe3607359d1259272af9d4716f65e1a7b5921f78fd5a3c6a","linkReferences":{}},"methodIdentifiers":{"DEFAULT_ADMIN_ROLE()":"a217fddf","createRole(bytes32,bytes32)":"4c9f9384","getRoleAdmin(bytes32)":"248a9ca3","getRoleMember(bytes32,uint256)":"9010d07c","getRoleMemberCount(bytes32)":"ca15c873","getRoleMembers(bytes32)":"a3246ad3","grantRole(bytes32,address)":"2f2ff15d","grantRoles(bytes32[],address[])":"0e54e58d","hasRole(bytes32,address)":"91d14854","renounceRole(bytes32,address)":"36568abe","revokeRole(bytes32,address)":"d547741f","setRoleAdmin(bytes32,bytes32)":"1e4e0091","supportsInterface(bytes4)":"01ffc9a7"},"id":70}