{"abi":[{"type":"constructor","inputs":[{"name":"_core","type":"address","internalType":"address"},{"name":"_receiptToken","type":"address","internalType":"address"}],"stateMutability":"nonpayable"},{"type":"function","name":"allowance","inputs":[{"name":"owner","type":"address","internalType":"address"},{"name":"spender","type":"address","internalType":"address"}],"outputs":[{"name":"","type":"uint256","internalType":"uint256"}],"stateMutability":"view"},{"type":"function","name":"applyLosses","inputs":[{"name":"_amount","type":"uint256","internalType":"uint256"}],"outputs":[],"stateMutability":"nonpayable"},{"type":"function","name":"approve","inputs":[{"name":"spender","type":"address","internalType":"address"},{"name":"value","type":"uint256","internalType":"uint256"}],"outputs":[{"name":"","type":"bool","internalType":"bool"}],"stateMutability":"nonpayable"},{"type":"function","name":"asset","inputs":[],"outputs":[{"name":"","type":"address","internalType":"address"}],"stateMutability":"view"},{"type":"function","name":"balanceOf","inputs":[{"name":"account","type":"address","internalType":"address"}],"outputs":[{"name":"","type":"uint256","internalType":"uint256"}],"stateMutability":"view"},{"type":"function","name":"convertToAssets","inputs":[{"name":"shares","type":"uint256","internalType":"uint256"}],"outputs":[{"name":"","type":"uint256","internalType":"uint256"}],"stateMutability":"view"},{"type":"function","name":"convertToShares","inputs":[{"name":"assets","type":"uint256","internalType":"uint256"}],"outputs":[{"name":"","type":"uint256","internalType":"uint256"}],"stateMutability":"view"},{"type":"function","name":"core","inputs":[],"outputs":[{"name":"","type":"address","internalType":"contract InfiniFiCore"}],"stateMutability":"view"},{"type":"function","name":"decimals","inputs":[],"outputs":[{"name":"","type":"uint8","internalType":"uint8"}],"stateMutability":"view"},{"type":"function","name":"deposit","inputs":[{"name":"_amountIn","type":"uint256","internalType":"uint256"},{"name":"_to","type":"address","internalType":"address"}],"outputs":[{"name":"","type":"uint256","internalType":"uint256"}],"stateMutability":"nonpayable"},{"type":"function","name":"depositRewards","inputs":[{"name":"_amount","type":"uint256","internalType":"uint256"}],"outputs":[],"stateMutability":"nonpayable"},{"type":"function","name":"emergencyAction","inputs":[{"name":"calls","type":"tuple[]","internalType":"struct CoreControlled.Call[]","components":[{"name":"target","type":"address","internalType":"address"},{"name":"value","type":"uint256","internalType":"uint256"},{"name":"callData","type":"bytes","internalType":"bytes"}]}],"outputs":[{"name":"returnData","type":"bytes[]","internalType":"bytes[]"}],"stateMutability":"payable"},{"type":"function","name":"epochRewards","inputs":[{"name":"epoch","type":"uint256","internalType":"uint256"}],"outputs":[{"name":"rewards","type":"uint256","internalType":"uint256"}],"stateMutability":"view"},{"type":"function","name":"maxDeposit","inputs":[{"name":"_receiver","type":"address","internalType":"address"}],"outputs":[{"name":"","type":"uint256","internalType":"uint256"}],"stateMutability":"view"},{"type":"function","name":"maxMint","inputs":[{"name":"_receiver","type":"address","internalType":"address"}],"outputs":[{"name":"","type":"uint256","internalType":"uint256"}],"stateMutability":"view"},{"type":"function","name":"maxRedeem","inputs":[{"name":"_receiver","type":"address","internalType":"address"}],"outputs":[{"name":"","type":"uint256","internalType":"uint256"}],"stateMutability":"view"},{"type":"function","name":"maxWithdraw","inputs":[{"name":"_receiver","type":"address","internalType":"address"}],"outputs":[{"name":"","type":"uint256","internalType":"uint256"}],"stateMutability":"view"},{"type":"function","name":"mint","inputs":[{"name":"_shares","type":"uint256","internalType":"uint256"},{"name":"_receiver","type":"address","internalType":"address"}],"outputs":[{"name":"","type":"uint256","internalType":"uint256"}],"stateMutability":"nonpayable"},{"type":"function","name":"name","inputs":[],"outputs":[{"name":"","type":"string","internalType":"string"}],"stateMutability":"view"},{"type":"function","name":"pause","inputs":[],"outputs":[],"stateMutability":"nonpayable"},{"type":"function","name":"paused","inputs":[],"outputs":[{"name":"","type":"bool","internalType":"bool"}],"stateMutability":"view"},{"type":"function","name":"previewDeposit","inputs":[{"name":"assets","type":"uint256","internalType":"uint256"}],"outputs":[{"name":"","type":"uint256","internalType":"uint256"}],"stateMutability":"view"},{"type":"function","name":"previewMint","inputs":[{"name":"shares","type":"uint256","internalType":"uint256"}],"outputs":[{"name":"","type":"uint256","internalType":"uint256"}],"stateMutability":"view"},{"type":"function","name":"previewRedeem","inputs":[{"name":"shares","type":"uint256","internalType":"uint256"}],"outputs":[{"name":"","type":"uint256","internalType":"uint256"}],"stateMutability":"view"},{"type":"function","name":"previewWithdraw","inputs":[{"name":"assets","type":"uint256","internalType":"uint256"}],"outputs":[{"name":"","type":"uint256","internalType":"uint256"}],"stateMutability":"view"},{"type":"function","name":"redeem","inputs":[{"name":"_amountIn","type":"uint256","internalType":"uint256"},{"name":"_to","type":"address","internalType":"address"},{"name":"_receiver","type":"address","internalType":"address"}],"outputs":[{"name":"","type":"uint256","internalType":"uint256"}],"stateMutability":"nonpayable"},{"type":"function","name":"setCore","inputs":[{"name":"newCore","type":"address","internalType":"address"}],"outputs":[],"stateMutability":"nonpayable"},{"type":"function","name":"setYieldSharing","inputs":[{"name":"_yieldSharing","type":"address","internalType":"address"}],"outputs":[],"stateMutability":"nonpayable"},{"type":"function","name":"symbol","inputs":[],"outputs":[{"name":"","type":"string","internalType":"string"}],"stateMutability":"view"},{"type":"function","name":"totalAssets","inputs":[],"outputs":[{"name":"","type":"uint256","internalType":"uint256"}],"stateMutability":"view"},{"type":"function","name":"totalSupply","inputs":[],"outputs":[{"name":"","type":"uint256","internalType":"uint256"}],"stateMutability":"view"},{"type":"function","name":"transfer","inputs":[{"name":"to","type":"address","internalType":"address"},{"name":"value","type":"uint256","internalType":"uint256"}],"outputs":[{"name":"","type":"bool","internalType":"bool"}],"stateMutability":"nonpayable"},{"type":"function","name":"transferFrom","inputs":[{"name":"from","type":"address","internalType":"address"},{"name":"to","type":"address","internalType":"address"},{"name":"value","type":"uint256","internalType":"uint256"}],"outputs":[{"name":"","type":"bool","internalType":"bool"}],"stateMutability":"nonpayable"},{"type":"function","name":"unpause","inputs":[],"outputs":[],"stateMutability":"nonpayable"},{"type":"function","name":"withdraw","inputs":[{"name":"assets","type":"uint256","internalType":"uint256"},{"name":"receiver","type":"address","internalType":"address"},{"name":"owner","type":"address","internalType":"address"}],"outputs":[{"name":"","type":"uint256","internalType":"uint256"}],"stateMutability":"nonpayable"},{"type":"function","name":"yieldSharing","inputs":[],"outputs":[{"name":"","type":"address","internalType":"address"}],"stateMutability":"view"},{"type":"event","name":"Approval","inputs":[{"name":"owner","type":"address","indexed":true,"internalType":"address"},{"name":"spender","type":"address","indexed":true,"internalType":"address"},{"name":"value","type":"uint256","indexed":false,"internalType":"uint256"}],"anonymous":false},{"type":"event","name":"CoreUpdate","inputs":[{"name":"oldCore","type":"address","indexed":true,"internalType":"address"},{"name":"newCore","type":"address","indexed":true,"internalType":"address"}],"anonymous":false},{"type":"event","name":"Deposit","inputs":[{"name":"sender","type":"address","indexed":true,"internalType":"address"},{"name":"owner","type":"address","indexed":true,"internalType":"address"},{"name":"assets","type":"uint256","indexed":false,"internalType":"uint256"},{"name":"shares","type":"uint256","indexed":false,"internalType":"uint256"}],"anonymous":false},{"type":"event","name":"Paused","inputs":[{"name":"account","type":"address","indexed":false,"internalType":"address"}],"anonymous":false},{"type":"event","name":"Transfer","inputs":[{"name":"from","type":"address","indexed":true,"internalType":"address"},{"name":"to","type":"address","indexed":true,"internalType":"address"},{"name":"value","type":"uint256","indexed":false,"internalType":"uint256"}],"anonymous":false},{"type":"event","name":"Unpaused","inputs":[{"name":"account","type":"address","indexed":false,"internalType":"address"}],"anonymous":false},{"type":"event","name":"VaultLoss","inputs":[{"name":"timestamp","type":"uint256","indexed":true,"internalType":"uint256"},{"name":"epoch","type":"uint256","indexed":false,"internalType":"uint256"},{"name":"assets","type":"uint256","indexed":false,"internalType":"uint256"}],"anonymous":false},{"type":"event","name":"VaultProfit","inputs":[{"name":"timestamp","type":"uint256","indexed":true,"internalType":"uint256"},{"name":"epoch","type":"uint256","indexed":false,"internalType":"uint256"},{"name":"assets","type":"uint256","indexed":false,"internalType":"uint256"}],"anonymous":false},{"type":"event","name":"Withdraw","inputs":[{"name":"sender","type":"address","indexed":true,"internalType":"address"},{"name":"receiver","type":"address","indexed":true,"internalType":"address"},{"name":"owner","type":"address","indexed":true,"internalType":"address"},{"name":"assets","type":"uint256","indexed":false,"internalType":"uint256"},{"name":"shares","type":"uint256","indexed":false,"internalType":"uint256"}],"anonymous":false},{"type":"error","name":"ERC20InsufficientAllowance","inputs":[{"name":"spender","type":"address","internalType":"address"},{"name":"allowance","type":"uint256","internalType":"uint256"},{"name":"needed","type":"uint256","internalType":"uint256"}]},{"type":"error","name":"ERC20InsufficientBalance","inputs":[{"name":"sender","type":"address","internalType":"address"},{"name":"balance","type":"uint256","internalType":"uint256"},{"name":"needed","type":"uint256","internalType":"uint256"}]},{"type":"error","name":"ERC20InvalidApprover","inputs":[{"name":"approver","type":"address","internalType":"address"}]},{"type":"error","name":"ERC20InvalidReceiver","inputs":[{"name":"receiver","type":"address","internalType":"address"}]},{"type":"error","name":"ERC20InvalidSender","inputs":[{"name":"sender","type":"address","internalType":"address"}]},{"type":"error","name":"ERC20InvalidSpender","inputs":[{"name":"spender","type":"address","internalType":"address"}]},{"type":"error","name":"ERC4626ExceededMaxDeposit","inputs":[{"name":"receiver","type":"address","internalType":"address"},{"name":"assets","type":"uint256","internalType":"uint256"},{"name":"max","type":"uint256","internalType":"uint256"}]},{"type":"error","name":"ERC4626ExceededMaxMint","inputs":[{"name":"receiver","type":"address","internalType":"address"},{"name":"shares","type":"uint256","internalType":"uint256"},{"name":"max","type":"uint256","internalType":"uint256"}]},{"type":"error","name":"ERC4626ExceededMaxRedeem","inputs":[{"name":"owner","type":"address","internalType":"address"},{"name":"shares","type":"uint256","internalType":"uint256"},{"name":"max","type":"uint256","internalType":"uint256"}]},{"type":"error","name":"ERC4626ExceededMaxWithdraw","inputs":[{"name":"owner","type":"address","internalType":"address"},{"name":"assets","type":"uint256","internalType":"uint256"},{"name":"max","type":"uint256","internalType":"uint256"}]},{"type":"error","name":"EnforcedPause","inputs":[]},{"type":"error","name":"ExpectedPause","inputs":[]},{"type":"error","name":"PendingLossesUnapplied","inputs":[]},{"type":"error","name":"SafeERC20FailedOperation","inputs":[{"name":"token","type":"address","internalType":"address"}]},{"type":"error","name":"UnderlyingCallReverted","inputs":[{"name":"returnData","type":"bytes","internalType":"bytes"}]}],"bytecode":{"object":"0x60c060405234801561000f575f5ffd5b50604051612d0a380380612d0a83398101604081905261002e9161029d565b8181826001600160a01b03166306fdde036040518163ffffffff1660e01b81526004015f60405180830381865afa15801561006b573d5f5f3e3d5ffd5b505050506040513d5f823e601f3d908101601f1916820160405261009291908101906102e2565b6040516020016100a291906103a9565b604051602081830303815290604052836001600160a01b03166395d89b416040518163ffffffff1660e01b81526004015f60405180830381865afa1580156100ec573d5f5f3e3d5ffd5b505050506040513d5f823e601f3d908101601f1916820160405261011391908101906102e2565b60405160200161012391906103cc565b60408051601f19818403018152919052600361013f8382610465565b50600461014c8282610465565b5050505f5f610160836101ac60201b60201c565b9150915081610170576012610172565b805b60ff1660a05250506001600160a01b03908116608052600580546001600160a81b0319166101009390921692909202179055506105419050565b60408051600481526024810182526020810180516001600160e01b031663313ce56760e01b17905290515f918291829182916001600160a01b038716916101f29161051f565b5f60405180830381855afa9150503d805f811461022a576040519150601f19603f3d011682016040523d82523d5f602084013e61022f565b606091505b509150915081801561024357506020815110155b15610276575f8180602001905181019061025d919061052a565b905060ff8111610274576001969095509350505050565b505b505f9485945092505050565b80516001600160a01b0381168114610298575f5ffd5b919050565b5f5f604083850312156102ae575f5ffd5b6102b783610282565b91506102c560208401610282565b90509250929050565b634e487b7160e01b5f52604160045260245ffd5b5f602082840312156102f2575f5ffd5b81516001600160401b03811115610307575f5ffd5b8201601f81018413610317575f5ffd5b80516001600160401b03811115610330576103306102ce565b604051601f8201601f19908116603f011681016001600160401b038111828210171561035e5761035e6102ce565b604052818152828201602001861015610375575f5ffd5b8160208401602083015e5f91810160200191909152949350505050565b5f81518060208401855e5f93019283525090919050565b67029b0bb34b733b9960c51b81525f6103c56008830184610392565b9392505050565b607360f81b81525f6103c56001830184610392565b600181811c908216806103f557607f821691505b60208210810361041357634e487b7160e01b5f52602260045260245ffd5b50919050565b601f82111561046057805f5260205f20601f840160051c8101602085101561043e5750805b601f840160051c820191505b8181101561045d575f815560010161044a565b50505b505050565b81516001600160401b0381111561047e5761047e6102ce565b6104928161048c84546103e1565b84610419565b6020601f8211600181146104c4575f83156104ad5750848201515b5f19600385901b1c1916600184901b17845561045d565b5f84815260208120601f198516915b828110156104f357878501518255602094850194600190920191016104d3565b508482101561051057868401515f19600387901b60f8161c191681555b50505050600190811b01905550565b5f6103c58284610392565b5f6020828403121561053a575f5ffd5b5051919050565b60805160a0516127776105935f395f610a5a01525f8181610348015281816109bc015281816111970152818161152b0152818161171c015281816117e801528181611e7e0152611f3001526127775ff3fe608060405260043610610207575f3560e01c80638000963011610113578063b460af941161009d578063ce96cb771161006d578063ce96cb77146105c6578063d905777e146105e5578063dd62ed3e14610604578063ef8b30f7146105a7578063f2f4eb2614610648575f5ffd5b8063b460af9414610569578063ba08765214610588578063c63d75b614610394578063c6e6f592146105a7575f5ffd5b806394bf804d116100e357806394bf804d146104d957806395d89b41146104f8578063a9059cbb1461050c578063ad0b93bd1461052b578063b3d7f6b91461054a575f5ffd5b8063800096301461046857806381d53faa146104875780638456cb59146104a65780638bdf67f2146104ba575f5ffd5b806338d52e0f116101945780634dc47d34116101645780634dc47d34146103b35780635c975abb146103de5780636e553f65146103f557806370a08231146104145780637df3927e14610448575f5ffd5b806338d52e0f1461033a5780633f4ba83a14610380578063402d267d146103945780634cdad50614610253575f5ffd5b80630a28a477116101da5780630a28a477146102a157806318160ddd146102c057806323b872dd146102d457806326522777146102f3578063313ce56714610314575f5ffd5b806301e1d1141461020b57806306fdde031461023257806307a2d13a14610253578063095ea7b314610272575b5f5ffd5b348015610216575f5ffd5b5061021f61066a565b6040519081526020015b60405180910390f35b34801561023d575f5ffd5b50610246610718565b604051610229919061225f565b34801561025e575f5ffd5b5061021f61026d366004612271565b6107a8565b34801561027d575f5ffd5b5061029161028c3660046122a3565b6107b9565b6040519015158152602001610229565b3480156102ac575f5ffd5b5061021f6102bb366004612271565b6107d0565b3480156102cb575f5ffd5b5060025461021f565b3480156102df575f5ffd5b506102916102ee3660046122cb565b6107dc565b3480156102fe575f5ffd5b5061031261030d366004612271565b610801565b005b34801561031f575f5ffd5b50610328610a53565b60405160ff9091168152602001610229565b348015610345575f5ffd5b507f00000000000000000000000000000000000000000000000000000000000000005b6040516001600160a01b039091168152602001610229565b34801561038b575f5ffd5b50610312610a7e565b34801561039f575f5ffd5b5061021f6103ae366004612305565b610b5a565b3480156103be575f5ffd5b5061021f6103cd366004612271565b60076020525f908152604090205481565b3480156103e9575f5ffd5b5060055460ff16610291565b348015610400575f5ffd5b5061021f61040f36600461231e565b610b7a565b34801561041f575f5ffd5b5061021f61042e366004612305565b6001600160a01b03165f9081526020819052604090205490565b61045b610456366004612348565b610b8d565b60405161022991906123b9565b348015610473575f5ffd5b50610312610482366004612305565b610e10565b348015610492575f5ffd5b506103126104a1366004612305565b610eea565b3480156104b1575f5ffd5b50610312610feb565b3480156104c5575f5ffd5b506103126104d4366004612271565b6110c4565b3480156104e4575f5ffd5b5061021f6104f336600461231e565b611307565b348015610503575f5ffd5b5061024661131a565b348015610517575f5ffd5b506102916105263660046122a3565b611329565b348015610536575f5ffd5b50600654610368906001600160a01b031681565b348015610555575f5ffd5b5061021f610564366004612271565b611336565b348015610574575f5ffd5b5061021f61058336600461241c565b611342565b348015610593575f5ffd5b5061021f6105a236600461241c565b611366565b3480156105b2575f5ffd5b5061021f6105c1366004612271565b611382565b3480156105d1575f5ffd5b5061021f6105e0366004612305565b61138d565b3480156105f0575f5ffd5b5061021f6105ff366004612305565b6113b7565b34801561060f575f5ffd5b5061021f61061e366004612455565b6001600160a01b039182165f90815260016020908152604080832093909416825291909152205490565b348015610653575f5ffd5b5060055461010090046001600160a01b0316610368565b5f6106736113e1565b60405163342a7b0160e01b81524260048201526007905f9073__$c2db40bc88d1695fb95efa117e02d420e9$__9063342a7b0190602401602060405180830381865af41580156106c5573d5f5f3e3d5ffd5b505050506040513d601f19601f820116820180604052508101906106e9919061247d565b81526020019081526020015f20546106ff611514565b61070991906124a8565b61071391906124a8565b905090565b606060038054610727906124bb565b80601f0160208091040260200160405190810160405280929190818152602001828054610753906124bb565b801561079e5780601f106107755761010080835404028352916020019161079e565b820191905f5260205f20905b81548152906001019060200180831161078157829003601f168201915b5050505050905090565b5f6107b3825f61159c565b92915050565b5f336107c68185856115d4565b5060019392505050565b5f6107b38260016115e6565b5f336107e9858285611615565b6107f4858585611690565b60019150505b9392505050565b600554604051632474521560e21b81527f31e44e7763cc54215b453a052743c504bdb2e0f29f465a4651620cb67f255478600482018190523360248301529161010090046001600160a01b0316906391d1485490604401602060405180830381865afa158015610873573d5f5f3e3d5ffd5b505050506040513d601f19601f8201168201806040525081019061089791906124f3565b6108d75760405162461bcd60e51b815260206004820152600c60248201526b15539055551213d49256915160a21b60448201526064015b60405180910390fd5b60405163342a7b0160e01b81524260048201526109539073__$c2db40bc88d1695fb95efa117e02d420e9$__9063342a7b01906024015b602060405180830381865af4158015610929573d5f5f3e3d5ffd5b505050506040513d601f19601f8201168201806040525081019061094d919061247d565b836116ed565b91508115610a4f57604051635487c57760e01b81524260048201526109969073__$c2db40bc88d1695fb95efa117e02d420e9$__90635487c5779060240161090e565b91508115610a4f57604051630852cd8d60e31b8152600481018390526001600160a01b037f000000000000000000000000000000000000000000000000000000000000000016906342966c68906024015f604051808303815f87803b1580156109fd575f5ffd5b505af1158015610a0f573d5f5f3e3d5ffd5b5050604080515f8152602081018690524293507f820476251d95b78d63480a8dbee716eb1c30b70352aa822aede4aa6a6d91357792500160405180910390a25b5050565b5f610713817f0000000000000000000000000000000000000000000000000000000000000000612512565b600554604051632474521560e21b81527fe7276a2a84d8de556657ec9cf93a55a7d66f096e529d0582ed08e9e2208b92b5600482018190523360248301529161010090046001600160a01b0316906391d1485490604401602060405180830381865afa158015610af0573d5f5f3e3d5ffd5b505050506040513d601f19601f82011682018060405250810190610b1491906124f3565b610b4f5760405162461bcd60e51b815260206004820152600c60248201526b15539055551213d49256915160a21b60448201526064016108ce565b610b576118b1565b50565b5f610b6760055460ff1690565b15610b7357505f919050565b5f196107b3565b5f610b83611903565b6107fa8383611929565b600554604051632474521560e21b81527f1a6838efa4183e08fe3607359d1259272af9d4716f65e1a7b5921f78fd5a3c6a6004820181905233602483015260609290916101009091046001600160a01b0316906391d1485490604401602060405180830381865afa158015610c04573d5f5f3e3d5ffd5b505050506040513d601f19601f82011682018060405250810190610c2891906124f3565b610c635760405162461bcd60e51b815260206004820152600c60248201526b15539055551213d49256915160a21b60448201526064016108ce565b8267ffffffffffffffff811115610c7c57610c7c61252b565b604051908082528060200260200182016040528015610caf57816020015b6060815260200190600190039081610c9a5790505b5091505f5b83811015610e08575f858583818110610ccf57610ccf61253f565b9050602002810190610ce19190612553565b610cef906020810190612305565b90505f868684818110610d0457610d0461253f565b9050602002810190610d169190612553565b602001359050365f888886818110610d3057610d3061253f565b9050602002810190610d429190612553565b610d50906040810190612571565b915091505f5f856001600160a01b0316858585604051610d719291906125bb565b5f6040518083038185875af1925050503d805f8114610dab576040519150601f19603f3d011682016040523d82523d5f602084013e610db0565b606091505b5091509150818190610dd657604051634ad176bb60e01b81526004016108ce919061225f565b5080898881518110610dea57610dea61253f565b60200260200101819052505050505050508080600101915050610cb4565b505092915050565b600554604051632474521560e21b81527f1a6838efa4183e08fe3607359d1259272af9d4716f65e1a7b5921f78fd5a3c6a600482018190523360248301529161010090046001600160a01b0316906391d1485490604401602060405180830381865afa158015610e82573d5f5f3e3d5ffd5b505050506040513d601f19601f82011682018060405250810190610ea691906124f3565b610ee15760405162461bcd60e51b815260206004820152600c60248201526b15539055551213d49256915160a21b60448201526064016108ce565b610a4f82611988565b600554604051632474521560e21b81527f1a6838efa4183e08fe3607359d1259272af9d4716f65e1a7b5921f78fd5a3c6a600482018190523360248301529161010090046001600160a01b0316906391d1485490604401602060405180830381865afa158015610f5c573d5f5f3e3d5ffd5b505050506040513d601f19601f82011682018060405250810190610f8091906124f3565b610fbb5760405162461bcd60e51b815260206004820152600c60248201526b15539055551213d49256915160a21b60448201526064016108ce565b506006805473ffffffffffffffffffffffffffffffffffffffff19166001600160a01b0392909216919091179055565b600554604051632474521560e21b81527ffcb9fcbfa83b897fb2d5cf4b58962164105c1e71489a37ef3ae0db3fdce576f6600482018190523360248301529161010090046001600160a01b0316906391d1485490604401602060405180830381865afa15801561105d573d5f5f3e3d5ffd5b505050506040513d601f19601f8201168201806040525081019061108191906124f3565b6110bc5760405162461bcd60e51b815260206004820152600c60248201526b15539055551213d49256915160a21b60448201526064016108ce565b610b576119ee565b600554604051632474521560e21b81527f31e44e7763cc54215b453a052743c504bdb2e0f29f465a4651620cb67f255478600482018190523360248301529161010090046001600160a01b0316906391d1485490604401602060405180830381865afa158015611136573d5f5f3e3d5ffd5b505050506040513d601f19601f8201168201806040525081019061115a91906124f3565b6111955760405162461bcd60e51b815260206004820152600c60248201526b15539055551213d49256915160a21b60448201526064016108ce565b7f00000000000000000000000000000000000000000000000000000000000000006040516323b872dd60e01b8152336004820152306024820152604481018490526001600160a01b0391909116906323b872dd906064016020604051808303815f875af1158015611208573d5f5f3e3d5ffd5b505050506040513d601f19601f8201168201806040525081019061122c91906124f3565b5060405163342a7b0160e01b81524260048201525f9073__$c2db40bc88d1695fb95efa117e02d420e9$__9063342a7b0190602401602060405180830381865af415801561127c573d5f5f3e3d5ffd5b505050506040513d601f19601f820116820180604052508101906112a0919061247d565b90508260075f8381526020019081526020015f205f8282546112c291906125ca565b9091555050604080518281526020810185905242917f67d8e41dbea80661bb961d417970372decefc80a99de38a8ea4706efe68ffc2b910160405180910390a2505050565b5f611310611903565b6107fa8383611a2b565b606060048054610727906124bb565b5f336107c6818585611690565b5f6107b382600161159c565b5f61134b611903565b611353611a8a565b61135e848484611b14565b949350505050565b5f61136f611903565b611377611a8a565b61135e848484611b7d565b5f6107b3825f6115e6565b5f61139a60055460ff1690565b156113a657505f919050565b6113ae611a8a565b6107b382611bdd565b5f6113c460055460ff1690565b156113d057505f919050565b6113d8611a8a565b6107b382611bff565b604051635487c57760e01b81524260048201525f90819073__$c2db40bc88d1695fb95efa117e02d420e9$__90635487c57790602401602060405180830381865af4158015611432573d5f5f3e3d5ffd5b505050506040513d601f19601f82011682018060405250810190611456919061247d565b5f818152600760205260408082205490516372b8648960e01b8152600481018490529293509173__$c2db40bc88d1695fb95efa117e02d420e9$__906372b8648990602401602060405180830381865af41580156114b6573d5f5f3e3d5ffd5b505050506040513d601f19601f820116820180604052508101906114da919061247d565b6114e490426124a8565b90505f62093a806114f583856125dd565b6114ff9190612608565b905061150b81846124a8565b94505050505090565b6040516370a0823160e01b81523060048201525f907f00000000000000000000000000000000000000000000000000000000000000006001600160a01b0316906370a0823190602401602060405180830381865afa158015611578573d5f5f3e3d5ffd5b505050506040513d601f19601f82011682018060405250810190610713919061247d565b5f6107fa6115a861066a565b6115b39060016125ca565b6115be5f600a6126fe565b6002546115cb91906125ca565b85919085611c1c565b6115e18383836001611c5e565b505050565b5f6107fa6115f582600a6126fe565b60025461160291906125ca565b61160a61066a565b6115cb9060016125ca565b6001600160a01b038381165f908152600160209081526040808320938616835292905220545f19811461168a578181101561167c57604051637dc7a0d960e11b81526001600160a01b038416600482015260248101829052604481018390526064016108ce565b61168a84848484035f611c5e565b50505050565b6001600160a01b0383166116b957604051634b637e8f60e11b81525f60048201526024016108ce565b6001600160a01b0382166116e25760405163ec442f0560e01b81525f60048201526024016108ce565b6115e1838383611d30565b5f828152600760205260408120548281106117d85761170c83826124a8565b5f858152600760205260409020557f00000000000000000000000000000000000000000000000000000000000000006001600160a01b03166342966c68846040518263ffffffff1660e01b815260040161176891815260200190565b5f604051808303815f87803b15801561177f575f5ffd5b505af1158015611791573d5f5f3e3d5ffd5b505060408051878152602081018790524293507f820476251d95b78d63480a8dbee716eb1c30b70352aa822aede4aa6a6d91357792500160405180910390a25f92506118a9565b5f848152600760205260408120557f00000000000000000000000000000000000000000000000000000000000000006001600160a01b03166342966c68826040518263ffffffff1660e01b815260040161183491815260200190565b5f604051808303815f87803b15801561184b575f5ffd5b505af115801561185d573d5f5f3e3d5ffd5b505060408051878152602081018590524293507f820476251d95b78d63480a8dbee716eb1c30b70352aa822aede4aa6a6d91357792500160405180910390a26118a681846124a8565b92505b509092915050565b6118b9611e56565b6005805460ff191690557f5db9ee0a495bf2e6ff9c91a7834c1ba4fdd244a5e8aa4e537bd38aeae4b073aa335b6040516001600160a01b03909116815260200160405180910390a1565b60055460ff16156119275760405163d93c066560e01b815260040160405180910390fd5b565b5f5f61193483610b5a565b90508084111561197057604051633c8097d960e11b81526001600160a01b038416600482015260248101859052604481018290526064016108ce565b5f61197a85611382565b905061135e33858784611e79565b600580546001600160a01b0383811661010081810274ffffffffffffffffffffffffffffffffffffffff001985161790945560405193909204169182907f9209b7c8c06dcfd261686a663e7c55989337b18d59da5433c6f2835fb6970920905f90a35050565b6119f6611903565b6005805460ff191660011790557f62e78cea01bee320cd4e420270b5ea74000d11b0c9f74754ebdbfc544b05a2586118e63390565b5f5f611a3683610b5a565b905080841115611a725760405163284ff66760e01b81526001600160a01b038416600482015260248101859052604481018290526064016108ce565b5f611a7c85611336565b905061135e33858388611e79565b60065460408051633e10ccdb60e21b815290515f926001600160a01b03169163f843336c9160048083019260209291908290030181865afa158015611ad1573d5f5f3e3d5ffd5b505050506040513d601f19601f82011682018060405250810190611af5919061247d565b121561192757604051630e4a65c960e21b815260040160405180910390fd5b5f5f611b1f8361138d565b905080851115611b5b57604051633fa733bb60e21b81526001600160a01b038416600482015260248101869052604481018290526064016108ce565b5f611b65866107d0565b9050611b743386868985611efd565b95945050505050565b5f5f611b88836113b7565b905080851115611bc457604051632e52afbb60e21b81526001600160a01b038416600482015260248101869052604481018290526064016108ce565b5f611bce866107a8565b9050611b74338686848a611efd565b6001600160a01b0381165f908152602081905260408120546107b3905f61159c565b6001600160a01b0381165f908152602081905260408120546107b3565b5f611c49611c2983611fbd565b8015611c4457505f8480611c3f57611c3f6125f4565b868809115b151590565b611c54868686611fe9565b611b7491906125ca565b6001600160a01b038416611c875760405163e602df0560e01b81525f60048201526024016108ce565b6001600160a01b038316611cb057604051634a1406b160e11b81525f60048201526024016108ce565b6001600160a01b038085165f908152600160209081526040808320938716835292905220829055801561168a57826001600160a01b0316846001600160a01b03167f8c5be1e5ebec7d5bd14f71427d1e84f3dd0314c0f7b2291e5b200ac8c7c3b92584604051611d2291815260200190565b60405180910390a350505050565b6001600160a01b038316611d5a578060025f828254611d4f91906125ca565b90915550611dca9050565b6001600160a01b0383165f9081526020819052604090205481811015611dac5760405163391434e360e21b81526001600160a01b038516600482015260248101829052604481018390526064016108ce565b6001600160a01b0384165f9081526020819052604090209082900390555b6001600160a01b038216611de657600280548290039055611e04565b6001600160a01b0382165f9081526020819052604090208054820190555b816001600160a01b0316836001600160a01b03167fddf252ad1be2c89b69c2b068fc378daa952ba7f163c4a11628f55a4df523b3ef83604051611e4991815260200190565b60405180910390a3505050565b60055460ff1661192757604051638dfc202b60e01b815260040160405180910390fd5b611ea57f000000000000000000000000000000000000000000000000000000000000000085308561209f565b611eaf838261211b565b826001600160a01b0316846001600160a01b03167fdcbc1c05240f31ff3ad067ef1ee35ce4997762752e3a095284754544f4c709d78484604051611d22929190918252602082015260400190565b826001600160a01b0316856001600160a01b031614611f2157611f21838683611615565b611f2b838261214f565b611f567f00000000000000000000000000000000000000000000000000000000000000008584612183565b826001600160a01b0316846001600160a01b0316866001600160a01b03167ffbde797d201c681b91056529119e0b02407c7bb96a4a2c75c01fc9667232c8db8585604051611fae929190918252602082015260400190565b60405180910390a45050505050565b5f6002826003811115611fd257611fd261270c565b611fdc9190612720565b60ff166001149050919050565b5f838302815f1985870982811083820303915050805f0361201d57838281612013576120136125f4565b04925050506107fa565b8084116120345761203460038515026011186121b4565b5f848688095f868103871696879004966002600389028118808a02820302808a02820302808a02820302808a02820302808a02820302808a02909103029181900381900460010186841190950394909402919094039290920491909117919091029150509392505050565b6040516001600160a01b03848116602483015283811660448301526064820183905261168a9186918216906323b872dd906084015b604051602081830303815290604052915060e01b6020820180517bffffffffffffffffffffffffffffffffffffffffffffffffffffffff83818316178352505050506121c5565b6001600160a01b0382166121445760405163ec442f0560e01b81525f60048201526024016108ce565b610a4f5f8383611d30565b6001600160a01b03821661217857604051634b637e8f60e11b81525f60048201526024016108ce565b610a4f825f83611d30565b6040516001600160a01b038381166024830152604482018390526115e191859182169063a9059cbb906064016120d4565b634e487b715f52806020526024601cfd5b5f5f60205f8451602086015f885af1806121e4576040513d5f823e3d81fd5b50505f513d915081156121fb578060011415612208565b6001600160a01b0384163b155b1561168a57604051635274afe760e01b81526001600160a01b03851660048201526024016108ce565b5f81518084528060208401602086015e5f602082860101526020601f19601f83011685010191505092915050565b602081525f6107fa6020830184612231565b5f60208284031215612281575f5ffd5b5035919050565b80356001600160a01b038116811461229e575f5ffd5b919050565b5f5f604083850312156122b4575f5ffd5b6122bd83612288565b946020939093013593505050565b5f5f5f606084860312156122dd575f5ffd5b6122e684612288565b92506122f460208501612288565b929592945050506040919091013590565b5f60208284031215612315575f5ffd5b6107fa82612288565b5f5f6040838503121561232f575f5ffd5b8235915061233f60208401612288565b90509250929050565b5f5f60208385031215612359575f5ffd5b823567ffffffffffffffff81111561236f575f5ffd5b8301601f8101851361237f575f5ffd5b803567ffffffffffffffff811115612395575f5ffd5b8560208260051b84010111156123a9575f5ffd5b6020919091019590945092505050565b5f602082016020835280845180835260408501915060408160051b8601019250602086015f5b8281101561241057603f198786030184526123fb858351612231565b945060209384019391909101906001016123df565b50929695505050505050565b5f5f5f6060848603121561242e575f5ffd5b8335925061243e60208501612288565b915061244c60408501612288565b90509250925092565b5f5f60408385031215612466575f5ffd5b61246f83612288565b915061233f60208401612288565b5f6020828403121561248d575f5ffd5b5051919050565b634e487b7160e01b5f52601160045260245ffd5b818103818111156107b3576107b3612494565b600181811c908216806124cf57607f821691505b6020821081036124ed57634e487b7160e01b5f52602260045260245ffd5b50919050565b5f60208284031215612503575f5ffd5b815180151581146107fa575f5ffd5b60ff81811683821601908111156107b3576107b3612494565b634e487b7160e01b5f52604160045260245ffd5b634e487b7160e01b5f52603260045260245ffd5b5f8235605e19833603018112612567575f5ffd5b9190910192915050565b5f5f8335601e19843603018112612586575f5ffd5b83018035915067ffffffffffffffff8211156125a0575f5ffd5b6020019150368190038213156125b4575f5ffd5b9250929050565b818382375f9101908152919050565b808201808211156107b3576107b3612494565b80820281158282048414176107b3576107b3612494565b634e487b7160e01b5f52601260045260245ffd5b5f82612616576126166125f4565b500490565b6001815b60018411156126565780850481111561263a5761263a612494565b600184161561264857908102905b60019390931c92800261261f565b935093915050565b5f8261266c575060016107b3565b8161267857505f6107b3565b816001811461268e5760028114612698576126b4565b60019150506107b3565b60ff8411156126a9576126a9612494565b50506001821b6107b3565b5060208310610133831016604e8410600b84101617156126d7575081810a6107b3565b6126e35f19848461261b565b805f19048211156126f6576126f6612494565b029392505050565b5f6107fa60ff84168361265e565b634e487b7160e01b5f52602160045260245ffd5b5f60ff831680612732576127326125f4565b8060ff8416069150509291505056fea2646970667358221220351eb0c20543c22277ff23e86885355564aacd175289fb06df36877fdb1bb7e364736f6c634300081c0033","linkReferences":{"src/libraries/EpochLib.sol":{"EpochLib":[{"start":3104,"length":20},{"start":3715,"length":20},{"start":3847,"length":20},{"start":6103,"length":20},{"start":6541,"length":20},{"start":6673,"length":20}]}}},"methodIdentifiers":{"allowance(address,address)":"dd62ed3e","applyLosses(uint256)":"26522777","approve(address,uint256)":"095ea7b3","asset()":"38d52e0f","balanceOf(address)":"70a08231","convertToAssets(uint256)":"07a2d13a","convertToShares(uint256)":"c6e6f592","core()":"f2f4eb26","decimals()":"313ce567","deposit(uint256,address)":"6e553f65","depositRewards(uint256)":"8bdf67f2","emergencyAction((address,uint256,bytes)[])":"7df3927e","epochRewards(uint256)":"4dc47d34","maxDeposit(address)":"402d267d","maxMint(address)":"c63d75b6","maxRedeem(address)":"d905777e","maxWithdraw(address)":"ce96cb77","mint(uint256,address)":"94bf804d","name()":"06fdde03","pause()":"8456cb59","paused()":"5c975abb","previewDeposit(uint256)":"ef8b30f7","previewMint(uint256)":"b3d7f6b9","previewRedeem(uint256)":"4cdad506","previewWithdraw(uint256)":"0a28a477","redeem(uint256,address,address)":"ba087652","setCore(address)":"80009630","setYieldSharing(address)":"81d53faa","symbol()":"95d89b41","totalAssets()":"01e1d114","totalSupply()":"18160ddd","transfer(address,uint256)":"a9059cbb","transferFrom(address,address,uint256)":"23b872dd","unpause()":"3f4ba83a","withdraw(uint256,address,address)":"b460af94","yieldSharing()":"ad0b93bd"},"id":109}