{"abi":[{"type":"constructor","inputs":[{"name":"_core","type":"address","internalType":"address"},{"name":"_assetToken","type":"address","internalType":"address"},{"name":"_wrapToken","type":"address","internalType":"address"},{"name":"_wrapTokenOracle","type":"address","internalType":"address"},{"name":"_duration","type":"uint256","internalType":"uint256"}],"stateMutability":"nonpayable"},{"type":"function","name":"_SWAP_COOLDOWN","inputs":[],"outputs":[{"name":"","type":"uint256","internalType":"uint256"}],"stateMutability":"view"},{"type":"function","name":"assetToken","inputs":[],"outputs":[{"name":"","type":"address","internalType":"address"}],"stateMutability":"view"},{"type":"function","name":"assets","inputs":[],"outputs":[{"name":"","type":"uint256","internalType":"uint256"}],"stateMutability":"view"},{"type":"function","name":"cap","inputs":[],"outputs":[{"name":"","type":"uint256","internalType":"uint256"}],"stateMutability":"view"},{"type":"function","name":"convertToAssets","inputs":[{"name":"_wrapTokenAmount","type":"uint256","internalType":"uint256"}],"outputs":[{"name":"","type":"uint256","internalType":"uint256"}],"stateMutability":"view"},{"type":"function","name":"core","inputs":[],"outputs":[{"name":"","type":"address","internalType":"contract InfiniFiCore"}],"stateMutability":"view"},{"type":"function","name":"deposit","inputs":[],"outputs":[],"stateMutability":"view"},{"type":"function","name":"emergencyAction","inputs":[{"name":"calls","type":"tuple[]","internalType":"struct CoreControlled.Call[]","components":[{"name":"target","type":"address","internalType":"address"},{"name":"value","type":"uint256","internalType":"uint256"},{"name":"callData","type":"bytes","internalType":"bytes"}]}],"outputs":[{"name":"returnData","type":"bytes[]","internalType":"bytes[]"}],"stateMutability":"payable"},{"type":"function","name":"enabledRouters","inputs":[{"name":"","type":"address","internalType":"address"}],"outputs":[{"name":"","type":"bool","internalType":"bool"}],"stateMutability":"view"},{"type":"function","name":"lastSwap","inputs":[],"outputs":[{"name":"","type":"uint256","internalType":"uint256"}],"stateMutability":"view"},{"type":"function","name":"liquidity","inputs":[],"outputs":[{"name":"","type":"uint256","internalType":"uint256"}],"stateMutability":"view"},{"type":"function","name":"maturity","inputs":[],"outputs":[{"name":"","type":"uint256","internalType":"uint256"}],"stateMutability":"view"},{"type":"function","name":"maxDeposit","inputs":[],"outputs":[{"name":"","type":"uint256","internalType":"uint256"}],"stateMutability":"view"},{"type":"function","name":"maxSlippage","inputs":[],"outputs":[{"name":"","type":"uint256","internalType":"uint256"}],"stateMutability":"view"},{"type":"function","name":"pause","inputs":[],"outputs":[],"stateMutability":"nonpayable"},{"type":"function","name":"paused","inputs":[],"outputs":[{"name":"","type":"bool","internalType":"bool"}],"stateMutability":"view"},{"type":"function","name":"setCap","inputs":[{"name":"_newCap","type":"uint256","internalType":"uint256"}],"outputs":[],"stateMutability":"nonpayable"},{"type":"function","name":"setCore","inputs":[{"name":"newCore","type":"address","internalType":"address"}],"outputs":[],"stateMutability":"nonpayable"},{"type":"function","name":"setEnabledRouter","inputs":[{"name":"_router","type":"address","internalType":"address"},{"name":"_enabled","type":"bool","internalType":"bool"}],"outputs":[],"stateMutability":"nonpayable"},{"type":"function","name":"setMaxSlippage","inputs":[{"name":"_maxSlippage","type":"uint256","internalType":"uint256"}],"outputs":[],"stateMutability":"nonpayable"},{"type":"function","name":"unpause","inputs":[],"outputs":[],"stateMutability":"nonpayable"},{"type":"function","name":"unwrapAssets","inputs":[{"name":"_wrapTokenAmount","type":"uint256","internalType":"uint256"},{"name":"_router","type":"address","internalType":"address"},{"name":"_calldata","type":"bytes","internalType":"bytes"}],"outputs":[],"stateMutability":"nonpayable"},{"type":"function","name":"withdraw","inputs":[{"name":"amount","type":"uint256","internalType":"uint256"},{"name":"to","type":"address","internalType":"address"}],"outputs":[],"stateMutability":"nonpayable"},{"type":"function","name":"wrapAssets","inputs":[{"name":"_assetsIn","type":"uint256","internalType":"uint256"},{"name":"_router","type":"address","internalType":"address"},{"name":"_calldata","type":"bytes","internalType":"bytes"}],"outputs":[],"stateMutability":"nonpayable"},{"type":"function","name":"wrapToken","inputs":[],"outputs":[{"name":"","type":"address","internalType":"address"}],"stateMutability":"view"},{"type":"function","name":"wrapTokenOracle","inputs":[],"outputs":[{"name":"","type":"address","internalType":"address"}],"stateMutability":"view"},{"type":"event","name":"AssetsUpdated","inputs":[{"name":"timestamp","type":"uint256","indexed":false,"internalType":"uint256"},{"name":"assetsBefore","type":"uint256","indexed":false,"internalType":"uint256"},{"name":"assetsAfter","type":"uint256","indexed":false,"internalType":"uint256"}],"anonymous":false},{"type":"event","name":"CapUpdated","inputs":[{"name":"newCap","type":"uint256","indexed":false,"internalType":"uint256"}],"anonymous":false},{"type":"event","name":"CoreUpdate","inputs":[{"name":"oldCore","type":"address","indexed":true,"internalType":"address"},{"name":"newCore","type":"address","indexed":true,"internalType":"address"}],"anonymous":false},{"type":"event","name":"MaxSlippageUpdated","inputs":[{"name":"newMaxSlippage","type":"uint256","indexed":false,"internalType":"uint256"}],"anonymous":false},{"type":"event","name":"Paused","inputs":[{"name":"account","type":"address","indexed":false,"internalType":"address"}],"anonymous":false},{"type":"event","name":"Unpaused","inputs":[{"name":"account","type":"address","indexed":false,"internalType":"address"}],"anonymous":false},{"type":"error","name":"CapExceeded","inputs":[{"name":"newAmount","type":"uint256","internalType":"uint256"},{"name":"cap","type":"uint256","internalType":"uint256"}]},{"type":"error","name":"EnforcedPause","inputs":[]},{"type":"error","name":"ExpectedPause","inputs":[]},{"type":"error","name":"RouterNotEnabled","inputs":[{"name":"router","type":"address","internalType":"address"}]},{"type":"error","name":"SafeERC20FailedOperation","inputs":[{"name":"token","type":"address","internalType":"address"}]},{"type":"error","name":"SlippageTooHigh","inputs":[{"name":"minAssetsOut","type":"uint256","internalType":"uint256"},{"name":"assetsReceived","type":"uint256","internalType":"uint256"}]},{"type":"error","name":"SwapCooldown","inputs":[]},{"type":"error","name":"SwapFailed","inputs":[{"name":"returnData","type":"bytes","internalType":"bytes"}]},{"type":"error","name":"UnderlyingCallReverted","inputs":[{"name":"returnData","type":"bytes","internalType":"bytes"}]}],"bytecode":{"object":"0x6101006040526001600455348015610015575f5ffd5b506040516121eb3803806121eb83398101604081905261003491610099565b5f80546001600160a81b0319166101006001600160a01b03978816021790559284166080525f1960015590831660a05290911660c05260e052670dcef33a6f8380006002556100f3565b80516001600160a01b0381168114610094575f5ffd5b919050565b5f5f5f5f5f60a086880312156100ad575f5ffd5b6100b68661007e565b94506100c46020870161007e565b93506100d26040870161007e565b92506100e06060870161007e565b9150608086015190509295509295909350565b60805160a05160c05160e0516120786101735f395f61078c01525f8181610407015261066801525f818161028701528181610b96015281816112b1015281816113fb015261179301525f81816102140152818161071001528181610b0701528181611331015281816117130152818161185d015261195501526120785ff3fe608060405260043610610197575f3560e01c8063642763c6116100dc5780638c04166f11610087578063c23544ad11610062578063c23544ad14610448578063d0e30db014610476578063e93c5bfa1461048a578063f2f4eb26146104a9575f5ffd5b80638c04166f146103e15780639a2874b1146103f6578063b841807214610429575f5ffd5b80637df3927e116100b75780637df3927e1461038e57806380009630146103ae5780638456cb59146103cd575f5ffd5b8063642763c61461034657806371a973051461035b5780637b96eef11461036f575f5ffd5b80633517c6041161014757806343f68a491161012257806343f68a49146102d257806347786d37146102f15780635c975abb146103105780636083e59a14610332575f5ffd5b80633517c60414610276578063355274ea146102a95780633f4ba83a146102be575f5ffd5b80631083f761116101775780631083f761146102035780631a6865021461024e578063204f83f914610262575f5ffd5b8062f714ce1461019b578062ff2d44146101bc57806307a2d13a146101e4575b5f5ffd5b3480156101a6575f5ffd5b506101ba6101b5366004611ca5565b6104ca565b005b3480156101c7575f5ffd5b506101d160045481565b6040519081526020015b60405180910390f35b3480156101ef575f5ffd5b506101d16101fe366004611ccf565b610664565b34801561020e575f5ffd5b506102367f000000000000000000000000000000000000000000000000000000000000000081565b6040516001600160a01b0390911681526020016101db565b348015610259575f5ffd5b506101d16106f9565b34801561026d575f5ffd5b506101d1610786565b348015610281575f5ffd5b506102367f000000000000000000000000000000000000000000000000000000000000000081565b3480156102b4575f5ffd5b506101d160015481565b3480156102c9575f5ffd5b506101ba6107b1565b3480156102dd575f5ffd5b506101ba6102ec366004611ccf565b61088c565b3480156102fc575f5ffd5b506101ba61030b366004611ccf565b610999565b34801561031b575f5ffd5b505f5460ff165b60405190151581526020016101db565b34801561033d575f5ffd5b506101d1610a9e565b348015610351575f5ffd5b506101d161384081565b348015610366575f5ffd5b506101d1610ae6565b34801561037a575f5ffd5b506101ba610389366004611cf3565b610c12565b6103a161039c366004611d28565b610d0d565b6040516101db9190611dc7565b3480156103b9575f5ffd5b506101ba6103c8366004611e2a565b610f8f565b3480156103d8575f5ffd5b506101ba61106c565b3480156103ec575f5ffd5b506101d160025481565b348015610401575f5ffd5b506102367f000000000000000000000000000000000000000000000000000000000000000081565b348015610434575f5ffd5b506101ba610443366004611e57565b611144565b348015610453575f5ffd5b50610322610462366004611e2a565b60036020525f908152604090205460ff1681565b348015610481575f5ffd5b506101ba6114ce565b348015610495575f5ffd5b506101ba6104a4366004611e57565b6115a6565b3480156104b4575f5ffd5b505f5461010090046001600160a01b0316610236565b5f54604051632474521560e21b81527f5f33620cda06d02d58df96005b92bc83bd059a566e48e016372f3fbdc974e371600482018190523360248301529161010090046001600160a01b0316906391d1485490604401602060405180830381865afa15801561053b573d5f5f3e3d5ffd5b505050506040513d601f19601f8201168201806040525081019061055f9190611f23565b61059f5760405162461bcd60e51b815260206004820152600c60248201526b15539055551213d49256915160a21b60448201526064015b60405180910390fd5b6105a7611923565b5f6105b0610ae6565b90506105bc8484611948565b5f6105c5610ae6565b90505f6105d28284611f52565b90505f6105ea6002548361197c90919063ffffffff16565b905080878181101561061857604051633b5d56ed60e11b815260048101929092526024820152604401610596565b505060408051428152602081018690529081018490527f35a901c4413e585f9121eb5cf07e67760bd4ac498dd031249e5cd2cd225f74e49060600160405180910390a150505050505050565b5f5f7f00000000000000000000000000000000000000000000000000000000000000006001600160a01b031663a035b1fe6040518163ffffffff1660e01b8152600401602060405180830381865afa1580156106c2573d5f5f3e3d5ffd5b505050506040513d601f19601f820116820180604052508101906106e69190611f65565b90506106f28382611999565b9392505050565b6040516370a0823160e01b81523060048201525f907f00000000000000000000000000000000000000000000000000000000000000006001600160a01b0316906370a0823190602401602060405180830381865afa15801561075d573d5f5f3e3d5ffd5b505050506040513d601f19601f820116820180604052508101906107819190611f65565b905090565b5f6107817f000000000000000000000000000000000000000000000000000000000000000042611f7c565b5f54604051632474521560e21b81527fe7276a2a84d8de556657ec9cf93a55a7d66f096e529d0582ed08e9e2208b92b5600482018190523360248301529161010090046001600160a01b0316906391d1485490604401602060405180830381865afa158015610822573d5f5f3e3d5ffd5b505050506040513d601f19601f820116820180604052508101906108469190611f23565b6108815760405162461bcd60e51b815260206004820152600c60248201526b15539055551213d49256915160a21b6044820152606401610596565b6108896119ad565b50565b5f54604051632474521560e21b81527f3947e2f542c6c46c543fa4f79cbd1e27fea37ed249bc3caf992570d19123642e600482018190523360248301529161010090046001600160a01b0316906391d1485490604401602060405180830381865afa1580156108fd573d5f5f3e3d5ffd5b505050506040513d601f19601f820116820180604052508101906109219190611f23565b61095c5760405162461bcd60e51b815260206004820152600c60248201526b15539055551213d49256915160a21b6044820152606401610596565b60028290556040518281527f9c922f6d0c990b250e9dd0a427a5c8da7f44b960f697fecb31cbbd8ba79ec8c2906020015b60405180910390a15050565b5f54604051632474521560e21b81527f3947e2f542c6c46c543fa4f79cbd1e27fea37ed249bc3caf992570d19123642e600482018190523360248301529161010090046001600160a01b0316906391d1485490604401602060405180830381865afa158015610a0a573d5f5f3e3d5ffd5b505050506040513d601f19601f82011682018060405250810190610a2e9190611f23565b610a695760405162461bcd60e51b815260206004820152600c60248201526b15539055551213d49256915160a21b6044820152606401610596565b60018290556040518281527f3c8eb7c49d332f4c1e4d92a27cda93c31cc9452f7a408e0c6109fcddbc9946ea9060200161098d565b5f5f610aa8610ae6565b90506001548110610aba575f91505090565b6001545f19905f90610acd908490611f52565b9050808210610adc5780610ade565b815b935050505090565b6040516370a0823160e01b81523060048201525f9081906001600160a01b037f000000000000000000000000000000000000000000000000000000000000000016906370a0823190602401602060405180830381865afa158015610b4c573d5f5f3e3d5ffd5b505050506040513d601f19601f82011682018060405250810190610b709190611f65565b6040516370a0823160e01b81523060048201529091505f90610bff906001600160a01b037f000000000000000000000000000000000000000000000000000000000000000016906370a0823190602401602060405180830381865afa158015610bdb573d5f5f3e3d5ffd5b505050506040513d601f19601f820116820180604052508101906101fe9190611f65565b9050610c0b8183611f7c565b9250505090565b5f54604051632474521560e21b81527f3947e2f542c6c46c543fa4f79cbd1e27fea37ed249bc3caf992570d19123642e600482018190523360248301529161010090046001600160a01b0316906391d1485490604401602060405180830381865afa158015610c83573d5f5f3e3d5ffd5b505050506040513d601f19601f82011682018060405250810190610ca79190611f23565b610ce25760405162461bcd60e51b815260206004820152600c60248201526b15539055551213d49256915160a21b6044820152606401610596565b506001600160a01b03919091165f908152600360205260409020805460ff1916911515919091179055565b5f54604051632474521560e21b81527f1a6838efa4183e08fe3607359d1259272af9d4716f65e1a7b5921f78fd5a3c6a6004820181905233602483015260609290916101009091046001600160a01b0316906391d1485490604401602060405180830381865afa158015610d83573d5f5f3e3d5ffd5b505050506040513d601f19601f82011682018060405250810190610da79190611f23565b610de25760405162461bcd60e51b815260206004820152600c60248201526b15539055551213d49256915160a21b6044820152606401610596565b8267ffffffffffffffff811115610dfb57610dfb611e43565b604051908082528060200260200182016040528015610e2e57816020015b6060815260200190600190039081610e195790505b5091505f5b83811015610f87575f858583818110610e4e57610e4e611f8f565b9050602002810190610e609190611fa3565b610e6e906020810190611e2a565b90505f868684818110610e8357610e83611f8f565b9050602002810190610e959190611fa3565b602001359050365f888886818110610eaf57610eaf611f8f565b9050602002810190610ec19190611fa3565b610ecf906040810190611fc1565b915091505f5f856001600160a01b0316858585604051610ef092919061200b565b5f6040518083038185875af1925050503d805f8114610f2a576040519150601f19603f3d011682016040523d82523d5f602084013e610f2f565b606091505b5091509150818190610f5557604051634ad176bb60e01b8152600401610596919061201a565b5080898881518110610f6957610f69611f8f565b60200260200101819052505050505050508080600101915050610e33565b505092915050565b5f54604051632474521560e21b81527f1a6838efa4183e08fe3607359d1259272af9d4716f65e1a7b5921f78fd5a3c6a600482018190523360248301529161010090046001600160a01b0316906391d1485490604401602060405180830381865afa158015611000573d5f5f3e3d5ffd5b505050506040513d601f19601f820116820180604052508101906110249190611f23565b61105f5760405162461bcd60e51b815260206004820152600c60248201526b15539055551213d49256915160a21b6044820152606401610596565b611068826119fe565b5050565b5f54604051632474521560e21b81527ffcb9fcbfa83b897fb2d5cf4b58962164105c1e71489a37ef3ae0db3fdce576f6600482018190523360248301529161010090046001600160a01b0316906391d1485490604401602060405180830381865afa1580156110dd573d5f5f3e3d5ffd5b505050506040513d601f19601f820116820180604052508101906111019190611f23565b61113c5760405162461bcd60e51b815260206004820152600c60248201526b15539055551213d49256915160a21b6044820152606401610596565b610889611a63565b61114c611923565b5f54604051632474521560e21b81527f456cfaf8d1ec98ae5bbe595a448911a58cb2e264d4686992e15dec9d0f363e03600482018190523360248301529161010090046001600160a01b0316906391d1485490604401602060405180830381865afa1580156111bd573d5f5f3e3d5ffd5b505050506040513d601f19601f820116820180604052508101906111e19190611f23565b61121c5760405162461bcd60e51b815260206004820152600c60248201526b15539055551213d49256915160a21b6044820152606401610596565b6001600160a01b0383165f90815260036020526040902054839060ff166112625760405163a58f313b60e01b81526001600160a01b039091166004820152602401610596565b506138406004546112739190611f7c565b421161129257604051635ab1f4a960e01b815260040160405180910390fd5b4260049081556040516370a0823160e01b815230918101919091525f907f00000000000000000000000000000000000000000000000000000000000000006001600160a01b0316906370a0823190602401602060405180830381865afa1580156112fe573d5f5f3e3d5ffd5b505050506040513d601f19601f820116820180604052508101906113229190611f65565b90506113586001600160a01b037f0000000000000000000000000000000000000000000000000000000000000000168587611a9f565b5f5f856001600160a01b031685604051611372919061202c565b5f604051808303815f865af19150503d805f81146113ab576040519150601f19603f3d011682016040523d82523d5f602084013e6113b0565b606091505b50915091508181906113d957604051600162605a6b60e01b03198152600401610596919061201a565b506040516370a0823160e01b81523060048201525f9084906001600160a01b037f000000000000000000000000000000000000000000000000000000000000000016906370a0823190602401602060405180830381865afa158015611440573d5f5f3e3d5ffd5b505050506040513d601f19601f820116820180604052508101906114649190611f65565b61146e9190611f52565b90505f6114866002548a61197c90919063ffffffff16565b90505f61149283610664565b90508181818110156114c057604051633b5d56ed60e11b815260048101929092526024820152604401610596565b505050505050505050505050565b5f54604051632474521560e21b81527f5f33620cda06d02d58df96005b92bc83bd059a566e48e016372f3fbdc974e371600482018190523360248301529161010090046001600160a01b0316906391d1485490604401602060405180830381865afa15801561153f573d5f5f3e3d5ffd5b505050506040513d601f19601f820116820180604052508101906115639190611f23565b61159e5760405162461bcd60e51b815260206004820152600c60248201526b15539055551213d49256915160a21b6044820152606401610596565b610889611923565b6115ae611923565b5f54604051632474521560e21b81527f456cfaf8d1ec98ae5bbe595a448911a58cb2e264d4686992e15dec9d0f363e03600482018190523360248301529161010090046001600160a01b0316906391d1485490604401602060405180830381865afa15801561161f573d5f5f3e3d5ffd5b505050506040513d601f19601f820116820180604052508101906116439190611f23565b61167e5760405162461bcd60e51b815260206004820152600c60248201526b15539055551213d49256915160a21b6044820152606401610596565b6001600160a01b0383165f90815260036020526040902054839060ff166116c45760405163a58f313b60e01b81526001600160a01b039091166004820152602401610596565b506138406004546116d59190611f7c565b42116116f457604051635ab1f4a960e01b815260040160405180910390fd5b4260049081556040516370a0823160e01b815230918101919091525f907f00000000000000000000000000000000000000000000000000000000000000006001600160a01b0316906370a0823190602401602060405180830381865afa158015611760573d5f5f3e3d5ffd5b505050506040513d601f19601f820116820180604052508101906117849190611f65565b90506117ba6001600160a01b037f0000000000000000000000000000000000000000000000000000000000000000168587611a9f565b5f5f856001600160a01b0316856040516117d4919061202c565b5f604051808303815f865af19150503d805f811461180d576040519150601f19603f3d011682016040523d82523d5f602084013e611812565b606091505b509150915081819061183b57604051600162605a6b60e01b03198152600401610596919061201a565b506040516370a0823160e01b81523060048201525f9084906001600160a01b037f000000000000000000000000000000000000000000000000000000000000000016906370a0823190602401602060405180830381865afa1580156118a2573d5f5f3e3d5ffd5b505050506040513d601f19601f820116820180604052508101906118c69190611f65565b6118d09190611f52565b90505f6118e86002546118e28b610664565b9061197c565b905080828181101561191657604051633b5d56ed60e11b815260048101929092526024820152604401610596565b5050505050505050505050565b5f5460ff16156119465760405163d93c066560e01b815260040160405180910390fd5b565b6110686001600160a01b037f0000000000000000000000000000000000000000000000000000000000000000168284611b62565b5f6119908383670de0b6b3a7640000611b98565b90505b92915050565b5f61199083670de0b6b3a764000084611b98565b6119b5611bb3565b5f805460ff191690557f5db9ee0a495bf2e6ff9c91a7834c1ba4fdd244a5e8aa4e537bd38aeae4b073aa335b6040516001600160a01b03909116815260200160405180910390a1565b5f80546001600160a01b0383811661010081810274ffffffffffffffffffffffffffffffffffffffff0019851617855560405193049190911692909183917f9209b7c8c06dcfd261686a663e7c55989337b18d59da5433c6f2835fb697092091a35050565b611a6b611923565b5f805460ff191660011790557f62e78cea01bee320cd4e420270b5ea74000d11b0c9f74754ebdbfc544b05a2586119e13390565b604080516001600160a01b038416602482015260448082018490528251808303909101815260649091019091526020810180516001600160e01b031663095ea7b360e01b179052611af08482611bd5565b611b5c576040516001600160a01b0384811660248301525f6044830152611b5291869182169063095ea7b3906064015b604051602081830303815290604052915060e01b6020820180516001600160e01b038381831617835250505050611c1e565b611b5c8482611c1e565b50505050565b6040516001600160a01b03838116602483015260448201839052611b9391859182169063a9059cbb90606401611b20565b505050565b5f825f190484118302158202611bac575f5ffd5b5091020490565b5f5460ff1661194657604051638dfc202b60e01b815260040160405180910390fd5b5f5f5f5f60205f8651602088015f8a5af192503d91505f519050828015611c1457508115611c065780600114611c14565b5f866001600160a01b03163b115b9695505050505050565b5f5f60205f8451602086015f885af180611c3d576040513d5f823e3d81fd5b50505f513d91508115611c54578060011415611c61565b6001600160a01b0384163b155b15611b5c57604051635274afe760e01b81526001600160a01b0385166004820152602401610596565b80356001600160a01b0381168114611ca0575f5ffd5b919050565b5f5f60408385031215611cb6575f5ffd5b82359150611cc660208401611c8a565b90509250929050565b5f60208284031215611cdf575f5ffd5b5035919050565b8015158114610889575f5ffd5b5f5f60408385031215611d04575f5ffd5b611d0d83611c8a565b91506020830135611d1d81611ce6565b809150509250929050565b5f5f60208385031215611d39575f5ffd5b823567ffffffffffffffff811115611d4f575f5ffd5b8301601f81018513611d5f575f5ffd5b803567ffffffffffffffff811115611d75575f5ffd5b8560208260051b8401011115611d89575f5ffd5b6020919091019590945092505050565b5f81518084528060208401602086015e5f602082860101526020601f19601f83011685010191505092915050565b5f602082016020835280845180835260408501915060408160051b8601019250602086015f5b82811015611e1e57603f19878603018452611e09858351611d99565b94506020938401939190910190600101611ded565b50929695505050505050565b5f60208284031215611e3a575f5ffd5b61199082611c8a565b634e487b7160e01b5f52604160045260245ffd5b5f5f5f60608486031215611e69575f5ffd5b83359250611e7960208501611c8a565b9150604084013567ffffffffffffffff811115611e94575f5ffd5b8401601f81018613611ea4575f5ffd5b803567ffffffffffffffff811115611ebe57611ebe611e43565b604051601f8201601f19908116603f0116810167ffffffffffffffff81118282101715611eed57611eed611e43565b604052818152828201602001881015611f04575f5ffd5b816020840160208301375f602083830101528093505050509250925092565b5f60208284031215611f33575f5ffd5b81516106f281611ce6565b634e487b7160e01b5f52601160045260245ffd5b8181038181111561199357611993611f3e565b5f60208284031215611f75575f5ffd5b5051919050565b8082018082111561199357611993611f3e565b634e487b7160e01b5f52603260045260245ffd5b5f8235605e19833603018112611fb7575f5ffd5b9190910192915050565b5f5f8335601e19843603018112611fd6575f5ffd5b83018035915067ffffffffffffffff821115611ff0575f5ffd5b602001915036819003821315612004575f5ffd5b9250929050565b818382375f9101908152919050565b602081525f6119906020830184611d99565b5f82518060208501845e5f92019182525091905056fea26469706673582212209216942619b243f05a16136d88c9cdc417e18373d36246096c8f7baf9db1776964736f6c634300081c0033","linkReferences":{}},"methodIdentifiers":{"_SWAP_COOLDOWN()":"642763c6","assetToken()":"1083f761","assets()":"71a97305","cap()":"355274ea","convertToAssets(uint256)":"07a2d13a","core()":"f2f4eb26","deposit()":"d0e30db0","emergencyAction((address,uint256,bytes)[])":"7df3927e","enabledRouters(address)":"c23544ad","lastSwap()":"00ff2d44","liquidity()":"1a686502","maturity()":"204f83f9","maxDeposit()":"6083e59a","maxSlippage()":"8c04166f","pause()":"8456cb59","paused()":"5c975abb","setCap(uint256)":"47786d37","setCore(address)":"80009630","setEnabledRouter(address,bool)":"7b96eef1","setMaxSlippage(uint256)":"43f68a49","unpause()":"3f4ba83a","unwrapAssets(uint256,address,bytes)":"e93c5bfa","withdraw(uint256,address)":"00f714ce","wrapAssets(uint256,address,bytes)":"b8418072","wrapToken()":"3517c604","wrapTokenOracle()":"9a2874b1"},"id":86}