{"abi":[{"type":"constructor","inputs":[{"name":"_core","type":"address","internalType":"address"},{"name":"_assetToken","type":"address","internalType":"address"},{"name":"_pendleMarket","type":"address","internalType":"address"},{"name":"_pendleOracle","type":"address","internalType":"address"},{"name":"_assetToPtUnderlyingOracle","type":"address","internalType":"address"}],"stateMutability":"nonpayable"},{"type":"function","name":"assetToPtUnderlyingOracle","inputs":[],"outputs":[{"name":"","type":"address","internalType":"address"}],"stateMutability":"view"},{"type":"function","name":"assetToken","inputs":[],"outputs":[{"name":"","type":"address","internalType":"address"}],"stateMutability":"view"},{"type":"function","name":"assets","inputs":[],"outputs":[{"name":"","type":"uint256","internalType":"uint256"}],"stateMutability":"view"},{"type":"function","name":"cap","inputs":[],"outputs":[{"name":"","type":"uint256","internalType":"uint256"}],"stateMutability":"view"},{"type":"function","name":"core","inputs":[],"outputs":[{"name":"","type":"address","internalType":"contract InfiniFiCore"}],"stateMutability":"view"},{"type":"function","name":"deposit","inputs":[],"outputs":[],"stateMutability":"view"},{"type":"function","name":"emergencyAction","inputs":[{"name":"calls","type":"tuple[]","internalType":"struct CoreControlled.Call[]","components":[{"name":"target","type":"address","internalType":"address"},{"name":"value","type":"uint256","internalType":"uint256"},{"name":"callData","type":"bytes","internalType":"bytes"}]}],"outputs":[{"name":"returnData","type":"bytes[]","internalType":"bytes[]"}],"stateMutability":"payable"},{"type":"function","name":"liquidity","inputs":[],"outputs":[{"name":"","type":"uint256","internalType":"uint256"}],"stateMutability":"view"},{"type":"function","name":"maturity","inputs":[],"outputs":[{"name":"","type":"uint256","internalType":"uint256"}],"stateMutability":"view"},{"type":"function","name":"maxDeposit","inputs":[],"outputs":[{"name":"","type":"uint256","internalType":"uint256"}],"stateMutability":"view"},{"type":"function","name":"maxSlippage","inputs":[],"outputs":[{"name":"","type":"uint256","internalType":"uint256"}],"stateMutability":"view"},{"type":"function","name":"pause","inputs":[],"outputs":[],"stateMutability":"nonpayable"},{"type":"function","name":"paused","inputs":[],"outputs":[{"name":"","type":"bool","internalType":"bool"}],"stateMutability":"view"},{"type":"function","name":"pendleMarket","inputs":[],"outputs":[{"name":"","type":"address","internalType":"address"}],"stateMutability":"view"},{"type":"function","name":"pendleOracle","inputs":[],"outputs":[{"name":"","type":"address","internalType":"address"}],"stateMutability":"view"},{"type":"function","name":"pendleRouter","inputs":[],"outputs":[{"name":"","type":"address","internalType":"address"}],"stateMutability":"view"},{"type":"function","name":"ptToken","inputs":[],"outputs":[{"name":"","type":"address","internalType":"address"}],"stateMutability":"view"},{"type":"function","name":"setCap","inputs":[{"name":"_newCap","type":"uint256","internalType":"uint256"}],"outputs":[],"stateMutability":"nonpayable"},{"type":"function","name":"setCore","inputs":[{"name":"newCore","type":"address","internalType":"address"}],"outputs":[],"stateMutability":"nonpayable"},{"type":"function","name":"setMaxSlippage","inputs":[{"name":"_maxSlippage","type":"uint256","internalType":"uint256"}],"outputs":[],"stateMutability":"nonpayable"},{"type":"function","name":"setPendleRouter","inputs":[{"name":"_pendleRouter","type":"address","internalType":"address"}],"outputs":[],"stateMutability":"nonpayable"},{"type":"function","name":"syToken","inputs":[],"outputs":[{"name":"","type":"address","internalType":"address"}],"stateMutability":"view"},{"type":"function","name":"unpause","inputs":[],"outputs":[],"stateMutability":"nonpayable"},{"type":"function","name":"unwrapPtToAsset","inputs":[{"name":"_ptTokensIn","type":"uint256","internalType":"uint256"},{"name":"_calldata","type":"bytes","internalType":"bytes"}],"outputs":[],"stateMutability":"nonpayable"},{"type":"function","name":"withdraw","inputs":[{"name":"amount","type":"uint256","internalType":"uint256"},{"name":"to","type":"address","internalType":"address"}],"outputs":[],"stateMutability":"nonpayable"},{"type":"function","name":"wrapAssetToPt","inputs":[{"name":"_assetsIn","type":"uint256","internalType":"uint256"},{"name":"_calldata","type":"bytes","internalType":"bytes"}],"outputs":[],"stateMutability":"nonpayable"},{"type":"event","name":"AssetsUpdated","inputs":[{"name":"timestamp","type":"uint256","indexed":false,"internalType":"uint256"},{"name":"assetsBefore","type":"uint256","indexed":false,"internalType":"uint256"},{"name":"assetsAfter","type":"uint256","indexed":false,"internalType":"uint256"}],"anonymous":false},{"type":"event","name":"CapUpdated","inputs":[{"name":"newCap","type":"uint256","indexed":false,"internalType":"uint256"}],"anonymous":false},{"type":"event","name":"CoreUpdate","inputs":[{"name":"oldCore","type":"address","indexed":true,"internalType":"address"},{"name":"newCore","type":"address","indexed":true,"internalType":"address"}],"anonymous":false},{"type":"event","name":"MaxSlippageUpdated","inputs":[{"name":"newMaxSlippage","type":"uint256","indexed":false,"internalType":"uint256"}],"anonymous":false},{"type":"event","name":"Paused","inputs":[{"name":"account","type":"address","indexed":false,"internalType":"address"}],"anonymous":false},{"type":"event","name":"Unpaused","inputs":[{"name":"account","type":"address","indexed":false,"internalType":"address"}],"anonymous":false},{"type":"error","name":"CapExceeded","inputs":[{"name":"newAmount","type":"uint256","internalType":"uint256"},{"name":"cap","type":"uint256","internalType":"uint256"}]},{"type":"error","name":"EnforcedPause","inputs":[]},{"type":"error","name":"ExpectedPause","inputs":[]},{"type":"error","name":"PTAlreadyMatured","inputs":[{"name":"maturity","type":"uint256","internalType":"uint256"}]},{"type":"error","name":"PTNotMatured","inputs":[{"name":"maturity","type":"uint256","internalType":"uint256"}]},{"type":"error","name":"SafeERC20FailedOperation","inputs":[{"name":"token","type":"address","internalType":"address"}]},{"type":"error","name":"SlippageTooHigh","inputs":[{"name":"minAssetsOut","type":"uint256","internalType":"uint256"},{"name":"assetsReceived","type":"uint256","internalType":"uint256"}]},{"type":"error","name":"SwapFailed","inputs":[{"name":"reason","type":"bytes","internalType":"bytes"}]},{"type":"error","name":"UnderlyingCallReverted","inputs":[{"name":"returnData","type":"bytes","internalType":"bytes"}]}],"bytecode":{"object":"0x610160604052348015610010575f5ffd5b506040516129c23803806129c283398101604081905261002f9161018a565b5f80546001600160a01b03808816610100026001600160a81b0319909216919091179091558085166080525f19600155670de0b5cad2bef00060025583811660c081905283821660e0529082166101405260408051630b2339af60e21b81529051632c8ce6bc916004808201926060929091908290030181865afa1580156100b9573d5f5f3e3d5ffd5b505050506040513d601f19601f820116820180604052508101906100dd91906101eb565b506001600160a01b039081166101005290811661012052604080516370c264df60e11b815290519185169163e184c9be916004808201926020929091908290030181865afa158015610131573d5f5f3e3d5ffd5b505050506040513d601f19601f82011682018060405250810190610155919061022b565b60a0525050670dcef33a6f83800060025550610242915050565b80516001600160a01b0381168114610185575f5ffd5b919050565b5f5f5f5f5f60a0868803121561019e575f5ffd5b6101a78661016f565b94506101b56020870161016f565b93506101c36040870161016f565b92506101d16060870161016f565b91506101df6080870161016f565b90509295509295909350565b5f5f5f606084860312156101fd575f5ffd5b6102068461016f565b92506102146020850161016f565b91506102226040850161016f565b90509250925092565b5f6020828403121561023b575f5ffd5b5051919050565b60805160a05160c05160e0516101005161012051610140516126726103505f395f818161042f01528181611d430152611f5401525f81816102b101528181611ab80152611b3e01525f81816104b401528181610c7d0152818161132b0152818161178a015281816118d80152611cbf01525f818161050801528181611c170152611ee601525f81816103fc01528181611bdd0152611eb201525f818161025f01528181610c1b0152818161122a0152818161124e015281816115c7015281816115ea01528181611704015281816117270152611e0b01525f81816101ed015281816107db01528181610bae015281816112a6015281816113f40152818161180f0152611a1f01526126725ff3fe608060405260043610610198575f3560e01c806371a97305116100dc5780639a85fdaa11610087578063d28443e011610062578063d28443e014610484578063e018b0ef146104a3578063f2f4eb26146104d6578063f32abc29146104f7575f5ffd5b80639a85fdaa1461041e578063c7cc2d6314610451578063d0e30db014610470575f5ffd5b80638456cb59116100b75780638456cb59146103c25780638c04166f146103d657806399d9a71f146103eb575f5ffd5b806371a973051461036f5780637df3927e1461038357806380009630146103a3575f5ffd5b8063287b448d1161014757806343f68a491161012257806343f68a49146102fc57806347786d371461031b5780635c975abb1461033a5780636083e59a1461035b575f5ffd5b8063287b448d146102a0578063355274ea146102d35780633f4ba83a146102e8575f5ffd5b80631a686502116101775780631a6865021461022c578063204f83f91461024e578063206aeab314610281575f5ffd5b8062f714ce1461019c578063092244cf146101bd5780631083f761146101dc575b5f5ffd5b3480156101a7575f5ffd5b506101bb6101b63660046122af565b61052a565b005b3480156101c8575f5ffd5b506101bb6101d73660046122d9565b6106c4565b3480156101e7575f5ffd5b5061020f7f000000000000000000000000000000000000000000000000000000000000000081565b6040516001600160a01b0390911681526020015b60405180910390f35b348015610237575f5ffd5b506102406107c4565b604051908152602001610223565b348015610259575f5ffd5b506102407f000000000000000000000000000000000000000000000000000000000000000081565b34801561028c575f5ffd5b5060035461020f906001600160a01b031681565b3480156102ab575f5ffd5b5061020f7f000000000000000000000000000000000000000000000000000000000000000081565b3480156102de575f5ffd5b5061024060015481565b3480156102f3575f5ffd5b506101bb610851565b348015610307575f5ffd5b506101bb6103163660046122f2565b61092c565b348015610326575f5ffd5b506101bb6103353660046122f2565b610a39565b348015610345575f5ffd5b505f5460ff166040519015158152602001610223565b348015610366575f5ffd5b50610240610b3e565b34801561037a575f5ffd5b50610240610b8d565b610396610391366004612309565b610d19565b60405161022391906123a8565b3480156103ae575f5ffd5b506101bb6103bd3660046122d9565b610f9b565b3480156103cd575f5ffd5b506101bb611078565b3480156103e1575f5ffd5b5061024060025481565b3480156103f6575f5ffd5b5061020f7f000000000000000000000000000000000000000000000000000000000000000081565b348015610429575f5ffd5b5061020f7f000000000000000000000000000000000000000000000000000000000000000081565b34801561045c575f5ffd5b506101bb61046b36600461241f565b611150565b34801561047b575f5ffd5b506101bb6114ed565b34801561048f575f5ffd5b506101bb61049e36600461241f565b61162a565b3480156104ae575f5ffd5b5061020f7f000000000000000000000000000000000000000000000000000000000000000081565b3480156104e1575f5ffd5b505f5461010090046001600160a01b031661020f565b348015610502575f5ffd5b5061020f7f000000000000000000000000000000000000000000000000000000000000000081565b5f54604051632474521560e21b81527f5f33620cda06d02d58df96005b92bc83bd059a566e48e016372f3fbdc974e371600482018190523360248301529161010090046001600160a01b0316906391d1485490604401602060405180830381865afa15801561059b573d5f5f3e3d5ffd5b505050506040513d601f19601f820116820180604052508101906105bf91906124dc565b6105ff5760405162461bcd60e51b815260206004820152600c60248201526b15539055551213d49256915160a21b60448201526064015b60405180910390fd5b6106076119ed565b5f610610610b8d565b905061061c8484611a12565b5f610625610b8d565b90505f6106328284612516565b90505f61064a60025483611a4690919063ffffffff16565b905080878181101561067857604051633b5d56ed60e11b8152600481019290925260248201526044016105f6565b505060408051428152602081018690529081018490527f35a901c4413e585f9121eb5cf07e67760bd4ac498dd031249e5cd2cd225f74e49060600160405180910390a150505050505050565b5f54604051632474521560e21b81527f3947e2f542c6c46c543fa4f79cbd1e27fea37ed249bc3caf992570d19123642e600482018190523360248301529161010090046001600160a01b0316906391d1485490604401602060405180830381865afa158015610735573d5f5f3e3d5ffd5b505050506040513d601f19601f8201168201806040525081019061075991906124dc565b6107945760405162461bcd60e51b815260206004820152600c60248201526b15539055551213d49256915160a21b60448201526064016105f6565b506003805473ffffffffffffffffffffffffffffffffffffffff19166001600160a01b0392909216919091179055565b6040516370a0823160e01b81523060048201525f907f00000000000000000000000000000000000000000000000000000000000000006001600160a01b0316906370a0823190602401602060405180830381865afa158015610828573d5f5f3e3d5ffd5b505050506040513d601f19601f8201168201806040525081019061084c9190612529565b905090565b5f54604051632474521560e21b81527fe7276a2a84d8de556657ec9cf93a55a7d66f096e529d0582ed08e9e2208b92b5600482018190523360248301529161010090046001600160a01b0316906391d1485490604401602060405180830381865afa1580156108c2573d5f5f3e3d5ffd5b505050506040513d601f19601f820116820180604052508101906108e691906124dc565b6109215760405162461bcd60e51b815260206004820152600c60248201526b15539055551213d49256915160a21b60448201526064016105f6565b610929611a63565b50565b5f54604051632474521560e21b81527f3947e2f542c6c46c543fa4f79cbd1e27fea37ed249bc3caf992570d19123642e600482018190523360248301529161010090046001600160a01b0316906391d1485490604401602060405180830381865afa15801561099d573d5f5f3e3d5ffd5b505050506040513d601f19601f820116820180604052508101906109c191906124dc565b6109fc5760405162461bcd60e51b815260206004820152600c60248201526b15539055551213d49256915160a21b60448201526064016105f6565b60028290556040518281527f9c922f6d0c990b250e9dd0a427a5c8da7f44b960f697fecb31cbbd8ba79ec8c2906020015b60405180910390a15050565b5f54604051632474521560e21b81527f3947e2f542c6c46c543fa4f79cbd1e27fea37ed249bc3caf992570d19123642e600482018190523360248301529161010090046001600160a01b0316906391d1485490604401602060405180830381865afa158015610aaa573d5f5f3e3d5ffd5b505050506040513d601f19601f82011682018060405250810190610ace91906124dc565b610b095760405162461bcd60e51b815260206004820152600c60248201526b15539055551213d49256915160a21b60448201526064016105f6565b60018290556040518281527f3c8eb7c49d332f4c1e4d92a27cda93c31cc9452f7a408e0c6109fcddbc9946ea90602001610a2d565b5f5f610b48610b8d565b90506001548110610b5a575f91505090565b5f610b63611ab4565b90505f82600154610b749190612516565b9050808210610b835780610b85565b815b935050505090565b6040516370a0823160e01b81523060048201525f9081906001600160a01b037f000000000000000000000000000000000000000000000000000000000000000016906370a0823190602401602060405180830381865afa158015610bf3573d5f5f3e3d5ffd5b505050506040513d601f19601f82011682018060405250810190610c179190612529565b90507f0000000000000000000000000000000000000000000000000000000000000000421015610c6657610c49611c99565b600454610c569083612540565b610c609190612540565b91505090565b6040516370a0823160e01b81523060048201525f907f00000000000000000000000000000000000000000000000000000000000000006001600160a01b0316906370a0823190602401602060405180830381865afa158015610cca573d5f5f3e3d5ffd5b505050506040513d601f19601f82011682018060405250810190610cee9190612529565b90505f8115610d0f57610d0c600254610d0684611e9b565b90611a46565b90505b610b858184612540565b5f54604051632474521560e21b81527f1a6838efa4183e08fe3607359d1259272af9d4716f65e1a7b5921f78fd5a3c6a6004820181905233602483015260609290916101009091046001600160a01b0316906391d1485490604401602060405180830381865afa158015610d8f573d5f5f3e3d5ffd5b505050506040513d601f19601f82011682018060405250810190610db391906124dc565b610dee5760405162461bcd60e51b815260206004820152600c60248201526b15539055551213d49256915160a21b60448201526064016105f6565b8267ffffffffffffffff811115610e0757610e0761240b565b604051908082528060200260200182016040528015610e3a57816020015b6060815260200190600190039081610e255790505b5091505f5b83811015610f93575f858583818110610e5a57610e5a612553565b9050602002810190610e6c9190612567565b610e7a9060208101906122d9565b90505f868684818110610e8f57610e8f612553565b9050602002810190610ea19190612567565b602001359050365f888886818110610ebb57610ebb612553565b9050602002810190610ecd9190612567565b610edb906040810190612585565b915091505f5f856001600160a01b0316858585604051610efc9291906125cf565b5f6040518083038185875af1925050503d805f8114610f36576040519150601f19603f3d011682016040523d82523d5f602084013e610f3b565b606091505b5091509150818190610f6157604051634ad176bb60e01b81526004016105f691906125de565b5080898881518110610f7557610f75612553565b60200260200101819052505050505050508080600101915050610e3f565b505092915050565b5f54604051632474521560e21b81527f1a6838efa4183e08fe3607359d1259272af9d4716f65e1a7b5921f78fd5a3c6a600482018190523360248301529161010090046001600160a01b0316906391d1485490604401602060405180830381865afa15801561100c573d5f5f3e3d5ffd5b505050506040513d601f19601f8201168201806040525081019061103091906124dc565b61106b5760405162461bcd60e51b815260206004820152600c60248201526b15539055551213d49256915160a21b60448201526064016105f6565b61107482611ff4565b5050565b5f54604051632474521560e21b81527ffcb9fcbfa83b897fb2d5cf4b58962164105c1e71489a37ef3ae0db3fdce576f6600482018190523360248301529161010090046001600160a01b0316906391d1485490604401602060405180830381865afa1580156110e9573d5f5f3e3d5ffd5b505050506040513d601f19601f8201168201806040525081019061110d91906124dc565b6111485760405162461bcd60e51b815260206004820152600c60248201526b15539055551213d49256915160a21b60448201526064016105f6565b610929612059565b6111586119ed565b5f54604051632474521560e21b81527f456cfaf8d1ec98ae5bbe595a448911a58cb2e264d4686992e15dec9d0f363e03600482018190523360248301529161010090046001600160a01b0316906391d1485490604401602060405180830381865afa1580156111c9573d5f5f3e3d5ffd5b505050506040513d601f19601f820116820180604052508101906111ed91906124dc565b6112285760405162461bcd60e51b815260206004820152600c60248201526b15539055551213d49256915160a21b60448201526064016105f6565b7f00000000000000000000000000000000000000000000000000000000000000004210157f00000000000000000000000000000000000000000000000000000000000000009061128e57604051631a5e5e0760e31b81526004016105f691815260200190565b506040516370a0823160e01b81523060048201525f907f00000000000000000000000000000000000000000000000000000000000000006001600160a01b0316906370a0823190602401602060405180830381865afa1580156112f3573d5f5f3e3d5ffd5b505050506040513d601f19601f820116820180604052508101906113179190612529565b600354909150611354906001600160a01b037f00000000000000000000000000000000000000000000000000000000000000008116911686612095565b6003546040515f9182916001600160a01b03909116906113759087906125f0565b5f604051808303815f865af19150503d805f81146113ae576040519150601f19603f3d011682016040523d82523d5f602084013e6113b3565b606091505b50915091508181906113dc57604051600162605a6b60e01b031981526004016105f691906125de565b506040516370a0823160e01b81523060048201525f907f00000000000000000000000000000000000000000000000000000000000000006001600160a01b0316906370a0823190602401602060405180830381865afa158015611441573d5f5f3e3d5ffd5b505050506040513d601f19601f820116820180604052508101906114659190612529565b90505f6114728583612516565b90505f611484600254610d068b611e9b565b90508082818110156114b257604051633b5d56ed60e11b8152600481019290925260248201526044016105f6565b50508160055f8282546114c59190612540565b925050819055508860075f8282546114dd9190612540565b9091555050505050505050505050565b5f54604051632474521560e21b81527f5f33620cda06d02d58df96005b92bc83bd059a566e48e016372f3fbdc974e371600482018190523360248301529161010090046001600160a01b0316906391d1485490604401602060405180830381865afa15801561155e573d5f5f3e3d5ffd5b505050506040513d601f19601f8201168201806040525081019061158291906124dc565b6115bd5760405162461bcd60e51b815260206004820152600c60248201526b15539055551213d49256915160a21b60448201526064016105f6565b6115c56119ed565b7f000000000000000000000000000000000000000000000000000000000000000042107f00000000000000000000000000000000000000000000000000000000000000009061107457604051630e0bb04d60e41b81526004016105f691815260200190565b6116326119ed565b5f54604051632474521560e21b81527f456cfaf8d1ec98ae5bbe595a448911a58cb2e264d4686992e15dec9d0f363e03600482018190523360248301529161010090046001600160a01b0316906391d1485490604401602060405180830381865afa1580156116a3573d5f5f3e3d5ffd5b505050506040513d601f19601f820116820180604052508101906116c791906124dc565b6117025760405162461bcd60e51b815260206004820152600c60248201526b15539055551213d49256915160a21b60448201526064016105f6565b7f000000000000000000000000000000000000000000000000000000000000000042107f00000000000000000000000000000000000000000000000000000000000000009061176757604051630e0bb04d60e41b81526004016105f691815260200190565b50611770611c99565b6008556040516370a0823160e01b81523060048201525f907f00000000000000000000000000000000000000000000000000000000000000006001600160a01b0316906370a0823190602401602060405180830381865afa1580156117d7573d5f5f3e3d5ffd5b505050506040513d601f19601f820116820180604052508101906117fb9190612529565b600354909150611838906001600160a01b037f00000000000000000000000000000000000000000000000000000000000000008116911686612095565b6003546040515f9182916001600160a01b03909116906118599087906125f0565b5f604051808303815f865af19150503d805f8114611892576040519150601f19603f3d011682016040523d82523d5f602084013e611897565b606091505b50915091508181906118c057604051600162605a6b60e01b031981526004016105f691906125de565b506040516370a0823160e01b81523060048201525f907f00000000000000000000000000000000000000000000000000000000000000006001600160a01b0316906370a0823190602401602060405180830381865afa158015611925573d5f5f3e3d5ffd5b505050506040513d601f19601f820116820180604052508101906119499190612529565b90505f6119568583612516565b90505f61196e6002548a611a4690919063ffffffff16565b90508061197a83611e9b565b10158161198684611e9b565b90916119ae57604051633b5d56ed60e11b8152600481019290925260248201526044016105f6565b50508860045f8282546119c19190612540565b925050819055508160065f8282546119d99190612540565b909155505042600955505050505050505050565b5f5460ff1615611a105760405163d93c066560e01b815260040160405180910390fd5b565b6110746001600160a01b037f0000000000000000000000000000000000000000000000000000000000000000168284612158565b5f611a5a8383670de0b6b3a764000061218e565b90505b92915050565b611a6b6121a9565b5f805460ff191690557f5db9ee0a495bf2e6ff9c91a7834c1ba4fdd244a5e8aa4e537bd38aeae4b073aa335b6040516001600160a01b03909116815260200160405180910390a1565b5f5f7f00000000000000000000000000000000000000000000000000000000000000006001600160a01b0316630186533d6040518163ffffffff1660e01b8152600401602060405180830381865afa925050508015611b30575060408051601f3d908101601f19168201909252611b2d91810190612529565b60015b611b3c575f1991505090565b7f00000000000000000000000000000000000000000000000000000000000000006001600160a01b03166380975cc46040518163ffffffff1660e01b8152600401602060405180830381865afa158015611b98573d5f5f3e3d5ffd5b505050506040513d601f19601f82011682018060405250810190611bbc9190612529565b611bc69082612516565b60405163a31426d160e01b81526001600160a01b037f000000000000000000000000000000000000000000000000000000000000000081166004830152610e1060248301529193505f9250611c87917f0000000000000000000000000000000000000000000000000000000000000000169063a31426d190604401602060405180830381865afa158015611c5c573d5f5f3e3d5ffd5b505050506040513d601f19601f82011682018060405250810190611c809190612529565b83906121cb565b9050611c9281611e9b565b9250505090565b5f6009545f03611ca857505f90565b6040516370a0823160e01b81523060048201525f907f00000000000000000000000000000000000000000000000000000000000000006001600160a01b0316906370a0823190602401602060405180830381865afa158015611d0c573d5f5f3e3d5ffd5b505050506040513d601f19601f82011682018060405250810190611d309190612529565b9050805f03611d40575f91505090565b5f7f00000000000000000000000000000000000000000000000000000000000000006001600160a01b031663a035b1fe6040518163ffffffff1660e01b8152600401602060405180830381865afa158015611d9d573d5f5f3e3d5ffd5b505050506040513d601f19601f82011682018060405250810190611dc19190612529565b90505f611dce8383611a46565b9050611de560025482611a4690919063ffffffff16565b90505f60085460045483611df99190612516565b611e039190612516565b90505f6009547f0000000000000000000000000000000000000000000000000000000000000000611e349190612516565b611e46670de0b6b3a764000084612606565b611e50919061261d565b90505f60095442611e619190612516565b90505f611e6e8284612606565b9050611e82670de0b6b3a76400008261261d565b600854611e8f9190612540565b97505050505050505090565b60405163abca0eab60e01b81526001600160a01b037f000000000000000000000000000000000000000000000000000000000000000081166004830152610e1060248301525f9182917f0000000000000000000000000000000000000000000000000000000000000000169063abca0eab90604401602060405180830381865afa158015611f2b573d5f5f3e3d5ffd5b505050506040513d601f19601f82011682018060405250810190611f4f9190612529565b90505f7f00000000000000000000000000000000000000000000000000000000000000006001600160a01b031663a035b1fe6040518163ffffffff1660e01b8152600401602060405180830381865afa158015611fae573d5f5f3e3d5ffd5b505050506040513d601f19601f82011682018060405250810190611fd29190612529565b90505f611fdf8584611a46565b9050611feb8183611a46565b95945050505050565b5f80546001600160a01b0383811661010081810274ffffffffffffffffffffffffffffffffffffffff0019851617855560405193049190911692909183917f9209b7c8c06dcfd261686a663e7c55989337b18d59da5433c6f2835fb697092091a35050565b6120616119ed565b5f805460ff191660011790557f62e78cea01bee320cd4e420270b5ea74000d11b0c9f74754ebdbfc544b05a258611a973390565b604080516001600160a01b038416602482015260448082018490528251808303909101815260649091019091526020810180516001600160e01b031663095ea7b360e01b1790526120e684826121df565b612152576040516001600160a01b0384811660248301525f604483015261214891869182169063095ea7b3906064015b604051602081830303815290604052915060e01b6020820180516001600160e01b038381831617835250505050612228565b6121528482612228565b50505050565b6040516001600160a01b0383811660248301526044820183905261218991859182169063a9059cbb90606401612116565b505050565b5f825f1904841183021582026121a2575f5ffd5b5091020490565b5f5460ff16611a1057604051638dfc202b60e01b815260040160405180910390fd5b5f611a5a83670de0b6b3a76400008461218e565b5f5f5f5f60205f8651602088015f8a5af192503d91505f51905082801561221e57508115612210578060011461221e565b5f866001600160a01b03163b115b9695505050505050565b5f5f60205f8451602086015f885af180612247576040513d5f823e3d81fd5b50505f513d9150811561225e57806001141561226b565b6001600160a01b0384163b155b1561215257604051635274afe760e01b81526001600160a01b03851660048201526024016105f6565b80356001600160a01b03811681146122aa575f5ffd5b919050565b5f5f604083850312156122c0575f5ffd5b823591506122d060208401612294565b90509250929050565b5f602082840312156122e9575f5ffd5b611a5a82612294565b5f60208284031215612302575f5ffd5b5035919050565b5f5f6020838503121561231a575f5ffd5b823567ffffffffffffffff811115612330575f5ffd5b8301601f81018513612340575f5ffd5b803567ffffffffffffffff811115612356575f5ffd5b8560208260051b840101111561236a575f5ffd5b6020919091019590945092505050565b5f81518084528060208401602086015e5f602082860101526020601f19601f83011685010191505092915050565b5f602082016020835280845180835260408501915060408160051b8601019250602086015f5b828110156123ff57603f198786030184526123ea85835161237a565b945060209384019391909101906001016123ce565b50929695505050505050565b634e487b7160e01b5f52604160045260245ffd5b5f5f60408385031215612430575f5ffd5b82359150602083013567ffffffffffffffff81111561244d575f5ffd5b8301601f8101851361245d575f5ffd5b803567ffffffffffffffff8111156124775761247761240b565b604051601f8201601f19908116603f0116810167ffffffffffffffff811182821017156124a6576124a661240b565b6040528181528282016020018710156124bd575f5ffd5b816020840160208301375f602083830101528093505050509250929050565b5f602082840312156124ec575f5ffd5b815180151581146124fb575f5ffd5b9392505050565b634e487b7160e01b5f52601160045260245ffd5b81810381811115611a5d57611a5d612502565b5f60208284031215612539575f5ffd5b5051919050565b80820180821115611a5d57611a5d612502565b634e487b7160e01b5f52603260045260245ffd5b5f8235605e1983360301811261257b575f5ffd5b9190910192915050565b5f5f8335601e1984360301811261259a575f5ffd5b83018035915067ffffffffffffffff8211156125b4575f5ffd5b6020019150368190038213156125c8575f5ffd5b9250929050565b818382375f9101908152919050565b602081525f611a5a602083018461237a565b5f82518060208501845e5f920191825250919050565b8082028115828204841417611a5d57611a5d612502565b5f8261263757634e487b7160e01b5f52601260045260245ffd5b50049056fea264697066735822122002178d01d226632aaf8e0fd82818bc3d2c5712eddc63988322294ce83f3967e564736f6c634300081c0033","linkReferences":{}},"methodIdentifiers":{"assetToPtUnderlyingOracle()":"9a85fdaa","assetToken()":"1083f761","assets()":"71a97305","cap()":"355274ea","core()":"f2f4eb26","deposit()":"d0e30db0","emergencyAction((address,uint256,bytes)[])":"7df3927e","liquidity()":"1a686502","maturity()":"204f83f9","maxDeposit()":"6083e59a","maxSlippage()":"8c04166f","pause()":"8456cb59","paused()":"5c975abb","pendleMarket()":"99d9a71f","pendleOracle()":"f32abc29","pendleRouter()":"206aeab3","ptToken()":"e018b0ef","setCap(uint256)":"47786d37","setCore(address)":"80009630","setMaxSlippage(uint256)":"43f68a49","setPendleRouter(address)":"092244cf","syToken()":"287b448d","unpause()":"3f4ba83a","unwrapPtToAsset(uint256,bytes)":"c7cc2d63","withdraw(uint256,address)":"00f714ce","wrapAssetToPt(uint256,bytes)":"d28443e0"},"id":85}