{"abi":[{"type":"function","name":"epoch","inputs":[{"name":"_timestamp","type":"uint256","internalType":"uint256"}],"outputs":[{"name":"","type":"uint256","internalType":"uint256"}],"stateMutability":"pure"},{"type":"function","name":"epochToTimestamp","inputs":[{"name":"_epoch","type":"uint256","internalType":"uint256"}],"outputs":[{"name":"","type":"uint256","internalType":"uint256"}],"stateMutability":"pure"},{"type":"function","name":"nextEpoch","inputs":[{"name":"_timestamp","type":"uint256","internalType":"uint256"}],"outputs":[{"name":"","type":"uint256","internalType":"uint256"}],"stateMutability":"pure"}],"bytecode":{"object":"0x6101a9610034600b8282823980515f1a607314602857634e487b7160e01b5f525f60045260245ffd5b305f52607381538281f3fe730000000000000000000000000000000000000000301460806040526004361061004a575f3560e01c8063342a7b011461004e5780635487c5771461007357806372b8648914610086575b5f5ffd5b61006161005c3660046100ec565b610099565b60405190815260200160405180910390f35b6100616100813660046100ec565b6100b4565b6100616100943660046100ec565b6100d0565b5f6100a3826100b4565b6100ae906001610117565b92915050565b5f62093a806100c66203f4808461012a565b6100ae919061013d565b5f6203f4806100e262093a808461015c565b6100ae9190610117565b5f602082840312156100fc575f5ffd5b5035919050565b634e487b7160e01b5f52601160045260245ffd5b808201808211156100ae576100ae610103565b818103818111156100ae576100ae610103565b5f8261015757634e487b7160e01b5f52601260045260245ffd5b500490565b80820281158282048414176100ae576100ae61010356fea2646970667358221220ff5ba1f57913199d747a0afd064041c750a0432278e3eccdf3892bc0d0b8867964736f6c634300081c0033","linkReferences":{}},"methodIdentifiers":{"epoch(uint256)":"5487c577","epochToTimestamp(uint256)":"72b86489","nextEpoch(uint256)":"342a7b01"},"id":102}