{"abi":[{"type":"constructor","inputs":[{"name":"_core","type":"address","internalType":"address"},{"name":"_accounting","type":"address","internalType":"address"},{"name":"_receiptToken","type":"address","internalType":"address"},{"name":"_stakedToken","type":"address","internalType":"address"},{"name":"_lockingModule","type":"address","internalType":"address"}],"stateMutability":"nonpayable"},{"type":"function","name":"MAX_PERFORMANCE_FEE","inputs":[],"outputs":[{"name":"","type":"uint256","internalType":"uint256"}],"stateMutability":"view"},{"type":"function","name":"accounting","inputs":[],"outputs":[{"name":"","type":"address","internalType":"address"}],"stateMutability":"view"},{"type":"function","name":"accrue","inputs":[],"outputs":[],"stateMutability":"nonpayable"},{"type":"function","name":"core","inputs":[],"outputs":[{"name":"","type":"address","internalType":"contract InfiniFiCore"}],"stateMutability":"view"},{"type":"function","name":"emergencyAction","inputs":[{"name":"calls","type":"tuple[]","internalType":"struct CoreControlled.Call[]","components":[{"name":"target","type":"address","internalType":"address"},{"name":"value","type":"uint256","internalType":"uint256"},{"name":"callData","type":"bytes","internalType":"bytes"}]}],"outputs":[{"name":"returnData","type":"bytes[]","internalType":"bytes[]"}],"stateMutability":"payable"},{"type":"function","name":"liquidReturnMultiplier","inputs":[],"outputs":[{"name":"","type":"uint256","internalType":"uint256"}],"stateMutability":"view"},{"type":"function","name":"lockingModule","inputs":[],"outputs":[{"name":"","type":"address","internalType":"address"}],"stateMutability":"view"},{"type":"function","name":"pause","inputs":[],"outputs":[],"stateMutability":"nonpayable"},{"type":"function","name":"paused","inputs":[],"outputs":[{"name":"","type":"bool","internalType":"bool"}],"stateMutability":"view"},{"type":"function","name":"performanceFee","inputs":[],"outputs":[{"name":"","type":"uint256","internalType":"uint256"}],"stateMutability":"view"},{"type":"function","name":"performanceFeeRecipient","inputs":[],"outputs":[{"name":"","type":"address","internalType":"address"}],"stateMutability":"view"},{"type":"function","name":"receiptToken","inputs":[],"outputs":[{"name":"","type":"address","internalType":"address"}],"stateMutability":"view"},{"type":"function","name":"safetyBufferSize","inputs":[],"outputs":[{"name":"","type":"uint256","internalType":"uint256"}],"stateMutability":"view"},{"type":"function","name":"setCore","inputs":[{"name":"newCore","type":"address","internalType":"address"}],"outputs":[],"stateMutability":"nonpayable"},{"type":"function","name":"setLiquidReturnMultiplier","inputs":[{"name":"_multiplier","type":"uint256","internalType":"uint256"}],"outputs":[],"stateMutability":"nonpayable"},{"type":"function","name":"setPerformanceFeeAndRecipient","inputs":[{"name":"_percent","type":"uint256","internalType":"uint256"},{"name":"_recipient","type":"address","internalType":"address"}],"outputs":[],"stateMutability":"nonpayable"},{"type":"function","name":"setSafetyBufferSize","inputs":[{"name":"_safetyBufferSize","type":"uint256","internalType":"uint256"}],"outputs":[],"stateMutability":"nonpayable"},{"type":"function","name":"setTargetIlliquidRatio","inputs":[{"name":"_ratio","type":"uint256","internalType":"uint256"}],"outputs":[],"stateMutability":"nonpayable"},{"type":"function","name":"stakedToken","inputs":[],"outputs":[{"name":"","type":"address","internalType":"address"}],"stateMutability":"view"},{"type":"function","name":"targetIlliquidRatio","inputs":[],"outputs":[{"name":"","type":"uint256","internalType":"uint256"}],"stateMutability":"view"},{"type":"function","name":"unaccruedYield","inputs":[],"outputs":[{"name":"","type":"int256","internalType":"int256"}],"stateMutability":"view"},{"type":"function","name":"unpause","inputs":[],"outputs":[],"stateMutability":"nonpayable"},{"type":"event","name":"CoreUpdate","inputs":[{"name":"oldCore","type":"address","indexed":true,"internalType":"address"},{"name":"newCore","type":"address","indexed":true,"internalType":"address"}],"anonymous":false},{"type":"event","name":"LiquidMultiplierUpdated","inputs":[{"name":"timestamp","type":"uint256","indexed":true,"internalType":"uint256"},{"name":"multiplier","type":"uint256","indexed":false,"internalType":"uint256"}],"anonymous":false},{"type":"event","name":"Paused","inputs":[{"name":"account","type":"address","indexed":false,"internalType":"address"}],"anonymous":false},{"type":"event","name":"PerformanceFeeSettingsUpdated","inputs":[{"name":"timestamp","type":"uint256","indexed":true,"internalType":"uint256"},{"name":"percentage","type":"uint256","indexed":false,"internalType":"uint256"},{"name":"recipient","type":"address","indexed":false,"internalType":"address"}],"anonymous":false},{"type":"event","name":"SafetyBufferSizeUpdated","inputs":[{"name":"timestamp","type":"uint256","indexed":true,"internalType":"uint256"},{"name":"value","type":"uint256","indexed":false,"internalType":"uint256"}],"anonymous":false},{"type":"event","name":"TargetIlliquidRatioUpdated","inputs":[{"name":"timestamp","type":"uint256","indexed":true,"internalType":"uint256"},{"name":"multiplier","type":"uint256","indexed":false,"internalType":"uint256"}],"anonymous":false},{"type":"event","name":"Unpaused","inputs":[{"name":"account","type":"address","indexed":false,"internalType":"address"}],"anonymous":false},{"type":"event","name":"YieldAccrued","inputs":[{"name":"timestamp","type":"uint256","indexed":true,"internalType":"uint256"},{"name":"yield","type":"int256","indexed":false,"internalType":"int256"}],"anonymous":false},{"type":"error","name":"EnforcedPause","inputs":[]},{"type":"error","name":"ExpectedPause","inputs":[]},{"type":"error","name":"PerformanceFeeRecipientIsZeroAddress","inputs":[{"name":"_recipient","type":"address","internalType":"address"}]},{"type":"error","name":"PerformanceFeeTooHigh","inputs":[{"name":"_percent","type":"uint256","internalType":"uint256"}]},{"type":"error","name":"TargetIlliquidRatioTooHigh","inputs":[{"name":"_ratio","type":"uint256","internalType":"uint256"}]},{"type":"error","name":"UnderlyingCallReverted","inputs":[{"name":"returnData","type":"bytes","internalType":"bytes"}]}],"bytecode":{"object":"0x610100604052670de0b6b3a764000060045534801561001c575f5ffd5b5060405161241338038061241383398101604081905261003b9161017d565b5f80546001600160a01b03878116610100026001600160a81b03199092169190911790915584811660805283811660a081905283821660c081905291831660e05260405163095ea7b360e01b815260048101929092525f1960248301529063095ea7b3906044016020604051808303815f875af11580156100be573d5f5f3e3d5ffd5b505050506040513d601f19601f820116820180604052508101906100e291906101de565b5060a05160405163095ea7b360e01b81526001600160a01b0383811660048301525f1960248301529091169063095ea7b3906044016020604051808303815f875af1158015610133573d5f5f3e3d5ffd5b505050506040513d601f19601f8201168201806040525081019061015791906101de565b505050505050610204565b80516001600160a01b0381168114610178575f5ffd5b919050565b5f5f5f5f5f60a08688031215610191575f5ffd5b61019a86610162565b94506101a860208701610162565b93506101b660408701610162565b92506101c460608701610162565b91506101d260808701610162565b90509295509295909350565b5f602082840312156101ee575f5ffd5b815180151581146101fd575f5ffd5b9392505050565b60805160a05160c05160e0516121186102fb5f395f81816101640152818161131d015281816113ab015281816117200152818161189a0152818161193701526119b101525f818161036a015281816111ee0152818161169701528181611a3301528181611ae80152611b6301525f818161039d01528181610e4a01528181610f73015281816111bf015281816112820152818161146101528181611501015281816115a4015281816117a40152818161183401528181611a6001528181611bd301528181611c680152611d2c01525f81816102fd01528181610e7601528181610ee401528181611c950152611d5e01526121185ff3fe60806040526004361061014f575f3560e01c806385e3e8de116100b7578063cc7a262e1161007c578063f2f4eb2611610057578063f2f4eb26146103de578063f843336c146103ff578063f8ba4cff14610413575f5ffd5b8063cc7a262e14610359578063ec78e8321461038c578063ed27f7c9146103bf575f5ffd5b806385e3e8de146102b857806387788782146102d75780639624e83e146102ec578063aee459dd1461031f578063bdca91651461033e575f5ffd5b80633f4ba83a1161011757806380009630116100f257806380009630146102665780638456cb5914610285578063845ce76814610299575f5ffd5b80633f4ba83a146102115780635c975abb146102255780637df3927e14610246575f5ffd5b806312d9bdab146101535780631f91fa03146101a357806325fc3ebe146101c65780632e6cfc93146101db5780632f1183d8146101f0575b5f5ffd5b34801561015e575f5ffd5b506101867f000000000000000000000000000000000000000000000000000000000000000081565b6040516001600160a01b0390911681526020015b60405180910390f35b3480156101ae575f5ffd5b506101b860015481565b60405190815260200161019a565b3480156101d1575f5ffd5b506101b860055481565b3480156101e6575f5ffd5b506101b860045481565b3480156101fb575f5ffd5b5061020f61020a366004611e03565b610427565b005b34801561021c575f5ffd5b5061020f610569565b348015610230575f5ffd5b505f5460ff16604051901515815260200161019a565b610259610254366004611e1a565b610644565b60405161019a9190611eb9565b348015610271575f5ffd5b5061020f610280366004611f37565b6108c6565b348015610290575f5ffd5b5061020f6109a3565b3480156102a4575f5ffd5b5061020f6102b3366004611f50565b610a7b565b3480156102c3575f5ffd5b5061020f6102d2366004611e03565b610c25565b3480156102e2575f5ffd5b506101b860025481565b3480156102f7575f5ffd5b506101867f000000000000000000000000000000000000000000000000000000000000000081565b34801561032a575f5ffd5b5061020f610339366004611e03565b610d2c565b348015610349575f5ffd5b506101b86702c68af0bb14000081565b348015610364575f5ffd5b506101867f000000000000000000000000000000000000000000000000000000000000000081565b348015610397575f5ffd5b506101867f000000000000000000000000000000000000000000000000000000000000000081565b3480156103ca575f5ffd5b50600354610186906001600160a01b031681565b3480156103e9575f5ffd5b505f5461010090046001600160a01b0316610186565b34801561040a575f5ffd5b506101b8610e33565b34801561041e575f5ffd5b5061020f611003565b5f54604051632474521560e21b81527f3947e2f542c6c46c543fa4f79cbd1e27fea37ed249bc3caf992570d19123642e600482018190523360248301529161010090046001600160a01b0316906391d1485490604401602060405180830381865afa158015610498573d5f5f3e3d5ffd5b505050506040513d601f19601f820116820180604052508101906104bc9190611f7a565b6104fc5760405162461bcd60e51b815260206004820152600c60248201526b15539055551213d49256915160a21b60448201526064015b60405180910390fd5b81670de0b6b3a76400008111156105295760405163e299400d60e01b81526004016104f391815260200190565b50600582905560405182815242907f02a6bcd1ae1882a47f8d6d3393d0540786d609fb8ef48ee6f069ef93777a6ebc906020015b60405180910390a25050565b5f54604051632474521560e21b81527fe7276a2a84d8de556657ec9cf93a55a7d66f096e529d0582ed08e9e2208b92b5600482018190523360248301529161010090046001600160a01b0316906391d1485490604401602060405180830381865afa1580156105da573d5f5f3e3d5ffd5b505050506040513d601f19601f820116820180604052508101906105fe9190611f7a565b6106395760405162461bcd60e51b815260206004820152600c60248201526b15539055551213d49256915160a21b60448201526064016104f3565b610641611082565b50565b5f54604051632474521560e21b81527f1a6838efa4183e08fe3607359d1259272af9d4716f65e1a7b5921f78fd5a3c6a6004820181905233602483015260609290916101009091046001600160a01b0316906391d1485490604401602060405180830381865afa1580156106ba573d5f5f3e3d5ffd5b505050506040513d601f19601f820116820180604052508101906106de9190611f7a565b6107195760405162461bcd60e51b815260206004820152600c60248201526b15539055551213d49256915160a21b60448201526064016104f3565b8267ffffffffffffffff81111561073257610732611fa0565b60405190808252806020026020018201604052801561076557816020015b60608152602001906001900390816107505790505b5091505f5b838110156108be575f85858381811061078557610785611fb4565b90506020028101906107979190611fc8565b6107a5906020810190611f37565b90505f8686848181106107ba576107ba611fb4565b90506020028101906107cc9190611fc8565b602001359050365f8888868181106107e6576107e6611fb4565b90506020028101906107f89190611fc8565b610806906040810190611fe6565b915091505f5f856001600160a01b0316858585604051610827929190612030565b5f6040518083038185875af1925050503d805f8114610861576040519150601f19603f3d011682016040523d82523d5f602084013e610866565b606091505b509150915081819061088c57604051634ad176bb60e01b81526004016104f3919061203f565b50808988815181106108a0576108a0611fb4565b6020026020010181905250505050505050808060010191505061076a565b505092915050565b5f54604051632474521560e21b81527f1a6838efa4183e08fe3607359d1259272af9d4716f65e1a7b5921f78fd5a3c6a600482018190523360248301529161010090046001600160a01b0316906391d1485490604401602060405180830381865afa158015610937573d5f5f3e3d5ffd5b505050506040513d601f19601f8201168201806040525081019061095b9190611f7a565b6109965760405162461bcd60e51b815260206004820152600c60248201526b15539055551213d49256915160a21b60448201526064016104f3565b61099f826110d3565b5050565b5f54604051632474521560e21b81527ffcb9fcbfa83b897fb2d5cf4b58962164105c1e71489a37ef3ae0db3fdce576f6600482018190523360248301529161010090046001600160a01b0316906391d1485490604401602060405180830381865afa158015610a14573d5f5f3e3d5ffd5b505050506040513d601f19601f82011682018060405250810190610a389190611f7a565b610a735760405162461bcd60e51b815260206004820152600c60248201526b15539055551213d49256915160a21b60448201526064016104f3565b610641611138565b5f54604051632474521560e21b81527f3947e2f542c6c46c543fa4f79cbd1e27fea37ed249bc3caf992570d19123642e600482018190523360248301529161010090046001600160a01b0316906391d1485490604401602060405180830381865afa158015610aec573d5f5f3e3d5ffd5b505050506040513d601f19601f82011682018060405250810190610b109190611f7a565b610b4b5760405162461bcd60e51b815260206004820152600c60248201526b15539055551213d49256915160a21b60448201526064016104f3565b826702c68af0bb1400008110610b775760405163b4ea6d5760e01b81526004016104f391815260200190565b508215610bb457816001600160a01b038116610bb25760405163048f87e560e31b81526001600160a01b0390911660048201526024016104f3565b505b60028390556003805473ffffffffffffffffffffffffffffffffffffffff19166001600160a01b03841690811790915560408051858152602081019290925242917fc60b1772d13a32078285a149ad1f03b32a1f6df54245b584a8531d6f87f9e9f4910160405180910390a2505050565b5f54604051632474521560e21b81527f3947e2f542c6c46c543fa4f79cbd1e27fea37ed249bc3caf992570d19123642e600482018190523360248301529161010090046001600160a01b0316906391d1485490604401602060405180830381865afa158015610c96573d5f5f3e3d5ffd5b505050506040513d601f19601f82011682018060405250810190610cba9190611f7a565b610cf55760405162461bcd60e51b815260206004820152600c60248201526b15539055551213d49256915160a21b60448201526064016104f3565b600482905560405182815242907f0e55cc3e5c112dfa7651f177a66f846bd9975bd44fb3a7db47ba0346ffafb6c89060200161055d565b5f54604051632474521560e21b81527f3947e2f542c6c46c543fa4f79cbd1e27fea37ed249bc3caf992570d19123642e600482018190523360248301529161010090046001600160a01b0316906391d1485490604401602060405180830381865afa158015610d9d573d5f5f3e3d5ffd5b505050506040513d601f19601f82011682018060405250810190610dc19190611f7a565b610dfc5760405162461bcd60e51b815260206004820152600c60248201526b15539055551213d49256915160a21b60448201526064016104f3565b600182905560405182815242907fb7ab3434f2f51870b4678303479d0d5e9d514f29711a30a1af70d696890dc6609060200161055d565b6040516315d5220f60e31b81526001600160a01b037f0000000000000000000000000000000000000000000000000000000000000000811660048301525f9182917f0000000000000000000000000000000000000000000000000000000000000000169063aea9107890602401602060405180830381865afa158015610ebb573d5f5f3e3d5ffd5b505050506040513d601f19601f82011682018060405250810190610edf9190612051565b90505f7f00000000000000000000000000000000000000000000000000000000000000006001600160a01b031663d2c0dc146040518163ffffffff1660e01b8152600401602060405180830381865afa158015610f3e573d5f5f3e3d5ffd5b505050506040513d601f19601f82011682018060405250810190610f629190612051565b90505f610f6f8284611174565b90507f00000000000000000000000000000000000000000000000000000000000000006001600160a01b03166318160ddd6040518163ffffffff1660e01b8152600401602060405180830381865afa158015610fcd573d5f5f3e3d5ffd5b505050506040513d601f19601f82011682018060405250810190610ff19190612051565b610ffb908261207c565b935050505090565b61100b611191565b5f611014610e33565b90505f81131561102c57611027816111b6565b611045565b5f81121561104557611045611040826120a2565b61178d565b427f662151f741be4ee85874103ff68a554d84943b85246bcb342d1c9642e22d159e8260405161107791815260200190565b60405180910390a250565b61108a611db2565b5f805460ff191690557f5db9ee0a495bf2e6ff9c91a7834c1ba4fdd244a5e8aa4e537bd38aeae4b073aa335b6040516001600160a01b03909116815260200160405180910390a1565b5f80546001600160a01b0383811661010081810274ffffffffffffffffffffffffffffffffffffffff0019851617855560405193049190911692909183917f9209b7c8c06dcfd261686a663e7c55989337b18d59da5433c6f2835fb697092091a35050565b611140611191565b5f805460ff191660011790557f62e78cea01bee320cd4e420270b5ea74000d11b0c9f74754ebdbfc544b05a2586110b63390565b5f61118883670de0b6b3a764000084611dd4565b90505b92915050565b5f5460ff16156111b45760405163d93c066560e01b815260040160405180910390fd5b565b5f61127d6004547f00000000000000000000000000000000000000000000000000000000000000006001600160a01b03166370a082317f00000000000000000000000000000000000000000000000000000000000000006040518263ffffffff1660e01b815260040161123891906001600160a01b0391909116815260200190565b602060405180830381865afa158015611253573d5f5f3e3d5ffd5b505050506040513d601f19601f820116820180604052508101906112779190612051565b90611def565b90505f7f00000000000000000000000000000000000000000000000000000000000000006001600160a01b03166318160ddd6040518163ffffffff1660e01b8152600401602060405180830381865afa1580156112dc573d5f5f3e3d5ffd5b505050506040513d601f19601f820116820180604052508101906113009190612051565b90505f61131860055483611def90919063ffffffff16565b90505f7f00000000000000000000000000000000000000000000000000000000000000006001600160a01b031663ad7a672f6040518163ffffffff1660e01b8152600401602060405180830381865afa158015611377573d5f5f3e3d5ffd5b505050506040513d601f19601f8201168201806040525081019061139b9190612051565b9050818110156113a85750805b5f7f00000000000000000000000000000000000000000000000000000000000000006001600160a01b0316636f2c590a6040518163ffffffff1660e01b8152600401602060405180830381865afa158015611405573d5f5f3e3d5ffd5b505050506040513d601f19601f820116820180604052508101906114299190612051565b90506114358282611def565b91505f61144283876120bc565b6040516340c10f1960e01b8152306004820152602481018990529091507f00000000000000000000000000000000000000000000000000000000000000006001600160a01b0316906340c10f19906044015f604051808303815f87803b1580156114aa575f5ffd5b505af11580156114bc573d5f5f3e3d5ffd5b5050600254915050801561157a575f6114d58983611def565b60035460405163a9059cbb60e01b81526001600160a01b039182166004820152602481018390529192507f0000000000000000000000000000000000000000000000000000000000000000169063a9059cbb906044016020604051808303815f875af1158015611547573d5f5f3e3d5ffd5b505050506040513d601f19601f8201168201806040525081019061156b9190611f7a565b50611576818a6120cf565b9850505b600154801561165b576040516370a0823160e01b81523060048201525f908a906001600160a01b037f000000000000000000000000000000000000000000000000000000000000000016906370a0823190602401602060405180830381865afa1580156115e9573d5f5f3e3d5ffd5b505050506040513d601f19601f8201168201806040525081019061160d9190612051565b61161791906120cf565b905081811015611659578161162c8b836120bc565b111561164d5761163c81836120cf565b611646908b6120cf565b9950611659565b50505050505050505050565b505b825f0361166d57505050505050505050565b5f6116798a8a86611dd4565b905080156116f7576040516345efb3f960e11b8152600481018290527f00000000000000000000000000000000000000000000000000000000000000006001600160a01b031690638bdf67f2906024015f604051808303815f87803b1580156116e0575f5ffd5b505af11580156116f2573d5f5f3e3d5ffd5b505050505b5f611702828c6120cf565b90508015611780576040516345efb3f960e11b8152600481018290527f00000000000000000000000000000000000000000000000000000000000000006001600160a01b031690638bdf67f2906024015f604051808303815f87803b158015611769575f5ffd5b505af115801561177b573d5f5f3e3d5ffd5b505050505b5050505050505050505050565b6040516370a0823160e01b81523060048201525f907f00000000000000000000000000000000000000000000000000000000000000006001600160a01b0316906370a0823190602401602060405180830381865afa1580156117f1573d5f5f3e3d5ffd5b505050506040513d601f19601f820116820180604052508101906118159190612051565b905081811061189757604051630852cd8d60e31b8152600481018390527f00000000000000000000000000000000000000000000000000000000000000006001600160a01b0316906342966c68906024015f604051808303815f87803b15801561187d575f5ffd5b505af115801561188f573d5f5f3e3d5ffd5b505050505050565b5f7f00000000000000000000000000000000000000000000000000000000000000006001600160a01b031663ad7a672f6040518163ffffffff1660e01b8152600401602060405180830381865afa1580156118f4573d5f5f3e3d5ffd5b505050506040513d601f19601f820116820180604052508101906119189190612051565b905080831161199b57604051632652277760e01b8152600481018490527f00000000000000000000000000000000000000000000000000000000000000006001600160a01b0316906326522777906024015f604051808303815f87803b158015611980575f5ffd5b505af1158015611992573d5f5f3e3d5ffd5b50505050505050565b604051632652277760e01b8152600481018290527f00000000000000000000000000000000000000000000000000000000000000006001600160a01b0316906326522777906024015f604051808303815f87803b1580156119fa575f5ffd5b505af1158015611a0c573d5f5f3e3d5ffd5b505050508083611a1c91906120cf565b6040516370a0823160e01b81526001600160a01b037f0000000000000000000000000000000000000000000000000000000000000000811660048301529194505f917f000000000000000000000000000000000000000000000000000000000000000016906370a0823190602401602060405180830381865afa158015611aa5573d5f5f3e3d5ffd5b505050506040513d601f19601f82011682018060405250810190611ac99190612051565b9050808411611b4d57604051632652277760e01b8152600481018590527f00000000000000000000000000000000000000000000000000000000000000006001600160a01b0316906326522777906024015f604051808303815f87803b158015611b31575f5ffd5b505af1158015611b43573d5f5f3e3d5ffd5b5050505050505050565b604051632652277760e01b8152600481018290527f00000000000000000000000000000000000000000000000000000000000000006001600160a01b0316906326522777906024015f604051808303815f87803b158015611bac575f5ffd5b505af1158015611bbe573d5f5f3e3d5ffd5b505050508084611bce91906120cf565b93505f7f00000000000000000000000000000000000000000000000000000000000000006001600160a01b03166318160ddd6040518163ffffffff1660e01b8152600401602060405180830381865afa158015611c2d573d5f5f3e3d5ffd5b505050506040513d601f19601f82011682018060405250810190611c519190612051565b6040516315d5220f60e31b81526001600160a01b037f0000000000000000000000000000000000000000000000000000000000000000811660048301529192505f917f0000000000000000000000000000000000000000000000000000000000000000169063aea9107890602401602060405180830381865afa158015611cda573d5f5f3e3d5ffd5b505050506040513d601f19601f82011682018060405250810190611cfe9190612051565b90505f611d16611d0e88856120cf565b839085611dd4565b60405162e4768b60e01b81526001600160a01b037f000000000000000000000000000000000000000000000000000000000000000081166004830152602482018390529192507f00000000000000000000000000000000000000000000000000000000000000009091169062e4768b906044015f604051808303815f87803b158015611da0575f5ffd5b505af1158015611780573d5f5f3e3d5ffd5b5f5460ff166111b457604051638dfc202b60e01b815260040160405180910390fd5b5f825f190484118302158202611de8575f5ffd5b5091020490565b5f6111888383670de0b6b3a7640000611dd4565b5f60208284031215611e13575f5ffd5b5035919050565b5f5f60208385031215611e2b575f5ffd5b823567ffffffffffffffff811115611e41575f5ffd5b8301601f81018513611e51575f5ffd5b803567ffffffffffffffff811115611e67575f5ffd5b8560208260051b8401011115611e7b575f5ffd5b6020919091019590945092505050565b5f81518084528060208401602086015e5f602082860101526020601f19601f83011685010191505092915050565b5f602082016020835280845180835260408501915060408160051b8601019250602086015f5b82811015611f1057603f19878603018452611efb858351611e8b565b94506020938401939190910190600101611edf565b50929695505050505050565b80356001600160a01b0381168114611f32575f5ffd5b919050565b5f60208284031215611f47575f5ffd5b61118882611f1c565b5f5f60408385031215611f61575f5ffd5b82359150611f7160208401611f1c565b90509250929050565b5f60208284031215611f8a575f5ffd5b81518015158114611f99575f5ffd5b9392505050565b634e487b7160e01b5f52604160045260245ffd5b634e487b7160e01b5f52603260045260245ffd5b5f8235605e19833603018112611fdc575f5ffd5b9190910192915050565b5f5f8335601e19843603018112611ffb575f5ffd5b83018035915067ffffffffffffffff821115612015575f5ffd5b602001915036819003821315612029575f5ffd5b9250929050565b818382375f9101908152919050565b602081525f6111886020830184611e8b565b5f60208284031215612061575f5ffd5b5051919050565b634e487b7160e01b5f52601160045260245ffd5b8181035f83128015838313168383128216171561209b5761209b612068565b5092915050565b5f600160ff1b82016120b6576120b6612068565b505f0390565b8082018082111561118b5761118b612068565b8181038181111561118b5761118b61206856fea26469706673582212200bbb0744538e2ff44ddd0be81d3850c9422581a299f004a0912f453462cbcc5564736f6c634300081c0033","linkReferences":{}},"methodIdentifiers":{"MAX_PERFORMANCE_FEE()":"bdca9165","accounting()":"9624e83e","accrue()":"f8ba4cff","core()":"f2f4eb26","emergencyAction((address,uint256,bytes)[])":"7df3927e","liquidReturnMultiplier()":"2e6cfc93","lockingModule()":"12d9bdab","pause()":"8456cb59","paused()":"5c975abb","performanceFee()":"87788782","performanceFeeRecipient()":"ed27f7c9","receiptToken()":"ec78e832","safetyBufferSize()":"1f91fa03","setCore(address)":"80009630","setLiquidReturnMultiplier(uint256)":"85e3e8de","setPerformanceFeeAndRecipient(uint256,address)":"845ce768","setSafetyBufferSize(uint256)":"aee459dd","setTargetIlliquidRatio(uint256)":"2f1183d8","stakedToken()":"cc7a262e","targetIlliquidRatio()":"25fc3ebe","unaccruedYield()":"f843336c","unpause()":"3f4ba83a"},"id":72}