{"abi":[{"type":"constructor","inputs":[{"name":"_core","type":"address","internalType":"address"},{"name":"_farmRegistry","type":"address","internalType":"address"}],"stateMutability":"nonpayable"},{"type":"function","name":"core","inputs":[],"outputs":[{"name":"","type":"address","internalType":"contract InfiniFiCore"}],"stateMutability":"view"},{"type":"function","name":"emergencyAction","inputs":[{"name":"calls","type":"tuple[]","internalType":"struct CoreControlled.Call[]","components":[{"name":"target","type":"address","internalType":"address"},{"name":"value","type":"uint256","internalType":"uint256"},{"name":"callData","type":"bytes","internalType":"bytes"}]}],"outputs":[{"name":"returnData","type":"bytes[]","internalType":"bytes[]"}],"stateMutability":"payable"},{"type":"function","name":"farmRegistry","inputs":[],"outputs":[{"name":"","type":"address","internalType":"address"}],"stateMutability":"view"},{"type":"function","name":"oracle","inputs":[{"name":"","type":"address","internalType":"address"}],"outputs":[{"name":"","type":"address","internalType":"address"}],"stateMutability":"view"},{"type":"function","name":"pause","inputs":[],"outputs":[],"stateMutability":"nonpayable"},{"type":"function","name":"paused","inputs":[],"outputs":[{"name":"","type":"bool","internalType":"bool"}],"stateMutability":"view"},{"type":"function","name":"price","inputs":[{"name":"_asset","type":"address","internalType":"address"}],"outputs":[{"name":"","type":"uint256","internalType":"uint256"}],"stateMutability":"view"},{"type":"function","name":"setCore","inputs":[{"name":"newCore","type":"address","internalType":"address"}],"outputs":[],"stateMutability":"nonpayable"},{"type":"function","name":"setOracle","inputs":[{"name":"_asset","type":"address","internalType":"address"},{"name":"_oracle","type":"address","internalType":"address"}],"outputs":[],"stateMutability":"nonpayable"},{"type":"function","name":"setPrice","inputs":[{"name":"_asset","type":"address","internalType":"address"},{"name":"_price","type":"uint256","internalType":"uint256"}],"outputs":[],"stateMutability":"nonpayable"},{"type":"function","name":"totalAssets","inputs":[{"name":"_asset","type":"address","internalType":"address"}],"outputs":[{"name":"","type":"uint256","internalType":"uint256"}],"stateMutability":"view"},{"type":"function","name":"totalAssetsOf","inputs":[{"name":"_asset","type":"address","internalType":"address"},{"name":"_type","type":"uint256","internalType":"uint256"}],"outputs":[{"name":"","type":"uint256","internalType":"uint256"}],"stateMutability":"view"},{"type":"function","name":"totalAssetsValue","inputs":[],"outputs":[{"name":"_totalValue","type":"uint256","internalType":"uint256"}],"stateMutability":"view"},{"type":"function","name":"totalAssetsValueOf","inputs":[{"name":"_type","type":"uint256","internalType":"uint256"}],"outputs":[{"name":"_totalValue","type":"uint256","internalType":"uint256"}],"stateMutability":"view"},{"type":"function","name":"unpause","inputs":[],"outputs":[],"stateMutability":"nonpayable"},{"type":"event","name":"CoreUpdate","inputs":[{"name":"oldCore","type":"address","indexed":true,"internalType":"address"},{"name":"newCore","type":"address","indexed":true,"internalType":"address"}],"anonymous":false},{"type":"event","name":"OracleSet","inputs":[{"name":"timestamp","type":"uint256","indexed":true,"internalType":"uint256"},{"name":"asset","type":"address","indexed":true,"internalType":"address"},{"name":"oracle","type":"address","indexed":false,"internalType":"address"}],"anonymous":false},{"type":"event","name":"Paused","inputs":[{"name":"account","type":"address","indexed":false,"internalType":"address"}],"anonymous":false},{"type":"event","name":"PriceSet","inputs":[{"name":"timestamp","type":"uint256","indexed":true,"internalType":"uint256"},{"name":"asset","type":"address","indexed":true,"internalType":"address"},{"name":"price","type":"uint256","indexed":false,"internalType":"uint256"}],"anonymous":false},{"type":"event","name":"Unpaused","inputs":[{"name":"account","type":"address","indexed":false,"internalType":"address"}],"anonymous":false},{"type":"error","name":"EnforcedPause","inputs":[]},{"type":"error","name":"ExpectedPause","inputs":[]},{"type":"error","name":"UnderlyingCallReverted","inputs":[{"name":"returnData","type":"bytes","internalType":"bytes"}]}],"bytecode":{"object":"0x60a060405234801561000f575f5ffd5b506040516116fe3803806116fe83398101604081905261002e91610071565b5f80546001600160a81b0319166101006001600160a01b0394851602179055166080526100a2565b80516001600160a01b038116811461006c575f5ffd5b919050565b5f5f60408385031215610082575f5ffd5b61008b83610056565b915061009960208401610056565b90509250929050565b60805161161a6100e45f395f81816101f2015281816104a201528181610b6f01528181610cb001528181610e1f01528181610f630152611021015261161a5ff3fe6080604052600436106100e3575f3560e01c80638456cb5911610087578063d2c0dc1411610057578063d2c0dc141461026a578063eb37d3491461027e578063f2f4eb26146102b2578063f3e0ffbf146102d3575f5ffd5b80638456cb59146101cd57806387418e4a146101e1578063a58a053c1461022c578063aea910781461024b575f5ffd5b80635c38eb3a116100c25780635c38eb3a1461014e5780635c975abb1461016d5780637df3927e1461018e57806380009630146101ae575f5ffd5b8062e4768b146100e757806318b37170146101085780633f4ba83a1461013a575b5f5ffd5b3480156100f2575f5ffd5b50610106610101366004611267565b6102f2565b005b348015610113575f5ffd5b50610127610122366004611267565b610477565b6040519081526020015b60405180910390f35b348015610145575f5ffd5b5061010661051b565b348015610159575f5ffd5b50610106610168366004611291565b6105f6565b348015610178575f5ffd5b505f5460ff166040519015158152602001610131565b6101a161019c3660046112c8565b610734565b6040516101319190611367565b3480156101b9575f5ffd5b506101066101c83660046113ca565b6109b6565b3480156101d8575f5ffd5b50610106610a93565b3480156101ec575f5ffd5b506102147f000000000000000000000000000000000000000000000000000000000000000081565b6040516001600160a01b039091168152602001610131565b348015610237575f5ffd5b506101276102463660046113ec565b610b6b565b348015610256575f5ffd5b506101276102653660046113ca565b610da3565b348015610275575f5ffd5b50610127610e1b565b348015610289575f5ffd5b506102146102983660046113ca565b60016020525f90815260409020546001600160a01b031681565b3480156102bd575f5ffd5b505f5461010090046001600160a01b0316610214565b3480156102de575f5ffd5b506101276102ed3660046113ca565b610ffc565b5f54604051632474521560e21b81527f942451c9be4228ec3c497ec9d1a5b3a6cc100bc2c661ab6870fff0b4eccfe6f5600482018190523360248301529161010090046001600160a01b0316906391d1485490604401602060405180830381865afa158015610363573d5f5f3e3d5ffd5b505050506040513d601f19601f820116820180604052508101906103879190611403565b6103c75760405162461bcd60e51b815260206004820152600c60248201526b15539055551213d49256915160a21b60448201526064015b60405180910390fd5b6001600160a01b038381165f90815260016020526040908190205490516391b7f5ed60e01b8152600481018590529116906391b7f5ed906024015f604051808303815f87803b158015610418575f5ffd5b505af115801561042a573d5f5f3e3d5ffd5b50505050826001600160a01b0316427f897067d69d8599f561aaa211b7f688922d15fe296be5d957b5313de9f0d13cdc8460405161046a91815260200190565b60405180910390a3505050565b60405162db564560e01b81526001600160a01b038381166004830152602482018390525f91610512917f0000000000000000000000000000000000000000000000000000000000000000169062db5645906044015b5f60405180830381865afa1580156104e6573d5f5f3e3d5ffd5b505050506040513d5f823e601f3d908101601f1916820160405261050d9190810190611446565b611050565b90505b92915050565b5f54604051632474521560e21b81527fe7276a2a84d8de556657ec9cf93a55a7d66f096e529d0582ed08e9e2208b92b5600482018190523360248301529161010090046001600160a01b0316906391d1485490604401602060405180830381865afa15801561058c573d5f5f3e3d5ffd5b505050506040513d601f19601f820116820180604052508101906105b09190611403565b6105eb5760405162461bcd60e51b815260206004820152600c60248201526b15539055551213d49256915160a21b60448201526064016103be565b6105f36110eb565b50565b5f54604051632474521560e21b81527f942451c9be4228ec3c497ec9d1a5b3a6cc100bc2c661ab6870fff0b4eccfe6f5600482018190523360248301529161010090046001600160a01b0316906391d1485490604401602060405180830381865afa158015610667573d5f5f3e3d5ffd5b505050506040513d601f19601f8201168201806040525081019061068b9190611403565b6106c65760405162461bcd60e51b815260206004820152600c60248201526b15539055551213d49256915160a21b60448201526064016103be565b6001600160a01b038381165f81815260016020908152604091829020805473ffffffffffffffffffffffffffffffffffffffff191694871694851790559051928352909142917f1de108060986d15acfe24c546d5542246d115399e2a61985ecbf7b0ea4dc1ec6910161046a565b5f54604051632474521560e21b81527f1a6838efa4183e08fe3607359d1259272af9d4716f65e1a7b5921f78fd5a3c6a6004820181905233602483015260609290916101009091046001600160a01b0316906391d1485490604401602060405180830381865afa1580156107aa573d5f5f3e3d5ffd5b505050506040513d601f19601f820116820180604052508101906107ce9190611403565b6108095760405162461bcd60e51b815260206004820152600c60248201526b15539055551213d49256915160a21b60448201526064016103be565b8267ffffffffffffffff81111561082257610822611422565b60405190808252806020026020018201604052801561085557816020015b60608152602001906001900390816108405790505b5091505f5b838110156109ae575f85858381811061087557610875611511565b90506020028101906108879190611525565b6108959060208101906113ca565b90505f8686848181106108aa576108aa611511565b90506020028101906108bc9190611525565b602001359050365f8888868181106108d6576108d6611511565b90506020028101906108e89190611525565b6108f6906040810190611543565b915091505f5f856001600160a01b031685858560405161091792919061158d565b5f6040518083038185875af1925050503d805f8114610951576040519150601f19603f3d011682016040523d82523d5f602084013e610956565b606091505b509150915081819061097c57604051634ad176bb60e01b81526004016103be919061159c565b508089888151811061099057610990611511565b6020026020010181905250505050505050808060010191505061085a565b505092915050565b5f54604051632474521560e21b81527f1a6838efa4183e08fe3607359d1259272af9d4716f65e1a7b5921f78fd5a3c6a600482018190523360248301529161010090046001600160a01b0316906391d1485490604401602060405180830381865afa158015610a27573d5f5f3e3d5ffd5b505050506040513d601f19601f82011682018060405250810190610a4b9190611403565b610a865760405162461bcd60e51b815260206004820152600c60248201526b15539055551213d49256915160a21b60448201526064016103be565b610a8f8261113c565b5050565b5f54604051632474521560e21b81527ffcb9fcbfa83b897fb2d5cf4b58962164105c1e71489a37ef3ae0db3fdce576f6600482018190523360248301529161010090046001600160a01b0316906391d1485490604401602060405180830381865afa158015610b04573d5f5f3e3d5ffd5b505050506040513d601f19601f82011682018060405250810190610b289190611403565b610b635760405162461bcd60e51b815260206004820152600c60248201526b15539055551213d49256915160a21b60448201526064016103be565b6105f36111a1565b5f5f7f00000000000000000000000000000000000000000000000000000000000000006001600160a01b0316633b1270886040518163ffffffff1660e01b81526004015f60405180830381865afa158015610bc8573d5f5f3e3d5ffd5b505050506040513d5f823e601f3d908101601f19168201604052610bef9190810190611446565b90505f5b8151811015610d9c575f60015f848481518110610c1257610c12611511565b60200260200101516001600160a01b03166001600160a01b031681526020019081526020015f205f9054906101000a90046001600160a01b03166001600160a01b031663a035b1fe6040518163ffffffff1660e01b8152600401602060405180830381865afa158015610c87573d5f5f3e3d5ffd5b505050506040513d601f19601f82011682018060405250810190610cab91906115ae565b90505f7f00000000000000000000000000000000000000000000000000000000000000006001600160a01b031662db5645858581518110610cee57610cee611511565b6020026020010151886040518363ffffffff1660e01b8152600401610d289291906001600160a01b03929092168252602082015260400190565b5f60405180830381865afa158015610d42573d5f5f3e3d5ffd5b505050506040513d5f823e601f3d908101601f19168201604052610d699190810190611446565b90505f610d7582611050565b9050610d8181846111dd565b610d8b90876115c5565b95505060019092019150610bf39050565b5050919050565b6001600160a01b038082165f90815260016020908152604080832054815163501ad8ff60e11b815291519394169263a035b1fe926004808401939192918290030181865afa158015610df7573d5f5f3e3d5ffd5b505050506040513d601f19601f8201168201806040525081019061051591906115ae565b5f5f7f00000000000000000000000000000000000000000000000000000000000000006001600160a01b0316633b1270886040518163ffffffff1660e01b81526004015f60405180830381865afa158015610e78573d5f5f3e3d5ffd5b505050506040513d5f823e601f3d908101601f19168201604052610e9f9190810190611446565b90505f5b8151811015610ff7575f60015f848481518110610ec257610ec2611511565b60200260200101516001600160a01b03166001600160a01b031681526020019081526020015f205f9054906101000a90046001600160a01b03166001600160a01b031663a035b1fe6040518163ffffffff1660e01b8152600401602060405180830381865afa158015610f37573d5f5f3e3d5ffd5b505050506040513d601f19601f82011682018060405250810190610f5b91906115ae565b90505f610fd57f00000000000000000000000000000000000000000000000000000000000000006001600160a01b031663ae21b42a868681518110610fa257610fa2611511565b60200260200101516040518263ffffffff1660e01b81526004016104cc91906001600160a01b0391909116815260200190565b9050610fe181836111dd565b610feb90866115c5565b94505050600101610ea3565b505090565b604051635710da1560e11b81526001600160a01b0382811660048301525f91610515917f0000000000000000000000000000000000000000000000000000000000000000169063ae21b42a906024016104cc565b80515f90815b81811015610d9c5783818151811061107057611070611511565b60200260200101516001600160a01b03166371a973056040518163ffffffff1660e01b8152600401602060405180830381865afa1580156110b3573d5f5f3e3d5ffd5b505050506040513d601f19601f820116820180604052508101906110d791906115ae565b6110e190846115c5565b9250600101611056565b6110f36111f1565b5f805460ff191690557f5db9ee0a495bf2e6ff9c91a7834c1ba4fdd244a5e8aa4e537bd38aeae4b073aa335b6040516001600160a01b03909116815260200160405180910390a1565b5f80546001600160a01b0383811661010081810274ffffffffffffffffffffffffffffffffffffffff0019851617855560405193049190911692909183917f9209b7c8c06dcfd261686a663e7c55989337b18d59da5433c6f2835fb697092091a35050565b6111a9611215565b5f805460ff191660011790557f62e78cea01bee320cd4e420270b5ea74000d11b0c9f74754ebdbfc544b05a25861111f3390565b5f6105128383670de0b6b3a7640000611238565b5f5460ff1661121357604051638dfc202b60e01b815260040160405180910390fd5b565b5f5460ff16156112135760405163d93c066560e01b815260040160405180910390fd5b5f825f19048411830215820261124c575f5ffd5b5091020490565b6001600160a01b03811681146105f3575f5ffd5b5f5f60408385031215611278575f5ffd5b823561128381611253565b946020939093013593505050565b5f5f604083850312156112a2575f5ffd5b82356112ad81611253565b915060208301356112bd81611253565b809150509250929050565b5f5f602083850312156112d9575f5ffd5b823567ffffffffffffffff8111156112ef575f5ffd5b8301601f810185136112ff575f5ffd5b803567ffffffffffffffff811115611315575f5ffd5b8560208260051b8401011115611329575f5ffd5b6020919091019590945092505050565b5f81518084528060208401602086015e5f602082860101526020601f19601f83011685010191505092915050565b5f602082016020835280845180835260408501915060408160051b8601019250602086015f5b828110156113be57603f198786030184526113a9858351611339565b9450602093840193919091019060010161138d565b50929695505050505050565b5f602082840312156113da575f5ffd5b81356113e581611253565b9392505050565b5f602082840312156113fc575f5ffd5b5035919050565b5f60208284031215611413575f5ffd5b815180151581146113e5575f5ffd5b634e487b7160e01b5f52604160045260245ffd5b805161144181611253565b919050565b5f60208284031215611456575f5ffd5b815167ffffffffffffffff81111561146c575f5ffd5b8201601f8101841361147c575f5ffd5b805167ffffffffffffffff81111561149657611496611422565b8060051b604051601f19603f830116810181811067ffffffffffffffff821117156114c3576114c3611422565b6040529182526020818401810192908101878411156114e0575f5ffd5b6020850194505b83851015611506576114f885611436565b8152602094850194016114e7565b509695505050505050565b634e487b7160e01b5f52603260045260245ffd5b5f8235605e19833603018112611539575f5ffd5b9190910192915050565b5f5f8335601e19843603018112611558575f5ffd5b83018035915067ffffffffffffffff821115611572575f5ffd5b602001915036819003821315611586575f5ffd5b9250929050565b818382375f9101908152919050565b602081525f6105126020830184611339565b5f602082840312156115be575f5ffd5b5051919050565b8082018082111561051557634e487b7160e01b5f52601160045260245ffdfea2646970667358221220a02d1f907e5e43bcfe344833deb5053872cc21e72c85b06b9dac335131470dfe64736f6c634300081c0033","linkReferences":{}},"methodIdentifiers":{"core()":"f2f4eb26","emergencyAction((address,uint256,bytes)[])":"7df3927e","farmRegistry()":"87418e4a","oracle(address)":"eb37d349","pause()":"8456cb59","paused()":"5c975abb","price(address)":"aea91078","setCore(address)":"80009630","setOracle(address,address)":"5c38eb3a","setPrice(address,uint256)":"00e4768b","totalAssets(address)":"f3e0ffbf","totalAssetsOf(address,uint256)":"18b37170","totalAssetsValue()":"d2c0dc14","totalAssetsValueOf(uint256)":"a58a053c","unpause()":"3f4ba83a"},"id":71}