{"abi":[{"type":"constructor","inputs":[{"name":"_core","type":"address","internalType":"address"},{"name":"_accounting","type":"address","internalType":"address"},{"name":"_allocationVoting","type":"address","internalType":"address"}],"stateMutability":"nonpayable"},{"type":"function","name":"accounting","inputs":[],"outputs":[{"name":"","type":"address","internalType":"address"}],"stateMutability":"view"},{"type":"function","name":"allocationVoting","inputs":[],"outputs":[{"name":"","type":"address","internalType":"address"}],"stateMutability":"view"},{"type":"function","name":"beforeRedeem","inputs":[{"name":"","type":"address","internalType":"address"},{"name":"","type":"uint256","internalType":"uint256"},{"name":"_assetAmountOut","type":"uint256","internalType":"uint256"}],"outputs":[],"stateMutability":"nonpayable"},{"type":"function","name":"core","inputs":[],"outputs":[{"name":"","type":"address","internalType":"contract InfiniFiCore"}],"stateMutability":"view"},{"type":"function","name":"emergencyAction","inputs":[{"name":"calls","type":"tuple[]","internalType":"struct CoreControlled.Call[]","components":[{"name":"target","type":"address","internalType":"address"},{"name":"value","type":"uint256","internalType":"uint256"},{"name":"callData","type":"bytes","internalType":"bytes"}]}],"outputs":[{"name":"returnData","type":"bytes[]","internalType":"bytes[]"}],"stateMutability":"payable"},{"type":"function","name":"pause","inputs":[],"outputs":[],"stateMutability":"nonpayable"},{"type":"function","name":"paused","inputs":[],"outputs":[{"name":"","type":"bool","internalType":"bool"}],"stateMutability":"view"},{"type":"function","name":"setCore","inputs":[{"name":"newCore","type":"address","internalType":"address"}],"outputs":[],"stateMutability":"nonpayable"},{"type":"function","name":"unpause","inputs":[],"outputs":[],"stateMutability":"nonpayable"},{"type":"event","name":"CoreUpdate","inputs":[{"name":"oldCore","type":"address","indexed":true,"internalType":"address"},{"name":"newCore","type":"address","indexed":true,"internalType":"address"}],"anonymous":false},{"type":"event","name":"Paused","inputs":[{"name":"account","type":"address","indexed":false,"internalType":"address"}],"anonymous":false},{"type":"event","name":"Unpaused","inputs":[{"name":"account","type":"address","indexed":false,"internalType":"address"}],"anonymous":false},{"type":"error","name":"AssetNotEnabled","inputs":[{"name":"_asset","type":"address","internalType":"address"}]},{"type":"error","name":"EnforcedPause","inputs":[]},{"type":"error","name":"ExpectedPause","inputs":[]},{"type":"error","name":"UnderlyingCallReverted","inputs":[{"name":"returnData","type":"bytes","internalType":"bytes"}]}],"bytecode":{"object":"0x6080604052348015600e575f5ffd5b50604051611424380380611424833981016040819052602b91608d565b5f80546001600160a01b03948516610100026001600160a81b0319909116179055600180549284166001600160a01b03199384161790556002805491909316911617905560c6565b80516001600160a01b03811681146088575f5ffd5b919050565b5f5f5f60608486031215609e575f5ffd5b60a5846073565b925060b1602085016073565b915060bd604085016073565b90509250925092565b611351806100d35f395ff3fe608060405260043610610084575f3560e01c80637df3927e116100575780637df3927e1461011a578063800096301461013a5780638456cb59146101595780639624e83e1461016d578063f2f4eb261461018c575f5ffd5b806329e20e90146100885780633f4ba83a146100c45780635c975abb146100da5780636aea520c146100fb575b5f5ffd5b348015610093575f5ffd5b506002546100a7906001600160a01b031681565b6040516001600160a01b0390911681526020015b60405180910390f35b3480156100cf575f5ffd5b506100d86101ad565b005b3480156100e5575f5ffd5b505f5460ff1660405190151581526020016100bb565b348015610106575f5ffd5b506100d8610115366004610f33565b61028d565b61012d610128366004610f65565b6106fe565b6040516100bb9190611004565b348015610145575f5ffd5b506100d8610154366004611067565b610980565b348015610164575f5ffd5b506100d8610a5d565b348015610178575f5ffd5b506001546100a7906001600160a01b031681565b348015610197575f5ffd5b505f5461010090046001600160a01b03166100a7565b5f54604051632474521560e21b81527fe7276a2a84d8de556657ec9cf93a55a7d66f096e529d0582ed08e9e2208b92b5600482018190523360248301529161010090046001600160a01b0316906391d1485490604401602060405180830381865afa15801561021e573d5f5f3e3d5ffd5b505050506040513d601f19601f820116820180604052508101906102429190611089565b6102825760405162461bcd60e51b815260206004820152600c60248201526b15539055551213d49256915160a21b60448201526064015b60405180910390fd5b61028a610b35565b50565b5f54604051632474521560e21b81527fc843f0b739b89f713c29d5349e88538222378b9e38ad958b090593af5e3d0fd9600482018190523360248301529161010090046001600160a01b0316906391d1485490604401602060405180830381865afa1580156102fe573d5f5f3e3d5ffd5b505050506040513d601f19601f820116820180604052508101906103229190611089565b61035d5760405162461bcd60e51b815260206004820152600c60248201526b15539055551213d49256915160a21b6044820152606401610279565b5f5460ff166106f85781156106f8575f336001600160a01b0316631083f7616040518163ffffffff1660e01b8152600401602060405180830381865afa1580156103a9573d5f5f3e3d5ffd5b505050506040513d601f19601f820116820180604052508101906103cd91906110a8565b90505f60015f9054906101000a90046001600160a01b03166001600160a01b03166387418e4a6040518163ffffffff1660e01b8152600401602060405180830381865afa158015610420573d5f5f3e3d5ffd5b505050506040513d601f19601f8201168201806040525081019061044491906110a8565b60405163114cb92f60e01b81526001600160a01b038481166004830152919091169063114cb92f90602401602060405180830381865afa15801561048a573d5f5f3e3d5ffd5b505050506040513d601f19601f820116820180604052508101906104ae9190611089565b905081816104db5760405163f6f24b8360e01b81526001600160a01b039091166004820152602401610279565b506001805460405163018b371760e41b81526001600160a01b03858116600483015260248201939093525f92909116906318b3717090604401602060405180830381865afa15801561052f573d5f5f3e3d5ffd5b505050506040513d601f19601f8201168201806040525081019061055391906110c3565b9050805f03610564575050506106f8565b6002546040516386644ac760e01b81526001600160a01b038581166004830152600160248301525f9283928392909116906386644ac7906044015f60405180830381865afa1580156105b8573d5f5f3e3d5ffd5b505050506040513d5f823e601f3d908101601f191682016040526105df91908101906111ac565b925092509250838810610602576105f7838586610b86565b5050505050506106f8565b805f03610614576105f783858a610b86565b5f610622848484888d610cf7565b90506001600160a01b0381166106495761063d84868b610b86565b505050505050506106f8565b604051627b8a6760e11b8152600481018a90523360248201526001600160a01b0382169062f714ce906044015f604051808303815f87803b15801561068c575f5ffd5b505af115801561069e573d5f5f3e3d5ffd5b50505050336001600160a01b031663d0e30db06040518163ffffffff1660e01b81526004015f604051808303815f87803b1580156106da575f5ffd5b505af11580156106ec573d5f5f3e3d5ffd5b50505050505050505050505b50505050565b5f54604051632474521560e21b81527f1a6838efa4183e08fe3607359d1259272af9d4716f65e1a7b5921f78fd5a3c6a6004820181905233602483015260609290916101009091046001600160a01b0316906391d1485490604401602060405180830381865afa158015610774573d5f5f3e3d5ffd5b505050506040513d601f19601f820116820180604052508101906107989190611089565b6107d35760405162461bcd60e51b815260206004820152600c60248201526b15539055551213d49256915160a21b6044820152606401610279565b8267ffffffffffffffff8111156107ec576107ec6110da565b60405190808252806020026020018201604052801561081f57816020015b606081526020019060019003908161080a5790505b5091505f5b83811015610978575f85858381811061083f5761083f61127e565b90506020028101906108519190611292565b61085f906020810190611067565b90505f8686848181106108745761087461127e565b90506020028101906108869190611292565b602001359050365f8888868181106108a0576108a061127e565b90506020028101906108b29190611292565b6108c09060408101906112b0565b915091505f5f856001600160a01b03168585856040516108e19291906112fa565b5f6040518083038185875af1925050503d805f811461091b576040519150601f19603f3d011682016040523d82523d5f602084013e610920565b606091505b509150915081819061094657604051634ad176bb60e01b81526004016102799190611309565b508089888151811061095a5761095a61127e565b60200260200101819052505050505050508080600101915050610824565b505092915050565b5f54604051632474521560e21b81527f1a6838efa4183e08fe3607359d1259272af9d4716f65e1a7b5921f78fd5a3c6a600482018190523360248301529161010090046001600160a01b0316906391d1485490604401602060405180830381865afa1580156109f1573d5f5f3e3d5ffd5b505050506040513d601f19601f82011682018060405250810190610a159190611089565b610a505760405162461bcd60e51b815260206004820152600c60248201526b15539055551213d49256915160a21b6044820152606401610279565b610a5982610e14565b5050565b5f54604051632474521560e21b81527ffcb9fcbfa83b897fb2d5cf4b58962164105c1e71489a37ef3ae0db3fdce576f6600482018190523360248301529161010090046001600160a01b0316906391d1485490604401602060405180830381865afa158015610ace573d5f5f3e3d5ffd5b505050506040513d601f19601f82011682018060405250810190610af29190611089565b610b2d5760405162461bcd60e51b815260206004820152600c60248201526b15539055551213d49256915160a21b6044820152606401610279565b61028a610e79565b610b3d610eb5565b5f805460ff191690557f5db9ee0a495bf2e6ff9c91a7834c1ba4fdd244a5e8aa4e537bd38aeae4b073aa335b6040516001600160a01b03909116815260200160405180910390a1565b5f5b8351811015610ca3575f848281518110610ba457610ba461127e565b60200260200101516001600160a01b03166371a973056040518163ffffffff1660e01b8152600401602060405180830381865afa158015610be7573d5f5f3e3d5ffd5b505050506040513d601f19601f82011682018060405250810190610c0b91906110c3565b90505f610c19848387610ed9565b90508015610c9957858381518110610c3357610c3361127e565b6020908102919091010151604051627b8a6760e11b8152600481018390523360248201526001600160a01b039091169062f714ce906044015f604051808303815f87803b158015610c82575f5ffd5b505af1158015610c94573d5f5f3e3d5ffd5b505050505b5050600101610b88565b50336001600160a01b031663d0e30db06040518163ffffffff1660e01b81526004015f604051808303815f87803b158015610cdc575f5ffd5b505af1158015610cee573d5f5f3e3d5ffd5b50505050505050565b5f6001600160ff1b035f19825b8851811015610dde575f898281518110610d2057610d2061127e565b602002602001015190505f816001600160a01b03166371a973056040518163ffffffff1660e01b8152600401602060405180830381865afa158015610d67573d5f5f3e3d5ffd5b505050506040513d601f19601f82011682018060405250810190610d8b91906110c3565b905086811015610d9c575050610dd6565b5f8988830302888a038c8681518110610db757610db761127e565b60200260200101510203905085811215610dd2578095508394505b5050505b600101610d04565b50805f1914610e0657878181518110610df957610df961127e565b6020026020010151610e08565b5f5b98975050505050505050565b5f80546001600160a01b0383811661010081810274ffffffffffffffffffffffffffffffffffffffff0019851617855560405193049190911692909183917f9209b7c8c06dcfd261686a663e7c55989337b18d59da5433c6f2835fb697092091a35050565b610e81610efc565b5f805460ff191660011790557f62e78cea01bee320cd4e420270b5ea74000d11b0c9f74754ebdbfc544b05a258610b693390565b5f5460ff16610ed757604051638dfc202b60e01b815260040160405180910390fd5b565b5f825f190484118302158202610eed575f5ffd5b50910281810615159190040190565b5f5460ff1615610ed75760405163d93c066560e01b815260040160405180910390fd5b6001600160a01b038116811461028a575f5ffd5b5f5f5f60608486031215610f45575f5ffd5b8335610f5081610f1f565b95602085013595506040909401359392505050565b5f5f60208385031215610f76575f5ffd5b823567ffffffffffffffff811115610f8c575f5ffd5b8301601f81018513610f9c575f5ffd5b803567ffffffffffffffff811115610fb2575f5ffd5b8560208260051b8401011115610fc6575f5ffd5b6020919091019590945092505050565b5f81518084528060208401602086015e5f602082860101526020601f19601f83011685010191505092915050565b5f602082016020835280845180835260408501915060408160051b8601019250602086015f5b8281101561105b57603f19878603018452611046858351610fd6565b9450602093840193919091019060010161102a565b50929695505050505050565b5f60208284031215611077575f5ffd5b813561108281610f1f565b9392505050565b5f60208284031215611099575f5ffd5b81518015158114611082575f5ffd5b5f602082840312156110b8575f5ffd5b815161108281610f1f565b5f602082840312156110d3575f5ffd5b5051919050565b634e487b7160e01b5f52604160045260245ffd5b604051601f8201601f1916810167ffffffffffffffff81118282101715611117576111176110da565b604052919050565b5f67ffffffffffffffff821115611138576111386110da565b5060051b60200190565b5f82601f830112611151575f5ffd5b815161116461115f8261111f565b6110ee565b8082825260208201915060208360051b860101925085831115611185575f5ffd5b602085015b838110156111a257805183526020928301920161118a565b5095945050505050565b5f5f5f606084860312156111be575f5ffd5b835167ffffffffffffffff8111156111d4575f5ffd5b8401601f810186136111e4575f5ffd5b80516111f261115f8261111f565b8082825260208201915060208360051b850101925088831115611213575f5ffd5b6020840193505b8284101561123e57835161122d81610f1f565b82526020938401939091019061121a565b80965050505050602084015167ffffffffffffffff81111561125e575f5ffd5b61126a86828701611142565b604095909501519396949550929392505050565b634e487b7160e01b5f52603260045260245ffd5b5f8235605e198336030181126112a6575f5ffd5b9190910192915050565b5f5f8335601e198436030181126112c5575f5ffd5b83018035915067ffffffffffffffff8211156112df575f5ffd5b6020019150368190038213156112f3575f5ffd5b9250929050565b818382375f9101908152919050565b602081525f6110826020830184610fd656fea26469706673582212200d1a170227b0e9acfc41b301f5ecf11ac228c0d9f427793c51d8048604b7a71e64736f6c634300081c0033","linkReferences":{}},"methodIdentifiers":{"accounting()":"9624e83e","allocationVoting()":"29e20e90","beforeRedeem(address,uint256,uint256)":"6aea520c","core()":"f2f4eb26","emergencyAction((address,uint256,bytes)[])":"7df3927e","pause()":"8456cb59","paused()":"5c975abb","setCore(address)":"80009630","unpause()":"3f4ba83a"},"id":88}