{"abi":[{"type":"function","name":"price","inputs":[],"outputs":[{"name":"","type":"uint256","internalType":"uint256"}],"stateMutability":"view"},{"type":"function","name":"sUSDe","inputs":[],"outputs":[{"name":"","type":"address","internalType":"address"}],"stateMutability":"view"}],"bytecode":{"object":"0x6080604052348015600e575f5ffd5b506101938061001c5f395ff3fe608060405234801561000f575f5ffd5b5060043610610034575f3560e01c8063a035b1fe14610038578063e0d05d3914610053575b5f5ffd5b610040610093565b6040519081526020015b60405180910390f35b61006e739d39a5de30e57443bff2a8307a4256c8797a349781565b60405173ffffffffffffffffffffffffffffffffffffffff909116815260200161004a565b6040516303d1689d60e11b8152620f424060048201525f90739d39a5de30e57443bff2a8307a4256c8797a3497906307a2d13a90602401602060405180830381865afa1580156100e5573d5f5f3e3d5ffd5b505050506040513d601f19601f820116820180604052508101906101099190610127565b610122906ec097ce7bc90715b34b9f100000000061013e565b905090565b5f60208284031215610137575f5ffd5b5051919050565b5f8261015857634e487b7160e01b5f52601260045260245ffd5b50049056fea2646970667358221220596dd149e44522dd3b66084a01b94f968ad1db6865f91ed805e2082450df3d7c64736f6c634300081c0033","linkReferences":{}},"methodIdentifiers":{"price()":"a035b1fe","sUSDe()":"e0d05d39"},"id":73}