{"abi":[{"type":"constructor","inputs":[{"name":"_core","type":"address","internalType":"address"}],"stateMutability":"nonpayable"},{"type":"function","name":"addFarms","inputs":[{"name":"_type","type":"uint256","internalType":"uint256"},{"name":"_list","type":"address[]","internalType":"address[]"}],"outputs":[],"stateMutability":"nonpayable"},{"type":"function","name":"core","inputs":[],"outputs":[{"name":"","type":"address","internalType":"contract InfiniFiCore"}],"stateMutability":"view"},{"type":"function","name":"disableAsset","inputs":[{"name":"_asset","type":"address","internalType":"address"}],"outputs":[],"stateMutability":"nonpayable"},{"type":"function","name":"emergencyAction","inputs":[{"name":"calls","type":"tuple[]","internalType":"struct CoreControlled.Call[]","components":[{"name":"target","type":"address","internalType":"address"},{"name":"value","type":"uint256","internalType":"uint256"},{"name":"callData","type":"bytes","internalType":"bytes"}]}],"outputs":[{"name":"returnData","type":"bytes[]","internalType":"bytes[]"}],"stateMutability":"payable"},{"type":"function","name":"enableAsset","inputs":[{"name":"_asset","type":"address","internalType":"address"}],"outputs":[],"stateMutability":"nonpayable"},{"type":"function","name":"getAssetFarms","inputs":[{"name":"_asset","type":"address","internalType":"address"}],"outputs":[{"name":"","type":"address[]","internalType":"address[]"}],"stateMutability":"view"},{"type":"function","name":"getAssetTypeFarms","inputs":[{"name":"_asset","type":"address","internalType":"address"},{"name":"_type","type":"uint256","internalType":"uint256"}],"outputs":[{"name":"","type":"address[]","internalType":"address[]"}],"stateMutability":"view"},{"type":"function","name":"getEnabledAssets","inputs":[],"outputs":[{"name":"","type":"address[]","internalType":"address[]"}],"stateMutability":"view"},{"type":"function","name":"getFarms","inputs":[],"outputs":[{"name":"","type":"address[]","internalType":"address[]"}],"stateMutability":"view"},{"type":"function","name":"getTypeFarms","inputs":[{"name":"_type","type":"uint256","internalType":"uint256"}],"outputs":[{"name":"","type":"address[]","internalType":"address[]"}],"stateMutability":"view"},{"type":"function","name":"isAssetEnabled","inputs":[{"name":"_asset","type":"address","internalType":"address"}],"outputs":[{"name":"","type":"bool","internalType":"bool"}],"stateMutability":"view"},{"type":"function","name":"isFarm","inputs":[{"name":"_farm","type":"address","internalType":"address"}],"outputs":[{"name":"","type":"bool","internalType":"bool"}],"stateMutability":"view"},{"type":"function","name":"isFarmOfAsset","inputs":[{"name":"_farm","type":"address","internalType":"address"},{"name":"_asset","type":"address","internalType":"address"}],"outputs":[{"name":"","type":"bool","internalType":"bool"}],"stateMutability":"view"},{"type":"function","name":"isFarmOfType","inputs":[{"name":"_farm","type":"address","internalType":"address"},{"name":"_type","type":"uint256","internalType":"uint256"}],"outputs":[{"name":"","type":"bool","internalType":"bool"}],"stateMutability":"view"},{"type":"function","name":"pause","inputs":[],"outputs":[],"stateMutability":"nonpayable"},{"type":"function","name":"paused","inputs":[],"outputs":[{"name":"","type":"bool","internalType":"bool"}],"stateMutability":"view"},{"type":"function","name":"removeFarms","inputs":[{"name":"_type","type":"uint256","internalType":"uint256"},{"name":"_list","type":"address[]","internalType":"address[]"}],"outputs":[],"stateMutability":"nonpayable"},{"type":"function","name":"setCore","inputs":[{"name":"newCore","type":"address","internalType":"address"}],"outputs":[],"stateMutability":"nonpayable"},{"type":"function","name":"unpause","inputs":[],"outputs":[],"stateMutability":"nonpayable"},{"type":"event","name":"AssetDisabled","inputs":[{"name":"timestamp","type":"uint256","indexed":true,"internalType":"uint256"},{"name":"asset","type":"address","indexed":false,"internalType":"address"}],"anonymous":false},{"type":"event","name":"AssetEnabled","inputs":[{"name":"timestamp","type":"uint256","indexed":true,"internalType":"uint256"},{"name":"asset","type":"address","indexed":false,"internalType":"address"}],"anonymous":false},{"type":"event","name":"CoreUpdate","inputs":[{"name":"oldCore","type":"address","indexed":true,"internalType":"address"},{"name":"newCore","type":"address","indexed":true,"internalType":"address"}],"anonymous":false},{"type":"event","name":"FarmsAdded","inputs":[{"name":"timestamp","type":"uint256","indexed":true,"internalType":"uint256"},{"name":"farmType","type":"uint256","indexed":false,"internalType":"uint256"},{"name":"farms","type":"address[]","indexed":true,"internalType":"address[]"}],"anonymous":false},{"type":"event","name":"FarmsRemoved","inputs":[{"name":"timestamp","type":"uint256","indexed":true,"internalType":"uint256"},{"name":"farmType","type":"uint256","indexed":false,"internalType":"uint256"},{"name":"farms","type":"address[]","indexed":true,"internalType":"address[]"}],"anonymous":false},{"type":"event","name":"Paused","inputs":[{"name":"account","type":"address","indexed":false,"internalType":"address"}],"anonymous":false},{"type":"event","name":"Unpaused","inputs":[{"name":"account","type":"address","indexed":false,"internalType":"address"}],"anonymous":false},{"type":"error","name":"AssetAlreadyEnabled","inputs":[{"name":"asset","type":"address","internalType":"address"}]},{"type":"error","name":"AssetNotEnabled","inputs":[{"name":"farm","type":"address","internalType":"address"},{"name":"asset","type":"address","internalType":"address"}]},{"type":"error","name":"AssetNotFound","inputs":[{"name":"asset","type":"address","internalType":"address"}]},{"type":"error","name":"EnforcedPause","inputs":[]},{"type":"error","name":"ExpectedPause","inputs":[]},{"type":"error","name":"FarmAlreadyAdded","inputs":[{"name":"farm","type":"address","internalType":"address"}]},{"type":"error","name":"FarmNotFound","inputs":[{"name":"farm","type":"address","internalType":"address"}]},{"type":"error","name":"UnderlyingCallReverted","inputs":[{"name":"returnData","type":"bytes","internalType":"bytes"}]}],"bytecode":{"object":"0x6080604052348015600e575f5ffd5b50604051611c02380380611c02833981016040819052602b916053565b5f80546001600160a01b03909216610100026001600160a81b0319909216919091179055607e565b5f602082840312156062575f5ffd5b81516001600160a01b03811681146077575f5ffd5b9392505050565b611b778061008b5f395ff3fe60806040526004361061010f575f3560e01c8063708075281161009d5780639dc4ac8a116100625780639dc4ac8a146102c4578063ae21b42a146102d8578063bf0f013e146102f7578063c108e2c414610316578063f2f4eb2614610335575f5ffd5b806370807528146102335780637df3927e1461025257806380009630146102725780638456cb591461029157806388f29083146102a5575f5ffd5b80633f4ba83a116100e35780633f4ba83a146101ac57806356d2ed05146101c05780635c975abb146101df57806363467929146101f5578063637012c714610214575f5ffd5b8062db564514610113578063114cb92f146101485780632aef4024146101775780633b12708814610198575b5f5ffd5b34801561011e575f5ffd5b5061013261012d3660046117b6565b610369565b60405161013f91906117e0565b60405180910390f35b348015610153575f5ffd5b5061016761016236600461182b565b6103a0565b604051901515815260200161013f565b348015610182575f5ffd5b5061019661019136600461182b565b6103ac565b005b3480156101a3575f5ffd5b506101326104fb565b3480156101b7575f5ffd5b5061019661050c565b3480156101cb575f5ffd5b506101966101da36600461188e565b6105e7565b3480156101ea575f5ffd5b505f5460ff16610167565b348015610200575f5ffd5b5061019661020f36600461188e565b61071a565b34801561021f575f5ffd5b5061016761022e36600461182b565b61083f565b34801561023e575f5ffd5b5061019661024d36600461182b565b61084b565b6102656102603660046118d6565b61098d565b60405161013f9190611943565b34801561027d575f5ffd5b5061019661028c36600461182b565b610c0f565b34801561029c575f5ffd5b50610196610cec565b3480156102b0575f5ffd5b506101676102bf3660046119a6565b610dc4565b3480156102cf575f5ffd5b50610132610de5565b3480156102e3575f5ffd5b506101326102f236600461182b565b610df1565b348015610302575f5ffd5b506101676103113660046117b6565b610e14565b348015610321575f5ffd5b506101326103303660046119dd565b610e2b565b348015610340575f5ffd5b505f5461010090046001600160a01b03166040516001600160a01b03909116815260200161013f565b6001600160a01b0382165f908152600760209081526040808320848452909152902060609061039790610e40565b90505b92915050565b5f61039a600183610e53565b5f54604051632474521560e21b81527f1a6838efa4183e08fe3607359d1259272af9d4716f65e1a7b5921f78fd5a3c6a600482018190523360248301529161010090046001600160a01b0316906391d1485490604401602060405180830381865afa15801561041d573d5f5f3e3d5ffd5b505050506040513d601f19601f8201168201806040525081019061044191906119f4565b6104815760405162461bcd60e51b815260206004820152600c60248201526b15539055551213d49256915160a21b60448201526064015b60405180910390fd5b61048c600183610e74565b82906104b757604051630b23adaf60e31b81526001600160a01b039091166004820152602401610478565b506040516001600160a01b038316815242907faa5546990a389e40b77b177c187d29e7a10fcba5151f6872026b18dd6acd5771906020015b60405180910390a25050565b60606105076001610e40565b905090565b5f54604051632474521560e21b81527fe7276a2a84d8de556657ec9cf93a55a7d66f096e529d0582ed08e9e2208b92b5600482018190523360248301529161010090046001600160a01b0316906391d1485490604401602060405180830381865afa15801561057d573d5f5f3e3d5ffd5b505050506040513d601f19601f820116820180604052508101906105a191906119f4565b6105dc5760405162461bcd60e51b815260206004820152600c60248201526b15539055551213d49256915160a21b6044820152606401610478565b6105e4610e88565b50565b5f54604051632474521560e21b81527f3947e2f542c6c46c543fa4f79cbd1e27fea37ed249bc3caf992570d19123642e600482018190523360248301529161010090046001600160a01b0316906391d1485490604401602060405180830381865afa158015610658573d5f5f3e3d5ffd5b505050506040513d601f19601f8201168201806040525081019061067c91906119f4565b6106b75760405162461bcd60e51b815260206004820152600c60248201526b15539055551213d49256915160a21b6044820152606401610478565b6106c2848484610ed9565b82826040516106d2929190611a13565b6040518091039020427f9d7ba26179db10328451ca90db81dc86ffb9a38ca0debbad475c8ac4d706ccb28660405161070c91815260200190565b60405180910390a350505050565b5f54604051632474521560e21b81527f3947e2f542c6c46c543fa4f79cbd1e27fea37ed249bc3caf992570d19123642e600482018190523360248301529161010090046001600160a01b0316906391d1485490604401602060405180830381865afa15801561078b573d5f5f3e3d5ffd5b505050506040513d601f19601f820116820180604052508101906107af91906119f4565b6107ea5760405162461bcd60e51b815260206004820152600c60248201526b15539055551213d49256915160a21b6044820152606401610478565b6107f5848484611232565b8282604051610805929190611a13565b6040518091039020427f303b0dbc7bc990c4455cd5ef9698765c5516155b53fe354acba5ca5c6f1b01b68660405161070c91815260200190565b5f61039a600383610e53565b5f54604051632474521560e21b81527f1a6838efa4183e08fe3607359d1259272af9d4716f65e1a7b5921f78fd5a3c6a600482018190523360248301529161010090046001600160a01b0316906391d1485490604401602060405180830381865afa1580156108bc573d5f5f3e3d5ffd5b505050506040513d601f19601f820116820180604052508101906108e091906119f4565b61091b5760405162461bcd60e51b815260206004820152600c60248201526b15539055551213d49256915160a21b6044820152606401610478565b61092660018361151e565b82906109515760405163067c787f60e41b81526001600160a01b039091166004820152602401610478565b506040516001600160a01b038316815242907f36c12b9b4d20f73189838a9c40ee0af4582f9431846c881b42cfd809eeca78b3906020016104ef565b5f54604051632474521560e21b81527f1a6838efa4183e08fe3607359d1259272af9d4716f65e1a7b5921f78fd5a3c6a6004820181905233602483015260609290916101009091046001600160a01b0316906391d1485490604401602060405180830381865afa158015610a03573d5f5f3e3d5ffd5b505050506040513d601f19601f82011682018060405250810190610a2791906119f4565b610a625760405162461bcd60e51b815260206004820152600c60248201526b15539055551213d49256915160a21b6044820152606401610478565b8267ffffffffffffffff811115610a7b57610a7b611a49565b604051908082528060200260200182016040528015610aae57816020015b6060815260200190600190039081610a995790505b5091505f5b83811015610c07575f858583818110610ace57610ace611a5d565b9050602002810190610ae09190611a71565b610aee90602081019061182b565b90505f868684818110610b0357610b03611a5d565b9050602002810190610b159190611a71565b602001359050365f888886818110610b2f57610b2f611a5d565b9050602002810190610b419190611a71565b610b4f906040810190611a8f565b915091505f5f856001600160a01b0316858585604051610b70929190611ad2565b5f6040518083038185875af1925050503d805f8114610baa576040519150601f19603f3d011682016040523d82523d5f602084013e610baf565b606091505b5091509150818190610bd557604051634ad176bb60e01b81526004016104789190611ae1565b5080898881518110610be957610be9611a5d565b60200260200101819052505050505050508080600101915050610ab3565b505092915050565b5f54604051632474521560e21b81527f1a6838efa4183e08fe3607359d1259272af9d4716f65e1a7b5921f78fd5a3c6a600482018190523360248301529161010090046001600160a01b0316906391d1485490604401602060405180830381865afa158015610c80573d5f5f3e3d5ffd5b505050506040513d601f19601f82011682018060405250810190610ca491906119f4565b610cdf5760405162461bcd60e51b815260206004820152600c60248201526b15539055551213d49256915160a21b6044820152606401610478565b610ce882611532565b5050565b5f54604051632474521560e21b81527ffcb9fcbfa83b897fb2d5cf4b58962164105c1e71489a37ef3ae0db3fdce576f6600482018190523360248301529161010090046001600160a01b0316906391d1485490604401602060405180830381865afa158015610d5d573d5f5f3e3d5ffd5b505050506040513d601f19601f82011682018060405250810190610d8191906119f4565b610dbc5760405162461bcd60e51b815260206004820152600c60248201526b15539055551213d49256915160a21b6044820152606401610478565b6105e4611597565b6001600160a01b0381165f9081526006602052604081206103979084610e53565b60606105076003610e40565b6001600160a01b0381165f90815260066020526040902060609061039a90610e40565b5f8181526005602052604081206103979084610e53565b5f81815260056020526040902060609061039a905b60605f610e4c836115d3565b9392505050565b6001600160a01b0381165f9081526001830160205260408120541515610397565b5f610397836001600160a01b03841661162c565b610e90611678565b5f805460ff191690557f5db9ee0a495bf2e6ff9c91a7834c1ba4fdd244a5e8aa4e537bd38aeae4b073aa335b6040516001600160a01b03909116815260200160405180910390a1565b5f5b8181101561122c575f838383818110610ef657610ef6611a5d565b9050602002016020810190610f0b919061182b565b6001600160a01b0316631083f7616040518163ffffffff1660e01b8152600401602060405180830381865afa158015610f46573d5f5f3e3d5ffd5b505050506040513d601f19601f82011682018060405250810190610f6a9190611af3565b9050610f77600182610e53565b848484818110610f8957610f89611a5d565b9050602002016020810190610f9e919061182b565b829091610fd15760405163d057855b60e01b81526001600160a01b03928316600482015291166024820152604401610478565b5050611005848484818110610fe857610fe8611a5d565b9050602002016020810190610ffd919061182b565b600390610e74565b84848481811061101757611017611a5d565b905060200201602081019061102c919061182b565b906110565760405163baa7626f60e01b81526001600160a01b039091166004820152602401610478565b5061109484848481811061106c5761106c611a5d565b9050602002016020810190611081919061182b565b5f87815260056020526040902090610e74565b8484848181106110a6576110a6611a5d565b90506020020160208101906110bb919061182b565b906110e55760405163baa7626f60e01b81526001600160a01b039091166004820152602401610478565b5061112d8484848181106110fb576110fb611a5d565b9050602002016020810190611110919061182b565b6001600160a01b0383165f90815260066020526040902090610e74565b84848481811061113f5761113f611a5d565b9050602002016020810190611154919061182b565b9061117e5760405163baa7626f60e01b81526001600160a01b039091166004820152602401610478565b506111d184848481811061119457611194611a5d565b90506020020160208101906111a9919061182b565b6001600160a01b0383165f9081526007602090815260408083208a8452909152902090610e74565b8484848181106111e3576111e3611a5d565b90506020020160208101906111f8919061182b565b906112225760405163baa7626f60e01b81526001600160a01b039091166004820152602401610478565b5050600101610edb565b50505050565b5f5b8181101561122c575f83838381811061124f5761124f611a5d565b9050602002016020810190611264919061182b565b6001600160a01b0316631083f7616040518163ffffffff1660e01b8152600401602060405180830381865afa15801561129f573d5f5f3e3d5ffd5b505050506040513d601f19601f820116820180604052508101906112c39190611af3565b90506112f78484848181106112da576112da611a5d565b90506020020160208101906112ef919061182b565b60039061151e565b84848481811061130957611309611a5d565b905060200201602081019061131e919061182b565b906113485760405163017cd9b960e01b81526001600160a01b039091166004820152602401610478565b5061138684848481811061135e5761135e611a5d565b9050602002016020810190611373919061182b565b5f8781526005602052604090209061151e565b84848481811061139857611398611a5d565b90506020020160208101906113ad919061182b565b906113d75760405163017cd9b960e01b81526001600160a01b039091166004820152602401610478565b5061141f8484848181106113ed576113ed611a5d565b9050602002016020810190611402919061182b565b6001600160a01b0383165f9081526006602052604090209061151e565b84848481811061143157611431611a5d565b9050602002016020810190611446919061182b565b906114705760405163017cd9b960e01b81526001600160a01b039091166004820152602401610478565b506114c384848481811061148657611486611a5d565b905060200201602081019061149b919061182b565b6001600160a01b0383165f9081526007602090815260408083208a845290915290209061151e565b8484848181106114d5576114d5611a5d565b90506020020160208101906114ea919061182b565b906115145760405163017cd9b960e01b81526001600160a01b039091166004820152602401610478565b5050600101611234565b5f610397836001600160a01b03841661169c565b5f80546001600160a01b0383811661010081810274ffffffffffffffffffffffffffffffffffffffff0019851617855560405193049190911692909183917f9209b7c8c06dcfd261686a663e7c55989337b18d59da5433c6f2835fb697092091a35050565b61159f61177f565b5f805460ff191660011790557f62e78cea01bee320cd4e420270b5ea74000d11b0c9f74754ebdbfc544b05a258610ebc3390565b6060815f0180548060200260200160405190810160405280929190818152602001828054801561162057602002820191905f5260205f20905b81548152602001906001019080831161160c575b50505050509050919050565b5f81815260018301602052604081205461167157508154600181810184555f84815260208082209093018490558454848252828601909352604090209190915561039a565b505f61039a565b5f5460ff1661169a57604051638dfc202b60e01b815260040160405180910390fd5b565b5f8181526001830160205260408120548015611776575f6116be600183611b0e565b85549091505f906116d190600190611b0e565b9050808214611730575f865f0182815481106116ef576116ef611a5d565b905f5260205f200154905080875f01848154811061170f5761170f611a5d565b5f918252602080832090910192909255918252600188019052604090208390555b855486908061174157611741611b2d565b600190038181905f5260205f20015f90559055856001015f8681526020019081526020015f205f90556001935050505061039a565b5f91505061039a565b5f5460ff161561169a5760405163d93c066560e01b815260040160405180910390fd5b6001600160a01b03811681146105e4575f5ffd5b5f5f604083850312156117c7575f5ffd5b82356117d2816117a2565b946020939093013593505050565b602080825282518282018190525f918401906040840190835b818110156118205783516001600160a01b03168352602093840193909201916001016117f9565b509095945050505050565b5f6020828403121561183b575f5ffd5b8135610e4c816117a2565b5f5f83601f840112611856575f5ffd5b50813567ffffffffffffffff81111561186d575f5ffd5b6020830191508360208260051b8501011115611887575f5ffd5b9250929050565b5f5f5f604084860312156118a0575f5ffd5b83359250602084013567ffffffffffffffff8111156118bd575f5ffd5b6118c986828701611846565b9497909650939450505050565b5f5f602083850312156118e7575f5ffd5b823567ffffffffffffffff8111156118fd575f5ffd5b61190985828601611846565b90969095509350505050565b5f81518084528060208401602086015e5f602082860101526020601f19601f83011685010191505092915050565b5f602082016020835280845180835260408501915060408160051b8601019250602086015f5b8281101561199a57603f19878603018452611985858351611915565b94506020938401939190910190600101611969565b50929695505050505050565b5f5f604083850312156119b7575f5ffd5b82356119c2816117a2565b915060208301356119d2816117a2565b809150509250929050565b5f602082840312156119ed575f5ffd5b5035919050565b5f60208284031215611a04575f5ffd5b81518015158114610e4c575f5ffd5b5f8184825b85811015611820578135611a2b816117a2565b6001600160a01b031683526020928301929190910190600101611a18565b634e487b7160e01b5f52604160045260245ffd5b634e487b7160e01b5f52603260045260245ffd5b5f8235605e19833603018112611a85575f5ffd5b9190910192915050565b5f5f8335601e19843603018112611aa4575f5ffd5b83018035915067ffffffffffffffff821115611abe575f5ffd5b602001915036819003821315611887575f5ffd5b818382375f9101908152919050565b602081525f6103976020830184611915565b5f60208284031215611b03575f5ffd5b8151610e4c816117a2565b8181038181111561039a57634e487b7160e01b5f52601160045260245ffd5b634e487b7160e01b5f52603160045260245ffdfea2646970667358221220b83759e86300a04d144a11d352b23043ac360e32f4cf86892b9701ef89fc4b9864736f6c634300081c0033","linkReferences":{}},"methodIdentifiers":{"addFarms(uint256,address[])":"56d2ed05","core()":"f2f4eb26","disableAsset(address)":"70807528","emergencyAction((address,uint256,bytes)[])":"7df3927e","enableAsset(address)":"2aef4024","getAssetFarms(address)":"ae21b42a","getAssetTypeFarms(address,uint256)":"00db5645","getEnabledAssets()":"3b127088","getFarms()":"9dc4ac8a","getTypeFarms(uint256)":"c108e2c4","isAssetEnabled(address)":"114cb92f","isFarm(address)":"637012c7","isFarmOfAsset(address,address)":"88f29083","isFarmOfType(address,uint256)":"bf0f013e","pause()":"8456cb59","paused()":"5c975abb","removeFarms(uint256,address[])":"63467929","setCore(address)":"80009630","unpause()":"3f4ba83a"},"id":82}